:020000040800F2
:1000000080040020D9010008BF120008C5110008B3
:10001000BD12000811030008EB15000800000000E5
:100020000000000000000000000000000D140008A7
:100030001303000800000000951300080F140008C7
:10004000F3010008F3010008F3010008F3010008C0
:10005000F3010008F3010008F3010008F3010008B0
:10006000F3010008F3010008F3010008F3010008A0
:10007000F3010008F3010008F3010008F301000890
:10008000F3010008F3010008F3010008F301000880
:10009000F3010008F3010008F3010008F301000870
:1000A000F3010008F3010008F3010008F301000860
:1000B000F3010008F3010008F3010008F301000850
:1000C000F3010008F3010008F3010008F301000840
:1000D000F3010008F3010008F3010008F301000830
:1000E000F3010008F3010008F3010008F301000820
:1000F000F3010008F3010008F3010008F301000810
:1001000000000000F3010008F3010008F3010008FB
:100110000000000000000000F3010008F3010008E7
:10012000F3010008F3010008F3010008F3010008DF
:10013000F3010008F3010008F3010008F3010008CF
:10014000F3010008F3010008F3010008F3010008BF
:10015000F3010008F3010008F3010008F3010008AF
:10016000F3010008F3010008000000000000000097
:10017000000000000000000000000000000000007F
:10018000F3010008F3010008000000000000000077
:10019000F3010008F3010008000000000000000067
:1001A000000000000000000000000000000000004F
:1001B000F30100080000000000000000F301000847
:1001C000F3010008DFF80CD000F090F80048004779
:1001D000B9160008800400200648804706480047FA
:1001E000FEE7FEE7FEE7FEE7FEE7FEE7FEE7FEE7E7
:1001F000FEE7FEE7B9140008C50100082DE9F05F2D
:100200000546002092469B46884606468146402485
:100210001BE0284641464746224600F057F8534621
:100220005A46C01A914110D311461846224600F092
:100230003EF82D1A67EB01084F46224601200021A7
:1002400000F035F817EB00094E41201EA4F101041F
:10025000DFDC484631462A464346BDE8F09FD2B22D
:1002600001E000F8012B491EFBD270470022F6E79F
:1002700010B513460A4604461946FFF7F0FF20461C
:1002800010BD30B50B46014600202022012409E0B4
:1002900021FA02F59D4205D303FA02F5491B04FA3F
:1002A00002F52844151EA2F10102F1DC30BD202A1E
:1002B00004DB203A00FA02F1002070479140C2F1BD
:1002C000200320FA03F3194390407047202A04DBEF
:1002D000203A21FA02F00021704721FA02F3D040BF
:1002E000C2F120029140084319467047064C074D61
:1002F00006E0E06840F0010394E8070098471034F6
:10030000AC42F6D3FFF762FF301B0008501B000819
:10031000FEE77047EFF3108072B6FEE72DE9FC4F61
:10032000614A07234FF0000B4FF0010A4FF0000E17
:1003300090425E4A08BF0323009300259146102D8A
:1003400008BFBDE8FC8F0B680AFA05F6334200F0DF
:10035000A48003224C6802FA0EF36FEA030C04F047
:100360000303A3F10108B8F1010F12D8876807EA67
:100370000C08CF6807FA0EF747EA08078760C4F34E
:10038000001707FA05F84768B74347EA08074760C8
:1003900003E0032B01D103231DE0C7688A6807EA45
:1003A0000C0702FA0EF23A43022BC26013D16FF02F
:1003B00003040BF01C020F2304EA55049340044489
:1003C000276A27EA03030F6907FA02F21A43226237
:1003D0004C6804F0030303FA0EF2036803EA0C030B
:1003E0001A4314F4403F026057D00024314BA9F562
:1003F0007E7801941A6842F480421A601A684B466B
:1004000002F480420192019A25F0030258F802C0DA
:10041000294A904209D0294A904205D0284A009C96
:10042000904208BF022400E001240BF00C020F23CD
:1004300003FA02F704FA02F2AB082CEA0707CC46EB
:100440003A4348F82320D9F808204C6842EA0603CA
:10045000E70258BF22EA0603154AC9F80830A70286
:100460009046126842EA060358BF22EA0603C8F81B
:100470000030A703D9F8042042EA060358BF22EA55
:100480000603C9F80430E403D9F8002042EA060361
:1004900058BF22EA0603C9F800300BF1040B0EF135
:1004A000020E01354BE700BF000C0240003C01404A
:1004B0000C3C01404438024000000240000402406D
:1004C000000802400069084018BF012070474269D7
:1004D00002EA0103914341EA034181617047002A26
:1004E00008BF09048161704705480068704700BF74
:1004F0001F48034900780A6810440860704700BF2D
:100500007800002080B50B48016841F4007101605B
:10051000016841F480610160016841F4807101600B
:10052000032000F06BF80F2000F006F800F024F82C
:10053000002080BD003C024070B50D4E04464FF4D3
:100540007A713078B1FBF0F00A490968B1FBF0F03C
:1005500000F08CFD01250F2C08D838B94FF0FF3082
:1005600021460022002500F023F87460284670BD63
:10057000040000200C00002082B000200B490190F4
:100580004A6842F480424A604A6802F4804201921A
:10059000019A0090086840F080500860086800F0F8
:1005A00080500090009802B0704700BF4038024071
:1005B000F0B5184B4FF0FF361C68C4F30224E51E5B
:1005C00084F0070438BF002506FA05F7BA43042C67
:1005D00028BF042406FA04F4A14300F00F04A94044
:1005E000043C1143044A234409010244002848BF43
:1005F00003F10C021170F0BD00E400E005494FF674
:10060000FF030A681A4060F30A2203481043086097
:10061000704700BF0CED00E00000FA052DE9FC4139
:1006200004460068C44EC10702D14FF000080BE039
:100630006169D6F88C2022F0C0620A43B1FA81F1D8
:100640004FEA5118C6F88C2081070BD5A169D6F85E
:100650008C2022F0C0520A43C6F88C20002908BF23
:100660004FF0010801073BD500206D4F00F034FE2C
:10067000386840F4807000F049FE05463868C005CF
:1006800005D4FFF731FF401B0228F7D99DE0306FFA
:1006900010F4407011D0E16901F4407188420CD02F
:1006A000306F604901220A60002220F440700A6025
:1006B0003067306FC00740F0A3802068E1695A4A74
:1006C000B3680A4001F4407523F4F8136FF31F3147
:1006D000B5F5407F08BF1343B360326F11433167F4
:1006E000410705D594F838004E49C1F8A0032068A9
:1006F000C10607D5616AD6F8942022F4400211435E
:10070000C6F8941081060CD5A16AD6F8942022F080
:1007100000620A43C6F89420B1F1006F08BF4FF0A1
:100720000108410607D5216AD6F8942022F08052AC
:100730001143C6F89410B8F1000F01D1802848D1B8
:100740003A4F002000F0E2FD05463068000105D573
:10075000FFF7CAFE401B0228F7D936E0606B31492B
:10076000C1F898022068C10701D0616989B1810789
:1007700001D5A16969B1810603D5A16AB1F1006F04
:1007800007D041060FD5216A69B9A16AB1F1006F9E
:1007900009D1251D2ECD41EA821141EA036141EACA
:1007A0000571C6F88410000603D5231D0FCB00F099
:1007B000BDFD012000F0AAFD05463068000107D408
:1007C000FFF792FE401B0228F7D90320BDE8FC8109
:1007D0002068C10507D5E16AD6F88C2022F00042D6
:1007E0001143C6F88C10800507D5206BD6F88C1005
:1007F00021F400410843C6F88C000020BDE8FC81CC
:10080000FFF772FE054641F28837306F80073FF5EB
:1008100054AFFFF769FE411B0320B942F5D9EDE75C
:1008200000700040400E4742FFFCFF0F6800474247
:100830002DE9F041002857D03F4B04468846D3F8B5
:10084000000400F00700884204D283F8008400F01E
:100850003DFD49D12068810711D5410703D599682D
:1008600041F4E0519960010703D5996841F4604172
:100870009960A1689A6822F0F00211439960C0075C
:100880002BD100F023FD04D983F8008400F01EFD75
:100890002AD12068410705D5E1689A6822F4E05220
:1008A00011439960000706D52069996821F46041D9
:1008B00041EAC00098601C4600F05EF8A1681F4A3B
:1008C000C1F30311515CC840284908601C48006806
:1008D000FFF732FE0020BDE8F0816068811E02292A
:1008E00005D21968890107D40120BDE8F0810128EB
:1008F0001DD119688903F7D599681D4621F00301B8
:1009000008439860FFF7F0FD064641F288376068BB
:10091000A9682B4601F00C01B1EB800FB1D0FFF7B5
:10092000E3FD801BB842F2D90320BDE8F0811968CD
:100930008907D9D5E0E700BF00380240161B000840
:100940000800002009480A490A4A00680968C1F3FA
:100950008221515CC840704704480549054A006837
:100960000968C1F34231515CC84070470C00002057
:1009700008380240261B000810B5134C606800F0D0
:100980000C011248082903D004291CD1104810BDBD
:100990002168236801F03F0221685B02C1F38811DE
:1009A00005D4A1FB00010023FFF728FC03E0084861
:1009B0004843B0FBF2F021680222C1F3014102EB8F
:1009C0004101B0FBF1F010BD043802400024F400F6
:1009D00000127A002DE9FC41002866D00446007818
:1009E000C34EC0070BD0B06800F00C00042840F0E4
:1009F0008C803068800302D56068002855D020784C
:100A0000800718D5B06810F00C0F07D000F097FCE5
:100A100040F093807068400200F18F80306880075A
:100A200002D5E068012840D12069316821F0F80141
:100A300041EAC00030602078000739D420784007B0
:100A400049D4A76977B300F07AFC40F0A780012F62
:100A50002BD0E169706800F480028A4225D1216AB6
:100A600000F03F028A4220D147F6C071626A01401D
:100A7000B1EB821F19D1A16A4FF6FF72C9039143EE
:100A800000F44032A1F580318A420ED1E16A00F0D3
:100A90007062B2EB016F08D1216B00F0E040B0EB67
:100AA000017F02D10020BDE8FC810120BDE8FC816E
:100AB00061699048002961D00121C0F8801EFFF7CC
:100AC00013FD0546706F8007B8D4FFF70DFD401B7E
:100AD0000228F7D9BFE0306C10F0805802D1002016
:100AE00000F0FAFB844F3868C00539D4386840F408
:100AF000807000F00BFC05463868C00530D4FFF765
:100B0000F3FC401B0228F7D9A5E000F018FC03D144
:100B1000706840023FF56DAF6068B0F5803F07D068
:100B2000B0F5A02F40F08180306840F48020306024
:100B3000306840F48030306081E0E06800284BD0BD
:100B40006C4801210160FFF7CFFC05463068800743
:100B50003FF56AAFFFF7C8FC401B0228F6D97AE0E0
:100B6000A068012805D0052847D1306F40F0040067
:100B70003067306F40F00100306748E00021C0F876
:100B8000801EFFF7B1FC0546706F80077FF556AFFA
:100B9000FFF7AAFC401B0228F6D95CE0554900206B
:100BA00088460866FFF7A0FC0546022F09D1306889
:100BB000800153D5FFF798FC411B03200229F6D989
:100BC00071E7306880017FF56DAFFFF78DFC411B49
:100BD00003200229F5D966E7464800210160FFF7A6
:100BE00083FC0546306880077FF525AFFFF77CFC66
:100BF000411B03200229F5D955E7316F002821F068
:100C000001013167316F21F0040131674AD0FFF7EC
:100C10006BFC054641F28837306F800751D4FFF7EF
:100C200063FC401BB842F7D915E03168002821F475
:100C300080313160316821F4802131604AD0FFF782
:100C400053FC0546306880033FF5D9AEFFF74CFCF6
:100C5000401B6428F6D90320BDE8FC8104F11C0583
:100C6000246B2FCD0843D90340EA82104FF6FF7260
:100C7000914340EA0560A1F58031084340EA0470E1
:100C800070600120C8F86000FFF72EFC0446306851
:100C900080013FF507AFFFF727FC011B0320022966
:100CA000F5D900E7FFF720FC054641F28837306FA1
:100CB000800706D5FFF718FC411B0320B942F6D97F
:100CC000F1E6B8F1000F7FF4BCAE306C20F080503C
:100CD0003064B6E6FFF708FC0546306880037FF510
:100CE0008EAEFFF701FC411B03206429F5D9DAE63B
:100CF00000380240000047420070004070B50068B4
:100D00004468200C04F03F05C4F30423C4F34236C6
:100D1000C8708D704B700E70CAB9220A1B092D095C
:100D200004F00F0402F00F0243EA830345EA85054D
:100D300002EB430204EB45044A7000F00F02C0B21C
:100D40008C70000900EB800002EB4000C8700020AE
:100D500070BD70B50068836A4B6003696FF3DF3361
:100D60008B600468C4F3805004F07F05C4F306234D
:100D7000C870C4F305408D704B700870CAB9220A60
:100D80001B092D090009260C04F00F0402F00F02C4
:100D900003EB830305EB850540EA800002EB430289
:100DA00004EB45044A7006F00F028C7002EB400021
:100DB0000870002070BD0000A8B370B50446407FE5
:100DC00020B900202077204600F032F80220CA2106
:100DD0006077206800F074FA08BB94E80F00134EA7
:100DE000856835408560256929436569294385689B
:100DF000294381600361016941EA024101612046A2
:100E000000F0F0FA58B92068A169026C22F480223F
:100E10000264026C114301640120607700202168A4
:100E2000FF224A6270BD0120704700BFBFFF8FFFE5
:100E300010B590B0044601A838210430FFF716FA27
:100E40002068094988420DD14FF48070089008202D
:100E5000019001A8FFF7E2FB08B1FFF75BFA034836
:100E60000121016010B010BD002800403C0E474237
:100E7000F8B5037F04460220012B5DD06077012086
:100E8000207732B14878CA788E78000240EA02456D
:100E900034E0487809254FF00A0CC20642BF00F042
:100EA000EF000A304870CB7809268A78092B88BF72
:100EB0001D46B5FBFCF5092805EB8507A3EB4703A9
:100EC00043EA05134FF0090588BF0546DBB2B5FBC1
:100ED000FCF505EB8507A0EB470040EA0510C0B222
:100EE0000002092A40EA034588BF1646B6FBFCF01B
:100EF00000EB8003A2EB430242EA00162068CA22FC
:100F000042625322426220460F7800F044FA70B9E0
:100F1000F0B22168284320F0C00040EA4730486022
:100F2000204600F05FFA10B9012060770020002110
:100F3000FF22217721684A62F8BD00002DE9F041C7
:100F40000D46017F04460220012973D060770120FD
:100F500020772068816801F040012AB151B94FF033
:100F6000000885F8038008E071B94FF0000885F8A3
:100F700003800CE0E9784FEA81586A782978AE78E6
:100F8000120242EA014733E0E9784FEA81582978B2
:100F9000092609276A7895F802E04FF00A0C09291A
:100FA00088BF0F46B7FBFCF7092A07EB8703A1EBC5
:100FB00043014FF0090388BF134641EA0711B3FB11
:100FC000FCF3C9B203EB8307A2EB470242EA031228
:100FD000D2B21202BEF1090F42EA014788BF76463B
:100FE000B6FBFCF101EB8102AEEB420242EA0116D4
:100FF000CA2100F065F9C0B9F0B20F49384340EAA0
:101000000800084021680860886820F48020886013
:10101000D5E9030210438A6810438860204600F037
:10102000E1F910B90120607700200021FF2221772B
:1010300021684A62BDE8F0817F7F7F00B0B5044639
:101040000068C16821F0A001C160FFF74DFA0546B4
:101050002068C068800644BF0020B0BDFFF744FA96
:1010600000F072F984BF0320B0BDF1E7411E0020FB
:10107000B0EB116F1CBF01207047044AF023516090
:1010800003490B70072190601160704710E000E089
:1010900023ED00E090B110B5044690F83D0008B98A
:1010A00000F065F900F054F92068016921F49041DD
:1010B0000161416921F02A0100F05FB90120704708
:1010C000FEB501687C48814224D10021504A00F5D8
:1010D00070400191536943F010035361536903F069
:1010E00010030193019B0091136843F00103136007
:1010F000126802F001020092072205920322CDE954
:101100000312022102914FF4C0610191009901A9DB
:10111000FFF704F906B080BD2DE9F843044690F8C6
:101120003D00202806D10D4639B116462AB100F0FF
:10113000F4F805D10220BDE8F8830120BDE8F8836A
:10114000002099462064012084F83C00212084F886
:101150003D00FFF7C9F9E6848046A684A068B0F593
:10116000805F01D1206910B100262F4601E00027E1
:101170002E46002084F83C00E08CA8B12046802157
:1011800000F0C7F8A8B927B117F8010B216848602B
:1011900006E036F8021B206800276FF35F214160EC
:1011A000E08C0138E084E7E72046402100F0B1F808
:1011B00010B10320BDE8F883202084F83D00002012
:1011C000BDE8F883FEE7000083B0002110480291DB
:1011D000026842F004020260026802F00402029215
:1011E000029A0191026842F080020260026802F0F5
:1011F00080020192019A0091016841F001010160B1
:10120000006800F001000090009803B0704700BF34
:101210003038024010B586B01748184B0024FF2123
:101220007F22CDE90244CDE90044C0E90034C0E9A1
:101230000221C0E904448461FFF7BEFD08B1FFF755
:1012400069F80D48CDE904448DF80640ADF8044036
:1012500001A90122FFF772FE08B1FFF75BF8084809
:101260006946012200900448FFF702FE08B1FFF72B
:1012700051F806B010BD00BF10000020002800404B
:101280000408102310B50B480B4C00210C224FF41E
:10129000E133C0E90043C0E90211C0E90412C0E92A
:1012A0000611FFF7F7FE18B1BDE81040FFF732B89E
:1012B00010BD00BF3000002000100140FEE7FEE737
:1012C000416253214162204600F065B8D3F8000422
:1012D00000F00700404570470190306C40F08050AE
:1012E0003064306C00F080500190019870472068A5
:1012F00050E8050F216820F0010041E80502002AAE
:1013000070470138B0FA80F0400980BD3860FFF7BF
:10131000EBB842464B4600F03BB994F83C0001283C
:101320007047206850E8030F2168704740EA811039
:1013300040EA026040EA0370C6F884007047B06873
:1013400000F00C0008287047401BB0F57A7F70470A
:10135000242084F83D002068C16821F40051C16058
:10136000204600F0B1B841E80302002A704700208F
:1013700084F83C002046FFF7A3BE4161C16841F4F8
:101380000051C16000202021206484F83D1084F8C1
:101390003E1010BD70472DE9F04104460068C16859
:1013A00049061BD4C1680026012741F08001C160B5
:1013B000FFF79AF805464FF004082168F843C9681A
:1013C00040EA9110C0070AD1FFF78EF8FFF7BCFF83
:1013D000F3D984F81D8001260027EEE70026F0B23D
:1013E000BDE8F08110B504460068C16821F08001B5
:1013F000C1608068800607D42046FFF71FFE18B141
:1014000004206077012010BD002010BD7047FFF759
:101410006FB80000B0B594B0002414210C94CDE94D
:101420000A4402A8FEF722FF214801940225016820
:1014300041F080510160006800F0805001900198F7
:1014400001941C48016841F440410160006800F4C7
:101450004040019064201395CDE91155109004206F
:101460000F904FF48000CDE90D50012009904FF40A
:101470008030089005200790019807A8FFF7AAFA86
:1014800018B1EFF3108072B6FEE74FF48050069467
:10149000CDE90354032105900F20029002A8FFF725
:1014A000C7F918B1EFF3108072B6FEE714B0B0BD03
:1014B00040380240007000400248016841F4700169
:1014C0000160704788ED00E0B0B50446006804F1A3
:1014D00008030ECB056925F4405519432A4349F208
:1014E0000C650261C26863691943E369AA43194341
:1014F0001143C1604169A26921F440711143416106
:10150000214940F48060884202D1FFF725FA01E0CA
:10151000FFF718FAE26919216368A0FB0101B2F52F
:10152000004F17D15A00DB0FFEF768FE174B6421FE
:10153000B0FBF1F203F1805302FB0300322303EB13
:10154000C000B0FBF1F04FF4F87101EA400100F087
:10155000070012E09A009B0FFEF750FE64210B4B30
:10156000B0FBF1F202FB0300322303EB0010B0FBEF
:10157000F1F000F0F00100F00F0001EB021108445F
:1015800021688860B0BD00BF001401409CFFFF0FC0
:101590002DE9F0411D4690460F4604465E1C20682A
:1015A00000683840B8421DD0002EF8D02DB1FEF7AB
:1015B0009BFFA0EB0800A842F1D9FFF7B2FE20F490
:1015C000D070FFF7D0FEF8D1FFF791FEFCD12020BC
:1015D000002184F83D0084F83C1084F83E0003208C
:1015E000BDE8F0810020BDE8F081FEE780B511483C
:1015F0004FF40051FEF766FFFFF783BEFEB50020F3
:101600001E49CDE9040000900A6842F004020A6015
:10161000096801F0040100910221CDE902014FF4B3
:1016200000500190009801A90248FEF777FE06B02D
:1016300080BD00BF0008024070B586B000250F488D
:10164000154C0022042605950095016841F0020121
:1016500001600421006800F002000090009820461C
:10166000FEF73DFF0120CDE90355CDE9016001A959
:101670002046FEF753FE06B070BD00BF3038024072
:1016800002460028044818BF01220421FEF727BFA4
:1016900001480421FEF71BBF00040240E0B50190A1
:1016A000044801A901224FF6FF73FFF735FD0198A9
:1016B0008CBD00BF300000208AB0FEF723FFFFF78B
:1016C000A9FEFFF781FDFFF7A5FDFFF7DBFDFFF7A3
:1016D00095FFFFF7B1FFFEF707FF00F1C806FEF721
:1016E00003FF214CDFF884B00DF110090DF1240A3D
:1016F0000FF27C08FEF7F8FE0746FFF777FF30B1E0
:10170000B742F7D307F1C806FFF7C2FFF2E7B742C7
:10171000F0D32046494600220025FFF71AFB204659
:1017200051460022FFF7EAFA9BF800109DF81200DC
:10173000814212D09DF825209DF826309DF8271073
:101740009DF810509DF811608BF800000290404603
:10175000CDE9005600F01EF80125284607F13206B3
:10176000FFF78EFFC6E700BF1000002074000020C6
:101770003230253032642E253032642E25303264EA
:1017800020253032643A2530326420253032640D11
:101790000A0000000FB4054B10B503A9044A0298D3
:1017A00000F018F810BC5DF814FB00009D1600084E
:1017B0000000002002E008C8121F08C1002AFAD168
:1017C00070477047002001E001C1121F002AFBD1C1
:1017D000704700002DE9FF4F8BB088460546002674
:1017E00006E025280BD0DDE90D1290476D1C761C14
:1017F00028780028F5D10FB03046BDE8F08F0024DE
:10180000A146A2460122AE4900E0044315F8013F7B
:10181000203B02FA03F00842F7D128782A2810D09A
:101820006FF02F022878A0F13001092915D809EBB3
:10183000890102EB410144F0020400EB01096D1C37
:10184000F0E758F8041B5FEA010903D544F400549B
:10185000C9F1000944F002046D1C28782E2817D124
:1018600015F8010F44F004042A280ED06FF02F025F
:101870002878A0F1300109290AD80AEB8A0102EB85
:10188000410100EB010A6D1CF2E758F804AB6D1C36
:1018900028786C280FD006DC4C2817D068280DD08B
:1018A0006A2814D104E0742810D07A280FD10DE0F2
:1018B00044F400140AE044F4801401E044F44014B9
:1018C0006978814202D104F580146D1C6D1C287862
:1018D000692865D006DC00288DD0632827D06428CD
:1018E00006D15DE06E2808D073282AD0752877D0FD
:1018F000DDE90D129047761CE0E0C4F302500228A7
:1019000009D003280DD0D8F8001004280DD00E609F
:1019100008F10408D2E0D8F80010F217C1E900621B
:10192000F6E7D8F800100E80F2E70E70F0E718F82E
:10193000041B8DF8001000208DF80100EB460120FB
:1019400003E058F804BB4FF0FF3061074FF0000789
:1019500001D40AE07F1C57450DDA8742FADB1BF8F9
:1019600007100029F6D106E07F1C8742FCDB1BF83C
:1019700007100029F8D1DDE90D23A9EB0700814606
:10198000214600F0B1F83044C61904E0DDE90D123B
:101990001BF8010B90477F1EF8D22146484688E08D
:1019A00058F8040BC4F302514FF00A0B032900D17D
:1019B00000B2042900D140B2002802DA40422D21B1
:1019C00002E0210505D52B218DF82410012104E02A
:1019D00006E0E10710D02021F6E708AF089113E0F8
:1019E00058F8040BC4F302514FF00A0B032900D13D
:1019F00080B2042900D1C0B20021EEE75946FEF7BB
:101A000040FC303107F8011D0028F7D1ADEB07008D
:101A100000F1200B600702D524F4803401E04FF080
:101A2000010ADA4502DDAAEB0B0000E00020824645
:101A300000EB0B0108980144A9EB01000A90E003B8
:101A400006D4DDE90D2321460A9800F04DF806443E
:101A50004FF0000908E009A911F80900DDE90D12AD
:101A6000904709F10109761C08998945F3DBE003E9
:101A70000CD5DDE90D2321460A9800F035F806441F
:101A800004E0DDE90D1230209047761CBAF1000128
:101A9000AAF1010AF5DC05E0DDE90D1217F8010BEA
:101AA0009047761CBBF10001ABF1010BF4DC0A9806
:101AB0002146DDE90D2300F005F806446D1C97E68C
:101AC000092801002DE9F041044600251E4617466D
:101AD000880404D405E039462020B0476D1C641EFC
:101AE000F9D52846BDE8F0812DE9F04104460025EE
:101AF0001E469046C80301D5302700E02027880401
:101B000004D505E041463846B0476D1C641EF9D542
:101B10002846BDE8F081000000000000000001023E
:101B20000304060708090000000001020304000086
:101B3000501B00080000002010000000B41700082F
:101B4000601B00081000002070040000C41700088B
:101B50000000000001000000100000000024F4005C
:04000005080001C529
:00000001FF
