:020000040800F2
:1000000080040020D9010008F3140008F913000847
:10001000F114000811030008631800080000000034
:100020000000000000000000000000006D16000845
:100030001303000800000000F51500086F16000803
:10004000F3010008F3010008F3010008F3010008C0
:10005000F3010008F3010008F3010008F3010008B0
:10006000F3010008F3010008F3010008F3010008A0
:10007000F3010008F3010008F3010008F301000890
:10008000F3010008F3010008F3010008F301000880
:10009000F3010008F3010008F3010008F301000870
:1000A000F3010008F3010008F3010008F301000860
:1000B000F3010008F3010008F3010008F301000850
:1000C000F3010008F3010008F3010008F301000840
:1000D000F3010008F3010008F3010008F301000830
:1000E000F3010008F3010008F3010008F301000820
:1000F000F3010008F3010008F3010008F301000810
:10010000F3010008F3010008F3010008F3010008FF
:10011000F3010008F3010008F3010008F3010008EF
:10012000F3010008F3010008F3010008F3010008DF
:10013000F30100080000000000000000F3010008C7
:10014000F3010008F3010008F3010008F3010008BF
:10015000F3010008F3010008F3010008F3010008AF
:10016000F3010008F3010008F3010008F30100089F
:10017000F3010008F3010008F3010008000000008B
:1001800000000000F3010008000000000000000073
:10019000F30100080000000000000000F301000867
:1001A000000000000000000000000000F301000853
:1001B000F3010008F3010008F3010008F30100084F
:1001C000F3010008DFF80CD000F090F80048004779
:1001D000311900088004002006488047064800477F
:1001E000FEE7FEE7FEE7FEE7FEE7FEE7FEE7FEE7E7
:1001F000FEE7FEE731170008C50100082DE9F05FB2
:100200000546002092469B46884606468146402485
:100210001BE0284641464746224600F057F8534621
:100220005A46C01A914110D311461846224600F092
:100230003EF82D1A67EB01084F46224601200021A7
:1002400000F035F817EB00094E41201EA4F101041F
:10025000DFDC484631462A464346BDE8F09FD2B22D
:1002600001E000F8012B491EFBD270470022F6E79F
:1002700010B513460A4604461946FFF7F0FF20461C
:1002800010BD30B50B46014600202022012409E0B4
:1002900021FA02F59D4205D303FA02F5491B04FA3F
:1002A00002F52844151EA2F10102F1DC30BD202A1E
:1002B00004DB203A00FA02F1002070479140C2F1BD
:1002C000200320FA03F3194390407047202A04DBEF
:1002D000203A21FA02F00021704721FA02F3D040BF
:1002E000C2F120029140084319467047064C074D61
:1002F00006E0E06840F0010394E8070098471034F6
:10030000AC42F6D3FFF762FFA81D0008C81D000825
:10031000FEE77047EFF3108072B6FEE72DE9FC4F61
:100320005D4A07244FF0010B4FF000094FF0000A1F
:1003300090425A4A08BF062402444FEAB223062BD1
:1003400038BF4FEAB22400940022102A08BFBDE84B
:10035000FC8F0F680BFA02F6374200F09780D1F855
:100360000480032303FA0AF708F0030CFF43ACF1FF
:10037000010EBEF1010F0ED88468CD683C4005FA2D
:100380000AF52C438460C8F3001445689440B543D3
:100390002C43446005E0BCF1030F02D14FF0030C85
:1003A00020E0C4688D683C4005FA0AF52C43BCF196
:1003B000020FC46016D109F01C0E0F2303FA0EFCC5
:1003C0006FF0030303EA520505442C6A24EA0C0C7F
:1003D0000C6904FA0EF444EA0C042C62D1F804808F
:1003E00008F0030C05680CFA0AF43D402C4318F49D
:1003F000403F04604AD0002322F0030701932A4BB8
:100400001C6844F480441C601C680F2304F480447E
:10041000019409F00C0403FA04FC214B019D9E4653
:100420001F44224BFD589846009B25EA0C0503FA11
:1004300004F42C4347F80840DEF808404F68FB02FC
:1004400044EA0605174B58BF24EA0605CEF80850C3
:10045000BD029C461B6843EA060458BF23EA060413
:10046000CCF80040BD03DEF8043043EA060458BF70
:1004700023EA0604CEF80440FD03DEF8003043EA28
:10048000060458BF23EA0604CEF8004009F1040927
:100490000AF1020A013258E7001802400000FEBFCC
:1004A000003C01400C3C01404438024008FCFFFF86
:1004B0000069084018BF01207047426902EA010341
:1004C000914341EA034181617047002A08BF090452
:1004D0008161704705480068704700BF1F480349A5
:1004E00000780A6810440860704700BF7800002058
:1004F00080B50B48016841F400710160016841F466
:1005000080610160016841F480710160032000F0A6
:1005100069F80F2000F006F800F024F8002080BDF4
:10052000003C024070B50D4E04464FF47A713078AD
:10053000B1FBF0F00A490968B1FBF0F000F0B0FE41
:1005400001250F2C08D838B94FF0FF302146002282
:10055000002500F021F87460284670BD04000020DA
:100560000C00002082B000203D4901904A6842F40E
:1005700080424A604A6802F480420192019A0090E7
:10058000086840F080500860086800F080500090D3
:10059000009802B0704700BFF0B5184B4FF0FF361F
:1005A0001C68C4F30224E51E84F0070438BF00254C
:1005B00006FA05F7BA43042C28BF042406FA04F40B
:1005C000A14300F00F04A940043C1143044A234412
:1005D00009010244002848BF03F10C021170F0BD6C
:1005E00000E400E005494FF6FF030A681A4060F393
:1005F0000A22034810430860704700BF0CED00E07A
:100600000000FA057CB50020164E174D01901448E5
:10061000016841F080510160006800F08050019055
:10062000019801203060FFF755FF04462868C00399
:1006300005D4FFF74FFF00F075FFF7D90EE001205A
:100640007060FFF747FF04462868800344BF00201E
:100650007CBDFFF73FFF00F065FFF5D903207CBDAF
:100660004038024040000E42047000402DE9F8433B
:1006700004460068E04EC10702D14FF000090BE0CC
:10068000A16BD6F88C2022F0C0620A43B1FA81F146
:100690004FEA5119C6F88C2081070BD5E16BD6F8CB
:1006A0008C2022F0C0520A43C6F88C20002908BFD3
:1006B0004FF00109410702D44FF0000810E0216B10
:1006C000D6F88C2022F440120A43B1F5801FB1FA0B
:1006D00081F1C6F88C2008BF4FF001094FEA51188C
:1006E000010710D5616BD6F88C2022F440020A4332
:1006F0000029C6F88C2008BF4FF00108B1F5800F23
:1007000008BF4FF0010981063ED50020C54F00907B
:1007100000F03CFF00900098386840F4807000F0D2
:1007200014FF05463868C00505D4FFF7D3FE401B0B
:100730000228F7D95DE1306F10F4407011D0216CC0
:1007400001F4407188420CD0306FB74901220A6031
:10075000002220F440700A603067306FC00740F01C
:100760004D812068216CB14AB3680A4001F440759C
:1007700023F4F8136FF31F31B5F5407F08BF13431F
:10078000B360326F11433167C10605D594F8580044
:10079000A549C1F8A0032068010607D5E16CD6F889
:1007A000942022F440021143C6F89410410607D564
:1007B000A16CD6F8942022F080621143C6F8941000
:1007C000C1050CD5616DD6F8942022F000620A4371
:1007D000C6F89420B1F1006F08BF4FF00108810501
:1007E00007D5616CD6F8942022F080521143C6F8E8
:1007F00094108F4F41050AD5216DD6F8942022F030
:1008000000520A43B1F1005FC6F8942006D0B9F156
:10081000000F03D1B0F5006F40F08E80002000F093
:1008200094FE05463068000105D5FFF753FE401BD6
:100830000228F7D9DDE02068C10701D0A16B19B10A
:10084000810714D5E16B91B9D4E901126369D6F837
:10085000845005F440352943D6F8845005F070657E
:10086000294341EA821141EA0371C6F88410410725
:1008700003D5216BB1F5801F05D0010721D5616B30
:10088000B1F5800F1DD1D4E901122369A56ABC46D8
:10089000D6F8847007F440373943D6F8847007F0EF
:1008A000E0473943674641EA821141EA0361C6F8ED
:1008B0008410691ED6F88C2022F01F021143C6F85E
:1008C0008C10410521D5216DB1F1005F1DD1D6F805
:1008D0008410D4E9012CE5683B46D6F8847007F013
:1008E000E0473A434FF0C06707EA41211F464FF601
:1008F000FF7301F100711143EA039A4341EA8C113D
:10090000A2F580321143C6F88410000507D5251DD5
:100910002FCD00F0FBFD40EA0570C6F884000120F1
:1009200000F013FE05463068000105D4FFF7D2FD44
:10093000401B0228F7D95CE00020B8F1000F59D025
:10094000B860FFF7C7FD05463068800005D5FFF7A2
:10095000C1FD401B0228F7D94BE02068410701D5B3
:10096000216B19B101071ED5616BE1B9D4E90612FB
:10097000636AD4F82CC03D46D6F8887007F4403737
:1009800039432F4641EA821141EA0361C6F88810D3
:100990006FF0FF01D6F88C2001EB0C2122F4F85205
:1009A0001143C6F88C10C00516D5606DB0F1006F0C
:1009B00012D104F1180207CAD6F8883003F0706328
:1009C000184340EA8110D1034FF6FF729143A1F51D
:1009D00080310843C6F888000120B860FFF77AFD2F
:1009E00004463068800019D4FFF774FD001B03280B
:1009F000F7D30320BDE8F88300380240FFF76AFD13
:100A0000054641F28837306F80073FF5AAAEFFF701
:100A100061FD411B0320B942F5D9EBE70020BDE899
:100A2000F88300BF00700040400E4742FFFCFF0FFC
:100A3000680047422DE9F041002857D03F4B04465B
:100A40008846D3F8000400F00F00884204D283F8EF
:100A5000008400F055FD49D12068810711D5410778
:100A600003D5996841F4E0519960010703D599686D
:100A700041F460419960A1689A6822F0F002114344
:100A80009960C0072BD100F03BFD04D983F80084A6
:100A900000F036FD2AD12068410705D5E1689A6843
:100AA00022F4E05211439960000706D52069996845
:100AB00021F4604141EAC00098601C4600F05EF8F5
:100AC000A1681F4AC1F30311515CC840284908605E
:100AD0001C480068FFF726FD0020BDE8F081606833
:100AE000811E022905D21968890107D40120BDE8B9
:100AF000F08101281DD119688903F7D599681D4631
:100B000021F0030108439860FFF7E4FC064641F238
:100B100088376068A9682B4601F00C01B1EB800FA3
:100B2000B1D0FFF7D7FC801BB842F2D90320BDE853
:100B3000F08119688907D9D5E0E700BF0038024085
:100B40008E1D00080800002009480A490A4A00686A
:100B50000968C1F38221515CC840704704480549C7
:100B6000054A00680968C1F34231515CC8407047CA
:100B70000C000020083802409E1D000810B5164CDD
:100B80006068C0F381011548DFE801F02402040A1F
:100B9000134810BD00F0E9FC08D400F00AFD09E09C
:100BA00000F0E3FC0DD400F004FD0EE00C484843D7
:100BB000B0FBF2F021680222C1F3014102EB4101D6
:100BC00006E007484843B0FBF2F02168C1F3027128
:100BD000B0FBF1F010BD00BF043802400024F40067
:100BE00000127A002DE9FC41002800F08C800446B8
:100BF0000078CC4EC00729D0B06800F00C00042863
:100C00001ED000F0DFFC02D17068400218D4B0683A
:100C100000F00C000C2802D17068400210D460680B
:100C2000B0F5803F07D0B0F5A02F40F016813068B6
:100C300040F480203060306840F48030306016E14D
:100C40003068800302D5606800285CD02078800777
:100C500020D5B06810F00C0F0FD000F0B3FC02D11B
:100C60007068400209D5B06800F00C000C2840F014
:100C70008B807068400200F187803068800702D561
:100C8000E06801283FD12069316821F0F80141EA8C
:100C9000C00030602078000738D42078400748D45E
:100CA000A76977B300F08EFC40F09280012F2AD024
:100CB000E169706800F480028A4224D1216A00F060
:100CC0003F028A421FD147F6C071626A0140B1EB10
:100CD000821F18D1A16A4FF6FF72C903914300F435
:100CE0004032A1F580318A420DD1E16A00F0706294
:100CF000B2EB016F07D1216B00F0E040B0EB017F58
:100D000001D100200BE10120BDE8FC81616986482A
:100D100000294DD00121C0F8801EFFF7DBFB0546FE
:100D2000706F8007B9D4FFF7D5FB401B0228F7D9B5
:100D3000A9E0306C10F0805805D10020019000F03F
:100D400025FC01900198794F3868C0050ED43868A9
:100D500040F4807000F0F9FB05463868C00505D402
:100D6000FFF7B8FB401B0228F7D98CE0A0680128E8
:100D700005D005284AD1306F40F004003067306F4D
:100D800040F0010030674BE0E068002856D066482C
:100D900001210160FFF79EFB0546306880073FF5A3
:100DA00072AFFFF797FB411B03200229F5D9B6E08C
:100DB0000021C0F8801EFFF78DFB0546706F80078D
:100DC0007FF56BAFFFF786FB401B0228F6D95AE090
:100DD0005549002088460866FFF77CFB0546022F30
:100DE00009D13068800151D5FFF774FB411B032006
:100DF0000229F6D993E0306880017FF582AFFFF7D2
:100E000069FB411B03200229F5D988E0316F0028D6
:100E100021F001013167316F21F00401316759D0B0
:100E2000FFF758FB054641F28837306F800760D4E2
:100E3000FFF750FB401BB842F7D924E03A4800F0D6
:100E40009DFB0546306880077FF524AFFFF742FB26
:100E5000411B03200229F5D961E03168002821F403
:100E600080313160316821F4802131604AD0FFF750
:100E700031FB0546306880033FF5E8AEFFF72AFBFB
:100E8000401B6428F6D90320BDE8FC8104F11C0551
:100E9000246B2FCD0843D90340EA82104FF6FF722E
:100EA000914340EA0560A1F58031084340EA0470AF
:100EB00070600120C8F86000FFF70CFB0446306842
:100EC00080013FF51EAFFFF705FB011B0320022940
:100ED000F5D924E0FFF7FEFA054641F28837306F76
:100EE000800706D5FFF7F6FA411B0320B942F6D971
:100EF00015E0B8F1000F7FF4D3AE306C20F08050D5
:100F00003064CDE6FFF7E6FA0546306880037FF5EA
:100F10009DAEFFF7DFFA411B03206429F5D9BDE838
:100F2000FC8100BF003802400000474200700040D2
:100F300070B500684468200C04F03F05C4F3042336
:100F4000C4F34236C8708D704B700E70CAB9220A55
:100F50001B092D0904F00F0402F00F0243EA83037A
:100F600045EA850502EB430204EB45044A7000F0B4
:100F70000F02C0B28C70000900EB800002EB400051
:100F8000C870002070BD70B50068836A4B6003694B
:100F90006FF3DF338B600468C4F3805004F07F0587
:100FA000C4F30623C870C4F305408D704B700870FD
:100FB000CAB9220A1B092D090009260C04F00F04E6
:100FC00002F00F0203EB830305EB850540EA800086
:100FD00002EB430204EB45044A7006F00F028C70EA
:100FE00002EB40000870002070BD0000A8B370B58F
:100FF0000446407F20B900202077204600F032F8D8
:101000000220CA216077206800F074FA08BB94E8D7
:101010000F00134E85683540856025692943656951
:1010200029438568294381600361016941EA0241DE
:101030000161204600F006FB58B92068A169026CE6
:1010400022F480220264026C114301640120607763
:1010500000202168FF224A6270BD0120704700BF56
:10106000BFFF8FFF10B598B0044601A85821043087
:10107000FFF7FCF82068094988420DD14FF48070D1
:1010800011902020019001A8FFF7F0FA08B1FFF7B6
:1010900041F903480121016018B010BD002800404B
:1010A0003C0E4742F8B5037F04460220012B5DD079
:1010B00060770120207732B14878CA788E780002B4
:1010C00040EA024534E0487809254FF00A0CC20690
:1010D00042BF00F0EF000A304870CB7809268A78CA
:1010E000092B88BF1D46B5FBFCF5092805EB8507D4
:1010F000A3EB470343EA05134FF0090588BF0546F4
:10110000DBB2B5FBFCF505EB8507A0EB470040EA39
:101110000510C0B20002092A40EA034588BF1646FE
:10112000B6FBFCF000EB8003A2EB430242EA0016A0
:101130002068CA2242625322426220460F7800F0A1
:101140005AFA70B9F0B22168284320F0C00040EA92
:1011500047304860204600F075FA10B901206077EA
:1011600000200021FF22217721684A62F8BD00009B
:101170002DE9F0410D46017F04460220012973D07C
:101180006077012020772068816801F040012AB152
:1011900051B94FF0000885F8038008E071B94FF0AD
:1011A000000885F803800CE0E9784FEA81586A78F6
:1011B0002978AE78120242EA014733E0E9784FEA33
:1011C00081582978092609276A7895F802E04FF0B6
:1011D0000A0C092988BF0F46B7FBFCF7092A07EB61
:1011E0008703A1EB43014FF0090388BF134641EA8F
:1011F0000711B3FBFCF3C9B203EB8307A2EB470271
:1012000042EA0312D2B21202BEF1090F42EA0147CA
:1012100088BF7646B6FBFCF101EB8102AEEB4202E1
:1012200042EA0116CA2100F065F9C0B9F0B20F49CF
:10123000384340EA0800084021680860886820F4C4
:1012400080208860D5E9030210438A6810438860D3
:10125000204600F0F7F910B9012060770020002146
:10126000FF22217721684A62BDE8F0817F7F7F00FD
:10127000B0B504460068C16821F0A001C160FFF765
:1012800029F905462068C068800644BF0020B0BD2B
:10129000FFF720F900F076F984BF0320B0BDF1E735
:1012A000411E0020B0EB116F1CBF01207047044AA3
:1012B000F023516003490B70072190601160704763
:1012C00010E000E023ED00E090B110B5044690F886
:1012D0003D0008B900F07BF900F060F92068016971
:1012E00021F490410161416921F02A0100F075B9B2
:1012F00001207047FEB501687C48814224D100215D
:10130000504A00F570400191536943F01003536156
:10131000536903F010030193019B0091136843F09C
:1013200001031360126802F0010200920722059285
:101330000322CDE90312022102914FF4C061019111
:10134000009901A9FEF7EAFF06B080BD2DE9F84338
:10135000044690F83D00202806D10D4639B11646C6
:101360002AB100F0F9F805D10220BDE8F883012088
:10137000BDE8F883002099462064012084F83C00F1
:10138000212084F83D00FFF7A5F8E6848046A68476
:10139000A068B0F5805F01D1206910B100262F460A
:1013A00001E000272E46002084F83C00E08CA8B124
:1013B0002046802100F0CCF8A8B927B117F8010B1E
:1013C0002168486006E036F8021B206800276FF3AA
:1013D0005F214160E08C0138E084E7E7204640214E
:1013E00000F0B6F810B10320BDE8F883202084F89F
:1013F0003D000020BDE8F883FEE7000083B0002137
:1014000010480291026842F004020260026802F091
:1014100004020292029A0191026842F08002026084
:10142000026802F080020192019A0091016841F085
:1014300001010160006800F001000090009803B015
:10144000704700BF3038024010B586B01748184BBF
:101450000024FF217F22CDE90244CDE90044C0E908
:101460000034C0E90221C0E904448461FFF7BEFDF5
:1014700008B1FEF74FFF0D48CDE904448DF8064052
:10148000ADF8044001A90122FFF772FE08B1FEF792
:1014900041FF08486946012200900448FFF702FE18
:1014A00008B1FEF737FF06B010BD00BF10000020E6
:1014B000002800400408102310B50B480B4C0021F5
:1014C0000C224FF4E133C0E90043C0E90211C0E946
:1014D0000412C0E90611FFF7F7FE18B1BDE810408D
:1014E000FEF718BF10BD00BF300000200010014003
:1014F000FEE7FEE7416253214162204600F07BB8DF
:10150000D3F8000400F00F004045704740EA811016
:10151000D1034FF6FF72914340EA0360A1F5803199
:1015200008437047001BB0F57A7F7047206850E889
:10153000050F216820F0010041E80502002A7047EC
:101540000138B0FA80F0400980BD3860FEF7C2BFB4
:1015500042464B4600F058B994F83C0001287047C9
:10156000206850E8030F216870472168236801F064
:101570003F0221685B02C1F38811704700210160BE
:10158000FEF7A8BF401BB0F57A7F7047306C40F083
:1015900080503064306C00F080507047242084F814
:1015A0003D002068C16821F40051C160204600F070
:1015B000C7B8A1FB00010023FEF720BE41E80302EB
:1015C000002A7047B06800F00C000828704700201F
:1015D00084F83C002046FFF78DBE4161C16841F4AC
:1015E0000051C16000202021206484F83D1084F85F
:1015F0003E1010BD70472DE9F04104460068C168F7
:1016000049061BD4C1680026012741F08001C16052
:10161000FEF760FF05464FF004082168F843C968EB
:1016200040EA9110C0070AD1FEF754FFFFF7AAFF66
:10163000F3D984F81D8001260027EEE70026F0B2DA
:10164000BDE8F08110B504460068C16821F0800152
:10165000C1608068800607D42046FFF709FE18B1F4
:1016600004206077012010BD002010BD7047FEF7F8
:1016700035BF000010B594B0002414210C94CDE9BE
:101680000A4402A8FEF7F2FD27480194016841F0E0
:1016900080510160006800F0805001900198019431
:1016A0002248016841F440410160B421006800F41F
:1016B000404001901091042102200F914FF48001CD
:1016C0001390CDE91100CDE90D01012009904FF4EF
:1016D0008030089005200790019807A8FFF782FA4C
:1016E00018B1EFF3108072B6FEE7FEF78BFF18B16A
:1016F000EFF3108072B6FEE74FF48050052106909C
:101700004FF4A050059000200490022003900F2079
:10171000029002A8FFF78EF918B1EFF3108072B6AD
:10172000FEE714B010BD00BF40380240007000401A
:101730000248016841F470010160704788ED00E0E3
:10174000B0B50446006804F108030ECB056925F422
:10175000405519432A4349F20C650261C268636926
:101760001943E369AA4319431143C1604169A2695E
:1017700021F4407111434161214940F48060884265
:1017800002D1FFF7EBF901E0FFF7DEF9E269192179
:101790006368A0FB0101B2F5004F17D15A00DB0FBF
:1017A000FEF72CFD174B6421B0FBF1F203F18053DF
:1017B00002FB0300322303EBC000B0FBF1F04FF457
:1017C000F87101EA400100F0070012E09A009B0F57
:1017D000FEF714FD64210B4BB0FBF1F202FB03009A
:1017E000322303EB0010B0FBF1F000F0F00100F049
:1017F0000F0001EB0211084421688860B0BD00BFF2
:10180000001401409CFFFF0F2DE9F0411D4690465A
:101810000F4604465E1C206800683840B8421DD060
:10182000002EF8D02DB1FEF755FEA0EB0800A8421F
:10183000F1D9FFF795FE20F4D070FFF7BFFEF8D185
:10184000FFF774FEFCD12020002184F83D0084F8CD
:101850003C1084F83E000320BDE8F0810020BDE884
:10186000F081FEE780B511484FF40051FEF720FEED
:10187000FFF766BEFEB500201E49CDE904000090CA
:101880000A6842F004020A60096801F0040100914C
:101890000221CDE902014FF400500190009801A906
:1018A0000248FEF73BFD06B080BD00BF00080240C5
:1018B00070B586B000250F48154C0022042605950A
:1018C0000095016841F0020101600421006800F008
:1018D0000200009000982046FEF7F7FD0120CDE9B8
:1018E0000355CDE9016001A92046FEF717FD06B0BA
:1018F00070BD00BF3038024002460028044818BFBF
:1019000001220421FEF7E1BD01480421FEF7D5BD07
:1019100000040240E0B50190044801A901224FF6FD
:10192000FF73FFF713FD01988CBD00BF300000204E
:101930008AB0FEF7DDFDFFF79DFEFFF75FFDFFF7C5
:1019400083FDFFF7B9FDFFF795FFFFF7B1FFFEF746
:10195000C1FD00F1C806FEF7BDFD214CDFF884B0E3
:101960000DF110090DF1240A0FF27C08FEF7B2FD0B
:101970000746FFF777FF30B1B742F7D307F1C80644
:10198000FFF7C2FFF2E7B742F0D3204649460022F4
:101990000025FFF7F8FA204651460022FFF7C8FA63
:1019A0009BF800109DF81200814212D09DF825206E
:1019B0009DF826309DF827109DF810509DF8116075
:1019C0008BF8000002904046CDE9005600F01EF86A
:1019D0000125284607F13206FFF78EFFC6E700BF54
:1019E00010000020740000203230253032642E2593
:1019F0003032642E2530326420253032643A25306E
:101A0000326420253032640D0A0000000FB4054B0B
:101A100010B503A9044A029800F018F810BC5DF84C
:101A200014FB0000151900080000002002E008C89F
:101A3000121F08C1002AFAD170477047002001E048
:101A400001C1121F002AFBD1704700002DE9FF4F92
:101A50008BB088460546002606E025280BD0DDE938
:101A60000D1290476D1C761C28780028F5D10FB018
:101A70003046BDE8F08F0024A146A2460122AE49BF
:101A800000E0044315F8013F203B02FA03F008424E
:101A9000F7D128782A2810D06FF02F022878A0F1EB
:101AA0003001092915D809EB890102EB410144F005
:101AB000020400EB01096D1CF0E758F8041B5FEA13
:101AC000010903D544F40054C9F1000944F00204AB
:101AD0006D1C28782E2817D115F8010F44F0040446
:101AE0002A280ED06FF02F022878A0F130010929A2
:101AF0000AD80AEB8A0102EB410100EB010A6D1CD6
:101B0000F2E758F804AB6D1C28786C280FD006DC7F
:101B10004C2817D068280DD06A2814D104E0742806
:101B200010D07A280FD10DE044F400140AE044F4F8
:101B3000801401E044F440146978814202D104F534
:101B400080146D1C6D1C2878692865D006DC00287F
:101B50008DD0632827D0642806D15DE06E2808D098
:101B600073282AD0752877D0DDE90D129047761CAE
:101B7000E0E0C4F30250022809D003280DD0D8F8C1
:101B8000001004280DD00E6008F10408D2E0D8F847
:101B90000010F217C1E90062F6E7D8F800100E80D5
:101BA000F2E70E70F0E718F8041B8DF80010002023
:101BB0008DF80100EB46012003E058F804BB4FF01C
:101BC000FF3061074FF0000701D40AE07F1C574542
:101BD0000DDA8742FADB1BF807100029F6D106E080
:101BE0007F1C8742FCDB1BF807100029F8D1DDE9D8
:101BF0000D23A9EB07008146214600F0B1F83044DF
:101C0000C61904E0DDE90D121BF8010B90477F1E99
:101C1000F8D22146484688E058F8040BC4F3025134
:101C20004FF00A0B032900D100B2042900D140B2C1
:101C3000002802DA40422D2102E0210505D52B21A2
:101C40008DF82410012104E006E0E10710D02021E6
:101C5000F6E708AF089113E058F8040BC4F30251FB
:101C60004FF00A0B032900D180B2042900D1C0B281
:101C70000021EEE75946FEF704FB303107F8011D5D
:101C80000028F7D1ADEB070000F1200B600702D56B
:101C900024F4803401E04FF0010ADA4502DDAAEBBA
:101CA0000B0000E00020824600EB0B010898014485
:101CB000A9EB01000A90E00306D4DDE90D232146DB
:101CC0000A9800F04DF806444FF0000908E009A911
:101CD00011F80900DDE90D12904709F10109761CA0
:101CE00008998945F3DBE0030CD5DDE90D23214696
:101CF0000A9800F035F8064404E0DDE90D123020C2
:101D00009047761CBAF10001AAF1010AF5DC05E062
:101D1000DDE90D1217F8010B9047761CBBF10001AD
:101D2000ABF1010BF4DC0A982146DDE90D2300F04C
:101D300005F806446D1C97E6092801002DE9F041DD
:101D4000044600251E461746880404D405E039469B
:101D50002020B0476D1C641EF9D52846BDE8F081EF
:101D60002DE9F041044600251E469046C80301D5E2
:101D7000302700E02027880404D505E04146384696
:101D8000B0476D1C641EF9D52846BDE8F0810000FF
:101D9000000000000000010203040607080900001B
:101DA0000000010203040000C81D0008000000201C
:101DB000100000002C1A0008D81D00081000002098
:101DC000700400003C1A0008000000000100000040
:081DD000100000000024F400E3
:04000005080001C529
:00000001FF
