:020000040800F2
:10000000801200209D010008BF2A00086126000818
:10001000BD2A0008D5020008DF53000800000000D8
:10002000000000000000000000000000513B00083C
:10003000D702000800000000012E0008533B000812
:10004000B7010008B7010008B7010008B7010008B0
:10005000B7010008B7010008B7010008B7010008A0
:10006000B7010008B7010008B7010008B701000890
:10007000B7010008B7010008B7010008B701000880
:10008000B7010008B7010008B7010008B701000870
:10009000B7010008B7010008B7010008B701000860
:1000A000B7010008B7010008B7010008B701000850
:1000B000B7010008B7010008B7010008B701000840
:1000C000B7010008B7010008B7010008B701000830
:1000D000B7010008B7010008B7010008B701000820
:1000E000B7010008B7010008B7010008B701000810
:1000F000B7010008B7010008B7010008B701000800
:10010000B7010008B7010008B7010008B7010008EF
:10011000B7010008B7010008B7010008B7010008DF
:10012000B7010008B7010008B7010008B7010008CF
:10013000B70100080000000000000000B70100083F
:10014000B7010008B7010008B7010008C12A00087C
:10015000B7010008B7010008B7010008B70100089F
:10016000B7010008B7010008B7010008B70100088F
:10017000B7010008B70100080000000000000000FF
:10018000B7010008B7010008DFF80CD000F090F8C4
:1001900000480047F95400088012002006488047B4
:1001A00006480047FEE7FEE7FEE7FEE7FEE7FEE75C
:1001B000FEE7FEE7FEE7FEE7013C000889010008D4
:1001C0002DE9F05F0546002092469B46884606468C
:1001D000814640241BE0284641464746224600F01F
:1001E00057F853465A46C01A914110D31146184643
:1001F000224600F03EF82D1A67EB01084F462246D2
:100200000120002100F035F817EB00094E41201EB7
:10021000A4F10104DFDC484631462A464346BDE8E6
:10022000F09FD2B201E000F8012B491EFBD27047CB
:100230000022F6E710B513460A4604461946FFF7B2
:10024000F0FF204610BD30B50B46014600202022AD
:10025000012409E021FA02F59D4205D303FA02F5D3
:10026000491B04FA02F52844151EA2F10102F1DC33
:1002700030BD202A04DB203A00FA02F1002070474A
:100280009140C2F1200320FA03F3194390407047D4
:10029000202A04DB203A21FA02F00021704721FADB
:1002A00002F3D040C2F12002914008431946704742
:1002B000064C074D06E0E06840F0010394E80700B3
:1002C00098471034AC42F6D3FFF762FF085A000893
:1002D000285A0008FEE77047EFF3108072B6FEE779
:1002E000B0B5044600F054F90546CB48611C0078CF
:1002F00018BF044400F04CF9401BA042FAD3B0BD33
:100300002DE9F84F934A08244FF000094FF00008F8
:100310004FF00F0A9042904A08BF072402444FEA68
:10032000B223072B38BF4FEAB2248C4A0094012332
:100330000F240027A2F57E7B102F08BFBDE8F88FA1
:1003400003FA07F20A4241D009F00C0527F0030C2A
:10035000D24304FA05FE5BF80C40009B04EA0E044D
:1003600003FA05F5AC4214D17C4B7D4EBC081D68E8
:1003700015401D605D6815405D603568154035604D
:100380009D6815409D605BF8245025EA0E054BF8EA
:1003900024500323056803FA08F46FF0030303EA0B
:1003A0005706A5430560064409F01C05336A0AFA9E
:1003B00005F5AB433362C368A343C36043681A4087
:1003C000012342608268A2430F24826009F104097C
:1003D00008F102080137AFE72DE9FC4F5D4A082418
:1003E0004FF0010B4FF000094FF0000A90425A4ABB
:1003F00008BF072402444FEAB223072B38BF4FEA55
:10040000B22400940022102A08BFBDE8FC8F0F68B8
:100410000BFA02F6374200F09780D1F804800323EC
:1004200003FA0AF708F0030CFF43ACF1010EBEF12A
:10043000010F0ED88468CD683C4005FA0AF52C43BC
:100440008460C8F3001445689440B5432C4344606D
:1004500005E0BCF1030F02D14FF0030C20E0C468AB
:100460008D683C4005FA0AF52C43BCF1020FC460CC
:1004700016D109F01C0E0F2303FA0EFC6FF00303D4
:1004800003EA520505442C6A24EA0C0C0C6904FAB0
:100490000EF444EA0C042C62D1F8048008F0030C3A
:1004A00005680CFA0AF43D402C4318F4403F046000
:1004B0004AD0002322F0030701932A4B1C6844F41E
:1004C00080441C601C680F2304F48044019409F0EC
:1004D0000C0403FA04FC214B019D9E461F44224B51
:1004E000FD589846009B25EA0C0503FA04F42C43BA
:1004F00047F80840DEF808404F68FB0244EA06056A
:10050000174B58BF24EA0605CEF80850BD029C469A
:100510001B6843EA060458BF23EA0604CCF80040EF
:10052000BD03DEF8043043EA060458BF23EA06049C
:10053000CEF80440FD03DEF8003043EA060458BF5D
:1005400023EA0604CEF8004009F104090AF1020A80
:10055000013258E7001C02400000FEBF003C014091
:100560000C3C01404438024008FCFFFF0069084091
:1005700018BF01207047426902EA0103914341EA32
:10058000034181617047002A08BF090481617047F7
:1005900005480068704700BF1F48034900780A6893
:1005A00010440860704700BF780E002080B50B48EB
:1005B000016841F400710160016841F480610160EB
:1005C000016841F480710160032000F07BF80F2086
:1005D00000F006F800F024F8002080BD003C024046
:1005E00070B50D4E04464FF47A713078B1FBF0F0DF
:1005F0000A490968B1FBF0F001F082FF01250F2CD8
:1006000008D838B94FF0FF3021460022002500F00D
:1006100033F87460284670BD040000206C00002090
:1006200082B000200B4901904A6842F480424A603F
:100630004A6802F480420192019A0090086840F0F2
:1006400080500860086800F080500090009802B068
:10065000704700BF40380240002809D4734602F0BA
:100660009BFA9E46034A42EAD00020F00300016054
:10067000704700BF00E100E0F0B5184B4FF0FF36C7
:100680001C68C4F30224E51E84F0070438BF00256B
:1006900006FA05F7BA43042C28BF042406FA04F42A
:1006A000A14300F00F04A940043C1143044A234431
:1006B00009010244002848BF03F10C021170F0BD8B
:1006C00000E400E005494FF6FF030A681A4060F3B2
:1006D0000A22034810430860704700BF0CED00E099
:1006E0000000FA057047006841620020704770B54D
:1006F0000068436AB1B1846A0139002503EB1443F1
:10070000CCB2A54207D200EB85060135D6F80461CC
:1007100003EB1643F5E700EB810043EA0241C0F822
:10072000041102E043EA02418162002070BDD0F86A
:10073000080503F091BC01EBC10200EB8202D0F886
:100740000805D26C03F005BC01EBC10200EB82028C
:10075000D0F80805D2F88C2203F04CBCD0F808057C
:1007600003F07CBC01F00F0249B202EBC202002987
:1007700000EB820303F51F7248BF03F13C020068DF
:10078000114604F08FBC10B5044601F00F0002F0D2
:10079000A0F9C3BF002281F87D2201F51F7101225B
:1007A000DCBF81F83D203C31087094F8BC0401287E
:1007B00004BF022010BD02F0EEFA04F0B1F902F01D
:1007C0007ABAB0B5044601F00F006268824201D2E5
:1007D00001251BE002F07DF9C3BF002281F87D22D4
:1007E00001F51F710122DCBF81F83D203C3108700A
:1007F000002594F8BC048D70012801D1022505E084
:1008000002F0C9FA04F044FB84F8BC542846B0BD99
:1008100010B502F0BCF904BF022010BD01204AB29D
:1008200084F8BC042068B2F1FF3F02DD04F074FCE0
:1008300003E001F00F0104F08FFC02F03CBA01F07C
:100840000F0101EBC10100EB8100D0F89C02704761
:10085000B0B5044601F00F0002F03BF9C3BF00251C
:1008600081F87D5201F51F710125DCBF81F83D50F3
:100870003C31CA600B7108704A7802B10881022BC2
:1008800004BF0020487194F8BC04012804BF022072
:10089000B0BD02F080FA04F099F802F060BAB0B589
:1008A00001F00F0404EBC40100EB81050021C5F841
:1008B00094320369C5F89C1285F87D12C5F88C2224
:1008C00085F87C4205F51F71012B08BFC5F8902201
:1008D000DAB2006814B104F01DFB01E004F034FA50
:1008E0000020B0BDB0B50446406801F00F05854258
:1008F00084BF0120B0BD48B2B0F1FF3F09DD01EB7C
:10090000C100002104EB800080F87D1200F51F710A
:1009100008E005EBC500012104EB800080F83D10E4
:1009200000F13C0194F8BC2401200D708870012A6C
:1009300004BF0220B0BD84F8BC04206804F0CFFAE4
:100940002DB9217C206804F2C44204F075FA02F04B
:1009500006BA70B501F00F04002604EBC40100EBE9
:100960008105294601F83C4F8B6101230E620A6123
:100970004B700369012B08BF2A65DAB2006814B115
:1009800004F0C8FA01E004F0DFF9002070BD0000B7
:100990002DE9F04F89B005688246284604F00CFC2A
:1009A00010B109B0BDE8F08F02F055F90028F8D079
:1009B000D5F80808C0F30D20CAF8FC0402F04BF982
:1009C0000146DAF80000890703D5416901F0020108
:1009D000416105F50061049104F01AFC0146DAF862
:1009E00000000595C9063BD5816921F010018161A0
:1009F0002C6AC4F3434004F00F05062818D00228DF
:100A000027D147F6F07014EA000622D005EBC500A6
:100A100034090AEB800705982246D7F88C1204F0B7
:100A2000FBFBD7F88C0200EB1610C7F88C0207E02E
:100A300005980AF2C441082204F0EEFBC4F30A143C
:100A400005EBC5000AEB8000D0F89C122144C0F8E9
:100A50009C12DAF80000816941F010018161059D66
:100A600004F0D6FB00030DD402F0F5F8049E400319
:100A700000F1E08002F0EFF8002800F1A581DAF83B
:100A80000000B9E1DAF8000004F0A1FB06460AF222
:100A9000C4400AF527744FF430684FF0000B0890FB
:100AA000002EE1D0F00700F0B8805FFA8BF9DAF899
:100AB0000000494604F0A4FB0746C0075CD005EBE4
:100AC000080001218160DAF8000008EB0001036CE6
:100AD0008A68DAF81050012D24D115072FD4950615
:100AE00047D4059D12F0280F46D1AC46E34DAB42EA
:100AF00002D9120400F1988054F8042C0969654663
:100B00006FF3DF41511AB8F5306F21602CD1DAF85C
:100B10009422002A00F08C80DAF88C020844CAF88B
:100B20008C0221E0D54D05F58075AB4211D1059DB4
:100B300010040AD4900644BF2020886014E0CF48F7
:100B4000059D834218D9100416D54FF400408860E3
:100B500012E0059DB8F5306F06D1DAF8941219B994
:100B60000021089A04F068F950464946FFF7ECFD69
:100B700002E020208860059D380722D505EB08009B
:100B80000821BE4B8160DAF800100A6C08EB010006
:100B900081689A4212D9090444BF4FF40041816030
:100BA000504600F074FBDAF81000012809D1DAF899
:100BB0000000089A012104F03FF902E0504600F0DD
:100BC00066FBF80642BF05EB080010218160B807FC
:100BD00016D56869000604D50499486840F4806019
:100BE000486014F81D0C012806D10020494604F87D
:100BF0001D0C504600F043FA05EB0800022181600D
:100C0000B80642BF05EB080020218160B80442BF4E
:100C100005EB08004FF400518160243408F12008EE
:100C200076080BF1010B3BE74FF4004065468EE779
:100C3000012196E7DAF8000004F0C2FA07460AF24A
:100C4000C4400022029005F510600690002F3FF48A
:100C500011AFF80700F0B580DAF80000D1B20792C2
:100C6000089104F0BBFA0446C00727D0079B012275
:100C7000716B03F00F0002FA00F021EA00007063CC
:100C8000069800EB43108260DAF81000012811D1B9
:100C900003EBC3000AEB8000D0E912121144C164D7
:100CA00043B9DAF8540028B9DAF80000029A0121B1
:100CB00004F0C2F808995046FFF73DFD079A200757
:100CC00004D50698082100EB42108160E00604D5A7
:100CD0000698102100EB42108160600604D506984A
:100CE000402100EB42108160A00718D5284611462C
:100CF00004F032FA079A02EBC2000AEB800010F807
:100D00003F1F012906D1002101700899504600F0CB
:100D1000B2F9079A0698022100EB42108160200682
:100D20004FD502EBC2000AEB800BD94659F8541F8D
:100D3000C84658F8080F814243D35BF8485FDAF899
:100D40000040091A03975746A94238BF0D4604EBE5
:100D500042110BF1040601F5106A15E0DBF80050B2
:100D60003B7C101A31680093A84238BF0546089AA8
:100D7000ABB2204604F022FB306828443060D8F83B
:100D800000002844C8F80000D9F80020DAF818302C
:100D9000E91C9BB2B3EB910F28BF8242DED882429E
:100DA000BA46059DDDE90376079A0AD802F00F00DE
:100DB000012101FA00F0D4F8341821EA0000C4F847
:100DC00034087F08013241E7706820F0010070604C
:100DD0009AF8F404012807D1002000218AF8F404CD
:100DE0005046FFF77FFC02E0504600F03AFA01F06F
:100DF00090FF01F00041416104F00AFA000502D4BD
:100E0000DAF800000AE0B068C00702D0504600F0EF
:100E10005DFA01F07EFF01F40061416104F0F8F930
:100E2000C00402D4DAF8000056E0D5F80408102116
:100E300020F00100C5F80408DAF8000004F08CF98D
:100E4000DAF8041005F510604FF67F32C1B1826008
:100E50000139036823F400130360C0F80822D0F8B6
:100E6000003223F40013C0F80032D0F8003243F00F
:100E70000063C0F800322030E8E700BF0A30544F6A
:100E8000F06940F00110F061DAF8300040B1D6F8B6
:100E9000840040F00B00C6F8840006F1440006E030
:100EA000706942F22B010843706106F1100001687D
:100EB0000AF2C44241F00B010160306820F4FE6088
:100EC0003060DAF800009AF8101003F0B5FF01F076
:100ED00020FF01F48051416104F09AF90146DAF8EB
:100EE0000000890419D503F0AFFDDAF8000004F022
:100EF00057F9DAF80040CAF80C0000F00FFB9AF836
:100F00000C200146204604F0E1F9504600F094F927
:100F100001F0FFFE01F40051416104F079F900078E
:100F200002D4DAF8000007E0504600F09EF901F024
:100F3000F0FE01F00801416104F06AF9000606D4F0
:100F400001F089FEC00219D4DAF8000038E00599F2
:100F5000012440F2A325886920F080008861DAF836
:100F600004008442ECD21AF80500012803D1E1B252
:100F70005046FFF7F7FB24350134F0E705980AF1F6
:100F800063040126012700F51265DAF804008742A0
:100F900011D228686178012909D1B0F1FF3F06DC40
:100FA00047F080002670C1B25046FFF7DBFB2434C7
:100FB00020350137E9E701F0ACFE01F48011416111
:100FC000059C04F025F9800202D4DAF8000030E034
:100FD000DAF8042004F532610AF5297001230124AE
:100FE000944221D20D680678012E14D1B5F1FF3F4D
:100FF00011DCDAF8FC6405F4803506F00106B54230
:1010000009D1059EB56945F08005B56100F8013C40
:1010100075692D0603D5243020310134E0E70499A9
:10102000486840F40070486001F073FE01F400115C
:10103000416104F0EDF8400002D4DAF8000007E066
:101040005046FFF774FB01F064FE01F080414161FE
:1010500004F0DEF840077FF5A4ACDAF8000044683D
:10106000610704D55046FFF779FBDAF800004168C4
:101070002143416095E4D0F8080503F04EB8D0F85C
:10108000080503F059B82DE9F04F8BB0002800F0A7
:1010900087800446056890F8BD0428B9002084F8CC
:1010A000BC04204600F08CF8032084F8BD04E86BF3
:1010B000C0055CBF00202061206803F03FFE20686F
:1010C00004F1140E04F1040B04F1240A9EE8C0504C
:1010D0009BE80E089AE800070A90D4E90C50CDE985
:1010E00000B6CDE9085002A880E8805005A880E845
:1010F00000070A9803F0B6FC00284ED120680021B2
:10110000002504F0A4F8616801200022D3B29942BE
:1011100010D903EBC30604EB860686F83C20A6F83C
:10112000443086F83D007565C6E9125586F8405092
:101130000132EBE700200022D3B299420FD903EB32
:10114000C30304EB830383F87C22C3F89402C3E94E
:10115000A20083F8800283F87D020132ECE7A068E8
:1011600004F1140ED4E9033B04F1240A22689EE83A
:10117000C0509AE800070A90D4E90C50CDE900B6B7
:10118000CDE9085002A880E8805005A880E8000753
:1011900010460A9A03F018FD38B1022084F8BD0405
:1011A000012528460BB0BDE8F08F0025012084F80A
:1011B000385084F8BD04206803F0FAFCF1E7000021
:1011C000B0B586B00068B0F1A04F2FD10025184C03
:1011D0000095206840F001002060206800F00100C8
:1011E00000900A2005900320CDE9035002200290D0
:1011F0004FF4C0500190009801A90E48FFF7ECF899
:1012000060680021002240F0800060600095606905
:1012100040F480406061606900F480400090009874
:101220004320FFF729FA4320FFF716FA06B0B0BDB6
:10123000303802400000024010B50446C06828B1B2
:10124000022801D0FFF748F8012100E00021D4F87E
:10125000080502F0DCFFD4F80805BDE8104002F0F4
:101260008FBFD0F8080502F0BBBFD0F8080502F028
:10127000C1BF10B501F08BFC04BF022010BD84F883
:10128000381001F088FD04F011F801F014BDD0F819
:10129000082500F2C441104602F0C5BF10B501F0A8
:1012A00076FC04BF022010BD01F08BFD06D1A169C0
:1012B000012903D0816B41F48031816303F026FF63
:1012C000206803F069FC01F0F6BC000010B504468C
:1012D000D0F8080502F0E9FF2068D0F8001E41F0C0
:1012E0000101C0F8001E206A20B10348016841F0E6
:1012F0000601016010BD00BF10ED00E0F8B5044626
:10130000006810F0050F1ED03B4F0020804E386063
:10131000FFF73EF905463068000105D5FFF738F9BB
:10132000401B0228F7D92DE0D4E9010101F0E3FBCD
:1013300005463068000105D4FFF72AF9401B022852
:10134000F7D91FE0206880074FF0000044D5704EA9
:1013500000902A4F306C40F080503064306C00F0C8
:10136000805000900098386840F480703860FFF733
:101370000FF905463868C00506D4FFF709F9401B88
:101380000228F7D90320F8BD306F10F4407010D058
:10139000E16801F4407188420BD0306F1849012296
:1013A0000A60002220F440700A603067306FC00786
:1013B00013D1E0681349B268014000F4407322F48D
:1013C000F8126FF31F30B3F5407F08BF0A43B260D5
:1013D000316F084330670020F8BDFFF7D9F80546A4
:1013E00041F28837306F8007E3D4FFF7D1F8411B13
:1013F0000320B942F6D9EFE7680047420070004089
:10140000400E4742FFFCFF0F2DE9F041002857D066
:101410003F4B04468846D3F8000400F0070088429A
:1014200004D283F8008401F060FB49D12068810771
:1014300011D5410703D5996841F4E051996001073E
:1014400003D5996841F460419960A1689A6822F0D7
:10145000F00211439960C0072BD101F046FB04D97B
:1014600083F8008401F041FB2AD12068410705D5AB
:10147000E1689A6822F4E05211439960000706D5AA
:101480002069996821F4604141EAC00098601C46D7
:1014900000F062F8A1681F4AC1F30311515CC84013
:1014A0002A4908601C480068FFF79AF80020BDE848
:1014B000F0816068811E022905D21968890107D46C
:1014C0000120BDE8F08101281DD119688903F7D5F5
:1014D00099681D4621F0030108439860FFF758F80A
:1014E000064641F288376068A9682B4601F00C0176
:1014F000B1EB800FB1D0FFF74BF8801BB842F2D9A7
:101500000320BDE8F08119688907D9D5E0E700BF5D
:1015100000380240CA590008080000200B48006843
:10152000704700BF09480A490A4A00680968C1F3C0
:101530008221515CC840704704480549054A00684B
:101540000968C1F34231515CC84070476C0000200B
:1015500008380240DA59000810B5134C606800F0F2
:101560000C011248082903D004291CD1104810BDD1
:101570002168236801F03F0221685B02C1F38811F2
:1015800005D4A1FB00010023FEF71AFE03E0084882
:101590004843B0FBF2F021680222C1F3014102EBA3
:1015A0004101B0FBF1F010BD043802400024F4000A
:1015B00000127A002DE9FC41002860D00446007832
:1015C000C34EC0070BD0B06800F00C00042840F0F8
:1015D0008F803068800302D5606800284FD0207863
:1015E000800718D5B06810F00C0F07D001F03CFB55
:1015F00040F096807068400200F192803068800769
:1016000002D5E06801283AD12069316821F0F8015B
:1016100041EAC00030602078000733D420784007CA
:1016200043D4A76947B301F01FFB40F0AA80012F04
:1016300025D0E169706800F480028A421FD1216AD6
:1016400000F03F028A421AD147F6C071626A014037
:10165000B1EB821F13D1A16A4FF6FF72C903914308
:1016600000F44032A1F580318A4208D1E16A00F0ED
:101670007060B0EB016F02D10020BDE8FC81012059
:10168000BDE8FC816169934800296AD00121C0F856
:10169000801EFEF77DFF0546706F8007BED4FEF703
:1016A00077FF401B0228F7D9C9E0306C10F0805852
:1016B0000AD100200190306C40F080503064306CD2
:1016C00000F0805001900198834F3868C0053AD4EB
:1016D000386840F480703860FEF75AFF0546386875
:1016E000C00530D4FEF754FF401B0228F7D9A6E00E
:1016F00001F0BAFA03D1706840023FF56AAF606842
:10170000B0F5803F07D0B0F5A02F40F08280306860
:1017100040F480203060306840F48030306082E0F7
:10172000E06800284CD06B4801210160FEF730FFD3
:101730000546306880073FF567AFFEF729FF401B7D
:101740000228F6D97BE0A068012805D0052848D1F9
:10175000306F40F004003067306F40F001003067B8
:1017600049E00021C0F8801EFEF712FF0546706FA9
:1017700080077FF553AFFEF70BFF401B0228F6D919
:101780005DE05449002088460866FEF701FF0546E3
:10179000022F0AD147463068800153D5FEF7F8FE84
:1017A000411B03200229F6D967E7306880017FF5E5
:1017B00063AFFEF7EDFE411B03200229F5D95CE77C
:1017C000444800210160FEF7E3FE054630688007CB
:1017D0007FF521AFFEF7DCFE411B03200229F5D97E
:1017E0004BE7316F002821F001013167316F21F0A3
:1017F0000401316745D0FEF7CBFE054641F288373C
:10180000306F80074CD4FEF7C3FE401BB842F7D9B7
:1018100015E03168002821F480313160316821F40D
:101820008021316045D0FEF7B3FE05463068800365
:101830003FF5D5AEFEF7ACFE401B6428F6D9032079
:10184000BDE8FC811C341FCC0843D90340EA821058
:101850004FF6FF72914340EA0460A1F580310843DE
:10186000706001203866FEF793FE04463068800100
:101870003FF502AFFEF78CFE011B03200229F5D9CC
:10188000FBE6FEF785FE054641F28837306F80079C
:1018900006D5FEF77DFE411B0320B942F6D9ECE6E2
:1018A000B8F1000F7FF4BDAE306C20F08050306492
:1018B000B7E6FEF76DFE0546306880037FF58FAE14
:1018C000FEF766FE411B03206429F5D9D5E600BF6B
:1018D00000380240000047420070004070B50068C8
:1018E0004468200C04F03F05C4F30423C4F34236DB
:1018F000C8708D704B700E70CAB9220A1B092D0971
:1019000004F00F0402F00F0243EA830345EA850561
:1019100002EB430204EB45044A7000F00F02C0B230
:101920008C70000900EB800002EB4000C8700020C2
:1019300070BD70B50068836A4B6003696FF3DF3375
:101940008B600468C4F3805004F07F05C4F3062361
:10195000C870C4F305408D704B700870CAB9220A74
:101960001B092D090009260C04F00F0402F00F02D8
:1019700003EB830305EB850540EA800002EB43029D
:1019800004EB45044A7006F00F028C7002EB400035
:101990000870002070BD0000A8B370B50446407FF9
:1019A00020B900202077204600F032F80220CA211A
:1019B0006077206801F0A8F808BB94E80F00134E88
:1019C00085683540856025692943656929438568AF
:1019D000294381600361016941EA024101612046B6
:1019E00001F036FA58B92068A169026C22F480220D
:1019F0000264026C114301640120607700202168B9
:101A0000FF224A6270BD0120704700BFBFFF8FFFF9
:101A1000F8B500210068CDE901110949884200D0DC
:101A20008FBD4FF480700390022000906846FFF74E
:101A300065FC08B1FEF750FC0248012101608FBD32
:101A4000002800403C0E4742F8B5037F04460220C0
:101A5000012B5DD060770120207732B14878CA78B9
:101A60008E78000240EA024534E0487809254FF0BC
:101A70000A0CC20642BF00F0EF000A304870CB7873
:101A800009268A78092B88BF1D46B5FBFCF5092875
:101A900005EB8507A3EB470343EA05134FF0090560
:101AA00088BF0546DBB2B5FBFCF505EB8507A0EB6F
:101AB000470040EA0510C0B20002092A40EA034587
:101AC00088BF1646B6FBFCF000EB8003A2EB430296
:101AD00042EA00162068CA2242625322426220462D
:101AE0000F7801F08EF970B9F0B22168284320F028
:101AF000C00040EA47304860204601F0A9F910B91B
:101B00000120607700200021FF22217721684A62AE
:101B1000F8BD00002DE9F0410D46017F044602208A
:101B2000012973D06077012020772068816801F057
:101B300040012AB151B94FF0000885F8038008E050
:101B400071B94FF0000885F803800CE0E9784FEA9E
:101B500081586A782978AE78120242EA014733E068
:101B6000E9784FEA81582978092609276A7895F893
:101B700002E04FF00A0C092988BF0F46B7FBFCF7BB
:101B8000092A07EB8703A1EB43014FF0090388BF44
:101B9000134641EA0711B3FBFCF3C9B203EB830719
:101BA000A2EB470242EA0312D2B21202BEF1090FBF
:101BB00042EA014788BF7646B6FBFCF101EB8102A1
:101BC000AEEB420242EA0116CA2100F09DFFC0B905
:101BD000F0B20F49384340EA080008402168086025
:101BE000886820F480208860D5E9030210438A6861
:101BF00010438860204601F02BF910B9012060776E
:101C000000200021FF22217721684A62BDE8F0818F
:101C10007F7F7F00B0B504460068C16821F0A00155
:101C2000C160FEF7B5FC05462068C068800644BF69
:101C30000020B0BDFEF7ACFC01F06FF884BF0320BC
:101C4000B0BDF1E72DE9F04186B004460320884697
:101C500084F83400606C03280DD14FF08050A16BE4
:101C6000964E0843A063A06B18B3206801258663D5
:101C700084F8345028E0B8F1000F34D0B8F5805F14
:101C8000EBD0B8F5006F3FD101F0AFF880013ED442
:101C900004A9204601F0B8FE0028E0D19DF8160006
:101CA00040072ED501F022F80028D8D12068022163
:101CB00036E094E80F00D4E90575CDE90087029578
:101CC00001F0DFFB2068002500F0A1FF20B12168B2
:101CD00001258E6301F051F8012084F83400284674
:101CE00006B0BDE8F08101F080F880010FD404A9AE
:101CF000204601F089FE0028B1D19DF81600C007EA
:101D000008D14FF08060AAE74FF00060A7E74FF4DA
:101D10000060A4E700F0EAFF0028A0D120680021BD
:101D200001F01BFC9BE700BF78B110B5044603200F
:101D300084F83400206801F0B5FB204600F0E8F993
:101D40000020A06384F8340010BD0120704700001B
:101D5000B0B5D0E91942436CA50F0D70C4F383658B
:101D60004D70C4F301658D70250CCD70250A0D7181
:101D70004C71140DCC80C2F303440C72C2F3C03416
:101D80004C72C2F380348C72C2F34034CC72C2F312
:101D900000340C730024012B4C7330D0002B40F026
:101DA000818040F6FC73012503EA8202C36E42EA99
:101DB00093720A61C26EC2F3C2630B75C2F302630F
:101DC0004B75C2F342538B75C2F38243CB75C2F39A
:101DD000C2330B764FF4007303660B690C7E04F07C
:101DE000070401330234A34043650C7A04F00F0466
:101DF00005FA04F48465640A6343C36512E0B0F82D
:101E00006E3002F03F0243EA02424FF480630A61FF
:101E10004FF40072026682650A6903EB8222C26592
:101E20004265C26EC2F380334B76C2F3C61302F032
:101E30007F028B76CA76006FC20FC0F300430A7729
:101E4000C0F341724A77C0F382628A77C0F383524B
:101E5000CA77C0F3405281F82020002281F8212067
:101E600081F82230C0F3C03381F82330C0F38033CF
:101E700081F82430C0F3403381F82530C0F30033BB
:101E800081F82630C0F3812381F82730C0F3012385
:101E9000C0B2400881F8283081F82900012081F87B
:101EA0002A0009E00168984A8A630122816B41F0A7
:101EB0008051816380F834201046B0BDFF0540009A
:101EC000B0B500F144053CCD81E83C00426D0A61AB
:101ED000826D4A61C26D006EC86100208A61B0BD2A
:101EE00010B504460068216D090401F0F6FB20B12D
:101EF000A16B0843A063002010BD00F08CFEC0F36E
:101F0000432010BD10B590B1044690F8340020B9BC
:101F100000202077204600F015F9032084F83400D3
:101F2000204600F00DF80146012011B110BD01203E
:101F300010BD0021A163216384F83400002010BD8E
:101F4000F0B58FB0044600687621002600220023F9
:101F500002910021CDE9006601F093FA012590B9C4
:101F6000674F3E60206801F0A1FA02203D60FEF755
:101F7000B7F90496206801F001FB38B1012584F817
:101F8000345000F0FAFE28460FB0F0BD206801F092
:101F90001BFB50B10020A064206801F0EFFA00287C
:101FA000ECD1A06C012802D009E00120A0642068D7
:101FB000002101F097FA10B14FF08050DEE7534D49
:101FC00000204FF6FE760021049AB24213D891B950
:101FD0002068002101F086FA0028CFD12068294628
:101FE00001F094FA0028E7D100F015FE04990131C0
:101FF0000491C10FE8E704994FF6FF72914202D3B2
:102000004FF08070BAE7C0F38070012560642068EB
:10201000ADF80E5001F02EFA88B1606C032811D192
:102020002068042101F02AFA000DE06404A920468A
:10203000FFF78EFE002845D04FF080509FE74FF00D
:1020400080609CE7206801F009FB002897D1206898
:102050002C4E0021B047606720680421B047A0677C
:1020600020680821B047E06720680C21B047C4F819
:102070008000606C0328D3D020680DF10E0101F0C0
:102080003FFB00287FF47BAF606C0328C8D0BDF80D
:102090000E1020682165090401F0F5FA00287FF48C
:1020A0006EAF20680021B047606620680421B04709
:1020B000A06620680821B047E06620680C21B04780
:1020C0002067ADE7216D206800230A0401F0B3FA10
:1020D00000287FF454AF94E8EF008DE8E00001F0B1
:1020E000D0F9206800F093FD40B12168A04A012595
:1020F0008A6300F042FE84F8345044E7002542E74A
:10210000A08025427D340008FF054000000010C17A
:1021100010B50068304CA04218BF10BD08480168D7
:1021200021F40061016004F55C404FF4F851FEF7C2
:10213000E7F804F560400421BDE81040FEF7E0B880
:10214000443802402DE9F04385B00068224DA84292
:102150003FD1002121486C464FF00C084FF0030995
:10216000012602270091426942F4006242614269FD
:1021700002F400620092009A0091026842F00402A8
:102180000260026802F004020092009A0091016865
:1021900041F0080101602146006800F0080000904D
:1021A0000098CDF81080CDF80C90029601974FF46E
:1021B000F850009005F55C40FEF70EF9042021462A
:1021C000CDE90398CDE90176009005F56040FEF772
:1021D00003F905B0BDE8F083002C0140303802401F
:1021E0002DE9F04F87B09B4616460D460446FEF794
:1021F000CFF96DB1804600F0FEFC0CD100210BEB55
:102200000600A163E26D90420DD900F0F5FD05E0F6
:1022100000F0EDFC02E0A06B40F00050A063012054
:1022200007B0BDE8F08F03204FF001094FF0020A1C
:1022300084F834002068676CC162CDE905199021EB
:10224000CDF810A003914FF0FF3101914FEA4B21DF
:10225000029101A901F0FCF8012F18BF7602BBF131
:10226000020F06D3C4F830A03146206801F0BDF952
:1022700005E0C4F830903146206801F0C9F938B162
:1022800021689E4A8A63A16B084300F0D8FCC7E727
:10229000DDF84090029E40F22A3A2068426B416B82
:1022A00012EA0A0F1CD108040BD556B10027202FC3
:1022B00005D0206801F0FEF8E8510437F7E73D4407
:1022C000203EFEF765F9A0EB08004845E5D32068FD
:1022D0008A498163A06B40F0004000F090FC9FE7CA
:1022E000BBF1020F0ED311F480710BD0616C032986
:1022F00008D001F01BFA0146206819B17F4A8263B9
:10230000A06BC1E7416B090716D4416B890719D44B
:10231000416B89061CD4416B89021FD5F6B101F0CF
:10232000C9F82860FEF734F9A0EB0800484518D238
:1023300020680435043EEEE770498163A06B40F0ED
:102340000800A2E76D498163A06B40F002009CE7A2
:102350006A498163A06B40F0200096E700F063FCBF
:102360005EE7206865498163A06B40F000408CE720
:10237000FF0540002DE9F04F87B0984615460E4600
:102380000446FEF705F96EB1824600F034FC0CD12C
:10239000002108EB0500A163E26D90420DD900F029
:1023A0002BFD05E000F023FC02E0A06B40F00050A4
:1023B000A063012007B0BDE8F08F0320012284F85C
:1023C00034002068676CC162CDE904119021069247
:1023D00003914FF0FF3101914FEA4821029101A989
:1023E00001F036F8012F18BF6D02B8F1020F06D3C5
:1023F000202029462063206801F0AEF905E0102076
:1024000029462063206801F0BAF938B121683B4AB7
:102410008A63A16B084300F012FCCBE7109FDDF844
:1024200008B040F21A396D462068426B416B12EADF
:10243000090F33D1480424D5BBF1000F21D04FF050
:102440000009B9F1200F17D016F8090006EB0901B1
:1024500000904A7840EA022000908A7840EA0240E0
:102460000090C97840EA016029460090206801F098
:1024700034F809F10409E4E74E44ABF1200B40F2D3
:102480001A39FEF785F8A0EB0A00B842CCD32068D1
:102490001A498163A06B00F0B2FB8BE7B8F1020F21
:1024A0000ED311F480710BD0616C032908D001F0B8
:1024B0003DF90146206819B1104A8263A06BA9E773
:1024C000416B090708D4416B89070BD4416BC906DE
:1024D0000ED400F0A8FB6DE708498163A06B40F0C3
:1024E000080098E705498163A06B40F0020092E77D
:1024F00002498163A06B40F010008CE7FF054000AB
:10250000411E0020B0EB116F1CBF01207047044A30
:10251000F023516003490B700721906011607047F0
:1025200010E000E023ED00E090B110B5044690F813
:102530003D0008B900F038FC00F0FDFB206801699F
:1025400021F490410161416921F02A0100F040BC71
:1025500001207047FEB501681448814224D1002152
:10256000134A00F570400191536943F01003536121
:10257000536903F010030193019B0091136843F02A
:1025800001031360126802F0010200920722059213
:102590000322CDE90312022102914FF4C06101919F
:1025A000009901A9FDF718FF06B080BD0010014099
:1025B000303802402DE9F843044690F83D002028C9
:1025C00006D10D4639B116462AB100F034FB05D1CB
:1025D0000220BDE8F8830120BDE8F8830020994679
:1025E0002064012084F83C00212084F83D00FDF7A0
:1025F000CFFFE6848046A684A068B0F5805F01D155
:10260000206910B100262F4601E000272E46002049
:1026100084F83C00E08CA8B12046802100F0FFFA4D
:10262000A8B927B117F8010B2168486006E036F811
:10263000021B206800276FF35F214160E08C0138A6
:10264000E084E7E72046402100F0E9FA10B10320DA
:10265000BDE8F883202084F83D000020BDE8F88321
:10266000FEE770B501310023372472B1060F01F87F
:10267000023B04EB1075B0F1204F38BF06F1300576
:1026800001F8035C013A0001EFE770BD70B500F09E
:102690006BFA15D095F81C0298B19D4E2046317802
:1026A00001F0F1FD687A02280AD13178204601F064
:1026B000EAFD984801782046BDE8704001F0E3BD8E
:1026C00070BDD5F818020028E7D0687A0028E4D158
:1026D00090480178204601F0D6FDDEE710B50446AB
:1026E000D0F8D40200F074FA14D0407A02280BD14A
:1026F00087480178204601F0C6FD864801782046CB
:10270000BDE8104001F0BFBD49B2B1F1FF3F01DCAF
:10271000012800D110BD20460121BDE8104000F085
:10272000D7B800BF10B50446D0F8D40200F050FA74
:1027300015D0017ACA1E022A05D200212046BDE822
:10274000104000F0C5B8022909D190F81D1200F21E
:102750001F22204600F0A8FBB0F1FF3F00DD10BDB6
:102760000121EBE7B0B500F0FFF931D0287A01285C
:1027700027D068BBD5E98501C5E98D016548017899
:10278000204601F084FC1F280DD1D5F810022A49FB
:10279000884208D195F81D12012904D895F81E0227
:1027A00008B1112815D395F81D12204605222023C3
:1027B00000F02AFE022068722046BDE8B040FFF714
:1027C00065BF95F81D1200F068FAB0F1FF3F2ADDF1
:1027D000B0BD00F062FA297AB0F1FF3F21DD481E5A
:1027E0000328F5D3EB6823B3D4F8D40200F0F0F952
:1027F000EED0D0F83822002180F83C120421D21A01
:102800000172D0F81812C0F83822414805F11002C0
:10281000994238BF0B4601782046BDE8B04001F030
:102820004DBD0529C8D120460121BDE8B04000F0CA
:102830004FB820460021F8E755534243D0F8D41250
:1028400000EB8100D0F8C00208B10021017270478E
:1028500070B500F089F91DD000212981A5F860121A
:1028600085F86212D0F8C402016800208847294E1A
:102870002046317801F002FC25480178204601F01D
:10288000FDFB317805F5047220461F23BDE870403A
:1028900001F06DBC70BD00BF70B500F065F915D0DA
:1028A0004FF4807028811A480178204601F03FFBE0
:1028B000184E2046317801F03AFB317805F5047264
:1028C00020461F23BDE8704001F051BC70BD00BF21
:1028D000B0B500F049F918D00C4885F83C1205F560
:1028E0000C720D23C5F830020020287208480178C8
:1028F000204601F0E3FC074805F504721F23017828
:102900002046BDE8B04001F032BCB0BD5553425343
:102910000C0000200D00002081B00021154800911E
:10292000026842F004020260026802F004020092AF
:10293000009A0091026842F080020260026802F090
:1029400080020092009A0091026842F00102026047
:10295000026802F001020092009A0091016841F0C1
:1029600008010160006800F008000090009801B0C4
:10297000704700BF3038024010B586B01748184B7A
:102980000024FF217F22CDE90244CDE90044C0E9C3
:102990000034C0E90221C0E904448461FEF7FCFF71
:1029A00008B1FDF799FC0D48CDE904448DF80640C7
:1029B000ADF8044001A90122FFF7ACF808B1FDF71A
:1029C0008BFC08486946012200900448FFF73CF858
:1029D00008B1FDF781FC06B010BD00BF8C0D0020D2
:1029E000002800400101012310B5104C2046FFF7DC
:1029F0009BF90F4900204FF480430322C4E90200F1
:102A0000C4E90403A261C4E900102046FFF77AFA82
:102A100008B1FDF761FC05484FF40061FFF712F9BA
:102A200018B1BDE81040FDF757BC10BDAC0D00203B
:102A3000002C014010B50B480B4C00210C224FF428
:102A4000E133C0E90043C0E90211C0E90412C0E962
:102A50000611FFF769FD18B1BDE81040FDF73CBC59
:102A600010BD00BF300E00200010014080B50F489F
:102A70000F49002201F048FA08B1FDF72DFC0B4880
:102A80000C4901F052FD08B1FDF726FC07480A4940
:102A900001F0C8FC08B1FDF71FFC044801F06AFD15
:102AA00018B1BDE88040FDF717BC80BDA40500202B
:102AB0001000002088000020EC000020FEE7FEE768
:102AC0000148FDF765BF00BF80080020214601F0E6
:102AD000F2B949B2B1F1FF3F00EBC00104EB810153
:102AE0007047C0F8041800207047D3F8000400F0C5
:102AF000070040457047090741EA8010C6F8840086
:102B000001203860FDF744BD4162532141622046F7
:102B100000F077B904464FF48060059000200490DF
:102B2000402003907047206850E8050F216820F08E
:102B3000010041E80502002A7047D0F8D42200EBDA
:102B40008202D2F8B822002A7047204601F00EB95E
:102B5000C0F89412002101F0B1BB00F00F0000EBAF
:102B6000800004EB800070470446D0F8D40204EBE8
:102B70008000D0F8C052002D7047D0F8C4028168A0
:102B8000304608470138B0FA80F0400980BD04465D
:102B900090F8BC040128704700F01F010122C0B268
:102BA00002FA01F17047204600F087BC0020C4F80B
:102BB000D40220461047204601F0F5B8C0F8941220
:102BC000002101F0D4BA05463046012101F05EB97A
:102BD00004EB8000D0F8C00200287047D5F8D4027A
:102BE00005EB8000D0F8C402C16830460847A06BEE
:102BF00040F00060704794F8340001287047A063EB
:102C0000012084F8340000202063032070474FF433
:102C1000007100F08FBC2068002100F02FBC4246FC
:102C20004B4601F059B840F23A518163012084F8D3
:102C300034000020704794F83C0001287047A063DE
:102C40000120002184F8340021637047206850E897
:102C5000030F21687047DAF8000002F0D9BAC9F80A
:102C60003810D9F838107047B06800F00C00082808
:102C700070474FF480604021059000200391704719
:102C80000020C4F8D40220460847204601F051B87D
:102C900004468121304601F0F9B805F21F22204692
:102CA00000F002B9D0F8C40204F51A7104F51972E3
:102CB000436830461847002084F8BC0410BD0A5809
:102CC00042F000620A500A5842F080420A5042F232
:102CD0001072704704464FF4806005900020049005
:102CE000402003900620CDE901107047216D206837
:102CF000090400F0F7BB94F89C02013802287047E1
:102D0000D7F8020002BAC4F86C22B7F8070043BA39
:102D10007047DAF8000041697047401BB0F57A7FD0
:102D200070474FF4FA520968B1FBF2F141F2883270
:102D30005143C9437047242084F83D002068C1688E
:102D400021F40051C160204600F062BFD7F80200B4
:102D500002BAC4F86C22D7F8060003BA7047002004
:102D600084F8BC04B0BD04464FF480600590002098
:102D700004904020039008207047A16B0843A06393
:102D8000704741E80302002A704728463146C4F8DC
:102D9000703200F071B8012084F8BC0420687047DC
:102DA0000490CDE901017047002084F83C002046E2
:102DB000FFF7D0BBB4F86402D4F87022D4F818122C
:102DC00070470121206884F8BC14A16A012970476A
:102DD0004161C16841F40051C1600020202120649C
:102DE00084F83D1084F83E1010BD00200021CDE98C
:102DF0000400206800F042BBA06B40F000707047F8
:102E000070472DE9F04104460068C16849061BD4AB
:102E1000C1680026012741F08001C160FDF7B8FBC1
:102E200005464FF004082168F843C96840EA91104C
:102E3000C0070AD1FDF7ACFBFFF76FFFF3D984F8A9
:102E40001D8001260027EEE70026F0B2BDE8F081E4
:102E500010B504460068C16821F08001C160806837
:102E6000800607D42046FEF7D5FE18B1042060770F
:102E7000012010BD002010BD80B5D0F8D41200EBA9
:102E80008101D1F8C01249B1D1F868121A448A42BE
:102E900006D900210522212300F0B6FAFF2000E028
:102EA000002040B280BD0000FEB50546D0F8D40237
:102EB00005EB8000D0F8C042002C00F0C3810E4624
:102EC00011781746A1F11A02102A26D9AA2900F072
:102ED000C580032900F0CD80122900F0D8802F2969
:102EE00000F0EC805A2900F0F5809E2900F0FC806B
:102EF000A82900F01081002921D1D4F81812002946
:102F000040F04F8194F86212022900F03D81FFF7F2
:102F100034FE002840F0388159E1DFE802F0091959
:102F200010102C1010101035104F10106D10830061
:102F30003A79DFF88C13172A28BF1722CFE02846EA
:102F400000210522202300F05FFA0220607279E15F
:102F5000387994F8621200F00300012908BF0228B2
:102F600000F02C810021012818BF032840F02B819C
:102F700084F862122BE139790020E060002918BF43
:102F8000012184F862125EE1D0F8C4020DF10A0258
:102F9000436801A930469847002840F04D8194F8D5
:102FA0006202022800F0488104F110000021002292
:102FB0000C2A00F00F8181540132F9E7FFF772FE0D
:102FC000002840F0398194F86202022800F0348130
:102FD00008210020E160D4F86812A08201390A0AB1
:102FE000E174A2740A0C090E2174B4F864126274BC
:102FF00009BA090CE18226E1217A002940F08E808D
:1030000094F91C12002940F1CC8094F86212022934
:1030100000F01281FFF7B1FD002840F00D81FFF7AD
:103020006FFE20E1217AE9B9D4F81812002900F0E6
:10303000B88094F91C12B1F1FF3F40F3B280FFF762
:103040009CFD002840F0F880FFF7C8FD002800F044
:1030500016812846002102222723F1E0217A002947
:1030600000F086802846314603B0BDE8F04000F00D
:1030700077B9D4F81802002800F0938004F110000A
:1030800000210022122A53D081540132FAE7D4F8E9
:103090001812002900F085807978C90740F08680F1
:1030A000D0F8C40206EBC6013A79C06900EB810191
:1030B00008790530904238BF024610E078788007E2
:1030C0007CD4D4E99B2328463146FFF7D5FE00285F
:1030D0007DD5B7E03A7A79491B2A28BF1B222046C2
:1030E00000F0ADF90020AEE0FFF7DCFD002840F075
:1030F000A38094F86202022800F09E80D7F80A00AC
:103100000021002200BAE060D3B2984277D923446C
:1031100001321974F8E7217A00293ED04FF400708B
:103120003146E060284603B0BDE8F04000F0CEB87C
:103130000C2094F86112E0757020207494F86002FD
:1031400088420ED004EBC001013091F84022B1F862
:103150004412A183C1B2A274043918BF014684F895
:1031600060121220E0603879122898BFE060B9E759
:10317000D4F81812A9B194F91C12B1F1FF3F10DD77
:10318000FFF7FBFC002864D02846002102223A23E6
:1031900000F03AF90520207254E094F91C1200293D
:1031A00043D4284600210522202349E0B87880280E
:1031B0004BD018B944492046062291E72846002101
:1031C000052224233CE0022801D10221D0E6002080
:1031D000E06038E00820E074022020830C20E060EA
:1031E00001980138010AE075A175010C000E2075E7
:1031F000BDF80A00617500BA000C608372E7D4F86C
:1032000068120020208301390A0AE175A2750A0CB0
:10321000090E2175B4F86412627509BA090C61834C
:10322000D7F80A1009BAE1600DE094F86212022999
:1032300002D0FFF7A2FCA0B12846002102223A23C7
:1032400000F0E2F8FF2040B2FEBD1E4920460822F1
:1032500046E7FFF7C3FCA8B1284600210222272336
:1032600096E7FFF773FDFFF790FD0028EAD4FFF71C
:10327000A1FD5043814294D1022020724EE7FFF716
:103280003FFD01E0FFF762FDFFF77FFD0028D9D485
:10329000FFF790FD02FB00F399427FF482AF01201B
:1032A00004F1100220725748B3F5007F28BF4FF495
:1032B00000730178284600F05AFF13E72C00002025
:1032C00047000020640000205E0000202DE9F0414E
:1032D0000446D0F8D40204EB8000D0F8C072C7B323
:1032E000B7F86432D7E99B2507F110085D43B5F5BF
:1032F000007F28BF4FF40075D0F8C402B5FBF3F38C
:10330000066908464146B047B0F1FF3F1BDD134850
:1033100042462B460178204600F0D0FFD7F838020D
:10332000B7F86432D7E99B12401BC7F83802A8B23D
:10333000B0FBF3F00144101AC7E99B1004BF03204F
:103340003872002006E0204600210422112300F0FC
:103350005BF8FF2040B2BDE8F08100BF0C00002008
:103360002DE9F0410446D0F8D40204EB8000D0F8F7
:10337000C062A6B3B6F86432D6E99B2506F1100800
:1033800005FB03F7B7F5007F28BF4FF40077D0F8AF
:10339000C402B7FBF3F3456908464146A847B0F1BC
:1033A000FF3F16DDD6F83802BBB2D6E99B12C01B30
:1033B000C6F83802B6F86402B3FBF0F3CD18D11AA0
:1033C000C6E99B510DD1204600210025FFF780FA68
:1033D00015E0204600210422032300F015F8FF2504
:1033E0000DE001FB00F307484246B3F5007F28BF1C
:1033F0004FF400730178204600F0B9FE002568B252
:10340000BDE8F0810D000020B0B5D0F8D41200EB7B
:103410008100D0F8C00288B190F86112002500EB5D
:10342000C104013184F84022CAB284F8455284F8BC
:103430004432043A18BF0A4680F86122B0BDC26027
:103440000F3001391AB18B5C8354013AFAE77047A7
:10345000B0B591E83C004262836245EA04030A6920
:1034600049691A431143C26A22F0F7021143C1624B
:103470000020B0BD006800F00300704708444069B8
:103480007047B0B51143049A446847F6FF65194385
:103490001143059AAC431143069A114321434160FD
:1034A0000020B0BD002101600020704703210160B1
:1034B00000207047D0F88000704770B591E83C005C
:1034C00040F6FF76234382602B43C2680969B2430A
:1034D00019431143C160002070BD0968C0F8801015
:1034E0000020704710B586B0FFF714FB3720CDE9F8
:1034F000011001A9FFF757FB2046372141F288321E
:1035000006B0BDE8104000F04DB9000010B586B01F
:10351000FFF700FB2920029005480843019001A90C
:10352000FFF741FB204606B0BDE8104000F0E8B9C7
:103530000000108010B586B0FFF7ECFA1020CDE93E
:10354000011001A9FFF72FFB2046102141F288321C
:1035500006B0BDE8104000F025B910B586B0FFF701
:10356000B9FB01A9FFF71FFB2046062141F2883273
:1035700006B0BDE8104000F015B9000010B586B0E7
:1035800004460020CDE90300CDE901004FF480603E
:10359000059001A9FFF707FBE6484FF4FA510068D0
:1035A000B0FBF1F041F288314843C043013006D20C
:1035B000616B0906FAD5C520A063002001E04FF039
:1035C000004006B010BD00BF10B586B0FFF7CBFBC2
:1035D00002904FF4D570019001A9FFF7E4FA20465C
:1035E00006B0BDE8104000F0E7B910B586B0FFF7AF
:1035F00091FA1220CDE9011001A9FFF7D4FA204673
:10360000122141F2883206B0BDE8104000F0CAB87D
:1036100010B586B0FFF77EFA1120CDE9011001A99F
:10362000FFF7C1FA2046112141F2883206B0BDE809
:10363000104000F0B7B810B586B0FFF76BFA07205E
:10364000CDE9012001A9FFF7AEFA2046072141F29A
:10365000883206B0BDE8104000F0A4B810B586B0BE
:1036600004464FF48060C0210590002003910221A0
:10367000FFF796FB01A9FFF796FA204606B0BDE8D2
:10368000104000F01BB910B586B004464FF48060BE
:10369000059000200490C02003900920CDE901107E
:1036A00001A9FFF780FA204606B0BDE8104000F0FF
:1036B00005B910B586B00446FFF7DBFA3321FFF7F2
:1036C0006FFB01A9FFF76FFA2046332141F28832E0
:1036D00006B0BDE8104000F065B810B586B0FFF741
:1036E00019FA0D20CDE9011001A9FFF75CFA204677
:1036F0000D2141F2883206B0BDE8104000F052B80A
:10370000B0B586B00C460546FFF7B3FA0321FFF7C4
:1037100047FB01A92846FFF7D0FE28460321224691
:1037200006B0BDE8B04000F007B9000010B586B0A3
:103730000446FFF79EFA0C21FFF732FB01A9FFF7C1
:1037400032FA044A20460C2106B0BDE8104000F0D1
:1037500029B800BF00E1F50510B586B0FFF7DAF92A
:103760001920CDE9011001A9FFF71DFA2046192102
:1037700041F2883206B0BDE8104000F013B810B531
:1037800086B0FFF7C7F91820CDE9011001A9FFF7AE
:103790000AFA2046182141F2883206B0BDE81040EE
:1037A000AFF3008010B5034696484FF4FA54006812
:1037B000B0FBF4F050430130013804BF4FF000403B
:1037C00010BD5A6B12F0450FF6D012F40062F3D11F
:1037D000586B400742BF0420986310BD586BC00768
:1037E0001EBF0120986310BDC52098631869C0B240
:1037F00088421CBF012010BD58692F49084204BFF0
:10380000002010BD002854D4410044BF402010BD0A
:10381000810044BF802010BDC10044BF4FF48070C0
:1038200010BD010144BF4FF4007010BD410144BF01
:103830004FF4806010BDC10144BF4FF4006010BD63
:10384000010244BF4FF4805010BD410244BF4FF409
:10385000005010BD810244BF4FF4804010BDC10232
:1038600044BF4FF4004010BD410344BF4FF400304B
:1038700010BD810344BF4FF4802010BDC10344BF7D
:103880004FF4002010BD010444BF4FF4801010BD60
:10389000410444BF4FF4001010BD810444BF4FF4F5
:1038A000800010BD00074FF4000058BF4FF4803077
:1038B00010BD4FF0007010BD08E0FFFD5149734688
:1038C000FFF72FFA9E46013110D2426B12F0450FDE
:1038D000F9D012F40062F6D1416B490709D4416B6B
:1038E000C90708D1C5218163002106E04FF00041DE
:1038F00003E0042100E0012181630846704700BF16
:1039000040497346FFF70DFA9E4601310ED2426BD5
:1039100012F0450FF9D012F40062F6D1416B042287
:1039200011F0040108BFC522826301E04FF000419D
:10393000084670476C00002010B5324B4FF4FA5423
:103940001B68B3FBF4F341F288346343DB43013378
:103950001FD2446B14F0450FF9D014F40064F6D173
:10396000436B5B0718D4436BDB0717D10369DBB2EA
:103970008B4217D1C5218163406910F4604F13D089
:10398000410415D44FF48051000458BF4FF48031E6
:1039900006E04FF0004103E0042100E001218163D3
:1039A000084610BD0121FBE7000C00211080F7E75D
:1039B0004FF40051F4E700BF12497346FFF7B1F925
:1039C0009E46013113D2426B12F0450FF9D012F42A
:1039D0000062F6D1416B49070CD4416BC9070CD189
:1039E000416B49064FF000010AD5402207E04FF035
:1039F000004105E00422042101E00122012182634B
:103A0000084670476C0000202DE9F04188B00C4654
:103A10000546FCF7BDFD064600200821CDE9000063
:103A20002868FFF787FD002851D1296D286809040F
:103A3000FFF758FD00284AD101200790002006908A
:103A40000220059030200490082003904FF0FF30B2
:103A50000290286802A9FFF7FBFC2868FFF729FEFF
:103A6000A8BB0027E8462968486B10F02A0F14D13C
:103A7000486B800203D4486B800406D40DE00846EE
:103A8000FFF718FD48F827000137FCF781FD801B80
:103A900001304FF00040E6D119E0486B000710D428
:103AA000486B80070FD4486B80060ED440F23A5022
:103AB0008863DDE9000109BA00BAC4E900100020FA
:103AC00005E0082002E0022000E02020886308B022
:103AD000BDE8F081B0B588B01C480D466946144673
:103AE000FEF7EEF9DDE906010138218028600020AB
:103AF00008B0B0BD0020704700207047002070471C
:103B0000002070471CB542F2107000900F48FEF77D
:103B100067FB08B103201CBD0C4C2046FEF7E0F902
:103B20000428FAD100201CBD1CB542F21070009090
:103B30000648FEF71FFC08B103201CBD034C2046BD
:103B4000FEF7CEF90428FAD100201CBDAC0D0020F0
:103B50007047FCF721BD0000B0B592B000241421DD
:103B60000B94CDE9094401A8FCF762FB22480094BC
:103B70000225016841F080510160006800F080502A
:103B80000090009800941D48016841F48041016054
:103B9000006800F480400090072010951190A82044
:103BA0000F9004200E904FF48000CDE90C500120BE
:103BB00008904FF48030079005200690009806A8E2
:103BC000FDF7F8FC18B1EFF3108072B6FEE74FF482
:103BD0008050CDE90254052105904FF4A050049087
:103BE0000F20019001A8FDF70FFC18B1EFF3108032
:103BF00072B6FEE712B0B0BD40380240007000401F
:103C00000248016841F470010160704788ED00E0EE
:103C1000B0B50446006804F108030ECB056925F42D
:103C2000405519432A4349F20C650261C268636931
:103C30001943E369AA4319431143C1604169A26969
:103C400021F4407111434161214940F48060884270
:103C500002D1FDF771FC01E0FDF764FCE269192176
:103C60006368A0FB0101B2F5004F17D15A00DB0FCA
:103C7000FCF7A6FA174B6421B0FBF1F203F1805375
:103C800002FB0300322303EBC000B0FBF1F04FF462
:103C9000F87101EA400100F0070012E09A009B0F62
:103CA000FCF78EFA64210B4BB0FBF1F202FB030030
:103CB000322303EB0010B0FBF1F000F0F00100F054
:103CC0000F0001EB0211084421688860B0BD00BFFD
:103CD000001401409CFFFF0F2DE9F0411D46904666
:103CE0000F4604465E1C206800683840B8421DD06C
:103CF000002EF8D02DB1FCF74BFCA0EB0800A84239
:103D0000F1D9FEF7A3FF20F4D070FFF73AF8F8D10D
:103D1000FEF709FFFCD12020002184F83D0084F843
:103D20003C1084F83E000320BDE8F0810020BDE88F
:103D3000F08180B5D0F8B82252689047002818BFAB
:103D4000032080BD002070470020704780B51346D7
:103D50000A46002100F00BFA002080BD80B5134612
:103D60000A46002100F0AAFA002080BD10B580218B
:103D7000044600F088FA20460021BDE8104000F01B
:103D800082BA80B5052100220023FEF717FF00202C
:103D900080BD80B513460A460221C0E90633FEF70E
:103DA000D7FE002080BD80B5042100220023FEF74D
:103DB000CFFE002080BD000010B5264C0A4602A0B0
:103DC000FEF784FE204610BD4D534320436F6E66C0
:103DD00069670000122008800048704770000020CA
:103DE00010B51C4C0A4602A0FEF770FE204610BD1E
:103DF0004D534320496E746572666163650000002F
:103E000004200880004870478400002010B5114C41
:103E10000A4602A0FEF75AFE204610BD53544D69D3
:103E200063726F656C656374726F6E6963730000B3
:103E300010B5084C0A4602A0FEF748FE204610BD09
:103E400053544D3332204D6173732053746F72613C
:103E5000676500002C010020B0B51A2008800949D0
:103E600008688A6880180BD0074D4C680822A91C86
:103E7000FEF7F7FB05F1120120460422FEF7F1FBE5
:103E80000148B0BD107AFF1F0C01002010B5027868
:103E9000438893420DD994B29C420AD204782044BC
:103EA00022444478052CF6D184788C4208BF10BD9A
:103EB000F1E7002010BDB0B5C8B100230446257855
:103EC00015B101340133FAE7DCB2022303EB4404F9
:103ED000148003220C704A70002204783CB1DDB2D9
:103EE000023301304C5545F001040A55F5E7B0BDE9
:103EF000044AC100032822FA01F188BF0321C8B295
:103F0000704700BF0003010378B10023C0F8D0322E
:103F1000C0F8C432C0F8B83209B1C0F8B4120121F7
:103F2000027080F89C1200F0B7B80320704780B58B
:103F3000D0F8C802FCF745FCBDE88040FFF7D8BFC9
:103F400080B5D0F8C802FCF71EFCBDE88040FFF742
:103F5000CFBFB0B5044669B194F89C02032847D19D
:103F6000D4F8B8024269002A42D0FEF71FFE0028AA
:103F70003ED0B0BDD4F89402022833D1D4E9070171
:103F800088420DD9431A114620461A46E361FFF7CD
:103F9000E5FE204600210022002300F0E8F821E0A1
:103FA0000FD1A16981420CD3D4F89802814208D282
:103FB0002046002100220025FFF7D0FEC4F89852C9
:103FC000E7E794F89C02032805D1D4F8B802C16849
:103FD00009B1FEF755FE2046802100F054F9204635
:103FE000FFF7CFFE94F8A00210B1002084F8A002E1
:103FF0000020B0BD10B5044659B194F89C020328C6
:1040000028D1D4F8B802826922B3FEF7CFFD08B3F5
:1040100010BDD4F8940203281CD1D4E95703984268
:104020000BD9C01A1146C4F85C01984238BF034648
:1040300020461A46FFF78AFE0CE094F89C020328FB
:1040400005D1D4F8B802016909B1FEF719FE20467E
:10405000FFF7A9FE002010BD0020704780B50121A8
:1040600080F89C12D0F8B82232B10179526890479A
:10407000002818BF032080BD002080BD80B5D0F887
:10408000C802FCF7C5FBBDE88040FFF731BFD0F8A0
:10409000C802FCF7D4BB000010B5017841BB15493C
:1040A0000222C0F8C812C1F808050020C1E90B00BF
:1040B000C1E90620C1E90320C1E9080004204FF04E
:1040C000A042C1E900200846FCF7DDFF08B1FCF77B
:1040D00003F9084C80212046FCF705FB204600210F
:1040E0004022FCF704FB204601218022FCF7FFFA66
:1040F000002010BD8008002001F07F02D0F8C80227
:1041000049B202EBC202002900EB820000F27E22DB
:1041100048BF00F13E021078704780B5FEF70DFDF4
:1041200008D090F89C32032B02D1126A02B190475A
:10413000002080BD032080BD80B5FEF7FEFC08D0C6
:1041400090F89C32032B02D1526A02B190470020B2
:1041500080BD032080BD10B51446D0F8C8021A46B1
:104160002346FCF775FBBDE81040FFF7C1BE80B5E4
:10417000D0F8C802FCF793FBBDE88040FFF7B8BE5B
:10418000F8B501260025044680F89C62C0F8A452C8
:10419000456080F8A052C0F89452D0F8B80250B1EF
:1041A00042683AB12046002190470546002818BFD2
:1041B000032500E00025204600210022402340275F
:1041C000FFF7C9FF2046802100224023A4F8646144
:1041D000C4F86071FFF7BFFF2846A6842762F8BDC8
:1041E00090F89C12042904BF90F89D1280F89C124C
:1041F0000020704780B590F89C12032905D1D0F8B3
:10420000B81211B1C96901B18847002080BD01749D
:104210000020704780B5D0F8C802FDF72AF8BDE845
:104220008040FFF765BEB0B500F2AA2504462846D7
:1042300000F070F90120C4F89402B4F8B002C4F898
:10424000980294F8AA0200F01F01022908D001295F
:104250000CD089B920462946BDE8B04000F08CB9A1
:1042600020462946BDE8B04000F0DCBA2046294689
:10427000BDE8B04000F075BB00F080012046BDE80D
:10428000B040AFF3008080B5D0F8C802FCF72AFB3D
:10429000BDE88040FFF72CBE80B5D0F8C802FCF71F
:1042A000FDFFBDE88040FFF723BE90F89C1280F828
:1042B0009D12042180F89C120020704780B5D0F830
:1042C000C802FCF746FBBDE88040FFF711BE80B591
:1042D000FEF728FA002080BD80B5FEF743FA0020E3
:1042E00080BD000070B54E4E04467178FFF728FE81
:1042F00070780025FEF731FCA0F864512046317833
:10430000FFF71EFE3078FEF728FC8584D4F8D4022F
:1043100004EB8000D0F8C00280B12046FEF78EFA90
:10432000D4F8D40204F5307656F8200000F049FBAA
:10433000D4F8D40246F82050C4F8BC52002070BD16
:104340000A21018000487047E000002070B5184E37
:10435000FEF79EFCFEF737FC0DB14021A98008B1A5
:104360004021818020202080114870BD70B5104E02
:10437000FEF78EFCFEF727FC15B14FF40071A98003
:1043800010B14FF40071818020202080084870BD5A
:1043900070B5074EFEF77CFCFEF715FC0DB1402111
:1043A000A98008B14021818020202080004870BD74
:1043B000C0000020F8B504464FF41D7000F002FB69
:1043C000D4F8D41204EB810101F5307120B30860F8
:1043D000C4F8BC02207C124E4025002808BF4FF4D0
:1043E0000075717820462B460222FFF7B4FE7078E4
:1043F000012702222B46FEF7B0FBA0F8647120468D
:104400003178FFF7A8FE3078FEF7A7FB87842046B7
:10441000FEF71EFA0020F8BD002008600220F8BD5B
:104420000C00002039B1D0F8D42200EB8200C0F893
:10443000C41200207047032070477CB50446D0F8B2
:10444000D4020D460021ADF8061004EB8000D0F830
:10445000C062002E5CD0297811F0600218D0202AAA
:1044600052D16A7849B2FF2A23D0FE2A4CD16A88F9
:10447000002A49D1EA88012A46D1B1F1FF3F43DC45
:10448000D0F8C4028069804730602046314636E06B
:1044900068780B2817D001281CD00A2829D098BB8F
:1044A00094F89C0203282FD10DF106012046022228
:1044B00026E0688840BBE88830BB002924D4204629
:1044C000FEF7EAF91EE094F89C0203281CD1A878B4
:1044D000706017E094F89C02032813D1688888B9AB
:1044E00029792046FFF7CAFD29792046FEF7F6F81C
:1044F00008E094F89C02032806D1311D20460122D1
:10450000FFF747FC00207CBD20462946FFF72EFC24
:1045100003207CBD0A7802704A7842704A88428043
:104520008A888280C988C18070471CB504460020F3
:10453000ADF80600A9B1D4F8D402C4F8B81204F555
:104540002E7151F82000C16A21B10DF10600884793
:10455000C4F8D002D4F8D8020130C4F8D802002040
:104560001CBD03201CBDD0F8B8220AB11268104748
:1045700000207047FFF790BEBCB5044608780D4692
:1045800010F0600011D0402802D0202840F03C817B
:10459000D4F8D402294604EB8000D0F8B80282682F
:1045A000204602B0BDE8B04010476878092800F204
:1045B0002B81DFE810F00A001D0029012B002901E2
:1045C0003500540029016A007C00FEF794FB00F2DC
:1045D0001B81E888022840F01781D4F8A402214604
:1045E000002818BF01204000022241F80C0F07E10B
:1045F000FEF781FB00F2088168880025012840F061
:104600000681C4F8A452FEF7D6FA00E168880228B1
:104610006BD0012840F0F8800120C4F8A402F8E033
:10462000A888002840F0F080E888002840F0EC805E
:1046300068887F2800F2E88094F89C12032900F033
:10464000E380C5B284F89E0220462946FFF7E2FDCA
:10465000FEF7B1FA002D00F0DF800220DDE000203F
:104660004FF0FF31ADF80600688801EB10210629F4
:1046700000F2CA80DFE801F004444BC8C858620069
:10468000D4F8B412207C0A68ACE0E888012840F035
:10469000BB8094F89C02411E02292AD200252146A3
:1046A0002046012241F8085FFFF773FBAFE06888FE
:1046B0005B4D10F0FE0F287003D0FEF746FA03257D
:1046C000A5E0C1B294F89C02032843D0022859D136
:1046D000002900F09E8020466160FFF744FF00281B
:1046E00067D00546FEF731FA48E0687984F8A00201
:1046F0008FE0032840F08880211D2046012280E0C1
:10470000217CD4F8B802002942D0C16A41E0C0B28D
:10471000052800F27980DFE800F0035054585C600F
:10472000D4F8B40242685BE0207C00286CD1D4F855
:10473000B802416B0DF10600884756E0207C002846
:1047400062D1D4F8B802016B0DF10600884701462A
:10475000072023E021B3606888425AD0C1B2FEF737
:1047600094FA297820466160FFF7FDFE002850D0BA
:104770000546FEF7EAF92179FEF787FA022084F868
:104780009C0244E0FEF7E1F92978FEF77EFA96E70D
:10479000816A0DF10600884701460220487025E035
:1047A000022061600021002584F89C02FEF76DFA6A
:1047B00029E7FEF700FA03202FE0D4F8B40282685C
:1047C0000EE0D4F8B402C2680AE0D4F8B402026978
:1047D00006E0D4F8B402426902E0D4F8B402826977
:1047E00092B1207C0DF1060190470146EA8882B122
:1047F000BDF8060040B1904238BF0246ADF8062031
:104800002046FFF7C6FA01E0FEF79FF9002528468B
:10481000BCBDFEF7D0F9F9E7012084F89C02F5E76A
:104820002801002070B5044608780D790E4610F076
:10483000600016D0402801D020286AD120462946A1
:10484000FFF780FA002866D10020C4F8D402D4F81B
:10485000B8028268002A5ED020463146BDE870402A
:104860001047707868B1012824D0032851D194F8FA
:104870009C02032822D1708800285AD0FEF79BF9A9
:1048800049E094F89C02032825D0022841D168060B
:104890003FD115F080004FF0140108BF4FF4AA710A
:1048A0000022625004F114010028204608BF04F5DC
:1048B000AA7152E094F89C0203282ED0022828D135
:1048C000680626D020462946FFF7DDFC20468021D9
:1048D000FFF7D9FC1FE005F00F00802D00EB8000F2
:1048E00004EB80002CBF808CB0F8640188B105F027
:1048F0007F00802D00EB800004EB800000F11406A7
:1049000038BF00F5AA7645F0800080281BD1002032
:1049100020E0FEF71AF9002070BD70880028FAD157
:10492000680603D020462946FFF701FBFEF743F94E
:1049300084E76806A2D0F08800289FD12046294647
:10494000FFF7A1FC9AE720462946FFF7D5FB002890
:1049500018BF01203060204631460222FFF719FAC5
:10496000D9E7B0B5044608780D4610F0600018BFCE
:1049700040280DD1FEF7BFF90CD8A88810F0FE0F23
:1049800008D1C1B22046FFF7DFF938B1032010E0AB
:104990002028EFD0FEF7D9F80020B0BDD4F8B80237
:1049A0008268002AF2D000202946C4F8D4022046AA
:1049B0009047E9880029F0D10028EED1FEF7FBF8F6
:1049C000EAE77047004870472C03002070B5D0F824
:1049D0001C480A784E78530102F00F05012E16D1BB
:1049E000012606FA05F52C43C0F81C481844D0F8F7
:1049F00000391B0423D400F51060036843EA825297
:104A00000B79C9686FF3DF2141EA834113E04FF46A
:104A10008032AA402243C0F81C281844D0F8002B4A
:104A200012040CD40A79C96800F530606FF3DF21F5
:104A300041EA824102681143024A114301600020A9
:104A400070BD00BF00800010D0F8001940F2FF7266
:104A50009143C0F80019D0F8041841F48071FEF7B2
:104A600040B8000070B504460698049D012816D190
:104A7000A16B184A0D9821F48031A163E1681140BF
:104A8000E1600128E16821F44011E16003D1E068B0
:104A900040F48010E060204600F01EF80FE0E0686F
:104AA0000A9E40F04000E060204600F015F8A16B3F
:104AB00016B121F4803101E041F48031A163012D70
:104AC00007D1A16841F00601A160A16841F0200171
:104AD000A16070BDBFFFBDFF81B0002100910F49F3
:104AE000009A01320092009A8A4214D80269B2F107
:104AF000FF3FF5DC00220092026942F001020261F0
:104B0000009A01320092009A8A4204D80269D207C0
:104B1000F6D1002000E0032001B07047400D0300F3
:104B2000B0B50A784B785101012B24D143180124E8
:104B3000D3F8005903F51061164B002D07D50D6809
:104B400045F000650D600D6845F080450D6002F090
:104B50000F0204FA02F2D0F83C489443C0F83C48F3
:104B6000D0F81C4824EA0202C0F81C280868184043
:104B700008600020B0BD43184FF48034D3F8005BC8
:104B800003F53061034B03F17073B5F1FF3FDEDCD9
:104B9000D5E700BF007833ECD0F8001E21F0030108
:104BA000C0F8001ED0F8041821F00201FDF799BFEB
:104BB000D0F8001E21F00301C0F8001ED0F8041840
:104BC00041F00201FDF78DBF2DE9F84F8146119CA0
:104BD0000C98DDF828B00D4641210022502903D061
:104BE00049F821200131F9E744B1D9F8381021F40E
:104BF0000011FEF734F841F4002111E0D9F804184F
:104C000041F00201C9F80418D9F8381041F4001134
:104C1000FEF725F821F40021FEF721F821F4802188
:104C2000C9F83810002109F50068C9F8001E0128EC
:104C3000D9F80018C9F8001806D1D8F80000002BE0
:104C400018BF40F0010003E0D8F8000040F0030076
:104C5000C9F800084846102100F07EFA824648460E
:104C600000F05AFA002109F510624FF67F33002652
:104C7000C8F81010C8F81410C8F81C10B5420ED0AF
:104C80004FF09047002E08BF4FF0006714680136C0
:104C900007EAE4741460116193602032EEE709F5CD
:104CA000306100224FF67F330026B5420ED04FF020
:104CB0009044002E08BF4FF000640F68013604EAEC
:104CC000E7740C600A618B602031EEE7D8F81010B1
:104CD00021F48071C8F810100021C9F818106FF085
:104CE0008041BBF1000FC9F8141005D1D9F8181094
:104CF00041F01001C9F81810D9F818100D4A1143E5
:104D0000119AC9F818100D9929B1D9F8181041F065
:104D10000801C9F81810012A05D1D9F81810064A57
:104D20001143C9F8181050EA0A0018BF0120BDE865
:104D3000F88F00BF00383C8004000040816821F0FB
:104D40000101816000207047F0B54B7891F800C0F8
:104D5000012B20D100EB4C15354CD5F810798E691C
:104D600005F51063A646334CCEB3274074461F6149
:104D70001F6907EA0E071F61CF68BE4284BF8F61BB
:104D80003E461F6947F400271F6104F100571C6964
:104D9000374027432EE000EB4C10254CD0F8103B59
:104DA0006FF31203C0F8103BD0F8103B6FF3DC43F5
:104DB000C0F8103B00F530638D69C86805B18861A3
:104DC0001D6904F1005445F400251D61C8612040AF
:104DD0001C692043012A186112D108690EE007EA14
:104DE0000E061E611E6946F400261E611E6906EA53
:104DF00004070026012A1F6109D1486900B15861E2
:104E00004FF004411868084318600020F0BDD5F841
:104E10000019002E41F00441C5F80019F5D00CF03E
:104E20000F01012200F6340302FA01F1EAE700BFA4
:104E3000FFFF07E00000F8FF10B5036C134CA3421E
:104E400003D3D0F8003B002B1ED40023C0F8103B46
:104E50000129D0F8103B43F40023C0F8103BD0F8F0
:104E6000103B43F01803C0F8103BD0F8103B43F060
:104E7000C043C0F8103B07D1C0F8142BD0F8001B7A
:104E800041F08021C0F8001B002010BD0B30544FB2
:104E90000A784B7852011044012B0DD1D0F800292B
:104EA00022F40012C0F80029097901F0FE0102295C
:104EB00013D100F510600CE0D0F8002B22F40012A2
:104EC000C0F8002B097901F0FE01022905D100F597
:104ED0003060016841F080510160002070470A781D
:104EE0004B7851010144012B19BF01F53060D1F815
:104EF000001B01F51060D1F80019002904D41AB183
:104F0000016821F080410160016841F400110160F5
:104F100000207047F8B54B780C78012B2ED100EBB0
:104F20004416D6F81079D1F818C006F51063BCF114
:104F3000000F47D06FF312071F611F696FF3DC4743
:104F40001F61CF680CEB0705013DB5FBF7F5544F2A
:104F500007EAC5451F693D431D6165461F696FF33B
:104F6000DF453D431D610D79012D36D11D6925F0C9
:104F7000C0451D611D6945F000572DE000EB44134D
:104F8000D3F8104B6FF31204C3F8104BD3F8104B47
:104F90006FF3DC44C3F8104B03F530638D69CC68C4
:104FA000002D4BD02544013DB5FBF4F5AEB2744362
:104FB0003B4ECC616FF3DF4406EAC5451E693543BD
:104FC0001D6142E06FF3DC471F611F6947F4002752
:104FD0001F611F696FF312071F61012A11D14A690E
:104FE0000AB1C6F814290979012944D1D0F8081862
:104FF000D6F80009C9054CBF40F0805040F0005081
:1050000038E0630100F51066F55845F00445F550A9
:105010000D79012D35D1D0F808589F59ED054FF085
:10502000805558BF4FF000553D439D511FFA8CF3FA
:1050300009690092224600F0C1F920E01D696FF372
:10504000DF442C431C614FF400241D692C43012ACA
:105050001C6102D10A6902B15A61097901290AD198
:10506000D0F80808C0054FF0805058BF4FF00050EE
:10507000196808431860186840F004401860002060
:10508000F8BDBCF1000FFAD004F00F01012202FAC2
:1050900001F1D0F834281143C0F83418EFE700BF0D
:1050A0000000F81F81B0002200920A784B7851016D
:1050B000012B13D100F510604258B2F1FF3F20DC04
:1050C0007346FDF7FCFD9E46009B01330093009B59
:1050D000934218D80B58002BF6D412E000F530603C
:1050E0004258B2F1FF3F0CDC7346FDF7E8FD9E46E7
:1050F000009B01330093009B934204D80B58002B74
:10510000F6D4002000E0012001B07047816841F032
:10511000010181600020704781B0002100911F498A
:10512000009A01320092009A8A4212D80269B2F1C2
:10513000FF3FF5DC0022009210220261009A01324A
:105140000092009A8A4204D80269D206F6D400205E
:1051500000E0032001B0704781B0002200920F4AA6
:10516000009B01330093009B934213D80369B3F172
:10517000FF3FF5DC89010023203100930161009994
:10518000013100910099914204D801698906F6D451
:10519000002000E0032001B0704700BF400D030075
:1051A000D0F8080802A100F00600085C704700BFB4
:1051B000000F020F0F0F0200406900F0010070475E
:1051C000D0F81818D0F81C08084080B27047D0F802
:1051D0001818D0F81C080840000C704710B5D0F81B
:1051E0001028D0F8344801F00F0300EB4110D0F83C
:1051F000080924FA03F3DB01DBB21A43104010BDA7
:1052000000EB4111D1F8081BD0F814080840704792
:105210004169806908407047B0B593084FF48054E5
:1052200023B10559013B41F8045BF9E712F0030291
:105230000BD04FF48053C058002320FA03F40833F6
:10524000013A01F8014B1404F7D10846B0BDB0B5DE
:105250000446C06820F0C040E06099B101291CBF3D
:105260000120B0BDE068002540F00050E060012062
:10527000FBF736F86169681CC90712D1312D054664
:10528000F5D30EE0E068002540F08040E0600120AA
:10529000FBF726F86169681CC90702D0312D054665
:1052A000F5D33238B0FA80F04009B0BDD0F800280C
:1052B00001F07F0122F4FE62C0F80028D0F8002837
:1052C00042EA0111C0F8001800207047022A34D1C8
:1052D000284A294B0A449A4202D24FF470512EE0D8
:1052E000264A274B0A449A4202D24FF4605126E0E4
:1052F000244A254B0A449A4202D24FF450511EE0F0
:10530000224A234B0A449A4202D24FF4405116E0FB
:10531000204A214B0A449A4202D24FF430510EE007
:105320001E4A1F4B0A449A4202D24FF4205106E013
:105330001C4A1D4B0A449A420AD24FF41051C268CB
:1053400022F47052C260C2681143C16000207047ED
:10535000164A174B0A449A4202D24FF40051EEE724
:10536000144A154B0A444FF4C0519A4238BF4FF4C7
:10537000E051E4E7405327FF00350C00401E1BFFBF
:1053800040420F0000DC0BFF804F1200808CF9FEC2
:1053900020D6130060B6E5FE60E3160000D3CEFE13
:1053A00040771B00C05BB3FEC091210000CA91FE94
:1053B00020753800E05459FEE09C410010B5029C75
:1053C0000CB1002010BD0333120300F580509B0880
:1053D000002BF6D051F8044B013B1450F8E7FEE7E0
:1053E00080B511484FF40051FBF7C0F8FDF7CABB78
:1053F000FEB500203749CDE9040000900A6842F06C
:1054000004020A60096801F0040100910221CDE95B
:1054100002014FF400500190009801A90248FAF7E8
:10542000DBFF06B080BD00BF0008024070B586B04B
:1054300000252848144C0022042605950095016893
:1054400041F0020101600421006800F002000090B8
:1054500000982046FBF797F80120CDE90355CDE9E8
:10546000016001A92046FAF7B7FF06B070BD00BF82
:1054700002460028044818BF01220421FBF783B824
:1054800001480421FBF777B80004024080B51248B8
:105490004FF48071FBF76AF8FDF774BBFEB500208E
:1054A0000C49CDE9040000900A6842F001020A604C
:1054B000096801F0010100910121CDE902014FF4D9
:1054C00080700190009801A90348FAF785FF06B0A3
:1054D00080BD00BF3038024000000240E0B50190BE
:1054E000044801A901224FF6FF73FDF763F8019804
:1054F0008CBD00BF300E00208AB0FBF757F8FEF7D6
:105500002BFBFFF775FFFFF791FFFFF7C7FFFDF7D5
:1055100003FAFDF731FAFDF78DFAFFF7B7FF0446FE
:105520000120FFF7A5FFA4B13A4C3220A0473A4D25
:105530000020A8473220A0470120A8473220A047DA
:105540000020A8473220A047FDF74EFAFDF78EFA5B
:1055500017E0304CC820A0472F4D0020A847C82096
:10556000A0470120A847C820A0470020A847C8207E
:10557000A0470120A847C820A0470020A847C8206E
:10558000A047FBF705F800F1C806FBF701F8234C2C
:10559000DFF88CB00DF110090DF1240A0FF2840828
:1055A000FAF7F6FF0746FFF71BFF30B1B742F7D314
:1055B00007F1C806FFF764FFF2E7B742F0D32046D1
:1055C000494600220025FCF7B4F920465146002246
:1055D000FCF784F99BF800109DF81200814212D06C
:1055E0009DF825209DF826309DF827109DF8105035
:1055F0009DF811608BF8000002904046CDE90056FE
:1056000000F022F80125284607F13206FFF730FFA7
:10561000C6E700BFE1020008715400088C0D0020AD
:10562000740E00203230253032642E253032642E44
:105630002530326420253032643A2530326420250A
:105640003032640D0A0000000FB4054B10B503A9F9
:10565000044A029800F018F810BC5DF814FB000032
:10566000DD5400080000002002E008C8121F08C135
:10567000002AFAD170477047002001E001C1121FD3
:10568000002AFBD1704700002DE9FF4F8BB0884600
:105690000546002606E025280BD0DDE90D129047CF
:1056A0006D1C761C28780028F5D10FB03046BDE877
:1056B000F08F0024A146A2460122AE4900E0044337
:1056C00015F8013F203B02FA03F00842F7D1287891
:1056D0002A2810D06FF02F022878A0F13001092974
:1056E00015D809EB890102EB410144F0020400EBFB
:1056F00001096D1CF0E758F8041B5FEA010903D5A6
:1057000044F40054C9F1000944F002046D1C2878E7
:105710002E2817D115F8010F44F004042A280ED0C2
:105720006FF02F022878A0F1300109290AD80AEB7E
:105730008A0102EB410100EB010A6D1CF2E758F807
:1057400004AB6D1C28786C280FD006DC4C2817D0D1
:1057500068280DD06A2814D104E0742810D07A2863
:105760000FD10DE044F400140AE044F4801401E089
:1057700044F440146978814202D104F580146D1C10
:105780006D1C2878692865D006DC00288DD0632838
:1057900027D0642806D15DE06E2808D073282AD06F
:1057A000752877D0DDE90D129047761CE0E0C4F350
:1057B0000250022809D003280DD0D8F80010042880
:1057C0000DD00E6008F10408D2E0D8F80010F217EE
:1057D000C1E90062F6E7D8F800100E80F2E70E701B
:1057E000F0E718F8041B8DF8001000208DF8010078
:1057F000EB46012003E058F804BB4FF0FF3061078F
:105800004FF0000701D40AE07F1C57450DDA8742AC
:10581000FADB1BF807100029F6D106E07F1C87424F
:10582000FCDB1BF807100029F8D1DDE90D23A9EBFB
:1058300007008146214600F0B1F83044C61904E063
:10584000DDE90D121BF8010B90477F1EF8D22146AF
:10585000484688E058F8040BC4F302514FF00A0B95
:10586000032900D100B2042900D140B2002802DA95
:1058700040422D2102E0210505D52B218DF8241071
:10588000012104E006E0E10710D02021F6E708AF8F
:10589000089113E058F8040BC4F302514FF00A0BBF
:1058A000032900D180B2042900D1C0B20021EEE763
:1058B0005946FAF7C8FC303107F8011D0028F7D126
:1058C000ADEB070000F1200B600702D524F4803413
:1058D00001E04FF0010ADA4502DDAAEB0B0000E01F
:1058E0000020824600EB0B0108980144A9EB01005F
:1058F0000A90E00306D4DDE90D2321460A9800F062
:105900004DF806444FF0000908E009A911F8090014
:10591000DDE90D12904709F10109761C08998945C6
:10592000F3DBE0030CD5DDE90D2321460A9800F0F6
:1059300035F8064404E0DDE90D1230209047761C6E
:10594000BAF10001AAF1010AF5DC05E0DDE90D126A
:1059500017F8010B9047761CBBF10001ABF1010B6E
:10596000F4DC0A982146DDE90D2300F005F8064431
:105970006D1C97E6092801002DE9F0410446002539
:105980001E461746880404D405E039462020B04757
:105990006D1C641EF9D52846BDE8F0812DE9F04163
:1059A000044600251E469046C80301D5302700E076
:1059B0002027880404D505E041463846B0476D1CD1
:1059C000641EF9D52846BDE8F08100000000000003
:1059D000000001020304060708090000000001029C
:1059E0000304008002021F00000053544D202020B9
:1059F000202050726F6475637420202020202020A6
:105A00002020302E30310000285A000800000020ED
:105A10002801000068560008505B0008280100209B
:105A20005811000078560008000000000100000036
:105A30001000000081010000D53D0008013E000873
:105A40000D3E0008313E0008593E0008B93D0008EF
:105A5000E13D0008002600000000000008120000E0
:105A60000000000000000000000000000000002214
:105A7000000000081200000000000000000000000C
:105A8000000000000000000000020080008000080C
:105A9000202020200024F400120100020000004019
:105AA00083042A57000201020301000004030904D1
:105AB000B5430008E54200083B4400080000000030
:105AC00000000000CF420008D9420008000000009A
:105AD00000000000000000006D4300084D43000876
