:020000040800F2
:10000000681200209D0100080B2A0008A1250008A5
:10001000092A0008E1020008475400080000000017
:10002000000000000000000000000000C93B0008C4
:10003000E3020008000000003F2D0008CB3B000851
:10004000B7010008B7010008B7010008B7010008B0
:10005000B7010008B7010008B7010008B7010008A0
:10006000B7010008B7010008B7010008B701000890
:10007000B7010008B7010008B7010008B701000880
:10008000B7010008B7010008B7010008B701000870
:10009000B7010008B7010008B7010008B701000860
:1000A000B7010008B7010008B7010008B701000850
:1000B000B7010008B7010008B7010008B701000840
:1000C000B7010008B7010008B7010008B701000830
:1000D000B7010008B7010008B7010008B701000820
:1000E000B7010008B7010008B7010008B701000810
:1000F000B7010008B7010008B7010008B701000800
:10010000B7010008B7010008B7010008B7010008EF
:10011000B7010008B7010008B7010008B7010008DF
:10012000B7010008B7010008B7010008B7010008CF
:10013000B70100080000000000000000B70100083F
:10014000B7010008B7010008B70100080D2A000830
:10015000B7010008B7010008B7010008B70100089F
:10016000B7010008B7010008B7010008B70100088F
:10017000B7010008B70100080000000000000000FF
:10018000B7010008B7010008DFF80CD000F090F8C4
:100190000048004761550008681200200648804763
:1001A00006480047FEE7FEE7FEE7FEE7FEE7FEE75C
:1001B000FEE7FEE7FEE7FEE7713C00088901000864
:1001C0002DE9F05F0546002092469B46884606468C
:1001D000814640241BE0284641464746224600F01F
:1001E00057F853465A46C01A914110D31146184643
:1001F000224600F03EF82D1A67EB01084F462246D2
:100200000120002100F035F817EB00094E41201EB7
:10021000A4F10104DFDC484631462A464346BDE8E6
:10022000F09FD2B201E000F8012B491EFBD27047CB
:100230000022F6E710B513460A4604461946FFF7B2
:10024000F0FF204610BD30B50B46014600202022AD
:10025000012409E021FA02F59D4205D303FA02F5D3
:10026000491B04FA02F52844151EA2F10102F1DC33
:1002700030BD202A04DB203A00FA02F1002070474A
:100280009140C2F1200320FA03F3194390407047D4
:10029000202A04DB203A21FA02F00021704721FADB
:1002A00002F3D040C2F12002914008431946704742
:1002B0001CB509480090094801900546009C06E0DD
:1002C000E06840F0010394E8070098471034AC421E
:1002D000F6D3FFF75DFF0000705A0008905A00083F
:1002E000FEE7704772B6FEE7B0B5044600F05EF96F
:1002F0000546D048611C007818BF044400F056F948
:10030000401BA042FAD3B0BD2DE9F04F8B4698496F
:100310004FF0080A4FF00F0C4FF000098842954942
:1003200008BF4FF0070A8205014442EA91210729DC
:1003300038BF8A4600230026102E08BFBDE8F08F84
:10034000012101FA06F717EA0B0246D08A4903F0A9
:100350000C0E26F003080CFA0EF40AFA0EF5A1F5BD
:100360007E7C5CF808102140A94217D182494FEAEF
:10037000960E0D6895430D604D6895434D607F4D19
:10038000A8462D689543C8F800508D6825EA0202FA
:100390008A605CF82E20A2434CF82E2003210268CC
:1003A0006FF003044FF00F0C01FA09F104EA560450
:1003B0008A430444026003F01C02256A0CFA02F22C
:1003C00025EA02022262C2688A43C2604268BA43D6
:1003D0004260826822EA01018160043309F1020966
:1003E0000136A9E72DE9FC4F614A08244FF0010AC4
:1003F0004FF0000B90425F4A08BF07248305024478
:1004000043EA9222072A38BF1446009400250022AE
:10041000102A08BFBDE8FC8F0F680AFA02F917EA34
:10042000090700F09F80D1F804C0032303FA0BF6FC
:100430000CF0030E6FEA0608AEF10106012E13D888
:100440008668D1F80CA00AFA0BF406EA08064FF009
:10045000010A34438460CCF300144668944026EAD1
:1004600009063443446005E0BEF1030F02D14FF0AA
:10047000030E21E0C4688E6804EA080406FA0BF64D
:100480003443BEF1020FC46016D105F01C040F23E3
:1004900003FA04FC6FF0030303EA520303441E6AE9
:1004A00026EA0C0C0E6906FA04F444EA0C041C62F9
:1004B000D1F804C00CF0030E04680EFA0BF304EA42
:1004C000080423431CF4403F03604BD000232C4C12
:1004D000A84622F003060193236843F48043236077
:1004E00023680F2403F48043019305F00C03224D8D
:1004F0009C40AC462E44019D224DAE46755925EADE
:100500000404009D05FA03F3234346F80E30DCF89B
:1005100008304D6843EA0704EE0258BF23EA070497
:10052000164BCCF80840AE029E461B6843EA07040F
:1005300058BF23EA0704CEF80040AE03DCF80430CD
:1005400043EA070458BF23EA0704CCF80440ED034C
:10055000DCF80030454643EA070458BF23EA0704A5
:10056000CCF800400BF1020B0435013250E700BF1C
:10057000001C02400000FEBF003C01400C3C01405A
:100580004438024008FCFFFF0069084018BF012002
:100590007047426902EA0103914341EA03418161E4
:1005A0007047002A08BF0904816170470548006848
:1005B000704700BF1F48034900780A68104408606C
:1005C000704700BF640E002080B50B48016841F4FD
:1005D00000710160016841F480610160016841F4CB
:1005E00080710160032000F07BF80F2000F006F816
:1005F00000F024F8002080BD003C024070B50D4E94
:1006000004464FF47A713078B1FBF0F00A4909687A
:10061000B1FBF0F001F010FF01250F2C08D838B91C
:100620004FF0FF3021460022002500F033F87460BF
:10063000284670BD040000204800002082B0002041
:100640000B4901904A6842F480424A604A6802F4C9
:1006500080420192019A0090086840F08050086042
:10066000086800F080500090009802B0704700BF0A
:1006700040380240002809D41C21012201EAD0019F
:1006800000F01F0002FA00F0014A8850704700BFD6
:1006900000E100E0F0B5184B4FF0FF361C68C4F3E2
:1006A0000224E51E84F0070438BF002506FA05F78A
:1006B000BA43042C28BF042406FA04F4A14300F032
:1006C0000F04A940043C1143044A23440901024495
:1006D000002848BF03F10C021170F0BD00E400E0F7
:1006E00005494FF6FF030A681A4060F30A220348DF
:1006F00010430860704700BF0CED00E00000FA05F1
:10070000704700684162002070470068436AC9B1C1
:1007100070B5846A0139002503EB1443CCB2A542BD
:1007200007D200EB85060135D6F8046103EB1643CA
:10073000F5E700EB810043EA0241C0F80411BDE88F
:10074000704002E043EA0241816200207047D0F825
:10075000E00403F0F9BC01EBC10200EB8202D0F827
:10076000E004126A03F067BC01EBC10200EB8202F5
:10077000D0F8E004D2F8602203F0AFBCD0F8E00477
:1007800003F0E4BC01F00F0249B202EBC2020029FF
:1007900000EB820303F5157248BF03F114020068F1
:1007A000114604F0B7BC10B5044601F00F0049B281
:1007B00002F0DFF9C3BF002281F8552201F515715F
:1007C0000122DCBF4A751431087094F894040128A2
:1007D00004BF022010BD02F050FA04F035FA02F016
:1007E00067B9B0B5044601F00F002279904201D9F3
:1007F00001251BE049B202F0BCF9C3BF002281F819
:10080000552201F515710122DCBF4A7514310870BB
:10081000002594F894048D70012801D1022505E08B
:1008200002F02BFA04F05AFB84F894542846B0BD29
:1008300010B502F0F4F804BF022010BD01204AB246
:1008400084F894042068B2F1FF3F02DD04F09DFCBF
:1008500003E001F00F0104F0B5FC02F029B901F04A
:100860000F0101EBC10100EB8100D0F86802704775
:10087000B0B5044601F00F0049B26FF3DF2202F079
:1008800078F9C3BF002581F8555201F5157101258E
:10089000DCBF4D7514318A600B7108704A7802B163
:1008A0004883022B04BF0020487194F89404012867
:1008B00004BF0220B0BD02F0E0F904F013F902F029
:1008C000B1B9B0B501F00F01002501EBC10400EB97
:1008D000840404F5187784F8541284F8555204F50A
:1008E00015712CC78379012B08BFC4F870221A46F2
:1008F000006804F035FB0020B0BDB0B504460079B7
:1009000001F00F05854284BF0120B0BD48B2B0F1AF
:10091000FF3F09DD01EBC100002104EB800080F8FE
:10092000551200F5157107E005EBC500012104EB38
:100930008000417500F1140194F8942401200D7099
:100940008870012A04BF0220B0BD84F89404206896
:1009500004F0EBFA2DB9A179206804F29C4204F06E
:1009600091FA02F05FB9B0B501F00F0505EBC501D2
:1009700000EB8104214601F8145F002501F10C070A
:100980002CC701234B708379012B08BF22631A46C1
:10099000006804F0E5FA0020B0BD00002DE9F04F3A
:1009A00089B005688246284604F038FC10B109B0C9
:1009B000BDE8F08F02F08AF90028F8D0D5F80808D1
:1009C000C0F30D20CAF8D40402F080F902F0A1F9B6
:1009D000890703D5416901F00201416105F500660F
:1009E00004F048FC02F095F9CDE90465C9063CD550
:1009F000816921F0100181612C6AC4F3434004F045
:100A00000F05062818D0022827D147F6F07014EAFF
:100A1000000622D005EBC50034090AEB80070598D3
:100A20002246D7F8601204F029FCD7F8600200EBE8
:100A30001610C7F8600207E005980AF29C410822E8
:100A400004F01CFCC4F30A1405EBC5000AEB80009B
:100A5000D0F868122144C0F86812DAF80000816901
:100A600041F010018161DDE9046504F003FC02F04E
:100A700050F9090340F1DA8004F0DBFB06460AF284
:100A80009C400AF51D744FF430684FF0000B08903D
:100A9000002E00F0C880F00700F0B8805FFA8BF9F4
:100AA000DAF80000494604F0DDFB0746C0075CD0D9
:100AB00005EB080001218160DAF8000008EB000175
:100AC000036C8A689AF80650012D24D115072FD49B
:100AD000950647D4059D12F0280F46D1AC46D84D57
:100AE000AB4202D9120400F1988022680969654678
:100AF0006FF3DF41511AB8F5306F44F80C1C2CD15C
:100B0000DAF86422002A00F08C80DAF860020844E7
:100B1000CAF8600221E0CA4D05F58075AB4211D1DB
:100B2000059D10040AD4900644BF2020886014E07C
:100B3000C348059D834218D9100416D54FF40040D0
:100B4000886012E0059DB8F5306F06D1DAF86412BE
:100B500019B90021089A04F095F950464946FFF763
:100B600003FE02E020208860059D380722D505EBB2
:100B700008000821B24B8160DAF800100A6C08EB1B
:100B8000010081689A4212D9090444BF4FF4004120
:100B90008160504600F042FB9AF80600012809D116
:100BA000DAF80000089A012104F06CF902E05046DE
:100BB00000F034FBF80642BF05EB0800102181600D
:100BC000B80716D56869000604D50499486840F44A
:100BD0008060486014F81D0C012806D100204946A9
:100BE00004F81D0C504600F051FA05EB08000221F4
:100BF0008160B80642BF05EB080020218160B8047F
:100C000042BF05EB08004FF400518160243408F125
:100C1000200876080BF1010B3AE74FF400406546D7
:100C20008EE7012196E7DAF80000049E04F022FB2B
:100C300002F06FF8490340F1CA8004F0F3FA074666
:100C40000AF29C400023029005F510600690002FE8
:100C500000F0BB80F80700F0B580DAF80000D9B2E8
:100C60000793089104F0ECFA0446C00727D0079BCD
:100C70000122716B03F00F0002FA00F021EA00007C
:100C80007063069800EB431082609AF80600012812
:100C900011D103EBC3000AEB8000D0E90712114425
:100CA000016243B9DAF8240028B9DAF80000029AA0
:100CB000012104F0E7F808995046FFF74CFD079B27
:100CC000200704D50698082100EB43108160E00658
:100CD00004D50698102100EB43108160600604D50E
:100CE0000698402100EB43108160A00718D52846E4
:100CF000194604F067FA079B03EBC3000AEB800078
:100D000010F8171F012906D10021017008995046DB
:100D100000F0B8F9079B0698022100EB43108160B0
:100D200020064FD503EBC3000AEB800BD94659F8D8
:100D3000240FC84658F8042F904243D35BF81C5F39
:100D4000DAF80040811A03975746A94238BF0D468A
:100D500004EB43110BF1040601F5106A17E0DBF810
:100D60000050BB79801A31680093A84238BF05460D
:100D7000089AABB2204604F055FB30682844306036
:100D8000D8F800004219D9F80000C8F80020DAF8B5
:100D90001830E91C9BB2B3EB910F28BF9042DED80C
:100DA000BA46059DDDE90376079B90420AD803F019
:100DB0000F00012101FA00F0D4F8341821EA0000F4
:100DC000C4F834087F08013341E7DAF8000004F082
:100DD00051FA002802D4DAF8000017E0706820F019
:100DE000010070609AF8CC04012807D1002000218E
:100DF0008AF8CC045046FFF783FC02E0504600F02E
:100E0000F8F901F0E4FE01F00041416104F032FA2A
:100E1000000502D4DAF800000AE0B068C00702D08A
:100E2000504600F019FA01F0D2FE01F40061416170
:100E300004F020FAC00405D4DAF8000056E000BF40
:100E40000A30544FD5F80408102120F00100C5F8ED
:100E50000408DAF8000004F0B5F99AF8041005F572
:100E600010604FF67F32A9B182600139036823F424
:100E700000130360C0F80822D0F8003223F40013F6
:100E8000C0F80032D0F8003243F00063C0F80032FE
:100E90002030E8E7F06940F00110F0619AF80F00A7
:100EA00040B1D6F8840040F00B00C6F8840006F18B
:100EB000440006E0706942F22B010843706106F1BC
:100EC000100001680AF29C4241F00B010160306899
:100ED00020F4FE603060DAF800009AF8061003F0A3
:100EE000D1FF01F074FE01F48051416104F0C2F9B8
:100EF00001F00FFF890419D503F032FEDAF8000083
:100F000004F080F9DAF800408AF8070000F0CEFA21
:100F10009AF807200146204604F00CFA504600F0EB
:100F200055F901F054FE01F40051416104F0A2F9B9
:100F3000000702D4DAF8000007E0504600F05DF93F
:100F400001F045FE01F00801416104F093F900064B
:100F500006D401F0BBFEC00219D4DAF8000038E074
:100F60000599012440F27B25886920F08000886182
:100F70009AF804008442ECD21AF80500012803D143
:100F8000E1B25046FFF7FEFB24350134F0E7059847
:100F90000AF13B040126012700F512659AF80400C6
:100FA000874211D228686178012909D1B0F1FF3F49
:100FB00006DC47F080002670C1B25046FFF7E2FB26
:100FC000243420350137E9E701F001FE01F48011F6
:100FD0004161059C04F04EF9800202D4DAF8000069
:100FE0002EE09AF8042004F532610AF51F700123FF
:100FF000012494421FD20D680678012E12D1B5F15A
:10100000FF3F0FDCDAF8D46486EA1545ED0709D115
:10101000059EB56945F08005B56100F8013C75692C
:101020002D0603D5243020310134E2E704994868C5
:1010300040F40070486001F0CAFD01F40011416104
:1010400004F018F9400002D4DAF8000007E0504636
:10105000FFF77DFB01F0BBFD01F08041416104F031
:1010600009F940077FF5A3ACDAF80000446861078E
:1010700004D55046FFF782FBDAF8000041682143AF
:10108000416094E4D0F8E00403F0BFB8D0F8E00485
:1010900003F0D0B87CB500284CD00446056890F821
:1010A000950428B9002084F89404204600F04EF8F6
:1010B000032084F89504B5F1A04F04BF0020A0716F
:1010C000206803F0D9FE94E80F00257C009503F01A
:1010D00055FD60BB20680021002504F0EAF830BB14
:1010E000207901210022002398420AD0A618243238
:1010F000F38533757175C6E9075575623576013329
:10110000F2E704F5157100220023984208D00B7015
:10111000C1E902220A610A714A7024310133F4E7FD
:1011200094E80F00257C009503F0E0FD28B1022033
:1011300084F89504012528467CBD002501206574AE
:1011400084F89504206803F0C5FDF4E70068B0F169
:10115000A04F00D07047B0B586B00025194C00955F
:10116000206840F001002060206800F0010000903D
:101170000A2005900320CDE90350022002904FF48D
:10118000C0500190009801A90F48FFF72BF9606843
:101190000021002240F0800060600095606940F40A
:1011A00080406061606900F48040009000984320B6
:1011B000FFF770FA4320FFF75DFA06B0BDE8B040D4
:1011C000704700BF303802400000024010B5C179BE
:1011D000044621B1022901D0FFF784F80121D4F897
:1011E000E00403F099F8D4F8E004BDE8104003F0FF
:1011F0004BB8D0F8E00403F076B8D0F8E00403F080
:101200007CB810B501F00BFC04BF022010BD617466
:1012100001F033FD04F07EF801F04ABCD0F8E02480
:1012200000F29C41104603F083B810B501F0F7FBC3
:1012300004BF022010BD01F05FFD06D5617B0129CE
:1012400003D1816B41F48031816303F098FF206802
:1012500003F034FD01F02CBC10B50446D0F8E004D6
:1012600003F0A8F82068D0F8001E41F00101C0F892
:10127000001EE07A20B10348016841F006010160D8
:1012800010BD00BF10ED00E0F8B50446006810F096
:10129000050F1ED03B4F0020814E3860FFF786F9C6
:1012A00005463068000105D5FFF780F9401B02288C
:1012B000F7D92DE0D4E9010101F0C0FB0546306803
:1012C000000105D4FFF772F9401B0228F7D91FE08F
:1012D000206880074FF0000044D5714E00902A4FDF
:1012E000306C40F080503064306C00F080500090E2
:1012F0000098386840F480703860FFF757F9054669
:101300003868C00506D4FFF751F9401B0228F7D909
:101310000320F8BD306F10F4407010D0E16801F484
:10132000407188420BD0306F184901220A600022B8
:1013300020F440700A603067306FC00713D1E06856
:101340001349B268014000F4407322F4F8126FF3BD
:101350001F30B3F5407F08BF0A43B260316F0843C6
:1013600030670020F8BDFFF721F9054641F28837C4
:10137000306F8007E3D4FFF719F9411B0320B9420E
:10138000F6D9EFE76800474200700040400E474240
:10139000FFFCFF0F002852D02DE9F041404B0446DE
:1013A0008846D3F8000400F00700884204D283F88E
:1013B000008401F03DFB4BD12068810711D5410726
:1013C00003D5996841F4E0519960010703D5996804
:1013D00041F460419960A1689A6822F0F0021143DB
:1013E0009960C0072DD101F023FB04D983F8008454
:1013F00001F01EFB2CD12068410705D5E1689A68F1
:1014000022F4E05211439960000706D520699968DB
:1014100021F4604141EAC00098601C4600F064F885
:10142000A168204AC1F30311515CC8402B490860F0
:101430001D480068FFF7E2F80020BDE8F0810120B8
:1014400070476068811E022905D21968890107D496
:101450000120BDE8F08101281DD119688903F7D565
:1014600099681D4621F0030108439860FFF79EF834
:10147000064641F288376068A9682B4601F00C01E6
:10148000B1EB800FAFD0FFF791F8801BB842F2D9D3
:101490000320BDE8F08119688907D9D5E0E700BFCE
:1014A00000380240325A0008080000200B4800684B
:1014B000704700BF09480A490A4A00680968C1F331
:1014C0008221515CC840704704480549054A0068BC
:1014D0000968C1F34231515CC840704748000020A0
:1014E00008380240425A000810B5134C606800F0FA
:1014F0000C011248082903D004291CD1104810BD42
:101500002168236801F03F0221685B02C1F3881162
:1015100005D4A1FB00010023FEF752FE03E00848BA
:101520004843B0FBF2F021680222C1F3014102EB13
:101530004101B0FBF1F010BD043802400024F4007A
:1015400000127A00002864D02DE9FC41044600789E
:10155000C54EC0070CD0B06800F00C00042840F065
:1015600090803068800303D56068002800F0A18077
:101570002078800719D5B06810F00C0F07D001F063
:10158000FFFA40F099807068400200F19580306861
:10159000800703D5E068012840F08B80206931681E
:1015A00021F0F80141EAC00030602078000732D411
:1015B0002078400742D4A76947B301F0E1FA40F030
:1015C000AC80012F75D0E169706800F480028A4216
:1015D0006FD1216A00F03F028A426AD147F6C0719A
:1015E000626A0140B1EB821F63D1A16A4FF6FF72BC
:1015F000C903914300F44032A1F580318A4258D1A9
:10160000E16A00F07060B0EB016F52D10020BDE8DC
:10161000FC81012070476169944800296DD0012147
:10162000C0F8801EFEF7C2FF0546706F8007BFD46A
:10163000FEF7BCFF401B0228F7D9CCE0306C5FEA14
:10164000C0080AD400200190306C40F08050306413
:10165000306C00F0805001900198854F3868C005CB
:101660003DD4386840F480703860FEF79FFF05462F
:101670003868C00533D4FEF799FF401B0228F7D91C
:10168000A9E001F07DFA03D1706840023FF569AF2F
:101690006068B0F5803F07D0B0F5A02F40F085809E
:1016A000306840F480203060306840F48030306032
:1016B00085E00120BDE8FC81E06800284CD06B4843
:1016C00001210160FEF772FF0546306880073FF593
:1016D00065AFFEF76BFF401B0228F6D97BE0A068E0
:1016E000012805D0052848D1306F40F0040030674C
:1016F000306F40F00100306749E00021C0F8801EE3
:10170000FEF754FF0546706F80077FF551AFFEF777
:101710004DFF401B0228F6D95DE054490020884661
:101720000866FEF743FF0546022F0AD14746306898
:10173000800153D5FEF73AFF411B03200229F6D959
:1017400065E7306880017FF561AFFEF72FFF411B31
:1017500003200229F5D95AE7444800210160FEF729
:1017600025FF0546306880077FF51FAFFEF71EFF97
:10177000411B03200229F5D949E7316F002821F0E8
:1017800001013167316F21F00401316745D0FEF767
:101790000DFF054641F28837306F80074CD4FEF7C5
:1017A00005FF401BB842F7D915E03168002821F445
:1017B00080313160316821F48021316045D0FEF7FD
:1017C000F5FE0546306880033FF5D2AEFEF7EEFE2B
:1017D000401B6428F6D90320BDE8FC811C341FCCD3
:1017E0000843D90340EA82104FF6FF72914340EA62
:1017F0000460A1F580310843706001203866FEF76F
:10180000D5FE0446306880013FF500AFFEF7CEFEFE
:10181000011B03200229F5D9F9E6FEF7C7FE0546AC
:1018200041F28837306F800706D5FEF7BFFE411BB7
:101830000320B942F6D9EAE6B8F1000F3FF5BBAE96
:10184000306C20F080503064B5E6FEF7AFFE054600
:10185000306880037FF58CAEFEF7A8FE411B0320A5
:101860006429F5D9D3E600BF0038024000004742A2
:101870000070004070B500684468200C04F03F051B
:10188000C4F30423C4F34236C8708D704B700E70DD
:10189000CAB9220A1B092D0904F00F0402F00F0235
:1018A00043EA830345EA850502EB430204EB450462
:1018B0004A7000F00F02C0B28C70000900EB80008B
:1018C00002EB4000C870002070BD70B50068836AEC
:1018D0004B6003696FF3DF338B600468C4F380509F
:1018E00004F07F05C4F30623C870C4F305408D706F
:1018F0004B700870CAB9220A1B092D090009260C71
:1019000004F00F0402F00F0203EB830305EB8505DF
:1019100040EA800002EB430204EB45044A7006F003
:101920000F028C7002EB40000870002070BD0000B8
:1019300068B370B50446407F20B900202077204668
:1019400000F038F8022060772068C168C9062BD4FF
:10195000CA2101F07CF8A8B994E80F00144E8568FC
:101960003540856025692943656929438568294390
:1019700081600361016941EA02410161204601F091
:1019800017FA30B12068FF214162012070BD0120AB
:1019900070472068A169026C22F480220264026C04
:1019A00011430164FF21416201206077002070BD76
:1019B000BFFF8FFFF8B500210068CDE9011109498B
:1019C000884200D08FBD4FF48070039002200090B9
:1019D0006846FFF759FC08B1FEF784FC0248012174
:1019E00001608FBD002800403C0E47422DE9F041C8
:1019F00001F0F1F83ED06077012020774AB1697894
:101A0000EB782878AA780902460341EA03418D1849
:101A100016E06E78DFF80881F00642BF06F0EF00AE
:101A200000F10A066E70E878C04707463046C047A6
:101A3000000240EA0746A878C047064428784503D4
:101A40002068CA2101F003F808B101200DE045EA41
:101A50000600216820F0C0004860204601F0A8F987
:101A60000146012009B9607700200021FF2221777B
:101A700021684A62BDE8F0812DE9F84301F0ABF836
:101A80004BD001F04AF90ED0400659BF0026EE7047
:101A9000E878860569782878AA78090241EA004042
:101AA00000EB020812E0400659BF4FF0000885F82D
:101AB0000380E8784FEA8058DFF864902878C847B8
:101AC00006466878C84701F0E8F80644CA207862FC
:101AD00053207862204601F044F908B1012017E054
:101AE000104948EA0600084021680860886820F428
:101AF00080208860D5E9030210438A68104388601B
:101B0000204601F055F90146012009B9607700200F
:101B10000021FF22217721684A62BDE8F88300BFD7
:101B2000412D00087F7F7F00B0B504460068094959
:101B3000C160FEF73BFD05462068C068800644BFD3
:101B40000020B0BDFEF732FD01F075F884BF032020
:101B5000B0BDF1E75F7F01002DE9F04186B004469A
:101B60000320884684F83400606C03280DD14FF0C0
:101B70008050A16B964E0843A063A06B18B32068F9
:101B80000125866384F8345028E0B8F1000F34D082
:101B9000B8F5805FEBD0B8F5006F3FD101F0C4F825
:101BA00080013ED404A9204601F064FF0028E0D162
:101BB0009DF8160040072ED501F01FF80028D8D157
:101BC0002068022136E094E80F00D4E90575CDE9DC
:101BD0000087029501F08CFC2068002500F0B6FF1C
:101BE00020B1216801258E6301F066F8012084F898
:101BF0003400284606B0BDE8F08101F095F8800178
:101C00000FD404A9204601F035FF0028B1D19DF87A
:101C10001600C00708D14FF08060AAE74FF00060BF
:101C2000A7E74FF40060A4E700F0E7FF0028A0D189
:101C30002068002101F0C7FC9BE700BF78B110B518
:101C40000446032084F83400206801F062FC20463A
:101C500000F0E2F90020A06384F8340010BD0120F8
:101C600070470000B0B5D0E91942436CA50F0D7064
:101C7000C4F383654D70C4F301658D70250CCD7080
:101C8000250A0D714C71140DCC80C2F303440C7203
:101C9000C2F3C0344C72C2F380348C72C2F340344D
:101CA000CC72C2F300340C730024012B4C7330D07F
:101CB000002B40F0818040F6FC73012503EA82028C
:101CC000C36E42EA93720A61C26EC2F3C2630B75BD
:101CD000C2F302634B75C2F342538B75C2F3824366
:101CE000CB75C2F3C2330B764FF4007303660B69F6
:101CF0000C7E04F0070401330234A34043650C7AE0
:101D000004F00F0405FA04F48465640A6343C365B0
:101D100012E0B0F86E3002F03F0243EA02424FF4A4
:101D200080630A614FF40072026682650A6903EB00
:101D30008222C2654265C26EC2F380334B76C2F323
:101D4000C61302F07F028B76CA76006FC20FC0F313
:101D500000430A77C0F341724A77C0F382628A7700
:101D6000C0F38352CA77C0F3405281F8202000228A
:101D700081F8212081F82230C0F3C03381F823306C
:101D8000C0F3803381F82430C0F3403381F825302C
:101D9000C0F3003381F82630C0F3812381F8273067
:101DA000C0F30123C0B2400881F8283081F829002F
:101DB000012081F82A0009E00168954A8A6301221E
:101DC000816B41F08051816380F834201046B0BDB2
:101DD000FF054000B0B500F144053CCD81E83C0072
:101DE000426D0A61826D4A61C26D006EC861002059
:101DF0008A61B0BD10B504460068216D090401F088
:101E0000A2FC20B1A16B0843A063002010BD00F02C
:101E100099FEC0F3432010BD98B110B5044690F868
:101E2000340020B900202077204600F00FF903206D
:101E300084F83400204600F00DF80146012011B16D
:101E400010BD012070470021A163216384F8340094
:101E5000002010BDF0B58FB0044600687621002642
:101E60000022002302910021CDE9006601F040FB31
:101E7000654F3E60206801F050FB012502203D6067
:101E8000FEF732FA0496206801F0AEFBB0B9206884
:101E900001F0D0FB48B10020A064206801F0A4FB51
:101EA00060B9A06C012802D00FE00120A064206876
:101EB000002101F04EFB40B14FF0805084F83450C7
:101EC00000F0FAFE28460FB0F0BD524E00204FF64B
:101ED000FE770021049ABA4213D891B920680021F4
:101EE00001F037FB0028E9D12068314601F044FBBE
:101EF0000028E1D100F026FE049901310491C10FC0
:101F0000E8E704994FF6FF72914202D34FF08070D8
:101F1000D4E7C0F38070012560642068ADF80E50EE
:101F200001F0DFFA50B3606C03282AD12068042145
:101F300001F0DBFA000DE06404A92046FFF792FEF1
:101F40000028B9D1216D206800230A0401F0A9FB03
:101F50000028B3D194E8EF008DE8E00001F0C8FA62
:101F6000206800F0F3FD00284BD02168CC4A012501
:101F70008A6300F0A1FE84F83450A3E74FF080603C
:101F80009CE7206801F0A0FB002897D120681F4E35
:101F90000021B047606720680421B047A06720682F
:101FA0000821B047E06720680C21B047C4F88000E2
:101FB000606C0328BAD020680DF10E0101F0D6FB49
:101FC00000287FF47BAF606C0328AFD0BDF80E1003
:101FD00020682165090401F08CFB00287FF46EAFB6
:101FE00020680021B047606620680421B047A066E1
:101FF00020680821B047E06620680C21B0472067C0
:1020000094E700255EE700BFA0802542EB3400087E
:10201000FF054000000010C110B50068374CA04219
:1020200018BF10BD0848016821F40061016004F583
:102030005C404FF4F851FEF767F904F56040042165
:10204000BDE81040FEF760B9443802402DE9F04F7A
:1020500085B00068294EB0424DD14FF000082848A5
:1020600006F55C446D46DFF89CB04FF00C09012783
:102070004FF0020ACDF80080416941F400614161EE
:10208000416901F4006100910099CDF80080016878
:1020900041F004010160016801F004010091009920
:1020A000CDF80080016841F0080101602946006810
:1020B00000F0080000900098CDF81090CDE902776C
:1020C000CDF804A04FF4706000902046D8474FF43C
:1020D00080502946CDE90379CDE901A8009020463A
:1020E000D84704202946CDE90379CDE901A700901E
:1020F00006F56040D84705B0BDE8F08F002C0140E0
:1021000030380240E50300082DE9F04F87B09B46C8
:1021100016460D460446FEF749FA6DB1804600F0BA
:1021200005FD0CD100210BEB0600A163E26D90428E
:102130000DD900F000FE05E000F0E0FC02E0A06B2D
:1021400040F00050A063012007B0BDE8F08F0320ED
:102150004FF001094FF0020A84F834002068676CE0
:10216000C162CDE905199021CDF810A003914FF07F
:10217000FF3101914FEA4B21029101A901F09FF932
:10218000012F18BF7602BBF1020F06D3C4F830A0AE
:102190003146206801F05FFA05E0C4F8309031461E
:1021A000206801F06BFA38B12168A24A8A63A16BFA
:1021B000084300F0D7FCC7E7DDF84090029E40F2EC
:1021C0002A3A2068426B416B12EA0A0F1CD10804BC
:1021D0000BD556B10027202F05D0206801F0A1F9BA
:1021E000E8510437F7E73D44203EFEF7DFF9A0EB66
:1021F00008004845E5D320688E498163A06B40F014
:10220000004000F097FC9FE7BBF1020F0ED311F4E2
:1022100080710BD0616C032908D001F0BDFA014632
:10222000206819B1834A8263A06BC1E7416B09073B
:1022300019D4416B890516D4416B890719D4416BB8
:1022400089061CD4416B89021FD5F6B101F069F9EA
:102250002860FEF7ABF9A0EB0800484518D22068CB
:102260000435043EEEE773498163A06B40F008003B
:102270009FE770498163A06B40F0020099E76D49C8
:102280008163A06B40F0200093E700F063FC5BE704
:10229000206868498163A06B40F0004089E700BF77
:1022A000FF0540002DE9F04F87B0984615460F46D0
:1022B0000446FEF77BF96FB1824600F037FC0CD183
:1022C000002108EB0500A163E26D90420DD900F0FA
:1022D00032FD05E000F012FC02E0A06B40F000507F
:1022E000A063012007B0BDE8F08F0320012284F82D
:1022F00034002068666CC162CDE904119021069219
:1023000003914FF0FF3101914FEA4821029101A959
:1023100001F0D5F8012E18BF6D02B8F1020F06D3F7
:10232000202029462063206801F04CFA05E01020A7
:1023300029462063206801F058FA38B121683D4AE7
:102340008A63A16B084300F00DFCCBE7109EDDF81B
:1023500008B040F21A396D462068426B416B12EAB0
:10236000090F33D1480424D5BBF1000F21D04FF021
:102370000009B9F1200F07EB090015D017F8091073
:102380000091427841EA02210091827841EA0241BB
:102390000091C07841EA006029460090206801F071
:1023A000D3F809F10409E4E7ABF1200B074640F24A
:1023B0001A39FEF7FBF8A0EB0A00B042CCD3206834
:1023C0001C498163A06B00F0B5FB8BE7B8F1020FED
:1023D0000ED311F480710BD0616C032908D001F089
:1023E000DBF90146206819B1124A8263A06BA9E7A4
:1023F000416B09070BD4416B890508D4416B8907F0
:102400000BD4416BC9060ED400F0A4FB6AE709495E
:102410008163A06B40F0080095E706498163A06BDB
:1024200040F002008FE703498163A06B40F0100089
:1024300089E700BFFF054000411E0020B0EB116F8F
:102440001CBF01207047044AF023516003490B7000
:10245000072190601160704710E000E023ED00E07C
:1024600090B110B5044690F8410008B900F04BFC5B
:1024700000F0EFFB2068016921F49041016141699E
:1024800021F02A0100F02ABC01207047016817489A
:10249000814200D07047FEB50021154A00F570401A
:1024A0000191536943F010035361536903F0100322
:1024B0000193019B0091136843F0010313601268BC
:1024C00002F001020092072205920322CDE90312D5
:1024D000022102914FF4C0610191009901A9FDF719
:1024E00081FF06B0BDE88040704700BF001001408A
:1024F000303802402DE9F843044690F84100202886
:102500001CBF0220BDE8F8838846B1B11746A2B1CE
:1025100000201D466064212084F84100FEF746F843
:10252000E7840646A784A068B0F5805F01D12069E2
:1025300030B14FF00009474604E00120BDE8F883C0
:102540000027C146E08CB8B12046802132462B4698
:1025500001F01CFCF0B927B117F8010B21684860A5
:1025600006E039F8021B206800276FF35F21416005
:10257000E08C0138E084E5E72046402132462B46D6
:1025800001F004FC202184F84110002818BF03202A
:10259000BDE8F883202084F841000320BDE8F883DB
:1025A000FEE770B501310023372472B1060F01F840
:1025B000023B04EB1075B0F1204F38BF06F1300537
:1025C00001F8035C013A0001EFE770BD70B500F05F
:1025D0005CFA15D095F81C0298B19E4E20463178D1
:1025E00001F0D6FE687A02280AD13178204601F03F
:1025F000CFFE994801782046BDE8704001F0C8BE82
:1026000070BDD5F818020028E7D0687A0028E4D118
:1026100091480178204601F0BBFEDEE710B5044684
:10262000D0F8D40200F05FFA14D0407A02280BD11F
:1026300088480178204601F0ABFE874801782046A3
:10264000BDE8104001F0A4BE49B2B1F1FF3F01DC8A
:10265000012800D110BD20460121BDE8104000F046
:10266000D9B800BF10B50446D0F8D40200F03BFA48
:1026700015D0017ACA1E022A05D200212046BDE8E3
:10268000104000F0C7B8022909D190F81D1200F2DD
:102690001F22204600F0BAFBB0F1FF3F00DD10BD65
:1026A0000121EBE7B0B500F0F0F932D0287A01282B
:1026B00028D070BBD5E98501C5E98D016648017850
:1026C000204601F05CFD1F280ED1D5F810022B49E1
:1026D000884209D195F81D122868884204D395F8DC
:1026E0001E0208B1112815D395F81D1220460522A7
:1026F000202300F0BDFE022068722046BDE8B040F5
:10270000FFF764BF95F81D1200F04EFAB0F1FF3FDD
:102710002ADDB0BD00F048FA297AB0F1FF3F21DD93
:10272000481E0328F5D3EB6823B3D4F8D40200F095
:10273000DAF9EED0D0F83822002180F83C120421DA
:10274000D21A0172D0F81812C0F83822414805F1A7
:102750001002994238BF0B4601782046BDE8B040D0
:1027600001F035BE0529C8D120460121BDE8B040A1
:1027700000F050B820460021F8E700BF555342430F
:10278000D0F8D41200EB8100D0F8C00208B10021CB
:102790000172704770B500F078F91DD000212981D1
:1027A000A5F8601285F86212D0F8C4020168002012
:1027B0008847294E2046317801F0D8FC2548017819
:1027C000204601F0D3FC317805F5047220461F2322
:1027D000BDE8704001F04FBD70BD00BF70B500F0A6
:1027E00054F915D04FF4807028811A48017820469A
:1027F00001F00FFC184E2046317801F00AFC3178C8
:1028000005F5047220461F23BDE8704001F033BD7A
:1028100070BD00BFB0B500F038F918D00C4885F88D
:102820003C1205F50C720D23C5F830020020287209
:1028300008480178204601F0CAFD074805F50472F2
:102840001F2301782046BDE8B04001F014BDB0BDA3
:10285000555342530C0000200D00002081B0002190
:1028600015480091026842F004020260026802F01A
:1028700004020092009A0091026842F08002026015
:10288000026802F080020092009A0091026842F011
:1028900001020260026802F001020092009A0091B7
:1028A000016841F008010160006800F00800009034
:1028B000009801B0704700BF3038024010B586B0B4
:1028C0001748184B0024FF217F22CDE90244CDE9AF
:1028D0000044C0E90034C0E90221C0E90444846135
:1028E000FFF726F808B1FDF7FDFC0D48CDE90444DB
:1028F0008DF80640ADF8044001A90122FFF7BCF8AD
:1029000008B1FDF7EFFC0848694601220090044831
:10291000FFF76CF808B1FDF7E5FC06B010BD00BF8D
:10292000740D0020002800400101012310B5124C55
:102930002046FFF783F96420FDF7D6FC0F490020FD
:102940004FF480430F22C4E90200C4E90403A261EA
:10295000C4E900102046FFF75FFA08B1FDF7C2FC9A
:1029600005484FF40061FFF7F7F818B1BDE81040D3
:10297000FDF7B8BC10BD00BF940D0020002C014035
:1029800010B50B480B4C00210C224FF4E133C0E989
:102990000043C0E90211C0E90412C0E90611FFF7C3
:1029A0005FFD18B1BDE81040FDF79CBC10BD00BF35
:1029B000180E00200010014080B50F480F4900227A
:1029C00001F014FB08B1FDF78DFC0B480C4901F038
:1029D0003BFE08B1FDF786FC07480A4901F0AEFD51
:1029E00008B1FDF77FFC044801F053FE18B1BDE8C3
:1029F0008040FDF777BC80BDB405002010000020AA
:102A000064000020C8000020FEE7FEE70148FDF753
:102A1000C5BF00BF90080020214601F0BFBA0446A0
:102A200090F8940401287047C0F8041800207047FB
:102A3000D3F8000400F0070040457047090741EA59
:102A40008010C6F8840001203860FDF7AFBD4162F8
:102A500053214162204600F084B904464FF480605F
:102A60000590002004904020039070470020C4F897
:102A7000D40220461047204601F0D9B900F00F00DB
:102A800000EB800004EB800070470446D0F8D402CD
:102A900004EB8000D0F8C052002D7047D0F8C4027B
:102AA0008168384608470138B0FA80F0400980BD97
:102AB000002084F8940410BD009901310091009920
:102AC000B1F1706F7047204600F02EBD0020C4F8B1
:102AD000D40220460847204601F0CDB905463046CD
:102AE000012101F03DBA04EB8000D0F8C0020028BB
:102AF0007047D0F8C402C16838460847A06B40F060
:102B000000607047016851E8051F026821F001016B
:102B100042E80513002B7047016851E8031F026863
:102B200021F0100142E80313002B704794F83400A1
:102B300001287047A063012084F83400002020633E
:102B4000032070472068002100F0CFBC4FF40071D3
:102B500000F026BD40F23A518163012084F8340030
:102B600000207047A0630120002184F83400216315
:102B70007047B1F1FF3F00EBC00104EB81017047EA
:102B8000B06800F00C00082870474FF480604021C6
:102B90000590002003917047204601F02BB90446B0
:102BA0008121304601F0DCB905F21F22204600F0F9
:102BB0002DB9D6F8020004EB071802BAC8F86C2247
:102BC000B6F8070043BA7047204601F059B8DAF862
:102BD0000000416970470D46017F0446022001292B
:102BE000704704464FF48060059000200490402018
:102BF00003900620CDE901107047216D206809047B
:102C000000F0A7BC94F89C02013802287047D6F85F
:102C1000020004EB071802BAC8F86C22D6F80600C6
:102C200003BA7047002084F89404B0BDC9F8380096
:102C3000D9F838007047401BB0F57A7F70474FF4E1
:102C4000FA520968B1FBF2F141F288325143C943AB
:102C50007047242084F841002068C16821F40051A5
:102C6000C160204601F02EB804EB071008F51C7176
:102C700000F51970096800887047012084F89404F1
:102C8000206870470A5842F000620A500A5842F021
:102C900080420A5042F210727047000240EA064633
:102CA000A878484704464FF48060059000200490BF
:102CB0004020039008207047A16B0843A063704731
:102CC00028463946C8F8703200F086B8DAF80000B5
:102CD00002F0D0BA0490CDE9010170474161C168AA
:102CE00041F40051C16000202021606484F841104B
:102CF00084F84210606310BD0121206884F89414A8
:102D0000C16849067047002084F840002046FFF75C
:102D1000BDBB0146DAF800007047607701202768E4
:102D20002077002AB868704700200021CDE9040010
:102D3000206800F0DABBA06B40F00070704770476D
:102D40000928014698BF09210A22B1FBF2F202EBE1
:102D50008203A1EB4303591A084440EA0210C0B2AF
:102D600070472DE9F04104460068C16849061BD44C
:102D7000C1680026012741F08001C160FDF716FC03
:102D800005464FF004082168F843C96840EA9110ED
:102D9000C0070AD1FDF70AFCFFF74DFFF3D984F80D
:102DA0001D8001260027EEE70026F0B2BDE8F08185
:102DB00010B504460068C16821F08001C1608068D8
:102DC000800607D42046FEF7AFFE18B104206077D6
:102DD000012010BD002010BD10B5D0F8D44200EB8A
:102DE0008404D4F8C0425CB104EB01111A44D1F858
:102DF00068128A4206D900210522212300F038FBFF
:102E0000FF2000E0002040B210BD00002DE9FE438D
:102E10000546D0F8D40205EB8000D0F8C042002C63
:102E200000F023820F4611781646A1F11A02152AE6
:102E300022D8DFE812F0160049006000D0016900D6
:102E4000D001D001D001D0017200D0018C00D0019E
:102E5000D001B400D001CA00D001D001D001D0010E
:102E6000EA00FFF746FE002800F08D81DFF89004AD
:102E7000817841F080018AE1AA2900F0D8800329F5
:102E800000F0E080122900F0EB805A2900F0FF806A
:102E90009E2900F00D81A02900F02E81A82900F0C4
:102EA0004181002940F09781D4F81812002940F0A0
:102EB000928194F86212022900F08081FFF7EEFD02
:102EC000002840F07B81AFE0307994F8621200F086
:102ED0000300012908BF022800F08A810138022876
:102EE00000F2A280C0B24FF40071C00021FA00F0DD
:102EF00084F8620298E0B6F8030000BA020C00F011
:102F00004F81DFF8F013CFE031790020E060002935
:102F100018BF012184F86212A8E1D0F8C4020DF1B3
:102F20000A02436801A938469847002840F0978173
:102F300094F86202022800F0928104F1100000214E
:102F400000220C2A00F0598181540132F9E7D0F8AF
:102F5000C402436804EB071000F51A7600F51978EF
:102F60003846314642469847002840F0788194F828
:102F70006202022800F0738108210020E1603168BC
:102F8000A08201390A0AE174A2740A0C090E2174A4
:102F9000B8F80010627409BA090CE18266E1217A7E
:102FA000002940F0C28094F91C12002940F11381DD
:102FB00094F86212022900F05281FFF76FFD002899
:102FC00040F04D81FFF7F5FD65E1217A99BBD4F81A
:102FD0001812002900F0FF8094F91C12B1F1FF3F94
:102FE00040F3F980FFF75AFD002840F03881D5F80A
:102FF000D40205EB8000FFF77CFD002800F059812A
:1030000028460021022227232DE17078800700F155
:10301000EF8004EB07103946D0E99B232846FFF7E1
:10302000DBFE002800F121810020E0601EE1217A12
:10303000002900F0B7802846394603B0BDE8F043C8
:1030400000F0BAB9D4F81802002800F0C48004F1E6
:10305000100000210022122A75D081540132FAE7B3
:10306000D4F81812002900F0B6807178C90740F032
:10307000B780D0F8C40207EBC7013279C06900EB12
:10308000810108790530904238BF024685E0FFF79C
:1030900030FD9A49002818BF0120CA7802F07F024B
:1030A00042EAC010327AC870082A28BF082274E0A9
:1030B000D0F8C402436804EB071000F51A7900F554
:1030C00019783846494642469847002840F0C7805C
:1030D00094F86202022800F0C280D6F80A000021AB
:1030E000002302BA04F11000E260934280F09A805B
:1030F000C1540133E268F8E77F4D18212846FDF7F7
:1031000097F82068082101EBC001C00009BA2960C6
:1031100000212368CAB2934211D305EBC202517257
:103120000131F6E7217A002951D04FF40070394679
:10313000E060284603B0BDE8F04300F0E7B8103087
:103140006D4982B229E00C2094F86112E07570207C
:10315000207494F8600288420ED004EBC001013064
:1031600091F84022B1F84412A183C1B2A27404398B
:1031700018BF014684F860121220E06030791228EE
:1031800098BFE0600CE05D48817801F07F01327902
:1031900081705B49042A28BF0422204600F085F98B
:1031A000002063E0D4F81812A9B194F91C12B1F10F
:1031B000FF3F10DDFFF772FC00285ED0284600219B
:1031C00002223A2300F054F9052020724DE094F9D0
:1031D0001C1200293CD4284600210522202342E06D
:1031E000B078802845D018B9474920460622D5E74F
:1031F000284600210522242335E00820E07402201F
:1032000020830C20E06001980138010AE075A17567
:10321000010C000E2075BDF80A00617500BA000CA3
:103220006083BDE7D9F800100020208301390A0A25
:10323000E175A2750A0C090E2175B8F800106275C7
:1032400009BA090C6183D6F80A1009BAE1600DE0E9
:1032500094F86212022902D0FFF720FCC8B1284678
:10326000002102223A2300F003F9FF2040B2BDE81A
:10327000FE8324492046082290E7D5F8D40205EBC6
:103280008000FFF736FCB8B1284600210222272330
:1032900098E7FFF7BCFCFFF713FD0028E5D4FFF724
:1032A000E3FC4843D4F81812814294D102202072E2
:1032B0003BE7FFF77EFC01E0FFF7A9FCFFF700FD0D
:1032C0000028D2D4FFF7D0FC01FB00F3D4F8180299
:1032D00098427FF480AF012004F11002207263480D
:1032E000B3F5007F28BF4FF400730178284600F043
:1032F000C2FF55E708010020100100202C0000202B
:10330000340000203E000020380000202DE9F04766
:103310000446D0F8D40204EB8000D0F8C072002F2D
:1033200043D007EB011607F1100906F51978D6E925
:103330009B25B8F800305D43B5F5007F28BF4FF4FA
:103340000075D0F8C402B5FBF3F3D0F810C00846FE
:103350004946E047B0F1FF3F21DD16484A462B467B
:1033600006F51B7A06F51C760178204601F02FF849
:10337000D7F83802B8F80010401BC7F83802A8B2D6
:10338000B0FBF1F0DAF800100144CAF8001031681F
:10339000081A306004BF03203872002006E020467F
:1033A00000210422112300F063F8FF2040B2BDE8A1
:1033B000F08700BF0C0000202DE9F0478246D0F8CE
:1033C000D4020AEB8000D0F8C062E6B306EB011726
:1033D00006F1100807F51979D7E99B23B9F80040E1
:1033E00003FB04F5B5F5007F28BF4FF40075D0F856
:1033F000C402B5FBF4F3446908464146A047B0F166
:10340000FF3F1ADDD6F8380207F51B71ABB207F59E
:103410001C720C68401BC6F83802B9F80000B3FBF8
:10342000F0F31C440C601168C91A11600DD15046AC
:1034300000210025FFF7EEF915E050460021042297
:10344000032300F015F8FF250DE001FB00F307480A
:103450004246B3F5007F28BF4FF400730178504611
:1034600000F009FF002568B2BDE8F0870D000020DC
:10347000D0F8D41200EB8100D0F8C002A0B1B0B5F2
:1034800090F86112002500EBC104013184F840225C
:10349000CAB284F8455284F84432043A18BF0A4646
:1034A00080F86122BDE8B040704738B1C2600F308B
:1034B00001391AB18B5C8354013AFAE77047B0B511
:1034C00091E83C004262836245EA04030A69496963
:1034D0001A431143C26A22F0F7021143C16200206D
:1034E000B0BD006800F003007047084440697047B1
:1034F000B0B51143049A446847F6FF651943114378
:10350000059AAC431143069A1143214341600020C0
:10351000B0BD002101600020704703210160002040
:103520007047D0F88000704770B591E83C0040F6D5
:10353000FF76234382602B43C2680969B243194373
:103540001143C160002070BD0968C0F880100020E0
:10355000704710B586B0FFF780FA3720CDE901102B
:1035600001A9FFF7B0FA2046372141F2883206B0B0
:10357000BDE8104000F04CB910B586B0FFF76DFA09
:103580002920029005480843019001A9FFF79BFA02
:10359000204606B0BDE8104000F0E8B900001080F9
:1035A00010B586B0FFF759FA1020CDE9011001A936
:1035B000FFF789FA2046102141F2883206B0BDE8B3
:1035C000104000F025B910B586B0FFF70AFB01A93D
:1035D000FFF779FA2046062141F2883206B0BDE8AD
:1035E000104000F015B9000010B586B00446002068
:1035F000CDE90300CDE901004FF48060059001A9F9
:10360000FFF761FAE6484FF4FA510068B0FBF1F0B9
:1036100041F288314843C043013006D2616B09064C
:10362000FAD5C520A063002001E04FF0004006B0AD
:1036300010BD00BF10B586B0FFF734FB02904FF409
:10364000D570019001A9FFF73EFA204606B0BDE80B
:10365000104000F0E7B910B586B0FFF7FEF9122070
:10366000CDE9011001A9FFF72EFA2046122141F2FF
:10367000883206B0BDE8104000F0CAB810B586B078
:10368000FFF7EBF91120CDE9011001A9FFF71BFAB3
:103690002046112141F2883206B0BDE8104000F00A
:1036A000B7B810B586B0FFF7D8F90720CDE90120EB
:1036B00001A9FFF708FA2046072141F2883206B037
:1036C000BDE8104000F0A4B810B586B004464FF431
:1036D0008060C0210590002003910221FFF7FAFAD3
:1036E00001A9FFF7F0F9204606B0BDE8104000F050
:1036F0001BB910B586B004464FF4806005900020D9
:103700000490C02003900920CDE9011001A9FFF722
:10371000DAF9204606B0BDE8104000F005B910B552
:1037200086B00446FFF731FA3321FFF7D3FA01A937
:10373000FFF7C9F92046332141F2883206B0BDE8CF
:10374000104000F065B810B586B0FFF786F90D207F
:10375000CDE9011001A9FFF7B6F920460D2141F28C
:10376000883206B0BDE8104000F052B8B0B586B05F
:103770000C460546FFF709FA0321FFF7ABFA01A94A
:103780002846FFF7D1FE28460321224606B0BDE8B1
:10379000B04000F007B9000010B586B00446FFF74E
:1037A000F4F90C21FFF796FA01A9FFF78CF9044A06
:1037B00020460C2106B0BDE8104000F029B800BF3B
:1037C00000E1F50510B586B0FFF747F91920CDE9FE
:1037D000011001A9FFF777F92046192141F288323B
:1037E00006B0BDE8104000F013B810B586B0FFF782
:1037F00034F91820CDE9011001A9FFF764F920463A
:10380000182141F2883206B0BDE81040AFF30080C5
:1038100010B5034696484FF4FA540068B0FBF4F034
:1038200050430130013804BF4FF0004010BD5A6BC7
:1038300012F0450FF6D012F40062F3D1586B400736
:1038400042BF0420986310BD586BC0071EBF012003
:10385000986310BDC52098631869C0B288421CBF28
:10386000012010BD58692F49084204BF002010BD37
:10387000002854D4410044BF402010BD810044BF03
:10388000802010BDC10044BF4FF4807010BD010105
:1038900044BF4FF4007010BD410144BF4FF480603D
:1038A00010BDC10144BF4FF4006010BD010244BF10
:1038B0004FF4805010BD410244BF4FF4005010BD82
:1038C000810244BF4FF4804010BDC10244BF4FF499
:1038D000004010BD410344BF4FF4003010BD8103D0
:1038E00044BF4FF4802010BDC10344BF4FF40020FB
:1038F00010BD010444BF4FF4801010BD410444BF0B
:103900004FF4001010BD810444BF4FF4800010BD7F
:1039100000074FF4000058BF4FF4803010BD4FF047
:10392000007010BD08E0FFFD51497346FFF787F9AD
:103930009E46013110D2426B12F0450FF9D012F4BD
:103940000062F6D1416B490709D4416BC90708D120
:10395000C5218163002106E04FF0004103E004210E
:1039600000E0012181630846704700BF404973466B
:10397000FFF765F99E4601310ED2426B12F0450FFA
:10398000F9D012F40062F6D1416B042211F0040167
:1039900008BFC522826301E04FF00041084670472E
:1039A0004800002010B5324B4FF4FA541B68B3FBAB
:1039B000F4F341F288346343DB4301331FD2446B99
:1039C00014F0450FF9D014F40064F6D1436B5B0793
:1039D00018D4436BDB0717D10369DBB28B4217D1D5
:1039E000C5218163406910F4604F13D0410415D4A0
:1039F0004FF48051000458BF4FF4803106E04FF07F
:103A0000004103E0042100E001218163084610BD6C
:103A10000121FBE7000C00211080F7E74FF4005173
:103A2000F4E700BF12497346FFF709F99E460131DA
:103A300013D2426B12F0450FF9D012F40062F6D1A6
:103A4000416B49070CD4416BC9070CD1416B490646
:103A50004FF000010AD5402207E04FF0004105E099
:103A60000422042101E001220121826308467047FB
:103A7000480000202DE9F04188B00C460546FCF7CF
:103A800095FD064600200821CDE900002868FFF7D3
:103A900087FD0146002851D1296D28680904FFF7E8
:103AA00058FD0146002849D10120079000200690CA
:103AB0000220059030200490082003904FF0FF3042
:103AC0000290286802A9FFF7FAFC2868FFF727FE92
:103AD000014698BB0027E8462868416B11F02A0F81
:103AE00013D1416B890203D4416B890405D40CE0E6
:103AF000FFF717FD48F827000137FCF757FD801B3B
:103B00004FF000410130E7D118E0416B090713D4B1
:103B1000416B890510D4416B890713D4416B890629
:103B200012D440F23A518163DDE9000109BA00BACA
:103B3000C4E90010002101E008218163084608B0B3
:103B4000BDE8F0810221F8E72021F6E7B0B588B0A2
:103B50001C480D4669461446FEF73CF9DDE90601AE
:103B6000013821802860002008B0B0BD00207047D7
:103B70000020704700207047002070471CB542F2BB
:103B8000107000900F48FEF7BFFA08B103201CBD6B
:103B90000C4C2046FEF72EF90428FAD100201CBD5B
:103BA0001CB542F2107000900648FEF77BFB08B18E
:103BB00003201CBD034C2046FEF71CF90428FAD153
:103BC00000201CBD940D00207047FCF7F3BC0000E2
:103BD000B0B592B0002414210B94CDE9094401A89A
:103BE000FCF726FB204800940225016841F0805133
:103BF0000160006800F080500090009800941B481D
:103C0000016841F480410160006800F48040009048
:103C1000072010951190A8200F9004200E904FF4CB
:103C20008000CDE90C50012008904FF480300790BF
:103C300005200690009806A8FDF784FC08B172B62E
:103C4000FEE74FF48050CDE90254052105904FF472
:103C5000A05004900F20019001A8FDF79BFB08B134
:103C600072B6FEE712B0B0BD4038024000700040AE
:103C70000248016841F470010160704788ED00E07E
:103C8000016851E8031F026821F4907142E80313B0
:103C9000002BF5D14DF808EDFEF734FF5DF808EB89
:103CA000F8D1016B012906D14DF808EDFEF734FF7C
:103CB0005DF808EBF8D1202180F842100021016363
:103CC00070470000B0B50446006804F108030ECB4D
:103CD000056925F4405519432A4349F20C650261F0
:103CE000C26863691943E369AA4319431143C16078
:103CF0004169A26921F4407111434161214940F4B5
:103D00008060884202D1FDF7DFFB01E0FDF7D2FBC6
:103D1000E26919216368A0FB0101B2F5004F17D1D8
:103D20005A00DB0FFCF74CFA174B6421B0FBF1F2A1
:103D300003F1805302FB0300322303EBC000B0FB0E
:103D4000F1F04FF4F87101EA400100F0070012E0D1
:103D50009A009B0FFCF734FA64210B4BB0FBF1F295
:103D600002FB0300322303EB0010B0FBF1F000F084
:103D7000F00100F00F0001EB021108442168886097
:103D8000B0BD00BF001401409CFFFF0F2DE9FC41B6
:103D9000044600681D4690460F465E1C0168394087
:103DA000B94224D0002EF9D0FCF700FCA0EB0801AA
:103DB0000320A94219D8C5B12068C1684907EDD5CB
:103DC000402FEBD0802FE9D001680907E6D5002508
:103DD000019501680191406801900198FEF7F4FE99
:103DE000082084F8405060640120BDE8FC81002078
:103DF000BDE8FC8180B5D0F8B82252689047002811
:103E000018BF032080BD002070470020704780B598
:103E100013460A46002100F02EFA002080BD80B52E
:103E200013460A46002100F0D2FA002080BD10B5EA
:103E30008021044600F0ACFA20460021BDE8104085
:103E400000F0A6BA80B5052100220023C0F8941224
:103E5000002100F010FA002080BD80B513460A460C
:103E600041620221C0F894120021C0E9053300F03C
:103E7000AEFA002080BD80B5042100220023C0F8E6
:103E80009412002100F0A3FA002080BD10B5264C4A
:103E90000A4602A0FEF7C0FD204610BD4D53432048
:103EA000436F6E6669670000122008800048704703
:103EB0004C00002010B51C4C0A4602A0FEF7ACFDD9
:103EC000204610BD4D534320496E74657266616390
:103ED0006500000004200880004870476000002052
:103EE00010B5114C0A4602A0FEF796FD204610BD03
:103EF00053544D6963726F656C656374726F6E695C
:103F00006373000010B5084C0A4602A0FEF784FD5A
:103F1000204610BD53544D3332204D6173732053EE
:103F2000746F7261676500002C010020B0B51A2023
:103F30000880094908688A6880180BD0074D4C68CA
:103F40000822A91CFEF72DFB05F1120120460422D0
:103F5000FEF727FB0148B0BD107AFF1FE8000020E4
:103F60000278438893429CBF0020704710B594B2FA
:103F70009C4209D20478204422444478052CF6D18E
:103F800084788C42F3D110BD002010BD002102784E
:103F900012B101300131FAE7C8B27047C8B170B54B
:103FA00016460C460546FFF7F1FF0221032201EBFE
:103FB000400030802070002062702A783AB1CBB285
:103FC00002310135E25443F00102A054F5E7BDE8A7
:103FD00070407047044AC100032822FA01F188BFEB
:103FE0000321C8B2704700BF0003010378B100236A
:103FF000C0F8D032C0F8C432C0F8B83209B1C0F845
:10400000B4120121027080F89C1200F0BDB80320A8
:10401000704780B5D0F8C802FCF7E3FBBDE88040EC
:10402000FFF7D8BF80B5D0F8C802FCF7BCFBBDE8ED
:104030008040FFF7CFBFB0B5044669B194F89C0249
:10404000032848D1D4F8B8024269002A43D0FEF7C9
:104050000DFD00283FD0B0BDD4F89402022834D121
:10406000218CA06988420ED9421A606AA26101447B
:1040700020466162FFF7D3FE204600210022002384
:1040800000F0F9F821E00FD1616981420CD3D4F836
:104090009802814208D22046002100220025FFF725
:1040A000BEFEC4F89852E7E794F89C02032805D1B5
:1040B000D4F8B802C16809B1FEF708FD2046802196
:1040C00000F066F92046FFF7BDFE94F8A00210B19B
:1040D000002084F8A0020020B0BD10B5044659B1FC
:1040E00094F89C0203282DD1D4F8B80282694AB30F
:1040F000FEF7BCFC30B310BDD4F89402032821D1E4
:10410000B4F86021D4F8580190420ED9D4F8641163
:10411000801AC4F8580190421144C4F8641188BF51
:1041200002462046FFF773FE0CE094F89C02032839
:1041300005D1D4F8B802016909B1FEF7C7FC2046E1
:10414000FFF799FE002010BD00207047012180F884
:104150009C12D0F8B8223AB180B5017952689047E4
:10416000002818BF032080BD0020704780B5D0F81C
:10417000C802FCF75DFBBDE88040FFF72BBFD0F81D
:10418000C802FCF76CBB0000017849BB10B51549AB
:10419000C0F8C812C1F8E004042008714FF0A04034
:1041A00008600020C8810220C1F809004FF40070A7
:1041B000C8800846FCF76EFF08B1FCF793F8094C7D
:1041C00080212046FCF79DFA204600214022FCF782
:1041D0009CFA204601218022FCF797FABDE81040A6
:1041E000002070479008002001F07F02D0F8C8023C
:1041F00049B202EBC202002900EB820000F2562213
:1042000048BF00F1160210787047D0F8D42200EBB6
:104210008202D2F8B8225AB190F89C32032B05D111
:10422000126A1AB180B59047002080BD0020704707
:1042300003207047D0F8D42200EB8202D2F8B822D3
:104240005AB190F89C32032B05D1526A1AB180B54D
:104250009047002080BD002070470320704710B5B4
:104260001446D0F8C8021A462346FCF701FBBDE805
:104270001040FFF7AFBE80B5D0F8C802FCF721FBB5
:10428000BDE88040FFF7A6BEF8B50126002504462C
:1042900080F89C62C0F8A452456080F8A052C0F833
:1042A0009452D0F8B80240B1426832B120460021A1
:1042B00090470546002818BF03252046002100220C
:1042C00040234027FFF7CBFF2046802100224023D8
:1042D00084F86361A4F86071FFF7C1FF284684F891
:1042E00023602784F8BD90F89C12042904BF90F83D
:1042F0009D1280F89C120020704790F89C120329B0
:1043000008D1D0F8B81229B1C96919B180B5884768
:10431000BDE880400020704701740020704780B5E0
:10432000D0F8C802FCF76DFFBDE88040FFF752BE31
:10433000B0B500F2AA250446284600F07AF901201B
:10434000C4F89402B4F8B002C4F8980294F8AA022F
:1043500000F01F01022908D001290CD089B920469C
:104360002946BDE8B04000F097B920462946BDE88F
:10437000B04000F0E7BA20462946BDE8B04000F062
:104380007BBB00F080012046BDE8B040AFF3008069
:1043900080B5D0F8C802FCF7B0FABDE88040FFF75E
:1043A00019BE80B5D0F8C802FCF73FFFBDE88040D9
:1043B000FFF710BE90F89C1204291CBF90F89C12C5
:1043C00080F89D12042180F89C120020704780B56F
:1043D000D0F8C802FCF7C7FABDE88040FFF7FABD85
:1043E00080B5FEF73FF9002080BD80B5FEF75AF991
:1043F000002080BD70B5504E04467178FFF712FE64
:1044000070780025FEF73AFB80F86351204631783A
:10441000FFF708FE3078FEF731FB80F82350D4F820
:10442000D40204EB8000D0F8C00280B12046FEF731
:10443000A7F9D4F8D40204F5307656F8200000F03D
:104440004BFBD4F8D40246F82050C4F8BC520020EC
:1044500070BD00BF0A21018000487047BC000020E9
:1044600070B5184EFEF79BFBFEF738FB0DB14021EF
:10447000A98008B14021818020202080114870BD92
:1044800070B5104EFEF78BFBFEF728FB15B14FF40D
:104490000071A98010B14FF400718180202020802C
:1044A000084870BD70B5074EFEF779FBFEF716FBA6
:1044B0000DB14021A98008B14021818020202080B9
:1044C000004870BD9C000020F8B504464FF42170F0
:1044D00000F004FBD4F8D41204EB810101F5307133
:1044E00028B30860C4F8BC02207C134E4025002885
:1044F00008BF4FF40075717820462B460222FFF763
:10450000AEFE7078012702222B46FEF7B7FA80F83C
:10451000637120463178FFF7A2FE3078FEF7AEFADD
:1045200080F823702046FEF735F90020F8BD002002
:1045300008600220F8BD00BF0C00002039B1D0F89F
:10454000D42200EB8200C0F8C41200207047032080
:1045500070477CB50446D0F8D4020D460021ADF872
:10456000061004EB8000D0F8C062002E5FD02978DE
:1045700011F060021BD0202A55D16A7849B2FF2A77
:1045800026D0FE2A4FD16A88002A4CD1EA88012A17
:1045900049D1B1F1FF3F46DCD0F8C40280698047C1
:1045A000C0B23146022828BF0220306035E068786A
:1045B0000B2817D001281CD00A2829D098BB94F8C2
:1045C0009C0203282FD10DF106012046022226E08D
:1045D000688840BB002926D4E88820BB2046FEF727
:1045E000FDF81EE094F89C0203281CD1A8787060A6
:1045F00017E094F89C02032813D1688888B92979B8
:104600002046FFF7B3FD29792046FEF707F808E0BA
:1046100094F89C02032806D1311D20460122FFF7A1
:104620001CFC00207CBD20462946FFF700FC03202F
:104630007CBD0A7802704A7842704A8842808A8833
:104640008280C988C18070471CB504460020ADF83F
:104650000600A9B1D4F8D402C4F8B81204F52E713A
:1046600051F82000C16A21B10DF106008847C4F855
:10467000D002D4F8D8020130C4F8D80200201CBD02
:1046800003201CBDD0F8B8220AB1126810470020E0
:104690007047FFF786BE0000BCB5044608780D469B
:1046A00010F0600011D0402802D0202840F03C815A
:1046B000D4F8D402294604EB8000D0F8B80282680E
:1046C000204602B0BDE8B04010476878092800F2E3
:1046D0002B81DFE810F00A001D0029012B002901C1
:1046E0003500540029016A007C00FEF78BFA00F2C5
:1046F0001B81E888022840F01781D4F8A4022146E3
:10470000002818BF01204000022241F80C0F07E1E9
:10471000FEF778FA00F2088168880025012840F049
:104720000681C4F8A452FEF7D6F900E16888022891
:104730006BD0012840F0F8800120C4F8A402F8E012
:10474000A888002840F0F080E888002840F0EC803D
:1047500068887F2800F2E88094F89C12032900F012
:10476000E380C5B284F89E0220462946FFF7D7FDB4
:10477000FEF7B1F9002D00F0DF800220DDE000201F
:104780004FF0FF31ADF80600688801EB10210629D3
:1047900000F2CA80DFE801F004444BC8C858620048
:1047A000D4F8B412207C0A68ACE0E888012840F014
:1047B000BB8094F89C02411E02292AD20025214682
:1047C0002046012241F8085FFFF747FBAFE0688809
:1047D0005B4D10F0FE0F287003D0FEF74CF9032557
:1047E000A5E0C1B294F89C02032843D0022859D115
:1047F000002900F09E8020466160FFF743FF0028FB
:1048000067D00546FEF737F948E0687984F8A002DA
:104810008FE0032840F08880211D2046012280E09F
:10482000217CD4F8B802002942D0C16A41E0C0B26C
:10483000052800F27980DFE800F0035054585C60EE
:10484000D4F8B40242685BE0207C00286CD1D4F834
:10485000B802416B0DF10600884756E0207C002825
:1048600062D1D4F8B802016B0DF106008847014609
:10487000072023E021B3606888425AD0C1B2FEF716
:104880008BF9297820466160FFF7FCFE002850D0A4
:104890000546FEF7F0F82179FEF77EF9022084F84C
:1048A0009C0244E0FEF7E7F82978FEF775F996E7F1
:1048B000816A0DF10600884701460220487025E014
:1048C000022061600021002584F89C02FEF764F953
:1048D00029E7FEF700F903202FE0D4F8B40282683C
:1048E0000EE0D4F8B402C2680AE0D4F8B402026957
:1048F00006E0D4F8B402426902E0D4F8B402826956
:1049000092B1207C0DF1060190470146EA8882B100
:10491000BDF8060040B1904238BF0246ADF806200F
:104920002046FFF79AFA01E0FEF7A5F80025284691
:10493000BCBDFEF7D0F8F9E7012084F89C02F5E74A
:104940002801002070B5044608780D790E4610F055
:10495000600016D0402801D0202864D12046294686
:10496000FFF751FA002860D10020C4F8D402D4F82F
:10497000B8028268002A58D020463146BDE870400F
:104980001047707868B101281DD003284BD194F8E6
:104990009C0203281BD17088002854D0FEF79BF896
:1049A00043E094F89C0203281ED002283BD16806FD
:1049B00039D1280604F1140158BF04F5AA7100206A
:1049C00001F80E0F53E094F89C0203282FD0022820
:1049D00029D1680627D020462946FFF7D9FC204672
:1049E0008021FFF7D5FC20E005F00F00802D00EBC3
:1049F000800004EB80002CBF90F8230090F8630146
:104A000088B105F07F00802D00EB800004EB800072
:104A100000F1140638BF00F5AA7645F08000802822
:104A20001BD1002020E0FEF726F8002070BD708822
:104A30000028FAD1680603D020462946FFF7E9FA94
:104A4000FEF749F88AE76806A8D0F0880028A5D1C3
:104A500020462946FFF79CFCA0E720462946FFF7A1
:104A6000C3FB0028DDD0012006F10E01B073204603
:104A70000222FFF7F2F9D8E7B0B5044608780D46F0
:104A800010F0600018BF40280DD1FEF7BBF80CD81D
:104A9000A88810F0FE0F08D1C1B22046FFF7B5F983
:104AA00038B1032010E02028EFD0FDF7E4FF00200C
:104AB000B0BDD4F8B8028268002AF2D0002029469E
:104AC000C4F8D40220469047E9880029F0D1002894
:104AD000EED1FEF700F8EAE77047000000487047A3
:104AE0002C03002070B5D0F81C480A784E7853018A
:104AF00002F00F05012E16D1012606FA05F52C430A
:104B0000C0F81C481844D0F800391B0423D400F521
:104B10001060036843EA82520B7989686FF3DF21E2
:104B200041EA834113E04FF48032AA402243C0F8A7
:104B30001C281844D0F8002B12040CD40A79896878
:104B400000F530606FF3DF2141EA824102681143D2
:104B5000024A11430160002070BD00BF00800010B8
:104B6000D0F8001940F2FF729143C0F80019D0F854
:104B7000041841F48071FDF757BF000070B504467A
:104B800002F47F400D46B0F5807F17D1A16B1B4A20
:104B9000049821F48031C0B2A163E1681140E16062
:104BA0000128E16821F44011E16003D1E06840F49C
:104BB0008010E060204600F023F810E0E0681E4618
:104BC00040F04000E060204600F01AF8A16B16F4B7
:104BD0007F4F14BF21F4803141F48031A16305F48B
:104BE0007F01B1F5803F07D1A16841F00601A160C6
:104BF000A16841F02001A16070BD00BFBFFFBDFFF3
:104C000081B0002100917246FDF756FF964618D8F4
:104C10000169B1F1FF3FF6DC0A210091009911B161
:104C200000990139F9E7016941F00101016172461A
:104C3000FDF742FF964604D80169C907F7D1002065
:104C400000E0032001B07047B0B50A784B785101FD
:104C5000012B07D14318012403F51061D3F8005943
:104C6000154B09E043184FF4803403F53061D3F855
:104C7000005B114B03F17073B5F1FF3F07DC0D686A
:104C800045F000650D600D6845F080450D6002F04F
:104C90000F0204FA02F2D0F83C489443C0F83C48B2
:104CA000D0F81C4824EA0202C0F81C280868184002
:104CB00008600020B0BD00BF007833ECD0F8001EC3
:104CC00021F00301C0F8001ED0F8041821F0020101
:104CD000FDF7AABED0F8001E21F00301C0F8001EA7
:104CE000D0F8041841F00201FDF79EBE2DE9FE4FF9
:104CF0008B468146180C41210023502903D049F8E6
:104D000021300131F9E75FFA80FABAF1000F08D0DB
:104D1000D9F8380020F40010FDF788FF40F4002097
:104D200011E0D9F8040840F00200C9F80408D9F8E5
:104D3000380040F40010FDF779FF20F40020FDF763
:104D400075FF20F48020C9F83800002002F47F416C
:104D5000B1F5807FC9F8000E02920DD1D9F8001884
:104D600009F50068B0EB1B6F0EBFC8F8001041F0EA
:104D70000100C8F8000007E0D9F8000809F500684C
:104D800040F00300C9F800084846102100F01AFA64
:104D90000190484600F0F9F95FFA8BF1002209F51D
:104DA00010634FF67F3500264901C8F81020C8F877
:104DB0001420C8F81C20B1420ED09F594FF09044E7
:104DC000002E08BF4FF0006404EAE7749C519C1960
:104DD00020362261A560EEE709F5306200234FF628
:104DE0007F350026B1420ED094594FF09047002EE7
:104DF00008BF4FF0006707EAE47494519419203615
:104E00002361A560EEE7D8F8101021F48071C8F88E
:104E100010100021C9F818106FF080411BF47F0FAB
:104E2000C9F8141005D1D9F8181041F01001C9F8CB
:104E30001810D9F818100E4A1143C9F81810029921
:104E400011F47F0F05D0D9F8181041F00801C9F806
:104E50001810BAF1010F05D1D9F81810054A1143FD
:104E6000C9F818100199084318BF0120BDE8FE8F4A
:104E700000383C8004000040816821F0010181601D
:104E80000020704710B5036C134CA34203D3D0F835
:104E9000003B002B1ED40023C0F8103B0129D0F8A2
:104EA000103B43F40023C0F8103BD0F8103B43F014
:104EB0001803C0F8103BD0F8103B43F0C043C0F8D3
:104EC000103B07D1C0F8142BD0F8001B41F0802113
:104ED000C0F8001B002010BD0B30544F0A784B78EF
:104EE00052011044012B0DD1D0F8002922F40012F8
:104EF000C0F80029097901F0FE01022913D100F55B
:104F000010600CE0D0F8002B22F40012C0F8002B47
:104F1000097901F0FE01022905D100F53060016830
:104F200041F080510160002070470A784B785101B0
:104F30000144012B19BF01F53060D1F8001B01F5C8
:104F40001060D1F80019002904D41AB1016821F0C9
:104F500080410160016841F4001101600020704748
:104F6000F8B54B780C78012B2BD100EB4415D5F814
:104F70001069D1F810C005F51063BCF1000F44D0E2
:104F80006FF31206002C1E611E696FF3DC461E6172
:104F90008E6867D00CEB0607013FB7FBF6FE5C4F4F
:104FA0001E6907EACE473E431E610E79012E64D189
:104FB0001E6926F0C0461E614FF0C04606EA4E77D5
:104FC00058E000EB4413D3F8105B6FF31205C3F8FD
:104FD000105BD3F8105B6FF3DC45C3F8105B03F58F
:104FE00030638D680E69ECB1FEB17419013CB4FBFD
:104FF000F5F6B4B26C43464D0C626FF3DF4405EA3C
:10500000C6451E6935431D6116E06FF3DC464FF05F
:10501000000C1E611E6946F400261E611F696FF3B5
:1050200012072FE006B10D610D621C696FF3DF45B9
:105030002C431C614FF400241D692C43012A1C6180
:1050400002D1CA6802B15A61097901292FD1D0F879
:105050000808C0054FF0805058BF4FF00050196845
:10506000084323E0B44591BF4FF400270E614FF48D
:105070000027B4461E693E431E6166461F696FF3F2
:10508000DF463743012A1F6117D1CA690AB1C5F843
:105090001429097901290AD1D0F80818D5F800098E
:1050A000C9054CBF40F0805040F0005018601868AF
:1050B00040F0044018600020F8BD630100F5106561
:1050C000EE5846F00446EE500E79012E12D1D0F87B
:1050D00008685F59F6054FF0805658BF4FF00056EC
:1050E0003E435E511FFA8CF3C9680092224600F0DD
:1050F00099F9E0E7BCF1000FDDD004F00F010122C7
:1051000002FA01F1D0F834281143C0F83418D2E77C
:105110000000F81F81B0002200920A784B785101FC
:10512000012B14D100F510604258B2F1FF3F21DC91
:105130007346FDF7A7FD9E46009B01330093009B3D
:10514000934219D84358B3F1FF3FF5DD12E000F563
:1051500030604258B2F1FF3F0CDC7346FDF792FD20
:105160009E46009B01330093009B934204D8435812
:10517000002BF6D4002000E0012001B070478168C8
:1051800041F0010181600020704781B00021009151
:105190007246FDF791FC964611D80169B1F1FF3FC7
:1051A000F6DC00210091102101617246FDF784FCBC
:1051B000964604D80169C906F7D4002000E0032010
:1051C00001B0704781B000220092009A0132009233
:1051D000009AB2F1706F12D80269B2F1FF3FF4DCAD
:1051E000890100222031009201617246FDF764FCC2
:1051F000964604D801698906F7D4002000E0032010
:1052000001B07047D0F8080802A100F00600085C61
:10521000704700BF000F020F0F0F0200406900F03F
:1052200001007047D0F81818D0F81C08084080B268
:105230007047D0F81818D0F81C080840000C7047C8
:1052400010B5D0F81028D0F8344801F00F0300EB67
:105250004110D0F8080924FA03F3DB01DBB21A434A
:10526000104010BD00EB4111D1F8081BD0F8140814
:10527000084070474169806908407047B0B593089D
:105280004FF4805423B10559013B41F8045BF9E721
:1052900012F003020BD04FF48053C058002320FAC1
:1052A00003F40833013A01F8014B1404F7D108461E
:1052B000B0BDB0B50446C06820F0C040E060A1B108
:1052C00001291CBF0120B0BDE068002540F000505E
:1052D000E0600A20FBF708F8616905F10A00C907D8
:1052E00013D1BE2D0546F4D30FE0E068002540F051
:1052F0008040E0600A20FAF7F7FF616905F10A00D3
:10530000C90702D0BE2D0546F4D3C838B0FA80F0E4
:105310004009B0BDD0F8002801F07F0122F4FE6200
:10532000C0F80028D0F8002842EA0111C0F800189F
:1053300000207047022A34D1284A294B0A449A4255
:1053400002D24FF470512EE0264A274B0A449A426B
:1053500002D24FF4605126E0244A254B0A449A4277
:1053600002D24FF450511EE0224A234B0A449A4283
:1053700002D24FF4405116E0204A214B0A449A428F
:1053800002D24FF430510EE01E4A1F4B0A449A429B
:1053900002D24FF4205106E01C4A1D4B0A449A42A7
:1053A0000AD24FF41051C26822F47052C260C2682F
:1053B0001143C16000207047164A174B0A449A42B5
:1053C00002D24FF40051EEE7144A154B0A444FF451
:1053D000C0519A4238BF4FF4E051E4E7405327FFF1
:1053E00000350C00401E1BFF40420F0000DC0BFF8D
:1053F000804F1200808CF9FE20D6130060B6E5FEC7
:1054000060E3160000D3CEFE40771B00C05BB3FE06
:10541000C091210000CA91FE20753800E05459FE69
:10542000E09C410010B5029C0CB1002010BD03337C
:10543000120300F580509B08002BF6D051F8044B66
:10544000013B1450F8E7FEE780B511484FF40051D6
:10545000FBF79AF8FDF727BBFEB500203749CDE9E9
:10546000040000900A6842F004020A60096801F032
:10547000040100910221CDE902014FF40050019096
:10548000009801A90248FAF7ADFF06B080BD00BF41
:105490000008024070B586B000252848144C002250
:1054A000042605950095016841F002010160042180
:1054B000006800F00200009000982046FBF771F8A9
:1054C0000120CDE90355CDE9016001A92046FAF795
:1054D00089FF06B070BD00BF02460028044818BF0F
:1054E00001220421FBF75DB801480421FBF751B804
:1054F0000004024080B512484FF48071FBF744F875
:10550000FDF7D1BAFEB500200C49CDE904000090AA
:105510000A6842F001020A60096801F00101009185
:105520000121CDE902014FF480700190009801A99A
:105530000348FAF757FF06B080BD00BF303802407D
:1055400000000240E0B50190044801A901224FF695
:10555000FF73FCF7CFFF01988CBD00BF180E002031
:105560008AB0FBF731F8FEF733FBFFF775FFFFF763
:1055700091FFFFF7C7FFFDF771F9FDF79FF9FDF701
:10558000FFF9FFF7B7FF04460120FFF7A5FFA4B11D
:105590003A4C3220A0473A4D0020A8473220A0477D
:1055A0000120A8473220A0470020A8473220A0476A
:1055B000FDF7BCF9FDF700FA17E0304CC820A04712
:1055C0002F4D0020A847C820A0470120A847C82089
:1055D000A0470020A847C820A0470120A847C8200E
:1055E000A0470020A847C820A047FAF7DFFF00F136
:1055F000C806FAF7DBFF234CDFF88CB00DF1100979
:105600000DF1240A0FF28408FAF7D0FF0746FFF7DE
:105610001BFF30B1B742F7D307F1C806FFF764FFAD
:10562000F2E7B742F0D32046494600220025FCF7B6
:105630004CF9204651460022FCF71CF99BF800105B
:105640009DF81200814212D09DF825209DF8263049
:105650009DF827109DF810509DF811608BF8000000
:1056600002904046CDE9005600F022F80125284678
:1056700007F13206FFF730FFC6E700BFE902000876
:10568000D9540008740D0020600E002032302530FF
:1056900032642E253032642E25303264202530329B
:1056A000643A2530326420253032640D0A0000004F
:1056B0000FB4054B10B503A9044A029800F018F87E
:1056C00010BC5DF814FB00004555000800000020E8
:1056D00002E008C8121F08C1002AFAD170477047BB
:1056E000002001E001C1121F002AFBD17047000019
:1056F0002DE9FF4F8BB088460546002606E0252899
:105700000BD0DDE90D1290476D1C761C287800281F
:10571000F5D10FB03046BDE8F08F0024A146A24677
:105720000122AE4900E0044315F8013F203B02FA94
:1057300003F00842F7D128782A2810D06FF02F0202
:105740002878A0F13001092915D809EB890102EB6D
:10575000410144F0020400EB01096D1CF0E758F828
:10576000041B5FEA010903D544F40054C9F10009A0
:1057700044F002046D1C28782E2817D115F8010F6B
:1057800044F004042A280ED06FF02F022878A0F1EC
:10579000300109290AD80AEB8A0102EB410100EB2A
:1057A000010A6D1CF2E758F804AB6D1C28786C28D0
:1057B0000FD006DC4C2817D068280DD06A2814D1E9
:1057C00004E0742810D07A280FD10DE044F40014BE
:1057D0000AE044F4801401E044F440146978814202
:1057E00002D104F580146D1C6D1C2878692865D0E1
:1057F00006DC00288DD0632827D0642806D15DE020
:105800006E2808D073282AD0752877D0DDE90D12CC
:105810009047761CE0E0C4F30250022809D0032828
:105820000DD0D8F8001004280DD00E6008F104083F
:10583000D2E0D8F80010F217C1E90062F6E7D8F814
:1058400000100E80F2E70E70F0E718F8041B8DF8D8
:10585000001000208DF80100EB46012003E058F80D
:1058600004BB4FF0FF3061074FF0000701D40AE09E
:105870007F1C57450DDA8742FADB1BF80710002919
:10588000F6D106E07F1C8742FCDB1BF807100029DD
:10589000F8D1DDE90D23A9EB07008146214600F090
:1058A000B1F83044C61904E0DDE90D121BF8010B14
:1058B00090477F1EF8D22146484688E058F8040BEE
:1058C000C4F302514FF00A0B032900D100B204299E
:1058D00000D140B2002802DA40422D2102E0210529
:1058E00005D52B218DF82410012104E006E0E10705
:1058F00010D02021F6E708AF089113E058F8040B08
:10590000C4F302514FF00A0B032900D180B20429DD
:1059100000D1C0B20021EEE75946FAF794FC3031CD
:1059200007F8011D0028F7D1ADEB070000F1200BAF
:10593000600702D524F4803401E04FF0010ADA4513
:1059400002DDAAEB0B0000E00020824600EB0B0119
:1059500008980144A9EB01000A90E00306D4DDE9B0
:105960000D2321460A9800F04DF806444FF0000937
:1059700008E009A911F80900DDE90D12904709F1C5
:105980000109761C08998945F3DBE0030CD5DDE9B4
:105990000D2321460A9800F035F8064404E0DDE9BD
:1059A0000D1230209047761CBAF10001AAF1010ACD
:1059B000F5DC05E0DDE90D1217F8010B9047761CC8
:1059C000BBF10001ABF1010BF4DC0A982146DDE9E3
:1059D0000D2300F005F806446D1C97E60928010028
:1059E0002DE9F041044600251E461746880404D4DC
:1059F00005E039462020B0476D1C641EF9D52846C5
:105A0000BDE8F0812DE9F041044600251E46904690
:105A1000C80301D5302700E02027880404D505E01D
:105A200041463846B0476D1C641EF9D52846BDE88E
:105A3000F0810000000000000000010203040607DE
:105A400008090000000001020304008002021F0098
:105A5000000053544D202020202050726F64756345
:105A600074202020202020202020302E30310000E3
:105A7000905A00080000002008010000D0560008DD
:105A8000985B00080801002060110000E056000843
:105A90000000000001000000100000008101000073
:105AA000A93E0008D53E0008E13E0008053F000879
:105AB0002D3F00088D3E0008B53E0008000600009E
:105AC00000000000030000000000000200800080D1
:105AD00000082020202000000024F4001201000211
