:020000040800F2
:1000000090120020D9010008953D0008D93600085B
:10001000913D00084D0300086D76000800000000C7
:100020000000000000000000000000000D5100086A
:100030005103000800000000A53D00081151000810
:10004000F3010008F3010008F3010008F3010008C0
:10005000F3010008F3010008F3010008F3010008B0
:10006000F3010008F3010008F3010008F3010008A0
:10007000F3010008F3010008F3010008F301000890
:10008000F3010008F3010008F3010008F301000880
:10009000F3010008F3010008F3010008F301000870
:1000A000F3010008F3010008F3010008F301000860
:1000B000F3010008F3010008F3010008F301000850
:1000C000F3010008F3010008F3010008F301000840
:1000D000F3010008F3010008F3010008F301000830
:1000E000F3010008F3010008F3010008F301000820
:1000F000F3010008F3010008F3010008F301000810
:10010000F3010008F3010008F3010008F3010008FF
:10011000F3010008F3010008F3010008F3010008EF
:10012000F3010008F3010008F3010008F3010008DF
:10013000F30100080000000000000000F3010008C7
:10014000F3010008F3010008F3010008993D0008DD
:10015000F3010008F3010008F3010008F3010008AF
:10016000F3010008F3010008F3010008F30100089F
:10017000F3010008F3010008F3010008000000008B
:1001800000000000F3010008000000000000000073
:10019000F30100080000000000000000F301000867
:1001A000000000000000000000000000F301000853
:1001B000F3010008F3010008F3010008F30100084F
:1001C000F3010008DFF80CD000F090F80048004779
:1001D000C97700089012002006488047064800476B
:1001E000FEE7FEE7FEE7FEE7FEE7FEE7FEE7FEE7E7
:1001F000FEE7FEE7CD510008C50100082DE9F05FDC
:100200000546002092469B46884606468146402485
:100210001BE0284641464746224600F057F8534621
:100220005A46C01A914110D311461846224600F092
:100230003EF82D1A67EB01084F46224601200021A7
:1002400000F035F817EB00094E41201EA4F101041F
:10025000DFDC484631462A464346BDE8F09FD2B22D
:1002600001E000F8012B491EFBD270470022F6E79F
:1002700010B513460A4604461946FFF7F0FF20461C
:1002800010BD30B50B46014600202022012409E0B4
:1002900021FA02F59D4205D303FA02F5491B04FA3F
:1002A00002F52844151EA2F10102F1DC30BD202A1E
:1002B00004DB203A00FA02F1002070479140C2F1BD
:1002C000200320FA03F3194390407047202A04DBEF
:1002D000203A21FA02F00021704721FA02F3D040BF
:1002E000C2F120029140084319467047064C074D61
:1002F00006E0E06840F0010394E8070098471034F6
:10030000AC42F6D3FFF762FFF07C0008107D0008D6
:1003100030B58C1810F8012B12F00F0301D110F832
:10032000013B120906D110F8012B03E010F8015B24
:1003300001F8015B5B1EF9D101E001F8013B521E9F
:10034000FBD1A142E6D3002030BD0000FEE7000053
:1003500070470000EFF3108072B600BFFEE70000A8
:10036000B0B5044600F0E0F9054640F20400C2F2E0
:1003700000000078611C18BF044400BF00F0D4F9ED
:10038000401BA042FAD3B0BD2DE9F04F81B000F17F
:100390003E4241F6000743F6004902F1FF72C4F203
:1003A00002070726C4F201094FEAB223B84208BF88
:1003B0000626062B38BF4FEAB22604220024A9F5F0
:1003C0007E7A4FF00F0C0025009628E0A31C0668EB
:1003D000032707FA03F39E4306606FF0030606EA5D
:1003E0005507074402F01C08D7F820B00EFA08F6AB
:1003F0002BEA06063E62C6689E43C660466806EA69
:100400000C07476087684FF00F0C27EA03038360EF
:1004100004340235202C02F1080200F099800123F7
:1004200003FA05F70F4255D025F00303A2F10408A3
:100430005AF8036008F0080B4FF00F0E009B0EFAFD
:100440000BFC06EA0C0603FA0BF39E426FEA070B5D
:1004500020D1D9F8003043F60C4603EA0B03C9F863
:100460000030D9F80430C4F2010603EA0B03C9F8DE
:100470000430336803EA0B033360D9F80830AE0860
:1004800003EA0B03C9F808305AF8263023EA0C03B4
:100490004AF826300368032707FA04F6B3430360DB
:1004A0006FF0030303EA5507074408F0180CD7F868
:1004B00020800EFA0CF328EA03033B62C3684FF076
:1004C0000F0CB343C360436803EA0B0343608368C4
:1004D000B3438360022303FA05F707EA0103BB4233
:1004E00096D125F003035AF8036002F00C030CFACE
:1004F00003F806EA080C009E4FF00F0E06FA03F30D
:100500009C456FEA070C7FF461AFD9F8003043F6E1
:100510000C4603EA0C03C9F80030D9F80430C4F2E1
:10052000010603EA0C03C9F80430336803EA0C033C
:100530003360D9F80830AE0803EA0C03C9F8083074
:100540005AF8263023EA08034AF826303EE700BF6F
:1005500001B0BDE8F08F00002DE9F04F82B000F14E
:100560003E4241F6000502F1FF77C4F20205072280
:1005700043F6004E4FEAB726A84208BF0622C4F24F
:10058000010E062E38BF4FEAB722012500260027AC
:100590004FF00008009208E008F101080437B8F1B4
:1005A000100F06F1020600F0A7800C6805FA08F9A2
:1005B00014EA090FF0D0D1F804B003220BF0030CB9
:1005C000ACF10104B240012C6FEA020A10D8826833
:1005D000CC6802EA0A02B440224382604268CBF34C
:1005E000001422EA090204FA08F42243426005E0FA
:1005F000BCF1030F02D14FF0030C20E0C2688C68FD
:1006000002EA0A02B4402243BCF1020FC26016D1D2
:100610006FF0030202EA58020244D2F820C007F049
:100620001C050F230C69AB402CEA030304FA05F503
:100630002B431362D1F804B001250BF0030C0268C0
:100640000CFA06F302EA0A021A431BF4403F026066
:10065000A2D0002243F644030192C4F202031A68B6
:100660004FF6084C42F480421A601A68CFF6FF7CBD
:1006700002F480420192019A28F00302724452F877
:100680000C3007F00C050F24AC40A343009C04FA87
:1006900005F52B4342F80C30DEF808204B6842EA9F
:1006A000090543F60C4CDC0258BF22EA0905CEF8D6
:1006B0000850C4F2010CDCF800209C0242EA090553
:1006C00058BF22EA0905CCF80050DEF804209C034C
:1006D00042EA090558BF22EA0905CEF80450DEF8BF
:1006E0000020DB0342EA090558BF22EA0905CEF8DB
:1006F0000050012550E700BF02B0BDE8F08F0000B8
:100700000069084018BF012070470000426902EAF2
:100710000103914341EA034181617047002A08BF08
:10072000090481617047000040F68860C2F2000051
:100730000068704740F2040040F68861C2F2000091
:10074000C2F2000100780A68104408607047000097
:1007500080B543F60040C4F20200016841F4007124
:100760000160016841F480610160016841F48071B9
:100770000160032000F088F80F2000F005F800F079
:1007800027F8002080BD000070B540F20406C2F2D8
:10079000000640F270013278C2F200014FF47A7321
:1007A0000968B3FBF2F20446B1FBF2F1084602F02D
:1007B000D3FD0F2C4FF0010508D838B94FF0FF30AA
:1007C00021460022002500F033F87460284670BDF1
:1007D00082B0002043F640010190C4F202014A6851
:1007E00042F480424A604A6802F480420192019ACF
:1007F0000090086840F080500860086800F0805061
:100800000090009802B07047002848BF7047C1B2FE
:1008100000F01F00012202FA00F04EF20012CEF2A8
:10082000000242EAD10121F0030108607047000094
:1008300010B54EF60C5CCEF2000CDCF80030C3F3C1
:10084000022E8EF00704042C28BF0424BEF10303FB
:100850004FF0FF3E0EFA04F438BF0023A143994045
:100860000EFA03F39A43114300F00F0200F16043C4
:100870000901043A03F564436244002848BF02F1C9
:100880000C03197010BD00004EF60C51CEF20001A1
:100890000A684FF6FF031A4060F30A2242F08060B4
:1008A00040F0FD700860704701220168C0F8002523
:1008B000002280F8F424886940F000608861486D67
:1008C00040F0805040F0030200204A65704700006D
:1008D00010B50129044619D079BB206A48B104F04B
:1008E00019FC4EF61050CEF20000016821F006010E
:1008F00001602068D0F8001E21F00101C0F8001E40
:10090000D4F80805BDE8104005F0C6B82068D0F856
:10091000001E41F00101C0F8001ED4F8080505F0E2
:100920003FF9206A002808BF10BD4EF61050CEF2E5
:100930000000016841F00601016010BD026800205E
:10094000516270472DE9F043D0F80090D9F82400A7
:10095000A1B1D9F82830B1F1010800EB13435DD003
:10096000A8F10100C0B2032808F0030C0ED24FF02A
:10097000010E0027BCF1000F33D14FE040EA0240E6
:10098000C9F828000020BDE8F08300BF08F0FC0E85
:1009900009F1F404002009F5827500BF54F8107FB6
:1009A000064603EB174046F00103DBB246F00207B0
:1009B00055F82330FFB255F8277000EB134000EBD9
:1009C000174346F00300C0B255F82010301DC7B2DF
:1009D000774503EB1143E1D106F1050EBCF1000FA1
:1009E0001CD009EB8700D0F80401BCF1010F03EB28
:1009F000104313D05FFA8EF009EB8000D0F80401A9
:100A0000BCF1020F03EB104308D00EF10100C0B29D
:100A100009EB8000D0F8040103EB104343EA0240E5
:100A200009EB8801C1F804010020BDE8F083000053
:100A3000D0F8080504F03CBF01EBC102D0F808353E
:100A400000EB8200C26C184604F09ABE01EBC102B2
:100A5000D0F8083500EB8200D0F88C22184604F05C
:100A6000EBBE0000D0F8080504F024BF10B5044622
:100A700048B2B0F1FF3F01F00F0000EBC00104EB02
:100A8000810205DD02F51F71002382F87D3204E04A
:100A9000012302F13C0182F83D3094F8BC24087037
:100AA000012A04BF022010BD2068012284F8BC2462
:100AB00005F054FE002084F8BC0410BDB0B54268B7
:100AC000044601F00F0082423CBF0120B0BD49B294
:100AD000B1F1FF3F0ADD00EBC00104EB810202F53A
:100AE0001F71002382F87D3209E000BF00EBC001D6
:100AF00004EB8102012302F13C0182F83D3094F8BD
:100B0000BC240025012A8D70087004BF0220B0BDEE
:100B10002068012284F8BC2406F07EF9284684F877
:100B2000BC54B0BD10B5044690F8BC04012804BF05
:100B3000022010BD4BB220680122B3F1FF3F84F8C0
:100B4000BC2405DD06F03AFB002084F8BC0410BD8F
:100B500001F00F0106F08EFB002084F8BC0410BDEC
:100B600001F00F0101EBC10100EB8100D0F89C0204
:100B70007047000070B5064648B2B0F1FF3F01F083
:100B80000F0000EBC00107DD06EB810404F51F71C7
:100B9000002584F87D5206E006EB810C01240CF15F
:100BA0003C018CF83D404D780870002DCA600B71F7
:100BB00018BF0881022B04BF0020487196F8BC04BE
:100BC000012804BF022070BD3068012286F8BC24D1
:100BD00005F082FC002086F8BC0470BD80B501F0F1
:100BE0000F0C0CEBCC0100EB810ECEF894320023FD
:100BF000CEF89C328EF87D320369CEF88C22012B20
:100C00008EF87CC208BFCEF8902200680EF51F71E6
:100C1000DAB2BCF1000F03D006F048F9002080BD25
:100C200006F04EF8002080BDB0B50446406801F0E3
:100C30000F05854284BF0120B0BD48B2B0F1FF3F2F
:100C40000ADD01EBC10004EB800000F51F710022FA
:100C500080F87D2209E000BF05EBC50004EB8000B1
:100C6000012200F13C0180F83D2094F8BC040122EF
:100C700001288A700D7004BF0220B0BD206884F87E
:100C8000BC2406F0F3F81DB1002084F8BC04B0BD0C
:100C90002068217C04F2C44206F090F8002084F819
:100CA000BC04B0BD10B501F00F0C0CEBCC0100EB97
:100CB000810E714601F83CCF8B6100230B62036902
:100CC00001244C70012B0A6108BFCEF85020006847
:100CD000DAB2BCF1000F03D006F0E8F8002010BD36
:100CE00005F0EEFF002010BD2DE9F04F89B005683A
:100CF0000646284606F028FB10B109B0BDE8F08F83
:100D0000306806F04FFB0028F7D0D5F80808C0F38C
:100D10000D213068C6F8FC1406F044FB014630682B
:100D2000890703D5416901F00201416105F50067BA
:100D300006F038FB01463068C906089604953CD594
:100D4000816921F0100181612C6AC4F343400628B7
:100D500004F00F051AD0022829D147F6F07014EAE2
:100D6000000824D005EBC50006EB8009D9F88C12E9
:100D70004FEA18140498224606F018FBD9F88C02A2
:100D800000EB1810C9F88C0208E000BF049806F2C6
:100D9000C441082206F00AFBC4F30A1405EBC5009F
:100DA00006EB8000D0F89C122144C0F89C123068F9
:100DB000816941F010018161049D039706F0F2FA08
:100DC000000340F1EB800898006806F0C9FA00289B
:100DD00000F0E480064608984FF4306400F2C44105
:100DE00000F527784FF0000B079118E02819022131
:100DF00081605FEA8A6042BF2819202181605FEA32
:100E00008A4042BF28194FF4005181600BF1010B59
:100E1000760804F1200408F1240800F0BF80F007F0
:100E2000F4D008985FFA8BF90068494606F0B2FAE8
:100E30008246C00762D0281901218160089F386866
:100E40002118036C8A683F69012F29D1170735D40F
:100E5000970600F19B8012F0280F4FD143F20B0749
:100E6000C4F65477BB4202D312F400422FD158F893
:100E7000042C0969BBF1000F6FF3DF41A2EB010104
:100E8000C8F8001035D1089BD3F89422002A00F04E
:100E90008380D3F88C020844C3F88C0229E000BF99
:100EA00043F20B07C4F65477FF37BB4216D1100448
:100EB0000DD4900644BF202088601AE043F20B0056
:100EC000C4F65470834219D312F4004016D04FF484
:100ED000004088605FEA0A7013D437E0BBF1000F6E
:100EE00007D10899D1F8941219B90021079A05F091
:100EF00065FF08984946FFF7A9FD00BF5FEA0A7041
:100F000024D5281908218160089843F20B02006853
:100F1000C4F65472056C20448168571EBD4205D941
:100F200011F400411CBF4FF400418160089800F0AB
:100F3000C3FCBD42049D09D908980069012805D168
:100F40000898079A0068012105F038FF5FEACA6037
:100F500042BF2819102181605FEA8A707FF549AF8E
:100F60006869000604D50399486840F480604860C9
:100F700018F81D0C01287FF439AF002008F81D0C6B
:100F80000898494600F06EFB30E700BF20208860DB
:100F90005FEA0A70B5D4D9E70121A7E7DDF820B0F0
:100FA000DBF8000006F0FEF9400340F1D580DBF8E5
:100FB000000006F0CDF9002800F0CE80824605F54D
:100FC000106002900BF2C4400027019006E000BFC1
:100FD0005FEA5A0A07F1010700F0BE805FEACA70B3
:100FE000F6D0DBF80000F9B2079106F0C1F9029ED5
:100FF0000446C00726D0039A07F00F00516B012367
:1010000003FA00F021EA0000506306EB471083600A
:10101000DBF81000012811D107EBC7000BEB8000B3
:10102000D0E912121144C16447B9DBF8540028B961
:10103000DBF80000019A012105F0C0FE079958462F
:10104000FFF7FAFC200742BF06EB4710082181603A
:10105000E00642BF06EB471010218160600642BFE8
:1010600006EB471040218160A00715D52846394678
:1010700006F000F907EBC7000BEB800010F83F1FEC
:10108000012905D1002101700799584600F0E6FAC0
:1010900006EB471002218160200699D507EBC700B7
:1010A0000BEB8002914659F8541FC84658F8080FB8
:1010B00081428DD3DBF8006093465BF8485F0B1AE2
:1010C000AB4238BF1D46069606EB4713D3F818C946
:1010D00005F1030E1FFA8CF5B5EB9E0F28D303F52F
:1010E000106102F14C050591D9F8001081421FD919
:1010F000DBF80040089A081AA0422968167C38BF1D
:101100000446DDE90602A3B2009606F079FA2868E3
:10111000D8F800102044286008190599C8F8000084
:101120008969E21C89B2B1EB920FDDD2D9F80010C7
:10113000DDF820B0049D81423FF64AAF069B07F0E0
:101140000F00D3F83418012202FA00F021EA00005F
:10115000C3F834083CE700BFDBF8000006F022F9D2
:1011600000280FD4DBF80000DDF80C8006F01AF937
:10117000000528D4DBF8000006F014F9000133D490
:101180003EE000BFDDF80C80D8F8040020F001003C
:10119000C8F804009BF8F404012807D100208BF85C
:1011A000F40458460021FFF793FB02E0584600F094
:1011B00067FBDBF80000416901F00041416106F086
:1011C000F1F80005D6D5D8F80800C00702D0584677
:1011D00000F09AFBDBF80000416901F40061416115
:1011E00006F0E0F800010BD5DBF80000416901F0E2
:1011F000006141619BF8F41461B1584600F084FB32
:10120000DBF8000006F0CEF8C00415D4DBF80000CF
:1012100017E100BF01218BF8F414406D0121C0F3E8
:101220008300CBF8F8045846FFF752FBDBF80000C8
:1012300006F0B8F8C004E9D5D8F80400102120F071
:101240000100C8F80400DBF8000006F013F8DBF832
:101250000400002800F0C180411E032900F0030CA7
:1012600002D200216CE000BF20F0030E05F53663CA
:101270004FF6A0564FF6C0554FF6E0544FF60060BB
:1012800000214FF67F37CFF6FF76CFF6FF75CFF60A
:10129000FF74CFF6FF7000BFA3F5187297609A59DC
:1012A000043122F400129A5143F8587C53F8602C10
:1012B0008E4522F4001243F8602C53F8602C42F063
:1012C000006243F8602CA3F5107297605A5922F41B
:1012D00000125A5143F8387C53F8402C22F4001283
:1012E00043F8402C53F8402C42F0006243F8402C65
:1012F000A3F5087297601A5922F400121A5143F8A4
:10130000187C53F8202C22F4001243F8202C53F8B8
:10131000202C42F0006243F8202CA3F50072976065
:101320001A5822F400121A509F601A6822F4001210
:101330001A601A6842F000621A6003F18003ABD1B0
:10134000049DBCF1000F48D005F5106000EB411280
:101350004FF67F334F019360C65905F5306226F48E
:101360000016C65102EB4116B360D659BCF1010F0D
:1013700026F40016D651D65946F00066D6512CD028
:101380004F1C00EB47157E01AB60855902EB4717F8
:1013900025F400158551BB609359BCF1020F23F46D
:1013A00000139351935943F00063935115D00231C8
:1013B00000EB41174FF67F364B01BE60C75827F44C
:1013C0000017C75002EB41108660D05820F400107F
:1013D000D050D05840F00060D050D8F81C0040F0F9
:1013E0000110C8F81C00DBF8300048B1D8F88400C0
:1013F00040F00B00C8F8840008F1440009E000BF89
:10140000D8F8140042F22B010843C8F8140008F180
:10141000100001680BF2C44241F00B010160D8F8E2
:10142000000020F4FE60C8F80000DBF800009BF824
:10143000101005F0C3FCDBF80000416901F4805195
:10144000416105F0AFFF0146DBF8000089041AD5C1
:1014500005F084F8DBF8000005F068FFDBF80040D9
:10146000CBF80C0000F032FD9BF80C200146204622
:1014700006F036F8584600F0EDF9DBF80000416957
:1014800001F40051416105F08DFF000706D4DBF83F
:10149000000005F087FF00060DD435E0584600F047
:1014A000F3F9DBF80000416901F00801416105F042
:1014B00079FF000628D50499886920F080008861AA
:1014C000DBF8040002281FD3012440F2A32504E026
:1014D0000134844205F1240516D21BF805100129B8
:1014E000F6D104F00F0000EBC0000BEB80022006E9
:1014F000DBF8000002F13C0158BF02F51F7105F056
:10150000CDFDDBF80400E3E7DBF8000005F04AFF5F
:10151000C0024FD4DBF8000005F044FF049D8002B8
:1015200040F17E80DBF8041002292AD305F53260F1
:1015300001390BF52972012305E000BF2030013984
:1015400002F124021DD007681678012EF6D1B7F1FA
:10155000FF3FF3DCDBF8FC6407F4803706F001069C
:10156000B742EBD102F8013CAF6947F08007AF61A9
:101570006F693F06E2D4D8F8040040F40070C8F860
:101580000400DBF80000416901F40011416105F03D
:1015900009FF40004AD55846FFF74AFADBF8000039
:1015A000416901F08041416105F0FCFE40077FF593
:1015B000A4AB42E0DBF80400022825D304990BF128
:1015C000640501F512640126012705E00137203486
:1015D000874205F1240517D221682A78012AF5D11E
:1015E000B1F1FF3FF2DC07F00F0000EBC0000BEBA6
:1015F0008001DBF800003C3105F8016C05F04EFD80
:10160000DBF80400E2E700BFDBF80000416901F409
:101610008011416105F0C6FE049D80023FF582AF56
:10162000DBF8000005F0BEFE4000B4D4DBF800009B
:1016300005F0B8FE40077FF560ABDBF800004468BA
:10164000610704D55846FFF70DFADBF80000416842
:101650002143416009B0BDE8F08F0000D0F80805D3
:1016600004F098B9D0F8080504F0A8B92DE9F04FB6
:101670008BB0002800F086800446056890F8BD0411
:1016800028B9002084F8BC04204600F093F8032019
:1016900084F8BD04E86BC0055CBF002020612068B1
:1016A00005F006FB206804F11C0A0A90D4E90C50EE
:1016B00004F1040E9AE8C0079EE80E58CDE90850E0
:1016C00003A880E8C0030A988DE80058CDF81CA054
:1016D00004F054FF002852D120680021002505F0B5
:1016E000BBFE616861B301200023002203EBC3034A
:1016F00004EB830787F83C20D3B20132A7F84430CB
:10170000D3B2994287F83D0087F84050C7E9125597
:101710007D65EBD800200023002200BF03EBC3034C
:1017200004EB830787F87C220132D3B2994287F811
:101730007D0287F88002C7E9A200C7F89402EDD8BD
:10174000A06822680A90D4E90C5004F1140E04F148
:10175000240AD4E903379EE840589AE80007CDE907
:10176000085002A880E8005810460A9ACDE9007691
:10177000CDE90589CDF81CA005F054F830B1022060
:1017800084F8BD0401200BB0BDE8F08F002084F880
:101790003800012084F8BD04606A012802D1204687
:1017A000FFF782F8206805F02DF800200BB0BDE8A7
:1017B000F08F0000B0B59EB0044602A80430582156
:1017C000FEF754FD2068B0F1A04F01D01EB0B0BDAF
:1017D0004FF48070029002A800F0B0F8002818BF03
:1017E000FEF7B8FD002543F630041995C4F2020453
:1017F000206819A940F001002060206800F0010075
:10180000199019984FF4C05019900220CDE91A058B
:1018100003201C900A201D900020C4F20200FEF755
:101820009BFE6068002140F0800060600195606967
:10183000002240F480406061606900F480400190C3
:1018400001984320FEF7F4FF4320FEF7DDFF1EB0B2
:10185000B0BD000010B50446C06828B1022818BF0A
:10186000FEF778FD012100E00021D4F8080504F01E
:101870002BF9D4F80805BDE8104004F0D9B80000F1
:10188000D0F8080504F008B9D0F8080504F00EB93E
:1018900010B5044690F8BC04012804BF022010BD16
:1018A000012084F8BC0484F83810206805F006FE96
:1018B000002084F8BC0410BDD0F8082500F2C44113
:1018C000104604F017B9000010B5044690F8BC04A7
:1018D000012804BF022010BDA16A2068012201294D
:1018E00084F8BC2406D1A169012903D0816B41F49D
:1018F0008031816305F05AFC206804F073FF0020FA
:1019000084F8BC0410BD000010B50446D0F80805EA
:1019100004F046F92068D0F8001E41F00101C0F83B
:10192000001E206A002808BF10BD4EF61050CEF2EF
:101930000000016841F00601016010BD2DE9F0438F
:1019400081B00446006843F68C06C107C4F2020663
:1019500004D14FF0000981070CD415E03168A26B67
:1019600021F0C06111433160B2FA82F14FEA51199E
:10197000810709D53168E26B21F0C0511143316014
:10198000002A08BF4FF00109410705D44FF00008B5
:10199000010712D420E000BF3168226B21F440110E
:1019A00011433160B2FA82F14FEA5118B2F5801F4B
:1019B00008BF4FF0010901070ED53168626B21F4B1
:1019C00040011143B2F5800F316008BF4FF00109AB
:1019D000002A08BF4FF0010881065AD50020009068
:1019E00056F84C0C47F2000740F0805046F84C0C7B
:1019F00056F84C0CC4F2000700F08050009000989C
:101A0000386840F480703860FEF78EFE054600BFEF
:101A10003868C00506D4FEF787FE401B0228F7D9B8
:101A20003AE100BF56F81C0C10F4407017D0216C3E
:101A300001F44071884212D056F81C0C40F6406107
:101A4000C4F24721012220F440700A6000220A609B
:101A500046F81C0C56F81C0CC00740F07181206839
:101A6000216C56F8842C4FF6FF4701F4407322F4A2
:101A7000F812C0F6FF770F40B3F5407F08BF3A4336
:101A800046F8842C56F81C2C6FF31F31114346F88E
:101A90001C1CC1060AD4010613D4410619D4C10581
:101AA0001FD481052AD4410530D438E094F8580079
:101AB00040F64061C4F24721C1F8A0032068010646
:101AC000EBD5B168E26C21F440011143B1604106ED
:101AD000E5D5B168A26C21F080611143B160C10508
:101AE000DFD5B168626D21F000611143B160B2F1E0
:101AF000006F08BF4FF001088105D4D5B168626C52
:101B000021F080511143B160410508D5B168226DC3
:101B100021F000511143B2F1005FB1601ED0B9F164
:101B2000000F1BD1B0F5006F18D0B8F1000F4FF0C7
:101B3000000000F017816827C4F24727B860FEF75D
:101B4000F3FD054656F88C0C800040F1A980FEF7A5
:101B5000EBFD401B0228F5D99EE000BF40F268096A
:101B6000C4F247290020C9F80000FEF7DDFD054654
:101B700056F88C0C000105D5FEF7D6FD401B022857
:101B8000F6D989E02068C10701D0A16B19B181079E
:101B900014D5E16B91B956F8081C56F8082CD4E915
:101BA000013501F4403102F0706219436769114355
:101BB00041EA851141EA077146F8081C410703D53F
:101BC000216BB1F5801F05D001071FD5616BB1F501
:101BD000800F1BD156F8081C56F8082CD4E90137A1
:101BE00001F4403102F0E04219432569114341EA12
:101BF000871141EA0561D4F828C046F8081C31680D
:101C0000ACF1010221F01F011143316041051FD5E4
:101C1000216DB1F1005F1BD1271D56F808CC56F895
:101C2000082CA8CFFF034FF6FF7127EA01014FF000
:101C3000C06702F0E04207EA4C2707F100771A4339
:101C40003A43A1F5803142EA8512114346F8081C57
:101C5000000510D5271D8FCF40EA8110D1034FF624
:101C6000FF729143A1F5803140EA0360084340EAE6
:101C7000077046F8080C0120C9F80000FEF754FD73
:101C8000054600BF56F88C0C00013FF54EAFFEF73D
:101C90004BFD401B0228F5D9032001B0BDE8F083BD
:101CA0002068410701D5216B19B101071AD5616B75
:101CB000C1B956F8041CD4E9062301F44031656A21
:101CC000114341EA831141EA0561D4F82CC046F87A
:101CD000041C31686FF0FF0221F4F85102EB0C2272
:101CE00011433160C00516D5606DB0F1006F12D19F
:101CF00056F8040C226AD4E9061300F07060D2038F
:101D00004FF6FF75AA430843A2F5803240EA8310DC
:101D1000104346F8040C0120B860FEF705FD0446A8
:101D200056F88C0C800007D4FEF7FEFC001B03283D
:101D3000F6D3032016E000BF002001B0BDE8F08319
:101D4000FEF7F2FC054641F2883700BF56F81C0C3E
:101D500080073FF584AEFEF7E7FC401BB8424FF02A
:101D60000300F3D901B0BDE8F08300002DE9F04194
:101D7000002800F08B8043F60808C4F202080446ED
:101D8000D8F8F8030D4600F00F00884207D288F813
:101D9000F853D8F8F80300F00F00A84276D1206875
:101DA000810717D5410705D5D8F8001041F4E05157
:101DB000C8F80010010705D5D8F8001041F46041BB
:101DC000C8F80010D8F80010A26821F0F001114303
:101DD000C8F80010C0073FD1D8F8F80300F00F0092
:101DE000A84207D988F8F853D8F8F80300F00F0094
:101DF000A8424BD12068410707D5D8F80010E26807
:101E000021F4E0511143C8F80010000708D5D8F8B4
:101E10000000216920F4604040EAC100C8F80000D9
:101E200000F082F8D8F8001047F6B242C1F303116F
:101E3000C0F60002515C40F2700220FA01F140F25B
:101E40000800C2F200000068C2F200021160FEF752
:101E50009BFC0020BDE8F0816068811E022907D24A
:101E600058F8081C89015CBF0120BDE8F08111E031
:101E7000012807D158F8081C89035CBF0120BDE880
:101E8000F08107E058F8081C890703D40120BDE859
:101E9000F08100BFD8F8001021F003010843C8F812
:101EA0000000FEF741FC064641F28837D8F80000F2
:101EB000616800F00C00B0EB810F8DD0FEF734FCB0
:101EC000801BB842F2D90320BDE8F08140F27000D7
:101ED000C2F200000068704740F2700043F608014B
:101EE000C2F20000C4F202010068096847F6C2426B
:101EF000C1F38221C0F60002515CC8407047000067
:101F000040F2700043F60801C2F20000C4F2020180
:101F10000068096847F6C242C1F34231C0F60002C8
:101F2000515CC8407047000010B543F60404C4F289
:101F300002046068C0F3810142F20040C0F2F40084
:101F4000DFE801F04402081841F20020C0F27A00F4
:101F500010BD00BF216801F03F02216823684902DB
:101F6000C3F3881116D4A1FB00010023FEF746F944
:101F700017E000BF216801F03F0221682368490291
:101F8000C3F3881116D4A1FB00010023FEF736F934
:101F900017E000BF41F20020C0F27A004843B0FBD6
:101FA000F2F021680222C1F3014102EB4101B0FBD2
:101FB000F1F010BD41F20020C0F27A004843B0FBBE
:101FC000F2F02168C1F30271B0FBF1F010BD000026
:101FD0002DE9F04182B0002800F096800446007898
:101FE00043F60006C007C4F202062BD0B06800F02A
:101FF0000C00042820D0B06800F00C00082802D1A2
:102000007068400218D4B06800F00C000C2802D1AF
:102010007068400210D46068B0F5803F07D0B0F51A
:10202000A02F40F03B81306840F480203060306861
:1020300040F4803030603BE13068800302D5606856
:10204000002861D02078800722D5B06810F00C0FEE
:1020500011D0B06800F00C00082802D1706840026E
:1020600009D5B06800F00C000C2840F09F80706823
:10207000400200F19B803068800702D5E0680128AB
:1020800042D13068216920F0F80040EAC100306098
:10209000207800073CD42078400751D4A56985B347
:1020A000B06800F00C00082840F0A880012D2BD06B
:1020B0007068E16900F480028A4225D1216A00F04B
:1020C0003F028A4220D147F6C071626A0140B1EBFB
:1020D000821F19D1A16A4FF6FF73C903994300F417
:1020E0004032A1F580318A420ED1E16A00F070627F
:1020F000B2EB016F08D1216B00F0E040B0EB017F43
:1021000002D1002034E100BF012002B0BDE8F0811F
:102110006069002840F20000C4F247205ED001212F
:10212000C0F8801EFEF700FB054600BF706F8007F9
:10213000B1D4FEF7F9FA401B0228F7D9C5E000BF79
:10214000306C10F080580AD100200190306C40F0C3
:1021500080503064306C00F080500190019847F25C
:102160000007C4F200073868C00511D4386840F48D
:1021700080703860FEF7D8FA054600BF3868C005A1
:1021800006D4FEF7D1FA401B0228F7D99DE000BF24
:10219000A068012805D0052852D1306F40F0040016
:1021A0003067306F40F00100306753E0E06800288E
:1021B00060D00020C4F2472001210160FEF7B4FA8C
:1021C000054600BF306880073FF55BAFFEF7ACFA0D
:1021D000401B02284FF00300F4D9C9E00021C0F8E9
:1021E000801EFEF7A1FA0546706F80077FF553AF9A
:1021F000FEF79AFA401B0228F6D966E00027C4F2DF
:10220000472700203866FEF78FFA022D05460BD1CE
:10221000306880015ED5FEF787FA401B02284FF038
:102220000300F5D9A4E000BF306880017FF569AFF5
:10223000FEF77AFA401B02284FF00300F4D997E02A
:10224000316F002821F001013167316F21F0040165
:10225000316763D0FEF768FA054641F2883700BF60
:10226000306F80076CD4FEF75FFA401BB842F7D995
:102270002BE000BF0020C4F2472000210160FEF7E0
:1022800053FA0546306880077FF502AFFEF74CFA37
:10229000401B02284FF00300F4D969E031680028A0
:1022A00021F480313160316821F48021316051D0D6
:1022B000FEF73AFA054600BF306880033FF5C2AE2C
:1022C000FEF732FA401B6428F6D9032002B0BDE8BD
:1022D000F08100BF04F11C052FCD246B084340EAB8
:1022E0008210D9034FF6FF729143A1F5803140EA85
:1022F0000560084340EA0470706001203866FEF70C
:1023000013FA0446306880013FF5FBAEFEF70CFA85
:10231000001B02284FF00300F4D929E0FEF704FA6D
:10232000054641F2883700BF306F800708D5FEF7B9
:10233000FBF9401BB8424FF00300F5D918E000BF8D
:10234000B8F1000F7FF4AAAE306C20F080503064FA
:10235000A4E600BFFEF7E8F90546306880037FF584
:1023600071AEFEF7E1F9401B64284FF00300F4D989
:1023700002B0BDE8F081000010B5006840684FEA87
:102380001043C0F3042E00F03F0CC0F34234CB7076
:1023900081F801E081F802C00C700AB1002010BD84
:1023A000DCB2240904EB840403F00F0303EB4403C1
:1023B000020ACB704FEA1E1343EA830302F00F02B6
:1023C00002EB43024A704FEA1C1242EA820200F01A
:1023D0000F0000EB42008870002010BD10B50068AF
:1023E000836A4B6003696FF3DF338B600068C0F36F
:1023F0000543C0F3062E00F07F0CC0F380540B7031
:1024000081F801E081F802C0CC700AB1002010BD53
:10241000020C1B0943EA830302F00F0202EB4302A2
:10242000040A0A704FEA1E1202EB820204F00F0344
:1024300003EB42024A704FEA1C1202EB820200F0E8
:102440000F0000EB42008870002010BD002804BF80
:1024500001207047B0B50446407F20B900202077A6
:10246000204600F06BF8022060772168CA2048629D
:1024700053204862C868400614D4C86840F0800001
:10248000C860FEF751F92168CA6852060AD40546A9
:10249000FEF74AF9401BB0F57A7F47D82168C86833
:1024A0004006F5D588684FF6BF72CFF68F721040A0
:1024B0008860D4E9010CD4E90335626928438D684A
:1024C0001043284388600B61086940EA0C400861AA
:1024D000C86820F08000C8608868800618D4C86882
:1024E00020F0A000C860FEF71FF905462168C86803
:1024F00080060DD4FEF718F9401BB0F57A7FF5D9A8
:102500000420607721680120FF224A62B0BD00BF2D
:10251000086C20F480200864A0690A6C10430864E9
:10252000012060770020FF224A62B0BD042060775E
:102530002168C8680120FF224A62B0BD10B598B07A
:10254000044601A804305821FDF790FE206842F6A9
:102550000001C4F20001884202D018B010BD00BFD3
:10256000202001904FF48070119001A8FFF7E6F948
:10257000002818BFFDF7EEFE40F63C60C4F247208D
:102580000121016018B010BD2DE9F0410446007F23
:1025900001284FF0020008BFBDE8F0810123237736
:1025A00060773AB14878CA788F78000240EA0248EA
:1025B00045E000BF4878C20642BF00F0EF000A3095
:1025C0004870CA780A2A0DD30A3AD3B2CD277B4382
:1025D000DB0A03EB8307A2EB4702102707EB031389
:1025E00001E000BF00231A43D2B20A284FEA024298
:1025F0000CD30A38C3B2CD277B43DB0A03EB830736
:10260000A0EB4700102707EB031300E00023034370
:102610008878DBB20A2842EA03280DD30A38C2B20E
:10262000CD235A43D20A02EB8203A0EB43001023CE
:1026300003EB021201E000BF002242EA00070E781D
:102640002168CA20486253204862C868400615D4F1
:10265000C86840F08000C860FEF766F82168CA6864
:1026600052060BD4054600BFFEF75EF8401BB0F5DE
:102670007A7F33D82168C8684006F5D5F8B240EAB9
:102680000800720320F0C00010434860C86820F0C2
:102690008000C8608868800616D4C86820F0A00052
:1026A000C860FEF741F805462168C86880060BD46B
:1026B000FEF73AF8401BB0F57A7FF5D90420607731
:1026C0002168012003E000BF012060770020FF2285
:1026D0004A6200212177BDE8F08100BF04206077C5
:1026E0002168C8680120F2E7F0B581B00446007F98
:1026F00001284FF0020000F0B2800D460121217741
:1027000060772168886800F040001AB1B0B90020F5
:10271000E87015E0002804BF0020E87028780A2837
:1027200018D30A38C2B2CD235A43D20A02EB82032D
:10273000A0EB4300102303EB02120CE0E8788005C5
:102740006B782A78AF781B0243EA02423A4442EAA5
:10275000000732E0002210436A78C0B20A2A4FEA2A
:1027600000400DD30A3AD3B2CD277B43DB0A03EBFB
:102770008307A2EB4702102707EB031301E000BF1A
:1027800000231343AA78DBB20A2A40EA03200DD3C0
:102790000A3AD3B2CD277B43DB0A03EB8307A2EBD4
:1027A0004702102707EB031301E000BF00231A4381
:1027B000D2B2EB78104340EA8357CA2048625320D4
:1027C0004862C868400615D4C86840F08000C860F8
:1027D000FDF7AAFF2168CA6852060BD4064600BF5F
:1027E000FDF7A2FF801BB0F57A7F3BD82168C8684F
:1027F0004006F5D547F67F70C0F27F00384008608C
:10280000886820F480208860D5E903028B68104333
:1028100018438860C86820F08000C8608868800617
:1028200016D4C86820F0A000C860FDF77DFF0546FB
:102830002168C86880060BD4FDF776FF401BB0F511
:102840007A7FF5D9042060772168012003E000BF7A
:10285000012060770020FF224A620021217701B029
:10286000F0BD00BF042060772168C8680120F2E74E
:102870002DE9F04186B00446032084F83400606CF2
:102880008846032822D14FF08050A16B40F2FF56BA
:102890000843A063A06BC0F2400600283ED0206829
:1028A0000125866384F834504FF4007102F0B6F8C5
:1028B00028B1216801258E63A16B0843A063012123
:1028C000284684F8341006B0BDE8F081B8F1000F56
:1028D00036D0B8F5805FD6D0B8F5006F46D100216C
:1028E000206805910491002102F014F8800141D480
:1028F00004A9204602F04AFB0028C6D19DF8160024
:10290000400730D5216D2068090402F033F8002813
:10291000BBD12068022102F08DF8B6E794E80F00E1
:10292000D4E90557CDE90085029701F0F7FF20684B
:1029300000254FF4007102F071F80028B9D1BEE70C
:102940000021206805910491002101F0E3FF80013E
:1029500010D404A9204602F019FB002895D19DF857
:102960001600C0070AD14FF080608EE74FF000607C
:102970008BE700BF4FF4006087E700BF216D206840
:10298000090401F0F7FF00287FF47FAF20680021E1
:1029900002F050F879E70000002804BF01207047DA
:1029A00010B50446032084F83400206801F0CCFF01
:1029B000204600F01FFA0020A06384F8340010BD08
:1029C00080B5D0E9193ED0F844C09A0F0A70C3F31D
:1029D00083624A70C3F301628A701A0CCA701A0AC1
:1029E0000A714FEA1E524B71CA80CEF303420A723B
:1029F000CEF3C0324A72CEF380328A72CEF34032C6
:102A0000CA72CEF300320A730022BCF1010F4A737E
:102A100036D0BCF1000F40F0878040F6FC72C36EE8
:102A200002EA8E0242EA93720A61C26EC2F3C26384
:102A30000B75C2F302634B75C2F342538B75C2F33D
:102A40008243CB75C2F3C2330B76D1F810C00B7E34
:102A50000CF1010C03F0070302330CFA03FCC0F87D
:102A600054C00B7A03F00F0E012303FA0EF38365B3
:102A70005B0A03FB0CF3C3654FF4007312E000BF65
:102A8000B0F86E200EF03F0342EA03420A610A6981
:102A90004FF4806303EB82224FF40073C0E91523E7
:102AA000C265C26E0366C2F380334B76C2F3C613AF
:102AB00002F07F028B76CA76006FC20F0A77C0F3EE
:102AC00041724A77C0F382628A77C0F38352CA7731
:102AD000C0F3405281F820200022C0F3004381F867
:102AE000212081F82230C0F3C03381F82330C0F3B5
:102AF000803381F82430C0F3403381F82530C0F3AF
:102B0000003381F82630C0F3812381F82730C0F3E9
:102B10000123C0B2400881F8283081F82900012043
:102B200081F82A00104680BD016840F2FF52C0F2D1
:102B300040028A63816B012241F08051816380F8F9
:102B40003420104680BD000080B500F1440E9EE8A0
:102B50000C5081E80C10426DC1E903E2D0E9162364
:102B6000C1E90523026E0020CA6180BD10B5016D68
:102B700004460068090402F0BBF828B1A16B0843C1
:102B8000A063002010BD00BF2068002101F0C2FE3C
:102B9000C0F3432010BD000010B5D8B1044690F832
:102BA000340020B900202077204600F041F90320AE
:102BB00084F83400204600F00FF800284FF00100A0
:102BC00018BF10BD0021A163216384F834000020E8
:102BD00010BD00BF012010BDF0B58FB004460068E5
:102BE0007621002602910021002200230096019602
:102BF00001F094FE4FF0010510B128460FB0F0BD72
:102C000048F2A007C4F225273E60206801F0A2FE2A
:102C100002203D60FDF7A4FB0496206801F016FF3A
:102C200040B1012584F83450A16B0843A0632846C5
:102C30000FB0F0BD206801F039FF58B120680021C5
:102C4000A16401F003FF0028EBD1A06C012803D0A0
:102C50000AE000BF0120A0642068002101F08AFE84
:102C600010B14FF08050DCE704984FF6FE76B0428A
:102C70001ED80025CCF210152068002101F07AFE44
:102C80000028CED12068294601F080FE0028E8D136
:102C90002068002101F03EFE04990131049104995D
:102CA000B14202D8B0F1FF3FE6DCC0F3807000E033
:102CB000002004994FF6FF72914203D34FF08070C9
:102CC000AFE700BF606420680125ADF80E5001F049
:102CD0001DFE88B1606C032812D12068042101F028
:102CE00019FE000DE06404A92046FFF769FE0028E4
:102CF00054D04FF0805095E74FF0806092E700BFCE
:102D0000206801F04BFF00287FF48CAF2068002181
:102D100001F000FE216860670846042101F0FAFD19
:102D20002168A0670846082101F0F4FD2168E067EA
:102D300008460C2101F0EEFD616CC4F88000032907
:102D4000CBD020680DF10E0101F0DEFF00287FF4EA
:102D500069AF606C0328C0D0BDF80E1020682165F3
:102D6000090401F069FF00287FF45CAF20680021AE
:102D700001F0D0FD216860660846042101F0CAFD1B
:102D80002168A0660846082101F0C4FD2168E066BC
:102D900008460C2101F0BEFD20679EE7216D2068EA
:102DA0000A04002301F0EEFE00287FF43BAF94E814
:102DB0008F00D4E90565CDE90076029501F0AEFDFE
:102DC00020684FF4007101F029FE78B1216840F2CB
:102DD000FF52C0F240028A63A16B01250843A06341
:102DE00084F8345028460FB0F0BD00BF00252846B7
:102DF0000FB0F0BD10B5006842F60044C4F2010403
:102E0000A04218BF10BD43F64400C4F2020001689E
:102E100021F40061016004F55C404FF4F851FDF7C6
:102E2000B3FA04F560400421BDE81040FDF7ACBAE8
:102E30002DE9F0439DB0044601A842F60049043054
:102E40005821C4F20109FDF711FA2068484503D062
:102E50001DB0BDE8F08300BF4FF440700190002426
:102E600001A81294FEF76AFD002818BFFDF772FA58
:102E700043F630001894C4F2020041694FF0020892
:102E800041F4006141614169012701F40061189139
:102E9000189918940168032641F004010160016843
:102EA0000C2501F00401189118991894016818ACC8
:102EB00041F0080101600068214600F00800189008
:102EC00018984FF4F850189009F55C40CDF86480DC
:102ED0001A971B961C95FDF73FFB0420CDE91808B7
:102EE00009F560402146CDE91A761C95FDF734FBC3
:102EF0001DB0BDE8F08300002DE9F04786B01F4605
:102F000016460D460446FDF70FFC9DB1804694F829
:102F10003400012816D10021A163E06DBA19824264
:102F200018D9A06B40F00070A063012006B0BDE886
:102F3000F08700BFA06B40F00060A063012006B0E6
:102F4000BDE8F087A06B40F00050A063012006B000
:102F5000BDE8F087032084F83400626C2068012A01
:102F60004FF0FF32C16218BF760200927A024FF032
:102F7000020901929022CDE903914FF0010A6946BE
:102F80000292CDF814A001F0ADFC022F18D3C4F8C2
:102F900030902068314601F0DDFDC8B1216840F273
:102FA000FF52C0F240028A63A16B0843A063012074
:102FB000002184F83400216306B0BDE8F08700BF2B
:102FC000C4F830A02068314601F0D0FD0028E5D1DA
:102FD000DDF83890019E05E0FDF7A6FBA0EB0800A8
:102FE000484541D22068426B416B12F4957F25D150
:102FF0000904F1D5002EEFD001F0B2FC2860206862
:1030000001F0AEFC6860206801F0AAFCA8602068AE
:1030100001F0A6FCE860206801F0A2FC28612068AD
:1030200001F09EFC6861206801F09AFCA8612068AC
:1030300001F096FCE8612035203ECDE7022F27D332
:1030400011F4807124D0616C032921D001F0C2FEFB
:1030500001462068E1B140F2FF52C0F240028263B3
:10306000A06B0843A2E700BF206840F2FF51C0F206
:1030700040018163A06B40F00040A063012084F810
:10308000340000202063032006B0BDE8F08700BFB5
:10309000416B090720D4416B890727D4416B89060E
:1030A0002ED42068416B890234D59EB301F058FCC0
:1030B00045F8040B043EFDF737FBA0EB080048453C
:1030C000EFD3206840F2FF51C0F240018163A06B52
:1030D00040F000406AE700BF40F2FF51C0F24001FB
:1030E0008163A06B40F0080060E700BF40F2FF5131
:1030F000C0F240018163A06B40F0020056E700BFC0
:1031000040F2FF51C0F240018163A06B40F020000B
:103110004CE700BF40F23A518163012084F834004B
:10312000002006B0BDE8F0872DE9F04788B098464A
:1031300015460E460446FDF7F7FA9EB1824694F80E
:103140003400012816D10021A163E06D08EB0502CF
:10315000824217D9A06B40F00070A063012008B034
:10316000BDE8F087A06B40F00060A063012008B0CC
:10317000BDE8F087A06B40F00050A063012008B0CC
:10318000BDE8F087032084F83400626C2068012ACF
:103190004FF0FF32C16218BF6D0202924FEA48221F
:1031A00003929022CDE9042106910121079102A901
:1031B00001F098FBB8F1020F18D32020206320689B
:1031C000294601F017FEC8B1216840F2FF52C0F253
:1031D00040028A63A16B0843A0630120002184F8A8
:1031E0003400216308B0BDE8F08700BF10202063E1
:1031F0002068294601F00AFE0028E5D1DDF840905C
:10320000039F01AD06E000BFFDF78EFAA0EB0A00B8
:1032100048455DD22068426B416B12F48D7F41D1ED
:103220004904F1D5002FEFD031780191727841EA4D
:1032300002210191B27841EA02410191F27841EA1A
:1032400002610191294601F08FFB716820680191AC
:10325000294601F089FBB16820680191294601F0F7
:1032600083FBF16820680191294601F07DFB3169FB
:1032700020680191294601F077FB7169206801916E
:10328000294601F071FBB16920680191294601F0DE
:103290006BFBF069294601902068203601F064FB41
:1032A000203FB1E7B8F1020F24D311F4807121D08F
:1032B000616C03291ED001F08DFD01462068C9B163
:1032C00040F2FF52C0F240028263A06B084383E7E2
:1032D000206840F2FF51C0F240018163A06BA063FF
:1032E000012084F8340000202063032008B0BDE8EA
:1032F000F08700BF416B090710D4416B890717D4D1
:10330000416BC9061ED440F23A518163012084F812
:103310003400002008B0BDE8F08700BF40F2FF5144
:10332000C0F240018163A06B40F0080054E700BF89
:1033300040F2FF51C0F240018163A06B40F00200F7
:103340004AE700BF40F2FF51C0F240018163A06B29
:1033500040F0100040E70000411E0020B0EB116F6C
:103360001CBF012070474EF21002CEF200025160E5
:103370004EF62351CEF20001F0230B70072190602E
:1033800011607047002804BF0120704710B5044643
:1033900090F83D0028B9002084F83C00204600F059
:1033A00021F8242084F83D002068C16821F40051F0
:1033B000C160204601F014FF2068016921F49041AA
:1033C0000161416921F02A014161C16841F4005164
:1033D000C16000202021206484F83D1084F83E1054
:1033E00010BD000080B586B0016841F20000C4F253
:1033F0000100814202D006B080BD00BF002143F62B
:1034000030020191C4F20202536900F5704043F0AA
:1034100010035361536903F010030193019B019161
:10342000136843F001031360126802F00102019275
:10343000019A4FF4C06201920222CDE902210321D8
:1034400004910721059101A9FDF786F806B080BD1A
:103450002DE9F04381B0044690F83D0020280DD1BD
:103460000F4600294FF0010000F0DD801646002ACB
:1034700000F0D98094F83C00012803D1022001B06B
:10348000BDE8F083012084F83C0000202064212066
:103490001D4684F83D00FDF747F9A684E684A1683F
:1034A0000646B1F5805F03D12069002800F0108145
:1034B000B8460027002084F83C00E18C20680029F1
:1034C00000F0908005F101090DE000BFB8F1000F98
:1034D00028D018F8011B4160E18C0139E184E18CAE
:1034E000002900F07F8001680906EFD4B9F1000FD0
:1034F0000AD0FDB1FDF718F9801BA8421AD8206840
:1035000001680906F6D5E1E701680906DED401681D
:1035100009065CBF01685FEA0161D7D4016809064A
:10352000F2D5D3E737F8021B4FF000086FF35F21A5
:10353000D1E700BF206850E8030F216820F4D07065
:1035400041E80302BAB3206850E8030F216820F471
:10355000D07041E8030272B3206850E8030F21687D
:1035600020F4D07041E803022AB3206850E8030F2A
:10357000216820F4D07041E80302002ADAD11AE071
:10358000206850E8050F216820F0010041E805029D
:10359000DAB1206850E8050F216820F0010041E809
:1035A000050292B1206850E8050F216820F0010063
:1035B00041E805024AB1206850E8050F216820F073
:1035C000010041E80502002ADAD1202084F83D00FC
:1035D00084F83E00002084F83C00032001B0BDE8E0
:1035E000F08300BF0168490619D4FDB1691C0DD1F3
:1035F0000168490613D4016849065CBF01685FEAA7
:1036000041610CD401684906F2D508E0FDF78CF859
:10361000801BA8420AD8206800684006F6D5202002
:1036200084F83D00002001B0BDE8F083206850E838
:10363000030F216820F4D07041E80302E2B3206850
:1036400050E8030F216820F4D07041E803029AB3D8
:10365000206850E8030F216820F4D07041E803028D
:1036600052B3206850E8030F216820F4D07041E87D
:103670000302002ADAD11FE0206850E8050F216814
:1036800020F0010041E80502002A9ED0206850E8A1
:10369000050F216820F0010041E80502002A3FF4EF
:1036A00094AF206850E8050F216820F0010041E840
:1036B0000502002A3FF489AF206850E8050F216811
:1036C00020F0010041E80502002AD5D17DE700BFC6
:1036D0004FF00008EEE60000FEE7000070B504467B
:1036E000D0F8D40204EB8000D0F8C052002D08BFFF
:1036F00070BD95F81C02D8B140F20C06C2F200066B
:103700003178204602F028FA687A02280ED1317802
:10371000204602F021FA40F20D00C2F200000178CA
:103720002046BDE8704002F017BA00BF70BD00BF70
:10373000D5F818020028DFD0687A0028DCD140F2E2
:103740000D00C2F200000178204602F005FAD3E72E
:10375000B0B50446D0F8D40204EB8000D0F8C052D3
:10376000002D3FD0687A022812D140F20C00C2F23C
:1037700000000178204602F0EFF940F20D00C2F29D
:10378000000001782046BDE8B04002F0E5B900BF76
:1037900049B2B1F1FF3FC8BFB0BD012822D045F208
:1037A0005530C5F24230C5F83002012085F83C02A0
:1037B0000020287240F20C00C2F20000017805F5EA
:1037C0000C7220460D2302F0F5F940F20D00C2F212
:1037D0000000017805F5047220461F23BDE8B040C3
:1037E00002F014B9B0BD0000B0B50446D0F8D40260
:1037F00004EB8000D0F8C05295B3287AC11E02298C
:1038000022D245F25530C5F2423005F50C72C5F8AA
:103810003002002085F83C0240F20C01C2F20001A7
:1038200000200978287220460D2302F0C3F940F2E7
:103830000D00C2F20000017805F5047220461F2336
:10384000BDE8B04002F0E2B8022809D195F81D1297
:1038500005F21F22204600F0CBFAB0F1FF3F01DD58
:10386000B0BD00BFD4F8D40204EB8000D0F8C05241
:10387000002D08BFB0BD45F25530C5F24230C5F845
:103880003002012005F50C7285F83C02C4E7000007
:10389000F0B581B00446D0F8D40204EB8000D0F833
:1038A000C052002D5AD0287A01284DD0002855D179
:1038B00040F20D06D5E98502C2F200063178C5F85E
:1038C00034022046C5F8382202F016F81F2811D11C
:1038D000D5F8100245F25531C4F24231884209D17F
:1038E00095F81D12012905D895F81E02113810F11E
:1038F000110F6FD895F81D1220460522202300F0E5
:10390000D3FFD4F8D40204EB8000D0F8C0720220B8
:1039100068721FB397F81C0200284FD040F20C05C4
:10392000C2F200052978204602F016F9787A0228BA
:1039300014D12978204602F00FF93178204601B0E1
:10394000BDE8F04002F008B995F81D1205F21F22FB
:10395000204600F04DFAB0F1FF3F01DD01B0F0BDAF
:10396000D4F8D40204EB8000D0F8C052002DF5D07A
:1039700045F25530C4F2423000F18050C5F83002B3
:10398000012085F83C020020287240F20C00C2F2AF
:103990000000017805F50C7220460D2302F00AF9AB
:1039A00040F20D00C2F20000017805F504722046D5
:1039B0001F2301B0BDE8F04002F028B8D7F8180284
:1039C0000028ABD0787A0028A8D13178204602F0C0
:1039D000C3F8A3E705F21F22204600F009FA297A6E
:1039E000B0F1FF3F0CDD481E0328B7D3EA689AB157
:1039F00005F11001204601B0BDE8F04000F0A6B886
:103A00002046052902D1012108E000BF01B0BDE830
:103A1000F040FFF763BE00BF2046002101B0BDE8C3
:103A2000F04000F065B80000D0F8D41200EB81003F
:103A3000D0F8C00200281CBF0021017270470000AE
:103A400070B50446D0F8D40204EB8000D0F8C05220
:103A5000002D08BF70BD00212981A5F86012D0F8A3
:103A6000C40285F8621202680020904740F20D06F9
:103A7000C2F200063178204601F02CFF40F20C0023
:103A8000C2F200000178204601F024FF317805F5EC
:103A9000047220461F23BDE8704001F0B7BF00004C
:103AA00070B50446D0F8D40204EB8000D0F8C052C0
:103AB000002D08BF70BD40F20C01C2F200014FF4AE
:103AC000807009782881204601F036FE40F20D060C
:103AD000C2F200063178204601F02EFE317805F55D
:103AE000047220461F23BDE8704001F08FBF000024
:103AF000B0B50446D0F8D40204EB8000D0F8C05230
:103B0000002D08BFB0BD45F2553085F83C1240F29B
:103B10000C01C5F24230C2F20001C5F830020020AB
:103B2000097805F50C72287220460D2302F042F840
:103B300040F20D00C2F20000017805F50472204643
:103B40001F23BDE8B04001F061BF000010B5D0F800
:103B5000D43200EB8303D3F8C0E2BEF1000F08BFFC
:103B600010BD8C46DEF83812DEF81832891A9342FE
:103B700028BF1346CEF8381200218EF83C1240F2CE
:103B80000C01C2F200010424097862468EF8084054
:103B9000BDE8104002F00EB881B0002043F63001BD
:103BA0000090C4F202010A6842F004020A600A6846
:103BB00002F004020092009A00900A6842F080022B
:103BC0000A600A6802F080020092009A00900A6877
:103BD00042F001020A600A6802F001020092009AB3
:103BE0000090086840F008000860086800F00800CD
:103BF0000090009801B0704710B586B040F69C5018
:103C000042F600010024C2F20000C4F200017F224B
:103C1000C0E9001400F10801CDE90244CDE90044F7
:103C2000FF231CC1C0E90544FEF710FC002818BFA3
:103C3000FCF790FB40F69C50C2F2000001A9012263
:103C4000ADF804408DF80640CDE90444FEF74CFD84
:103C5000002818BFFCF77EFB40F20110C2F20130D1
:103C6000009040F69C50C2F2000069460122FEF727
:103C70008BFC002818BFFCF76DFB06B010BD0000E0
:103C800010B540F6BC54C2F200042046FEF784FE94
:103C90000A20FCF765FB42F60040C4F20100002157
:103CA000C4E9000104F110004FF4804203230EC068
:103CB0002046C4E90211FEF76FFF002818BFFCF789
:103CC00049FB40F6BC50C2F200004FF40061FEF721
:103CD000CFFD002808BF10BDBDE81040FCF73ABB7F
:103CE00080B540F6406041F20001C2F20000C4F22B
:103CF000010100234FF00C0C4FF4E13280E80E007C
:103D0000C0E90333C0E905C3C361FFF73BFB0028EB
:103D100008BF80BDBDE88040FCF71CBB80B540F209
:103D2000B45040F21001C2F20000C2F200010022C1
:103D300001F0ECFC002818BFFCF70CFB40F2B4507B
:103D400040F29801C2F20000C2F2000102F0CCF889
:103D5000002818BFFCF7FEFA40F2B45040F2FC0114
:103D6000C2F20000C2F2000102F026F8002818BFDB
:103D7000FCF7F0FA40F2B450C2F2000002F0DEF8B4
:103D8000002808BF80BDBDE88040FCF7E3BA000012
:103D9000FEE70000FEE7000040F69000C2F20000DF
:103DA000FCF7A2BF70470000D0F8D41200EB8100EE
:103DB000D0F8C002C0B1D0F868121A448A429EBF3F
:103DC000002040B2704790F86112052300EBC10259
:103DD00082F8403221230131A2F84432CAB2043AB7
:103DE00018BF0A4680F86122FF2040B270470000E9
:103DF000F0B583B00446D0F8D40204EB8000D0F8CC
:103E0000C072002F00F076840E46117815469D2969
:103E100000F378805A2900F25782DFE811F05B0046
:103E2000550255029D005502550255025502550294
:103E300055025502550255025502550255025502CA
:103E40005502D10055025502550255025502550240
:103E5000550209012D015502550241015502550235
:103E6000550255024D0155027701550255029F0139
:103E70005502D3015502550255025502DF01550284
:103E8000550255025502550255025502550255027A
:103E9000550255025502550255025502550255026A
:103EA000550255025502550255025502550255025A
:103EB000550255025502550255025502550255024A
:103EC000550255025502550255025502550255023A
:103ED0005502F501D7F81812002900F00D8297F865
:103EE0006102052207EBC00181F840222022013047
:103EF000A1F84422C1B2043918BF014687F8611203
:103F0000FF2050E39E2900F0A381A82900F0CE8174
:103F1000AA2940F0D981397A002940F05781D7F891
:103F20001812002900F01F8297F91C12B1F1FF3F0F
:103F300040F31982D0F8C402816830468847D4F82B
:103F4000D412002800F0588304EB8100D0F8C0029E
:103F5000002840F09A82A9E2D7F81802002800F061
:103F600002820020C7F8150087F82100C7F81D005D
:103F7000C7F81900C7F8110097F8600297F8612296
:103F80007021397490424FF00C01F9750ED007EB97
:103F9000C00191F84022B1F844120130B983C1B296
:103FA0000439BA7418BF014687F860121220F8600D
:103FB0002879122898BFF860002040B203B0F0BD05
:103FC000D7F81812002900F0CE816978C90740F0AF
:103FD000D381D0F8C40206EBC602C0692D7900EB8C
:103FE000820319790531A94238BF0D46002DFD60C5
:103FF00000F0BD8215F0030CA5F1010600F0B482BB
:10400000995DBC192174BCF1010F314600F0AD82FD
:10401000A91E13F801E07C18BCF1020F84F810E02F
:1040200000F0A382E91E5B5C7D182B749DE200BF4B
:104030002B79172B28BF1723002BFB6000F09782EA
:1040400040F24B005A1E13F00306C2F2000000F0CB
:10405000BF81815CBD182974012E114600F0B98121
:10406000991E455C7C18022E257400F0B281D91E81
:10407000435C7E183374ACE197F862122879012909
:1040800000F0030008BF022800F0868101284FF0ED
:10409000000118BF032840F0958187F8621205E0FF
:1040A0002879002818BF012087F862020020F860F4
:1040B00040B203B0F0BD00BFD0F8C40201A943680C
:1040C0000DF10A023046984720B997F8620202289B
:1040D00040F0B281D4F8D40204EB8000D0F8C002E2
:1040E000002800F0078390F86112022300EBC10260
:1040F00082F840323A230131A2F84432CAB2043A7B
:1041000018BF0A4680F86122F4E200BFD0F8C4026A
:1041100007F51A71436807F5197230469847002869
:1041200040F0A58097F86202022800F0A080D7F83E
:1041300068020138010E3974010C7974010AB974EE
:10414000B7F86412F87409BA090C0020F982082142
:10415000B882F96040B203B0F0BD00BF397A0029DF
:1041600040F0A78097F91C12002940F1FC8097F8D5
:104170006212022900F0E081D0F8C4028168304662
:104180008847002873D1D5F80200314602BAC7F833
:104190006C22B5F8070043BA2046C7F87032FFF723
:1041A00003FE002800F1A682D7F87002B7F8641267
:1041B000D7F818224843824240F08C82022038729D
:1041C00077E000BF397A002900F0AE802046314602
:1041D00003B0BDE8F04000F0F7BA00BF6878800790
:1041E00000F1DA80D7F87012D7E99A20084490429B
:1041F0007FF65CAF97F86102052207EBC00181F8FA
:1042000040222122D0E000BF2B7A1B2B28BF1B238A
:10421000002BFB6000F0AB8140F230005A1E13F01F
:104220000306C2F2000000F0ED80815CBD18297425
:10423000012E114600F0E780991E455C7C18022E85
:10424000257400F0E080D91E435C7E183374DAE0F8
:10425000D0F8C40207F51A71436807F519723046A1
:10426000984720B997F86202022840F02581D4F8D7
:10427000D40204EB8000D0F8C002002800F03A829B
:1042800090F86112022300EBC10282F840323A2317
:104290000131A2F84432CAB2043A18BF0A4680F883
:1042A0006122FF2040B203B0F0BD00BF397A00297F
:1042B00054D04FF4007220463146FA6003B0BDE896
:1042C000F04000F01BBA00BF97F86102052207EB2F
:1042D000C00181F8402220220130A1F84422C1B25D
:1042E000043918BF0146022087F861127872FF2056
:1042F00040B203B0F0BD00BF97F86212022940F04F
:10430000B58097F86102022207EBC00181F84022D4
:104310003A220130A1F84422C1B2043918BF014643
:10432000052087F86112C2E0D7F81812D9B197F9C1
:104330001C12B1F1FF3F16DDD0F8C402816830468F
:104340008847D4F8D412002800F0708104EB810073
:10435000D0F8C002002893D1CCE100BF97F91C121D
:10436000002900F1E58097F86102052207EBC00102
:1043700081F84022202217E0A878802800F0E6800B
:1043800050B90620F86040F26200C2F20000818855
:104390000068B982E3E000BF97F86102052207EBED
:1043A000C00181F8402224220130A1F84422C1B288
:1043B000043918BF014687F86112FF2040B203B0EC
:1043C000F0BD00BF02287FF471AE022165E600BF98
:1043D0001946032AC0F0CB80821E0023501846786D
:1043E0007D18EE73565C0433AE7310F8016C043F15
:1043F0006E7310F8020C043A287399424FF00000D3
:10440000ECD1D0E01946032AC0F0B180821E00230F
:10441000501846787D18EE73565C0433AE7310F86E
:10442000016C043F6E7310F8020C043A2873994231
:104430004FF00000ECD1B6E04FF000603861019819
:104440000138010E3975010C7975010AB975BDF88D
:104450000A10F8750220388308BA000C78830C2003
:10446000F860002040B203B0F0BD00BFD0F8C40235
:1044700081683046884700283FF418AED4F8D4024B
:1044800004EB8000D0F8C00280B190F861120223E2
:1044900000EBC10282F840323A230131A2F84432E3
:1044A000CAB2043A18BF0A4680F861220520387261
:1044B000FF2040B203B0F0BDD5F80A0000BAF860A2
:1044C000E8B1002100230022FE1842F00103DBB214
:1044D0009842317413D9FE1842F00203DBB29842BD
:1044E00031740CD9FE1842F00303DBB298423174E8
:1044F00005D90432FE18D3B298423174E4D8D7F803
:1045000068020138010E3975010C7975010AB97517
:10451000B7F86412F87509BA0020090C388379835A
:10452000D5F80A1009BAF96040B203B0F0BD00BF77
:1045300097F86212022939D197F86102022207EB3B
:10454000C00181F840223A222EE700BF0820F8601F
:1045500040F26800C2F20000416800687961386189
:10456000002040B203B0F0BD2946032E04D2002043
:1045700040B203B0F0BD00BF92001044821E002381
:10458000501846787D18EE73565C0433AE7310F8FD
:10459000016C043F6E7310F8020C043A28739942C0
:1045A0004FF00000ECD140B203B0F0BDD0F8C4022F
:1045B00081683046884700287FF459AED5F802005C
:1045C000314602BAC7F86C22D5F8060003BA204675
:1045D000C7F87032FFF7E8FB002800F18B80D7F8AE
:1045E0007002B7F86412D7F818224843824271D19A
:1045F000022038725DE600BF04EB8100D0F8C402EF
:10460000C1683046884758B3D4F8D40204EB800020
:10461000D0F8C00200283FF449AF90F8611202239D
:1046200000EBC10282F84032272336E704EB810019
:10463000D0F8C402C16830468847D8B1D4F8D40253
:1046400004EB8000D0F8C002002853D090F861122B
:10465000022300EBC10282F84032272318E600BF94
:10466000D5F80200314602BAC7F86C22D5F8060028
:1046700003BA08E0D5F80200314602BAC7F86C2246
:10468000B5F8070043BA2046C7F87032FFF78CFB35
:1046900000282FD4D7F87002B7F86412D7F8182280
:1046A00000FB01F39A4215D10120B3F5007F28BF2A
:1046B0004FF40073387240F20D00C2F2000001782E
:1046C00007F11002204601F0A1F9002040B203B02A
:1046D000F0BD00BFD4F8D40204EB8000D0F8C002D3
:1046E00040B190F86112052300EBC10282F840321C
:1046F0002023CDE5FF2040B203B0F0BD2DE9F0410D
:104700000546D0F8D40205EB8000D0F8C072002F27
:1047100056D0D7F87032B7F86462D0F8C40203FB01
:1047200006F4D7F86C22B4F5007F28BF4FF400746C
:10473000D0F810C0B4FBF6F307F110060846314676
:10474000E047B0F1FF3F23DD40F20C00C2F2000071
:1047500001782846324623461FFA84F801F02AFAE7
:10476000B7F86402D7E99B23B8FBF0F0D7F838120A
:104770000244181AC7E99B20A1EB0400C7F83802CD
:1047800004BF03203872002040B2BDE8F08100BFB2
:10479000D5F8D40205EB8000D0F8C00280B190F8C3
:1047A0006112042300EBC10282F84032112301316F
:1047B000A2F84432CAB2043A18BF0A4680F861220D
:1047C000FF2040B2BDE8F0812DE9F0410446D0F869
:1047D000D40204EB8000D0F8C062002E4CD0D6F892
:1047E0007032B6F86452D0F8C40203FB05F7D6F86D
:1047F0006C22B7F5007F28BF4FF40077D0F814C0C3
:10480000B7FBF5F306F1100808464146E047B0F162
:10481000FF3F19DDB6F86402B9B2B1FBF0F1D6F88A
:104820003822D6E99B35D21B0B44691AC6E99B3165
:10483000C6F8382224D1204600210024FFF758F979
:1048400060B2BDE8F08100BFD4F8D40204EB800070
:10485000D0F8C00280B190F86112042300EBC102CD
:1048600082F8403203230131A2F84432CAB2043A3A
:1048700018BF0A4680F86122FF2460B2BDE8F081CB
:1048800001FB00F340F20D00C2F200000178204667
:104890004246B3F5007F28BF4FF4007301F0B6F82D
:1048A000002460B2BDE8F081D0F8D41200EB8100A2
:1048B000D0F8C002002808BF704790F861C200EB32
:1048C000CC0181F84022002281F8443281F845224F
:1048D0000CF10101CAB2043A18BF0A4680F86122FD
:1048E0007047000080B5024691E80950506293621B
:1048F00008694EEA0C0318434969D36A084323F058
:10490000F70101430020D16280BD0000006800F083
:1049100003007047084440697047000010B58446A2
:10492000DDE90240114319432143DDF810E008435B
:10493000DCF8041047F6FF6240EA0E0091430143A1
:104940000020CCF8041010BD0146002200200A60AF
:10495000704700000146032200200A6070470000F3
:10496000D0F8800070470000096802460020C2F8B5
:10497000801070478160C36840F2774161F30B0398
:10498000372141F28832C36000F04CBA41F0004157
:1049900041F480118160C16840F2694262F30B0109
:1049A000C16040F27001C2F20001096844F6D352BE
:1049B000C1F26202A1FB0212510A41F28832514354
:1049C0006FF00302514000BF043104BF4FF00040BC
:1049D0007047426B12F0450F02D012F4006214D0FF
:1049E000426B12F0450F02D012F400620DD0426B00
:1049F00012F0450F02D012F4006206D0426B12F0A2
:104A0000450FE1D012F40062DED1416B042211F0B7
:104A1000040108BFC5228263084670478160C368ED
:104A20004FF48A6161F30B03102141F28832C360B5
:104A300000F0F8B98160C36840F2464161F30B03AE
:104A4000062141F28832C36000F0ECB90021816098
:104A5000C1684FF4806262F30B01C16040F27001E3
:104A6000C2F20001096844F6D352C1F26202A1FB0E
:104A70000212510A41F2883251436FF00302514051
:104A8000043104BF4FF000407047426B120609D456
:104A9000426B12065CBF426B5FEA026202D4426B59
:104AA0001206EDD5C5218163002070474FF4D57102
:104AB0008160C1684FF4896262F30B01C16040F20A
:104AC0007001C2F20001096844F6D352C1F26202D9
:104AD000A1FB0212510A41F2883251436FF00302E6
:104AE000514000BF043104BF4FF000407047426B9B
:104AF00012F0450F02D012F4006214D0426B12F093
:104B0000450F02D012F400620DD0426B12F0450F37
:104B100002D012F4006206D0426B12F0450FE1D0D1
:104B200012F40062DED1416B490709D4416BC90719
:104B30000AD1416B49064FF0000108D5402205E03B
:104B40000422042102E000BF012201218263084601
:104B5000704700008160C36840F2524161F30B036B
:104B6000122141F28832C36000F05CB98160C368F1
:104B700040F2514161F30B03112141F28832C360CD
:104B800000F050B98260C36840F2474161F30B0303
:104B9000072141F28832C36000F044B900218160EE
:104BA000C16840F2C24262F30B01C16040F2700181
:104BB000C2F20001096844F6D352C1F26202A1FBBD
:104BC0000212510A41F2883251436FF00302514000
:104BD000043104BF4FF000407047426B12F0450FA4
:104BE00002D012F4006214D0426B12F0450F02D0D2
:104BF00012F400620DD0426B12F0450F02D012F495
:104C0000006206D0426B12F0450FE1D012F4006250
:104C1000DED1416B490707D4416BC90708D1C521D3
:104C200081630020704700BF0421816308467047FC
:104C300001218163084670478160C16840F2C94222
:104C400062F30B01C16040F27001C2F20001096819
:104C500044F6D352C1F26202A1FB0212510A41F2A0
:104C6000883251436FF00302514000BF043104BF4A
:104C70004FF000407047426B12F0450F02D012F423
:104C8000006214D0426B12F0450F02D012F40062A1
:104C90000DD0426B12F0450F02D012F4006206D024
:104CA000426B12F0450FE1D012F40062DED1416B8D
:104CB000490707D4416BC90708D1C521816300208A
:104CC000704700BF0421816308467047012181635A
:104CD0000846704700218160C36840F2734161F368
:104CE0000B03332141F28832C36000F09BB800000F
:104CF0008160C36840F24D4161F30B030D2141F225
:104D00008832C36000F08EB800228260C26840F230
:104D1000434363F30B02C26040F27002C2F200022E
:104D2000126844F6D353C1F26203A2FB03235A0A6A
:104D300041F288335A436FF003035A40043204BFF0
:104D40004FF000407047436B13F0450F02D013F44F
:104D5000006314D0436B13F0450F02D013F40063CB
:104D60000DD0436B13F0450F02D013F4006306D04F
:104D7000436B13F0450FE1D013F40063DED1426BB7
:104D800052071BD4426BD2071CD10269D2B2032A4C
:104D90001CBF01207047C5228263406910F4604F38
:104DA00014D0410444BF4FF40050704700044FF446
:104DB000805158BF4FF48031084670470421816309
:104DC000084670470121816308467047000C08803F
:104DD0000020704700218160C36840F24C414EF2D0
:104DE000001261F30B03C0F2F5520C21C36000F016
:104DF00019B800008160C36840F2594161F30B03A8
:104E0000192141F28832C36000F00CB88160C36898
:104E10004FF48B6161F30B03182141F28832C360B8
:104E2000AFF3008040F27003C2F20003D3F800C079
:104E300044F6D353C1F26203ACFB033C03464FEA92
:104E40005C205043002800F09D805A6B12F0450F03
:104E500002D012F400621DD0012800F093805A6B3A
:104E600012F0450F02D012F4006213D0022800F0B5
:104E700089805A6B12F0450F02D012F4006209D0FB
:104E80000438421C7ED05A6B12F0450FDAD012F46F
:104E90000062D7D1586B400742BF04209863704727
:104EA000586BC0071EBF012098637047C5209863E8
:104EB0001869C0B288421CBF0120704758694EF281
:104EC0000801CFF6FF51084204BF002070470028B8
:104ED00044BF4FF000707047410044BF402070470E
:104EE000810044BF80207047C10044BF4FF48070F0
:104EF0007047010144BF4FF400707047410144BF47
:104F00004FF480607047C10144BF4FF400607047A8
:104F1000010244BF4FF480507047410244BF4FF438
:104F200000507047810244BF4FF480407047C10277
:104F300044BF4FF400407047410344BF4FF400307A
:104F40007047810344BF4FF480207047C10344BFC2
:104F50004FF400207047010444BF4FF480107047A5
:104F6000410444BF4FF400107047810444BF4FF424
:104F70008000704700074FF4000058BF4FF48030A6
:104F8000704700BF4FF00040704700002DE9F0412E
:104F900088B00C460546FBF7C7FB0646002128688B
:104FA000019100910821FFF739FD18B108B0BDE863
:104FB000F08100BF296D28680904FFF7DBFC002899
:104FC000F4D14FF0FF30029008200390302004907D
:104FD000022005900020069001212868079102A96F
:104FE000FFF780FC2868FFF775FE0028DED1002758
:104FF000E8460CE00846FFF7B3FC48F82700013705
:10500000FBF792FB801B01304FF00040CED02968A7
:10501000486B10F02A0F05D1486B8002EAD4486B28
:105020008004EDD4486B000712D4486B800711D47C
:10503000486B800610D440F23A508863DDE90010D6
:1050400000BA09BAC4E90001002008B0BDE8F08147
:10505000082002E0022000E02020886308B0BDE8BC
:10506000F0810000B0B588B040F6BC500D46C2F2E9
:10507000000069461446FDF767FDDDE906010138C9
:1050800028600020218008B0B0BD000000207047DB
:1050900000207047002070470020704710B582B094
:1050A00040F6BC5042F21074C2F200000094FDF7CA
:1050B00023FF18B1032002B010BD00BF40F6BC545E
:1050C000C2F200042046FDF751FD0428FAD1002069
:1050D00002B010BD10B582B040F6BC5042F2107460
:1050E000C2F200000094FEF71FF818B1032002B0CE
:1050F00010BD00BF40F6BC54C2F200042046FDF7CC
:1051000035FD0428FAD1002002B010BD7047000020
:10511000FBF710BBB0B594B0002443F640000C94EC
:10512000CDE90A440694CDE90444CDE90244019452
:10513000C4F202000168022541F08051016000685C
:1051400000F080500190019847F200000194C4F2F1
:105150000000016841F440410160006800F44040F3
:1051600001900198052007904FF4803008900120AD
:1051700009904FF480000E9008200F904FF4A87013
:10518000CDE910050720CDE9120507A80D95FCF71C
:105190001FFF28B1EFF3108072B600BFFEE700BF1B
:1051A0000F20CDE902054FF4A05005904FF4805038
:1051B000069002A805210494FCF7D8FD20B1EFF376
:1051C000108072B6FEE700BF14B0B0BD4EF6885036
:1051D000CEF20000016841F47001016070470000E8
:1051E00010B504460068D4E902C22369016921F4BC
:1051F000405111430161626943EA0C01E3691143C3
:10520000C268194349F20C639A431143C160416972
:10521000A26921F4407141F20043114340F48062DD
:10522000C4F201039A42416102D1FCF769FE01E038
:10523000FCF752FEE16963681922B1F5004FA0FB4B
:10524000020123D15A00DB0FFAF7D8FF48F21F51B1
:10525000C5F2EB11A0FB01235A094FF69C73C0F66F
:10526000FF7303F1805302FB0300322303EBC00002
:10527000A0FB01014FF4F87000EA111000EB0210DE
:10528000C1F3421108442168886010BD9A009B0F49
:10529000FAF7B4FF48F21F51C5F2EB11A0FB01234E
:1052A0005A094FF69C73C0F6FF7302FB03003223CA
:1052B00003EB0010A0FB0101F02000EA511000EB0D
:1052C0000210C1F3431108442168886010BD00003A
:1052D00080B5D0F8B82252689047002818BF032044
:1052E00080BD0000002070470020704780B5134645
:1052F0000A46002100F08AFB002080BD80B51346DD
:105300000A46002100F056FC002080BD10B5802127
:10531000044600F021FC20460021BDE8104000F0CA
:105320001BBC000080B50521C0F8941200210022AA
:10533000002300F06BFB002080BD000080B5134609
:105340000A460221C0F894120021C0E9063300F099
:1053500031FC002080BD000080B50421C0F894120B
:1053600000210022002300F025FC002080BD000069
:1053700010B540F23C14C2F200040A4602A02146D5
:1053800000F056F9204610BD4D534320436F6E6622
:105390006967000040F280001222C2F200000A8019
:1053A0007047000010B540F23C14C2F200040A46F7
:1053B00002A0214600F03CF9204610BD4D53432089
:1053C000496E7465726661636500000040F2940086
:1053D0000422C2F200000A807047000010B540F2BB
:1053E0003C14C2F200040A4602A0214600F020F953
:1053F000204610BD53544D6963726F656C656374CC
:10540000726F6E696373000010B540F23C14C2F213
:1054100000040A4602A0214600F00AF9204610BD09
:1054200053544D3332204D6173732053746F726146
:1054300067650000B0B547F61020C1F6FF7002683E
:1054400083684FF01A0C9B18A1F800C000F0A380ED
:105450004FF0370C1A0F0CEB13714068B3F1204F6B
:1054600038BF02F1300140F21C12C2F2000291700A
:1054700019014FF0000E0CEB117582F803E0C3F335
:105480000364B1F1204F38BF04F1300519021571E2
:105490000CEB117582F805E0C3F30354B1F1204F12
:1054A00038BF04F13005190395710CEB117582F8C2
:1054B00007E0C3F30344B1F1204F38BF04F13005D6
:1054C000190415720CEB117582F809E0C3F303346B
:1054D000B1F1204F38BF04F13005190595720CEB7E
:1054E000117582F80BE0C3F30324B1F1204F38BFEC
:1054F00004F1300519061573C3F303140CEB117591
:10550000B1F1204F4FEA037103F00F0382F80DE071
:1055100038BF04F1300503F13704957382F80FE0CA
:10552000B1F1204F38BF03F13004010F0CEB1073C1
:10553000147482F811E0B0F1204F38BF01F130034C
:1055400001010CEB1174937482F813E0C0F3036350
:10555000B1F1204F38BF03F1300401021475C0F3DC
:1055600003530CEB1174B1F1204F4FEA003182F874
:1055700015E038BF03F130040CEB1173947582F819
:1055800017E0C0F30340B1F1204F38BF00F1300302
:10559000137682F819E040F21C10C2F20000B0BD90
:1055A00040F274000C22C2F200000A807047000032
:1055B00080B5B0F802C003789C4509D8002080BDB2
:1055C00082788A4208BF80BD73449AB262452DD268
:1055D00090F800E070444278052A02D182788A422D
:1055E00025D073449AB26245E8D290F800E0704446
:1055F0004278052A02D182788A4218D073449AB23E
:105600006245DBD290F800E070444278052A02D16E
:1056100082788A420BD073449AB26245CED290F817
:1056200000E070444278052ACAD0CDE7002080BD52
:1056300010B5002868D00378B3B100F1020E4FF026
:10564000000C00BF1EF8013C93B19EF800309BB1E6
:105650009EF80130A3B19EF802300CF1040C002B2F
:105660000EF1040EEED10DE04FF0000C0AE000BF89
:105670004CF0010C06E000BF4CF0020C02E000BF51
:105680004CF0030C5FFA8CFC022303EB4C031380F9
:1056900003220B704A7090F800E0BEF1000F33D087
:1056A000841C02224FF0000C1AE000BF101DC0B293
:1056B0000B5440F0010001F800C06378002B08BFD4
:1056C00010BD901DC0B20B5440F0010001F800C0A5
:1056D00094F802E00832BEF1000F04F1040413D084
:1056E000D3B201F803E043F0010301F803C014F85A
:1056F000013C4BB1901CC0B20B5440F0010001F8CA
:1057000000C02378002BD1D110BD0000002804BFB9
:10571000032070470023C0F8B832C0F8C432002913
:10572000C0F8D03218BFC0F8B412012180F89C1222
:10573000027000F0E5B8000080B5D0F8C802FBF7B1
:10574000BDF940F20032C100C0F2013222FA01F18B
:10575000032888BF0321C8B280BD000080B5D0F8FF
:10576000C802FBF783F940F20032C100C0F20132F7
:1057700022FA01F1032888BF0321C8B280BD0000CE
:10578000B0B5044691B194F89C02032851D1D4F8E5
:10579000B8024269002A4CD00020C4F8D402204646
:1057A0009047002808BF0020B0BD00BFD4F8940285
:1057B000022837D1D4E9070188420DD9431A20467F
:1057C00011461A46E361FFF799FD204600210022A9
:1057D000002300F01BF925E010D1A16981420DD30F
:1057E000D4F89802814209D22046002100220025E7
:1057F000FFF784FDC4F89852E7E700BF94F89C02D5
:10580000032808D1D4F8B802C16821B10020C4F837
:10581000D402204688472046802100F09DF920468A
:10582000FFF780FD94F8A00200281CBF002084F838
:10583000A0020020B0BD000010B5044681B194F86C
:105840009C0203281FD1D4F8B8028269DAB1002083
:10585000C4F8D40220469047002808BF002010BD9D
:10586000D4F8940203280ED1D4E9570398420DD9F5
:10587000C01AC4F85C01984238BF0346204611465E
:105880001A46FFF733FD002010BD00BF94F89C02BC
:10589000032808D1D4F8B802016921B10020C4F866
:1058A000D402204688472046FFF756FD002010BD51
:1058B0000020704780B5012180F89C12D0F8B81202
:1058C00031B14A6801799047002818BF032080BD94
:1058D000002080BD80B5D0F8C802FBF723F940F264
:1058E0000032C100C0F2013222FA01F1032888BF60
:1058F0000321C8B280BD0000D0F8C802FBF730B960
:1059000010B5017811B1002010BD00BF40F6900124
:10591000C2F20001C1F80805C0F8C8124FF0A0405B
:105920000622C1E9000202200022C1E90302C1E906
:1059300006020846C1E90822C1E90B22FBF796FEE0
:10594000002818BFFAF706FD40F69004C2F20004E2
:1059500020468021FAF7F2FF204600214022FAF784
:10596000F1FF204601218022FAF7ECFF002010BD54
:105970004AB2D0F8C80201F07F0101EBC10100EB8F
:10598000810000F27E21002A48BF00F13E01087824
:105990007047000080B5D0F8D42200EB8202D2F824
:1059A000B8224AB190F89C32032B02D1126A02B19C
:1059B0009047002080BD00BF032080BD80B5D0F897
:1059C000D42200EB8202D2F8B8224AB190F89C327D
:1059D000032B02D1526A02B19047002080BD00BF64
:1059E000032080BD80B59446D0F8C8021A466346AD
:1059F000FBF7C0F840F20032C100C0F2013222FAD7
:105A000001F1032888BF0321C8B280BD80B5D0F85A
:105A1000C802FBF7E3F840F20032C100C0F20132E5
:105A200022FA01F1032888BF0321C8B280BD00001B
:105A3000F0B581B00126002580F89C62C0F8945230
:105A400004464560D0F8B802C4F8A45284F8A052C5
:105A500058B1426842B120460021904705460028CF
:105A600018BF032501E000BF0025204600210022C9
:105A700040234027FFF7B6FF204680210022402325
:105A8000A4F86461C4F86071FFF7ACFFA6842846EF
:105A9000276201B0F0BD000090F89C12042904BFF9
:105AA00090F89D1280F89C120020704780B590F805
:105AB0009C12032906D1D0F8B81219B1C96900297E
:105AC00018BF8847002080BD02460020117470472F
:105AD00080B5D0F8C802FBF7DBFE40F20032C1000F
