:020000040800F2
:1000000080040020AD010008231100082910000819
:1000100021110008F1020008BD14000800000000D2
:10002000000000000000000000000000971200081F
:10003000F302000800000000FD11000899120008FA
:10004000C7010008C7010008C7010008C701000870
:10005000C7010008C7010008C7010008C701000860
:10006000C7010008C7010008C7010008C701000850
:10007000C7010008C7010008C7010008C701000840
:10008000C7010008C7010008C70100080000000000
:10009000000000000000000000000000C701000890
:1000A000C7010008C7010008C7010008C701000810
:1000B000C7010008C7010008C7010008C701000800
:1000C000C7010008C7010008C7010008C7010008F0
:1000D000C7010008C7010008C701000800000000B0
:1000E000C7010008C7010008C701000800000000A0
:1000F000000000000000000000000000C701000830
:1001000000000000C7010008C7010008C70100087F
:1001100000000000000000000000000000000000DF
:10012000C7010008C7010008C7010008C70100088F
:10013000C7010008000000000000000000000000EF
:10014000000000000000000000000000C7010008DF
:10015000C7010008C7010008C7010008C70100085F
:10016000C7010008C70100080000000000000000EF
:10017000000000000000000000000000000000007F
:1001800000000000C701000800000000000000009F
:10019000C7010008C7010008DFF80CD000F090F894
:1001A000004800478D15000880040020064880475D
:1001B00006480047FEE7FEE7FEE7FEE7FEE7FEE74C
:1001C000FEE7FEE7FEE7FEE73913000899010008A5
:1001D0002DE9F05F0546002092469B46884606467C
:1001E000814640241BE0284641464746224600F00F
:1001F00057F853465A46C01A914110D31146184633
:10020000224600F03EF82D1A67EB01084F462246C1
:100210000120002100F035F817EB00094E41201EA7
:10022000A4F10104DFDC484631462A464346BDE8D6
:10023000F09FD2B201E000F8012B491EFBD27047BB
:100240000022F6E710B513460A4604461946FFF7A2
:10025000F0FF204610BD30B50B460146002020229D
:10026000012409E021FA02F59D4205D303FA02F5C3
:10027000491B04FA02F52844151EA2F10102F1DC23
:1002800030BD202A04DB203A00FA02F1002070473A
:100290009140C2F1200320FA03F3194390407047C4
:1002A000202A04DB203A21FA02F00021704721FACB
:1002B00002F3D040C2F12002914008431946704732
:1002C0001CB509480090094801900546009C06E0CD
:1002D000E06840F0010394E8070098471034AC420E
:1002E000F6D3FFF75DFF0000041A0008241A000887
:1002F000FEE7704772B6FEE72DE9FC4F614A07241E
:100300004FF0010A4FF0000B90425F4A08BF0424EF
:100310008305024443EA9222042A38BF144600941B
:1003200000250022102A08BFBDE8FC8F0F680AFADA
:1003300002F917EA090700F09F80D1F804C00323EF
:1003400003FA0BF60CF0030E6FEA0608AEF1010695
:10035000012E13D88668D1F80CA00AFA0BF406EA2D
:1003600008064FF0010A34438460CCF30014466859
:10037000944026EA09063443446005E0BEF1030FC9
:1003800002D14FF0030E21E0C4688E6804EA08042D
:1003900006FA0BF63443BEF1020FC46016D105F025
:1003A0001C040F2303FA04FC6FF0030303EA520357
:1003B00003441E6A26EA0C0C0E6906FA04F444EAA9
:1003C0000C041C62D1F804C00CF0030E04680EFA91
:1003D0000BF304EA080423431CF4403F03604BD0B2
:1003E00000232C4CA84622F003060193236843F413
:1003F0008043236023680F2403F48043019305F0B6
:100400000C03224D9C40AC462E44019D224DAE462D
:10041000755925EA0404009D05FA03F3234346F8C1
:100420000E30DCF808304D6843EA0704EE0258BF8E
:1004300023EA0704164BCCF80840AE029E461B6820
:1004400043EA070458BF23EA0704CEF80040AE038E
:10045000DCF8043043EA070458BF23EA0704CCF869
:100460000440ED03DCF80030454643EA070458BF7A
:1004700023EA0704CCF800400BF1020B04350132EB
:1004800050E700BF001002400000FEBF003C0140EA
:100490000C3C01404438024008FCFFFF0069084062
:1004A00018BF01207047426902EA0103914341EA03
:1004B000034181617047002A08BF090481617047C8
:1004C00005480068704700BF1F48034900780A6864
:1004D00010440860704700BF7C00002080B50B48C6
:1004E000016841F400710160016841F480610160BC
:1004F000016841F480710160032000F069F80F2069
:1005000000F006F800F022F8002080BD003C024018
:1005100070B50D4E04464FF47A713078B1FBF0F0AF
:10052000C9490968B1FBF0F000F0CEFC01250F2CA1
:1005300008D838B94FF0FF3021460022002500F0DE
:1005400021F87460284670BD0400002082B00020AD
:100550000B4901904A6842F480424A604A6802F4BA
:1005600080420192019A0090086840F08050086033
:10057000086800F080500090009802B0704700BFFB
:1005800040380240F0B5184B4FF0FF361C68C4F3FA
:100590000224E51E84F0070438BF002506FA05F79B
:1005A000BA43042C28BF042406FA04F4A14300F043
:1005B0000F04A940043C1143044A234409010244A6
:1005C000002848BF03F10C021170F0BD00E400E008
:1005D00005494FF6FF030A681A4060F30A220348F0
:1005E00010430860704700BF0CED00E00000FA0502
:1005F000F8B50446006810F0050F1ED03E4F0020ED
:10060000844E3860FFF75CFF05463068000105D571
:10061000FFF756FF401B0228F7D92CE0221D07CA1E
:1006200000F08CFD05463068000105D4FFF748FF57
:10063000401B0228F7D91EE02068810745D500201D
:10064000744E2E4F0090306C40F080503064306C0F
:1006500000F0805000900098386840F48070386056
:10066000FFF72EFF05463868C00506D4FFF728FFC0
:10067000401B0228F7D90320F8BD306F10F44070FA
:1006800010D0216901F4407188420BD0306F1C49B1
:1006900001220A60002220F440700A603067306F47
:1006A000C0071AD120682169164AB3680A4001F4CC
:1006B000407523F4F8136FF31F31B5F5407F08BF81
:1006C0001343B360326F11433167000703D5207DB8
:1006D0000B49C1F8A0030020F8BDFFF7F1FE054665
:1006E00041F28837306F8007DCD4FFF7E9FE411B09
:1006F0000320B942F6D9EFE7680047420070004096
:10070000400E4742FFFCFF0F002852D02DE9F04178
:10071000404B04468846D3F8000400F007008842A6
:1007200004D283F8008400F003FD4BD120688107D8
:1007300011D5410703D5996841F4E051996001074B
:1007400003D5996841F460419960A1689A6822F0E4
:10075000F00211439960C0072DD100F0E9FC04D9E3
:1007600083F8008400F0E4FC2CD12068410705D513
:10077000E1689A6822F4E05211439960000706D5B7
:100780002069996821F4604141EAC00098601C46E4
:1007900000F060F8A168204AC1F30311515CC84021
:1007A000294908601D480068FFF7B2FE0020BDE837
:1007B000F081012070476068811E022905D2196806
:1007C000890107D40120BDE8F08101281DD11968F5
:1007D0008903F7D599681D4621F003010843986005
:1007E000FFF76EFE064641F288376068A9682B461F
:1007F00001F00C01B1EB800FAFD0FFF761FE801B61
:10080000B842F2D90320BDE8F08119688907D9D52B
:10081000E0E700BF00380240EA19000808000020A5
:1008200009480A490A4A00680968C1F38221515CF3
:10083000C840704704480549054A00680968C1F383
:100840004231515CC84070470C000020083802401B
:10085000FA19000810B5134C606800F00C0112483A
:10086000082903D004291CD1104810BD2168236831
:1008700001F03F0221685B02C1F3881105D4A1FB9E
:1008800000010023FFF7A4FC03E008484843B0FB45
:10089000F2F021680222C1F3014102EB4101B0FBF9
:1008A000F1F010BD043802400024F40000127A0078
:1008B000002864D02DE9FC4104460078C54EC007ED
:1008C0000CD0B06800F00C00042840F09080306834
:1008D000800303D56068002800F0A180207880079D
:1008E00019D5B06810F00C0F07D000F04AFC40F0AA
:1008F00099807068400200F195803068800703D5C8
:10090000E068012840F08B802069316821F0F8010F
:1009100041EAC00030602078000732D420784007D8
:1009200042D4A76947B300F02CFC40F0AC80012F03
:1009300075D0E169706800F480028A426FD1216A43
:1009400000F03F028A426AD147F6C071626A0140F4
:10095000B1EB821F63D1A16A4FF6FF72C9039143C5
:1009600000F44032A1F580318A4258D1E16A00F0AA
:100970007060B0EB016F52D10020BDE8FC81012016
:1009800070476169944800296DD00121C0F8801E2C
:10099000FFF796FD0546706F8007BFD4FFF790FD07
:1009A000401B0228F7D9CCE0306C5FEAC0080AD4BB
:1009B00000200190306C40F080503064306C00F0CA
:1009C000805001900198854F3868C0053DD4386843
:1009D00040F480703860FFF773FD05463868C00545
:1009E00033D4FFF76DFD401B0228F7D9A9E000F0D2
:1009F000C8FB03D1706840023FF569AF6068B0F58D
:100A0000803F07D0B0F5A02F40F08580306840F4DB
:100A100080203060306840F48030306085E0012014
:100A2000BDE8FC81E06800284CD06B4801210160E2
:100A3000FFF746FD0546306880073FF565AFFFF7D5
:100A40003FFD401B0228F6D97BE0A068012805D0B5
:100A5000052848D1306F40F004003067306F40F017
:100A60000100306749E00021C0F8801EFFF728FD33
:100A70000546706F80077FF551AFFFF721FD401BE2
:100A80000228F6D95DE05449002088460866FFF741
:100A900017FD0546022F0AD147463068800153D51D
:100AA000FFF70EFD411B03200229F6D965E73068E8
:100AB00080017FF561AFFFF703FD411B0320022991
:100AC000F5D95AE7444800210160FFF7F9FC0546D3
:100AD000306880077FF51FAFFFF7F2FC411B032052
:100AE0000229F5D949E7316F002821F0010131676A
:100AF000316F21F00401316745D0FFF7E1FC054675
:100B000041F28837306F80074CD4FFF7D9FC401B87
:100B1000B842F7D915E03168002821F480313160FE
:100B2000316821F48021316045D0FFF7C9FC0546CA
:100B3000306880033FF5D2AEFFF7C2FC401B64284B
:100B4000F6D90320BDE8FC811C341FCC0843D9032F
:100B500040EA82104FF6FF72914340EA0460A1F52B
:100B600080310843706001203866FFF7A9FC044615
:100B7000306880013FF500AFFFF7A2FC011B0320A6
:100B80000229F5D9F9E6FFF79BFC054641F28837C3
:100B9000306F800706D5FFF793FC411B0320B94255
:100BA000F6D9EAE6B8F1000F3FF5BBAE306C20F0A5
:100BB00080503064B5E6FFF783FC0546306880035B
:100BC0007FF58CAEFFF77CFC411B03206429F5D92F
:100BD000D3E600BF003802400000474200700040EA
:100BE00070B500684468200C04F03F05C4F304238A
:100BF000C4F34236C8708D704B700E70CAB9220AA9
:100C00001B092D0904F00F0402F00F0243EA8303CD
:100C100045EA850502EB430204EB45044A7000F007
:100C20000F02C0B28C70000900EB800002EB4000A4
:100C3000C870002070BD70B50068836A4B6003699E
:100C40006FF3DF338B600468C4F3805004F07F05DA
:100C5000C4F30623C870C4F305408D704B70087050
:100C6000CAB9220A1B092D090009260C04F00F0439
:100C700002F00F0203EB830305EB850540EA8000D9
:100C800002EB430204EB45044A7006F00F028C703D
:100C900002EB40000870002070BD000068B370B522
:100CA0000446407F20B900202077204600F038F825
:100CB000022060772068C168C9062BD4CA2100F0E1
:100CC00031FAA8B994E80F00144E85683540856064
:100CD0002569294365692943856829438160036142
:100CE000016941EA02410161204600F0C0FA30B1D9
:100CF0002068FF214162012070BD012070472068FB
:100D0000A169026C22F480220264026C1143016426
:100D1000FF21416201206077002070BDBFFF8FFF7F
:100D200010B586B00446684614210430FFF788FAEF
:100D30002068EB4988420DD14FF480700490022066
:100D400000906846FFF754FC08B1FFF7D3FA024859
:100D50000121016006B010BD3C0E47422DE9F04173
:100D600000F017FA3ED06077012020774AB1697809
:100D7000EB782878AA780902460341EA03418D18E6
:100D800016E06E78DFF80881F00642BF06F0EF004B
:100D900000F10A066E70E878C04707463046C04743
:100DA000000240EA0746A878C04706442878450371
:100DB0002068CA2100F0B6F908B101200DE045EA2B
:100DC0000600216820F0C0004860204600F04FFA7D
:100DD0000146012009B9607700200021FF22217718
:100DE00021684A62BDE8F0812DE9F84300F0D1F9AD
:100DF0004BD000F0FCF90ED0400659BF0026EE7033
:100E0000E878860569782878AA78090241EA0040DE
:100E100000EB020812E0400659BF4FF0000885F8C9
:100E20000380E8784FEA8058DFF864902878C84754
:100E300006466878C84700F0C1F90644CA207862BF
:100E400053207862204600F0EBF908B1012017E04A
:100E5000104948EA0600084021680860886820F4C4
:100E600080208860D5E9030210438A6810438860B7
:100E7000204600F0FCF90146012009B96077002006
:100E80000021FF22217721684A62BDE8F88300BF74
:100E9000FF1100087F7F7F00B0B504460068094954
:100EA000C160FFF70DFB05462068C068800644BF9F
:100EB0000020B0BDFFF704FB00F071F984BF0320F0
:100EC000B0BDF1E75F3F0100411E0020B0EB116FA4
:100ED0001CBF01207047044AF023516003490B7086
:100EE000072190601160704710E000E023ED00E002
:100EF00090B110B5044690F8410008B900F071F9BE
:100F000000F051F92068016921F4904101614169C3
:100F100021F02A0100F057B90120704701687F488D
:100F2000814200D07047FEB50021524A00F5704062
:100F30000191536943F010035361536903F01003A7
:100F40000193019B0091136843F001031360126841
:100F500002F001020092072205920322CDE903125A
:100F6000022102914FF4C0610191009901A9FFF79C
:100F7000C3F906B0BDE88040704700BF2DE9F843D3
:100F8000044690F8410020281CBF0220BDE8F883E9
:100F90008846B1B11746A2B100201D4660642120E9
:100FA00084F84100FFF78CFAE7840646A784A0681E
:100FB000B0F5805F01D1206930B14FF0000947469C
:100FC00004E00120BDE8F8830027C146E08CB8B1F9
:100FD0002046802132462B4600F03CFAF0B927B17A
:100FE00017F8010B2168486006E039F8021B2068F9
:100FF00000276FF35F214160E08C0138E084E5E772
:101000002046402132462B4600F024FA202184F865
:101010004110002818BF0320BDE8F883202084F881
:1010200041000320BDE8F883FEE7000083B0002103
:1010300010480291026842F004020260026802F065
:1010400004020292029A0191026842F08002026058
:10105000026802F080020192019A0091016841F059
:1010600001010160006800F001000090009803B0E9
:10107000704700BF3038024010B586B01748184B93
:101080000024FF217F22CDE90244CDE90044C0E9DC
:101090000034C0E90221C0E904448461FFF7FEFD89
:1010A00008B1FFF727F90D48CDE904448DF8064053
:1010B000ADF8044001A90122FFF796FE08B1FFF741
:1010C00019F908486946012200900448FFF746FED6
:1010D00008B1FFF70FF906B010BD00BF10000020E7
:1010E000002800400408102310B50B480B4C0021C9
:1010F0000C224FF4E133C0E90043C0E90211C0E91A
:101100000412C0E90611FFF7F3FE18B1BDE8104064
:10111000FFF7F0B810BD00BF300000200010014004
:10112000FEE7FEE7416253214162204600F078B8B5
:10113000D3F8000400F007004045704740EA8110F2
:1011400040EA0270C6F8840001203860FFF7B8B9A1
:101150000138B0FA80F0400980BD016851E8051FF0
:10116000026821F0010142E80513002B7047016875
:1011700051E8031F026821F0100142E80313002B1D
:101180007047B06800F00C0008287047204600F057
:10119000DBB80D46017F0446022001297047401B41
:1011A000B0F57A7F7047242084F841002068C16838
:1011B00021F40051C160204600F0E8B8000240EA86
:1011C0000646A87848474161C16841F40051C160B2
:1011D00000202021606484F8411084F8421060638C
:1011E00010BD002084F840002046FFF797BE6077CE
:1011F000012027682077002AB868704770470928BF
:10120000014698BF09210A22B1FBF2F202EB8203E8
:10121000A1EB4303591A084440EA0210C0B27047D8
:101220002DE9F04104460068C16849061BD4C16835
:101230000026012741F08001C160FFF741F9054612
:101240004FF004082168F843C96840EA9110C007CC
:101250000AD1FFF735F9FFF7A2FFF3D984F81D8013
:1012600001260027EEE70026F0B2BDE8F08110B5B8
:1012700004460068C16821F08001C1608068800672
:1012800007D42046FFF708FE18B10420607701203C
:1012900010BD002010BD7047FFF716B9B0B592B071
:1012A000002414210B94CDE9094401A8FEF7C8FFDE
:1012B0001F4800940225016841F0805101600068D8
:1012C00000F080500090009800941A48016841F4A2
:1012D000404101606421006800F440400090042017
:1012E00010951190CDE90E014FF48000CDE90C501E
:1012F000012008904FF48030079005200690009858
:1013000006A8FFF7D5FA08B172B6FEE74FF4805091
:101310000594CDE90254032104900F20019001A807
:10132000FFF7F2F908B172B6FEE712B0B0BD00BF28
:1013300040380240007000400248016841F47001EA
:101340000160704788ED00E0016851E8031F026802
:1013500021F4907142E80313002BF5D14DF808ED0C
:10136000FFF7FBFE5DF808EBF8D1016B012906D110
:101370004DF808EDFFF7FBFE5DF808EBF8D12021F2
:1013800080F842100021016370470000B0B50446A8
:10139000006804F108030ECB056925F44055194394
:1013A0002A4349F20C650261C26863691943E36923
:1013B000AA4319431143C1604169A26921F44071F4
:1013C00011434161214940F48060884202D1FFF716
:1013D00031FA01E0FFF724FAE26919216368A0FB02
:1013E0000101B2F5004F17D15A00DB0FFEF7F0FEF6
:1013F000174B6421B0FBF1F203F1805302FB0300B1
:10140000322303EBC000B0FBF1F04FF4F87101EAB6
:10141000400100F0070012E09A009B0FFEF7D8FE93
:1014200064210B4BB0FBF1F202FB0300322303EB10
:101430000010B0FBF1F000F0F00100F00F0001EB44
:101440000211084421688860B0BD00BF001401404B
:101450009CFFFF0F2DE9FC41044600681D469046A5
:101460000F465E1C01683940B94224D0002EF9D0E5
:10147000FFF726F8A0EB08010320A94219D8C5B14F
:101480002068C1684907EDD5402FEBD0802FE9D007
:1014900001680907E6D500250195016801914068BA
:1014A00001900198FFF772FE082084F840506064B4
:1014B0000120BDE8FC810020BDE8FC81FEE70000C2
:1014C00080B511484FF40051FEF7E8FFFFF740BE2A
:1014D000FEB500201E49CDE9040000900A6842F0E4
:1014E00004020A60096801F0040100910221CDE9BB
:1014F00002014FF400500190009801A90248FEF744
:10150000FBFE06B080BD00BF0008024070B586B08B
:1015100000250F48154C002204260595009501680A
:1015200041F0020101600421006800F00200009017
:1015300000982046FEF7BFFF0120CDE90355CDE915
:10154000016001A92046FEF7D7FE06B070BD00BFBE
:101550003038024002460028044818BF0122042106
:10156000FEF7A9BF01480421FEF79DBF0004024019
:10157000E0B50190044801A901224FF6FF73FFF77F
:10158000FDFC01988CBD00BF300000208AB0FEF742
:10159000A5FFFFF783FEFFF749FDFFF76DFDFFF79E
:1015A000A3FDFFF795FFFFF7B1FFFEF789FF00F1FD
:1015B000C806FEF785FF214CDFF884B00DF1100955
:1015C0000DF1240A0FF27C08FEF77AFF0746FFF7B9
:1015D00077FF30B1B742F7D307F1C806FFF7C2FF74
:1015E000F2E7B742F0D32046494600220025FFF734
:1015F00022FB204651460022FFF7F2FA9BF800102A
:101600009DF81200814212D09DF825209DF82630C9
:101610009DF827109DF810509DF811608BF8000080
:1016200002904046CDE9005600F01EF801252846FC
:1016300007F13206FFF78EFFC6E700BF100000205B
:10164000780000203230253032642E253032642E6E
:101650002530326420253032643A2530326420252A
:101660003032640D0A0000000FB4054B10B503A919
:10167000044A029800F018F810BC5DF814FB000052
:10168000711500080000002002E008C8121F08C100
:10169000002AFAD170477047002001E001C1121FF3
:1016A000002AFBD1704700002DE9FF4F8BB0884620
:1016B0000546002606E025280BD0DDE90D129047EF
:1016C0006D1C761C28780028F5D10FB03046BDE897
:1016D000F08F0024A146A2460122AE4900E0044357
:1016E00015F8013F203B02FA03F00842F7D12878B1
:1016F0002A2810D06FF02F022878A0F13001092994
:1017000015D809EB890102EB410144F0020400EB1A
:1017100001096D1CF0E758F8041B5FEA010903D5C5
:1017200044F40054C9F1000944F002046D1C287807
:101730002E2817D115F8010F44F004042A280ED0E2
:101740006FF02F022878A0F1300109290AD80AEB9E
:101750008A0102EB410100EB010A6D1CF2E758F827
:1017600004AB6D1C28786C280FD006DC4C2817D0F1
:1017700068280DD06A2814D104E0742810D07A2883
:101780000FD10DE044F400140AE044F4801401E0A9
:1017900044F440146978814202D104F580146D1C30
:1017A0006D1C2878692865D006DC00288DD0632858
:1017B00027D0642806D15DE06E2808D073282AD08F
:1017C000752877D0DDE90D129047761CE0E0C4F370
:1017D0000250022809D003280DD0D8F800100428A0
:1017E0000DD00E6008F10408D2E0D8F80010F2170E
:1017F000C1E90062F6E7D8F800100E80F2E70E703B
:10180000F0E718F8041B8DF8001000208DF8010097
:10181000EB46012003E058F804BB4FF0FF306107AE
:101820004FF0000701D40AE07F1C57450DDA8742CC
:10183000FADB1BF807100029F6D106E07F1C87426F
:10184000FCDB1BF807100029F8D1DDE90D23A9EB1B
:1018500007008146214600F0B1F83044C61904E083
:10186000DDE90D121BF8010B90477F1EF8D22146CF
:10187000484688E058F8040BC4F302514FF00A0BB5
:10188000032900D100B2042900D140B2002802DAB5
:1018900040422D2102E0210505D52B218DF8241091
:1018A000012104E006E0E10710D02021F6E708AFAF
:1018B000089113E058F8040BC4F302514FF00A0BDF
:1018C000032900D180B2042900D1C0B20021EEE783
:1018D0005946FEF7C0FC303107F8011D0028F7D14A
:1018E000ADEB070000F1200B600702D524F4803433
:1018F00001E04FF0010ADA4502DDAAEB0B0000E03F
:101900000020824600EB0B0108980144A9EB01007E
:101910000A90E00306D4DDE90D2321460A9800F081
:101920004DF806444FF0000908E009A911F8090034
:10193000DDE90D12904709F10109761C08998945E6
:10194000F3DBE0030CD5DDE90D2321460A9800F016
:1019500035F8064404E0DDE90D1230209047761C8E
:10196000BAF10001AAF1010AF5DC05E0DDE90D128A
:1019700017F8010B9047761CBBF10001ABF1010B8E
:10198000F4DC0A982146DDE90D2300F005F8064451
:101990006D1C97E6092801002DE9F0410446002559
:1019A0001E461746880404D405E039462020B04777
:1019B0006D1C641EF9D52846BDE8F0812DE9F04183
:1019C000044600251E469046C80301D5302700E096
:1019D0002027880404D505E041463846B0476D1CF1
:1019E000641EF9D52846BDE8F08100000000000023
:1019F00000000102030406070809000000000102BC
:101A000003040000281A0008000000201000000055
:101A100088160008381A0008100000207004000022
:101A200098160008000000000000000001000000FF
:081A3000100000000024F40086
:040000050800019955
:00000001FF
