:020000040800F2
:10000000800400209D0100085B11000861100008B9
:1000100059110008D50200086F1400080000000004
:100020000000000000000000000000008D12000829
:10003000D702000800000000151200088F12000807
:10004000B7010008B7010008B7010008B7010008B0
:10005000B7010008B7010008B7010008B7010008A0
:10006000B7010008B7010008B7010008B701000890
:10007000B7010008B7010008B7010008B701000880
:10008000B7010008B7010008B7010008B701000870
:10009000B7010008B7010008B7010008B701000860
:1000A000B7010008B7010008B7010008B701000850
:1000B000B7010008B7010008B7010008B701000840
:1000C000B7010008B7010008B7010008B701000830
:1000D000B7010008B7010008B7010008B701000820
:1000E000B7010008B7010008B7010008B701000810
:1000F000B7010008B7010008B7010008B701000800
:10010000B7010008B7010008B7010008B7010008EF
:10011000B7010008B7010008B7010008B7010008DF
:10012000B7010008B7010008B7010008B7010008CF
:10013000B70100080000000000000000B70100083F
:10014000B7010008B7010008B7010008B7010008AF
:10015000B7010008B7010008B7010008B70100089F
:10016000B7010008B7010008B7010008B70100088F
:10017000B7010008B70100080000000000000000FF
:10018000B7010008B7010008DFF80CD000F090F8C4
:10019000004800473D1500088004002006488047BD
:1001A00006480047FEE7FEE7FEE7FEE7FEE7FEE75C
:1001B000FEE7FEE7FEE7FEE73D13000889010008C1
:1001C0002DE9F05F0546002092469B46884606468C
:1001D000814640241BE0284641464746224600F01F
:1001E00057F853465A46C01A914110D31146184643
:1001F000224600F03EF82D1A67EB01084F462246D2
:100200000120002100F035F817EB00094E41201EB7
:10021000A4F10104DFDC484631462A464346BDE8E6
:10022000F09FD2B201E000F8012B491EFBD27047CB
:100230000022F6E710B513460A4604461946FFF7B2
:10024000F0FF204610BD30B50B46014600202022AD
:10025000012409E021FA02F59D4205D303FA02F5D3
:10026000491B04FA02F52844151EA2F10102F1DC33
:1002700030BD202A04DB203A00FA02F1002070474A
:100280009140C2F1200320FA03F3194390407047D4
:10029000202A04DB203A21FA02F00021704721FADB
:1002A00002F3D040C2F12002914008431946704742
:1002B000064C074D06E0E06840F0010394E80700B3
:1002C00098471034AC42F6D3FFF762FFB419000828
:1002D000D4190008FEE77047EFF3108072B6FEE70E
:1002E0002DE9FC4F5D4A08244FF0010B4FF0000947
:1002F0004FF0000A90425A4A08BF072402444FEACE
:10030000B223072B38BF4FEAB22400940022102AF0
:1003100008BFBDE8FC8F0F680BFA02F6374200F009
:100320009780D1F80480032303FA0AF708F0030C3E
:10033000FF43ACF1010EBEF1010F0ED88468CD6809
:100340003C4005FA0AF52C438460C8F30014456864
:100350009440B5432C43446005E0BCF1030F02D147
:100360004FF0030C20E0C4688D683C4005FA0AF5A4
:100370002C43BCF1020FC46016D109F01C0E0F23F0
:1003800003FA0EFC6FF0030303EA520505442C6ADE
:1003900024EA0C0C0C6904FA0EF444EA0C042C62F6
:1003A000D1F8048008F0030C05680CFA0AF43D400B
:1003B0002C4318F4403F04604AD0002322F0030786
:1003C00001932A4B1C6844F480441C601C680F2372
:1003D00004F48044019409F00C0403FA04FC214B5A
:1003E000019D9E461F44224BFD589846009B25EADE
:1003F0000C0503FA04F42C4347F80840DEF80840E3
:100400004F68FB0244EA0605174B58BF24EA06056D
:10041000CEF80850BD029C461B6843EA060458BF4C
:1004200023EA0604CCF80040BD03DEF8043043EABA
:10043000060458BF23EA0604CEF80440FD03DEF8A4
:10044000003043EA060458BF23EA0604CEF8004011
:1004500009F104090AF1020A013258E7001C0240BE
:100460000000FEBF003C01400C3C0140443802400B
:1004700008FCFFFF0069084018BF0120704742696F
:1004800002EA0103914341EA034181617047002A76
:1004900008BF09048161704705480068704700BFC4
:1004A0001F48034900780A6810440860704700BF7D
:1004B0007800002080B50B48016841F400710160AC
:1004C000016841F480610160016841F4807101605C
:1004D000032000F069F80F2000F006F800F022F881
:1004E000002080BD003C024070B50D4E04464FF424
:1004F0007A713078B1FBF0F0C5490968B1FBF0F0D2
:1005000000F002FD01250F2C08D838B94FF0FF305C
:1005100021460022002500F021F87460284670BDB5
:100520000400002082B000200B4901904A6842F488
:1005300080424A604A6802F480420192019A009027
:10054000086840F080500860086800F08050009013
:10055000009802B0704700BF40380240F0B5184B19
:100560004FF0FF361C68C4F30224E51E84F0070434
:1005700038BF002506FA05F7BA43042C28BF042427
:1005800006FA04F4A14300F00F04A940043C11430F
:10059000044A234409010244002848BF03F10C0225
:1005A0001170F0BD00E400E005494FF6FF030A6852
:1005B0001A4060F30A22034810430860704700BFE6
:1005C0000CED00E00000FA05F8B50446006810F0F4
:1005D000050F1ED03B4F0020804E3860FFF75CFFB8
:1005E00005463068000105D5FFF756FF401B02287D
:1005F000F7D92DE0D4E9010100F0BCFD05463068D3
:10060000000105D4FFF748FF401B0228F7D91FE07F
:10061000206880074FF0000044D5704E00902A4FAC
:10062000306C40F080503064306C00F080500090AE
:100630000098386840F480703860FFF72DFF054659
:100640003868C00506D4FFF727FF401B0228F7D9FA
:100650000320F8BD306F10F4407010D0E16801F451
:10066000407188420BD0306F184901220A60002285
:1006700020F440700A603067306FC00713D1E06823
:100680001349B268014000F4407322F4F8126FF38A
:100690001F30B3F5407F08BF0A43B260316F084393
:1006A00030670020F8BDFFF7F7FE054641F28837B6
:1006B000306F8007E3D4FFF7EFFE411B0320B94200
:1006C000F6D9EFE76800474200700040400E47420D
:1006D000FFFCFF0F2DE9F041002857D03F4B0446A7
:1006E0008846D3F8000400F00700884204D283F85B
:1006F000008400F039FD49D12068810711D54107F8
:1007000003D5996841F4E0519960010703D59968D0
:1007100041F460419960A1689A6822F0F0021143A7
:100720009960C0072BD100F01FFD04D983F8008425
:1007300000F01AFD2AD12068410705D5E1689A68C2
:1007400022F4E05211439960000706D520699968A8
:1007500021F4604141EAC00098601C4600F05EF858
:10076000A1681F4AC1F30311515CC84028490860C1
:100770001C480068FFF7B8FE0020BDE8F081606803
:10078000811E022905D21968890107D40120BDE81C
:10079000F08101281DD119688903F7D599681D4694
:1007A00021F0030108439860FFF776FE064641F208
:1007B00088376068A9682B4601F00C01B1EB800F07
:1007C000B1D0FFF769FE801BB842F2D90320BDE823
:1007D000F08119688907D9D5E0E700BF00380240E9
:1007E0009A1900080800002009480A490A4A0068C6
:1007F0000968C1F38221515CC8407047044805492B
:10080000054A00680968C1F34231515CC84070472D
:100810000C00002008380240AA19000810B5134C3B
:10082000606800F00C011248082903D004291CD18B
:10083000104810BD2168236801F03F0221685B0267
:10084000C1F3881105D4A1FB00010023FFF7B8FC18
:1008500003E008484843B0FBF2F021680222C1F3EC
:10086000014102EB4101B0FBF1F010BD0438024040
:100870000024F40000127A002DE9FC41002860D029
:1008800004460078C34EC0070BD0B06800F00C00DF
:10089000042840F08F803068800302D5606800280B
:1008A0004FD02078800718D5B06810F00C0F07D013
:1008B00000F085FC40F096807068400200F1928064
:1008C0003068800702D5E06801283AD12069316894
:1008D00021F0F80141EAC00030602078000733D4ED
:1008E0002078400743D4A76947B300F068FC40F084
:1008F000AA80012F25D0E169706800F480028A4245
:100900001FD1216A00F03F028A421AD147F6C07116
:10091000626A0140B1EB821F13D1A16A4FF6FF72E8
:10092000C903914300F44032A1F580318A4208D1D5
:10093000E16A00F07060B0EB016F02D10020BDE809
:10094000FC810120BDE8FC816169934800296AD0DF
:100950000121C0F8801EFFF79FFD0546706F8007DC
:10096000BED4FFF799FD401B0228F7D9C9E0306CCF
:1009700010F080580AD100200190306C40F0805077
:100980003064306C00F0805001900198834F3868DB
:10099000C0053AD4386840F480703860FFF77CFDB9
:1009A00005463868C00530D4FFF776FD401B0228A5
:1009B000F7D9A6E000F003FC03D1706840023FF5D0
:1009C0006AAF6068B0F5803F07D0B0F5A02F40F067
:1009D0008280306840F480203060306840F480309D
:1009E000306082E0E06800284CD06B480121016053
:1009F000FFF752FD0546306880073FF567AFFFF708
:100A00004BFD401B0228F6D97BE0A068012805D0E9
:100A1000052848D1306F40F004003067306F40F057
:100A20000100306749E00021C0F8801EFFF734FD67
:100A30000546706F80077FF553AFFFF72DFD401B14
:100A40000228F6D95DE05449002088460866FFF781
:100A500023FD0546022F0AD147463068800153D551
:100A6000FFF71AFD411B03200229F6D967E730681A
:100A700080017FF563AFFFF70FFD411B03200229C3
:100A8000F5D95CE7444800210160FFF705FD054604
:100A9000306880077FF521AFFFF7FEFC411B032084
:100AA0000229F5D94BE7316F002821F001013167A8
:100AB000316F21F00401316745D0FFF7EDFC0546A9
:100AC00041F28837306F80074CD4FFF7E5FC401BBC
:100AD000B842F7D915E03168002821F4803131603F
:100AE000316821F48021316045D0FFF7D5FC0546FF
:100AF000306880033FF5D5AEFFF7CEFC401B64287D
:100B0000F6D90320BDE8FC811C341FCC0843D9036F
:100B100040EA82104FF6FF72914340EA0460A1F56B
:100B200080310843706001203866FFF7B5FC044649
:100B3000306880013FF502AFFFF7AEFC011B0320D8
:100B40000229F5D9FBE6FFF7A7FC054641F28837F5
:100B5000306F800706D5FFF79FFC411B0320B94289
:100B6000F6D9ECE6B8F1000F7FF4BDAE306C20F0A2
:100B700080503064B7E6FFF78FFC0546306880038D
:100B80007FF58FAEFFF788FC411B03206429F5D960
:100B9000D5E600BF00380240000047420070004028
:100BA00070B500684468200C04F03F05C4F30423CA
:100BB000C4F34236C8708D704B700E70CAB9220AE9
:100BC0001B092D0904F00F0402F00F0243EA83030E
:100BD00045EA850502EB430204EB45044A7000F048
:100BE0000F02C0B28C70000900EB800002EB4000E5
:100BF000C870002070BD70B50068836A4B600369DF
:100C00006FF3DF338B600468C4F3805004F07F051A
:100C1000C4F30623C870C4F305408D704B70087090
:100C2000CAB9220A1B092D090009260C04F00F0479
:100C300002F00F0203EB830305EB850540EA800019
:100C400002EB430204EB45044A7006F00F028C707D
:100C500002EB40000870002070BD0000A8B370B522
:100C60000446407F20B900202077204600F032F86B
:100C70000220CA216077206800F070FA08BB94E86F
:100C80000F00134E856835408560256929436569E5
:100C900029438568294381600361016941EA024172
:100CA0000161204600F0DEFA58B92068A169026CA3
:100CB00022F480220264026C1143016401206077F7
:100CC00000202168FF224A6270BD0120704700BFEA
:100CD000BFFF8FFFF8B500210068CDE90111094978
:100CE000884200D08FBD4FF48070039002200090A6
:100CF0006846FFF769FC08B1FFF7EEFA02480121E8
:100D000001608FBD002800403C0E4742F8B5037FCC
:100D100004460220012B5DD060770120207732B19C
:100D20004878CA788E78000240EA024534E0487874
:100D300009254FF00A0CC20642BF00F0EF000A304E
:100D40004870CB7809268A78092B88BF1D46B5FBE9
:100D5000FCF5092805EB8507A3EB470343EA0513D8
:100D60004FF0090588BF0546DBB2B5FBFCF505EB86
:100D70008507A0EB470040EA0510C0B20002092A2F
:100D800040EA034588BF1646B6FBFCF000EB800343
:100D9000A2EB430242EA00162068CA2242625322B2
:100DA000426220460F7800F036FA70B9F0B221683E
:100DB000284320F0C00040EA47304860204600F059
:100DC00051FA10B90120607700200021FF2221771D
:100DD00021684A62F8BD00002DE9F0410D46017F0F
:100DE00004460220012973D0607701202077206813
:100DF000816801F040012AB151B94FF0000885F82F
:100E0000038008E071B94FF0000885F803800CE01A
:100E1000E9784FEA81586A782978AE78120242EA76
:100E2000014733E0E9784FEA8158297809260927F4
:100E30006A7895F802E04FF00A0C092988BF0F463E
:100E4000B7FBFCF7092A07EB8703A1EB43014FF03F
:100E5000090388BF134641EA0711B3FBFCF3C9B28B
:100E600003EB8307A2EB470242EA0312D2B212025B
:100E7000BEF1090F42EA014788BF7646B6FBFCF196
:100E800001EB8102AEEB420242EA0116CA2100F0F8
:100E900065F9C0B9F0B20F49384340EA080008408C
:100EA00021680860886820F480208860D5E9030202
:100EB00010438A6810438860204600F0D3F910B9C7
:100EC0000120607700200021FF22217721684A62FB
:100ED000BDE8F0817F7F7F00B0B504460068C1683F
:100EE00021F0A001C160FFF7D7FA05462068C0686D
:100EF000800644BF0020B0BDFFF7CEFA00F064F9D1
:100F000084BF0320B0BDF1E7411E0020B0EB116F9C
:100F10001CBF01207047044AF023516003490B7045
:100F2000072190601160704710E000E023ED00E0C1
:100F300090B110B5044690F83D0008B900F057F99B
:100F400000F046F92068016921F49041016141698E
:100F500021F02A0100F051B901207047FEB5016867
:100F60007C48814224D10021504A00F57040019113
:100F7000536943F010035361536903F01003019365
:100F8000019B0091136843F001031360126802F0A3
:100F900001020092072205920322CDE903120221E9
:100FA00002914FF4C0610191009901A9FFF798F9EE
:100FB00006B080BD2DE9F843044690F83D00202896
:100FC00006D10D4639B116462AB100F0EFF805D129
:100FD0000220BDE8F8830120BDE8F883002099468F
:100FE0002064012084F83C00212084F83D00FFF7B4
:100FF00053FAE6848046A684A068B0F5805F01D1EC
:10100000206910B100262F4601E000272E4600205F
:1010100084F83C00E08CA8B12046802100F0C2F8A2
:10102000A8B927B117F8010B2168486006E036F827
:10103000021B206800276FF35F214160E08C0138BC
:10104000E084E7E72046402100F0ACF810B103202F
:10105000BDE8F883202084F83D000020BDE8F88337
:10106000FEE7000083B0002110480291026842F0C0
:1010700004020260026802F004020292029A0191E4
:10108000026842F080020260026802F0800201926F
:10109000019A0091016841F001010160006800F0CF
:1010A00001000090009803B0704700BF3038024044
:1010B00010B586B01748184B0024FF217F22CDE9D8
:1010C0000244CDE90044C0E90034C0E90221C0E98E
:1010D00004448461FFF7C2FD08B1FFF7FDF80D4835
:1010E000CDE904448DF80640ADF8044001A9012281
:1010F000FFF772FE08B1FFF7EFF8084869460122D2
:1011000000900448FFF702FE08B1FFF7E5F806B0CB
:1011100010BD00BF10000020002800400108072378
:1011200010B50B480B4C00210C224FF4E133C0E901
:101130000043C0E90211C0E90412C0E90611FFF73B
:10114000F7FE18B1BDE81040FFF7C6B810BD00BFEC
:101150003000002000100140FEE7FEE7416253210D
:101160004162204600F057B8D3F8000400F00700B1
:1011700040457047090741EA8010C6F88400012005
:101180003860FFF789B9206850E8050F216820F022
:10119000010041E80502002A70470138B0FA80F0EA
:1011A000400980BD42464B4600F034B994F83C00FB
:1011B00001287047206850E8030F21687047B06825
:1011C00000F00C0008287047401BB0F57A7F70478C
:1011D000242084F83D002068C16821F40051C160DA
:1011E000204600F0B3B841E80302002A704700200F
:1011F00084F83C002046FFF7B1BE4161C16841F46C
:101200000051C16000202021206484F83D1084F842
:101210003E1010BD70472DE9F04104460068C168DA
:1012200049061BD4C1680026012741F08001C16036
:10123000FFF732F905464FF004082168F843C96802
:1012400040EA9110C0070AD1FFF726F9FFF7BCFF6B
:10125000F3D984F81D8001260027EEE70026F0B2BE
:10126000BDE8F08110B504460068C16821F0800136
:10127000C1608068800607D42046FFF72DFE18B1B4
:1012800004206077012010BD002010BD7047FFF7DB
:1012900007B90000B0B592B0002414210B94CDE939
:1012A000094401A8FEF7C4FF224800940225016802
:1012B00041F080510160006800F08050009000987B
:1012C00000941D48016841F480410160A821006834
:1012D00000F480400090042010951190CDE90E019B
:1012E0004FF48000CDE90C50012008904FF480307D
:1012F000079005200690009806A8FFF7BDFA18B1E0
:10130000EFF3108072B6FEE74FF48050CDE902543F
:10131000052105904FF4A05004900F20019001A8E2
:10132000FFF7D8F918B1EFF3108072B6FEE712B0EC
:10133000B0BD00BF40380240007000400248016864
:1013400041F470010160704788ED00E0B0B50446DB
:10135000006804F108030ECB056925F440551943D4
:101360002A4349F20C650261C26863691943E36963
:10137000AA4319431143C1604169A26921F4407134
:1013800011434161214940F48060884202D1FFF756
:1013900035FA01E0FFF728FAE26919216368A0FB3A
:1013A0000101B2F5004F17D15A00DB0FFEF708FF1D
:1013B000174B6421B0FBF1F203F1805302FB0300F1
:1013C000322303EBC000B0FBF1F04FF4F87101EAF7
:1013D000400100F0070012E09A009B0FFEF7F0FEBC
:1013E00064210B4BB0FBF1F202FB0300322303EB51
:1013F0000010B0FBF1F000F0F00100F00F0001EB85
:101400000211084421688860B0BD00BF001401408B
:101410009CFFFF0F2DE9F0411D4690460F46044604
:101420005E1C206800683840B8421DD0002EF8D0FD
:101430002DB1FFF731F8A0EB0800A842F1D9FFF772
:10144000B9FE20F4D070FFF7CEFEF8D1FFF79BFE77
:10145000FCD12020002184F83D0084F83C1084F861
:101460003E000320BDE8F0810020BDE8F081FEE7EA
:1014700080B511484FF40051FEF7FCFFFFF78DBE19
:10148000FEB500201E49CDE9040000900A6842F034
:1014900004020A60096801F0040100910221CDE90B
:1014A00002014FF400500190009801A90248FEF794
:1014B00017FF06B080BD00BF0008024070B586B0BF
:1014C00000250F48154C002204260595009501685B
:1014D00041F0020101600421006800F00200009068
:1014E00000982046FEF7D3FF0120CDE90355CDE952
:1014F000016001A92046FEF7F3FE06B070BD00BFF3
:101500003038024002460028044818BF0122042156
:10151000FEF7BDBF01480421FEF7B1BF0004024041
:10152000E0B50190044801A901224FF6FF73FFF7CF
:1015300041FD01988CBD00BF300000208AB0FEF74D
:10154000B9FFFFF7A7FEFFF78DFDFFF7B1FDFFF72E
:10155000E7FDFFF795FFFFF7B1FFFEF79DFF00F1F5
:10156000C806FEF799FF214CDFF884B00DF1100991
:101570000DF1240A0FF27C08FEF78EFF0746FFF7F5
:1015800077FF30B1B742F7D307F1C806FFF7C2FFC4
:10159000F2E7B742F0D32046494600220025FFF784
:1015A0002AFB204651460022FFF7FAFA9BF800106A
:1015B0009DF81200814212D09DF825209DF826301A
:1015C0009DF827109DF810509DF811608BF80000D1
:1015D00002904046CDE9005600F01EF8012528464D
:1015E00007F13206FFF78EFFC6E700BF10000020AC
:1015F000740000203230253032642E253032642EC3
:101600002530326420253032643A2530326420257A
:101610003032640D0A0000000FB4054B10B503A969
:10162000044A029800F018F810BC5DF814FB0000A2
:10163000211500080000002002E008C8121F08C1A0
:10164000002AFAD170477047002001E001C1121F43
:10165000002AFBD1704700002DE9FF4F8BB0884670
:101660000546002606E025280BD0DDE90D1290473F
:101670006D1C761C28780028F5D10FB03046BDE8E7
:10168000F08F0024A146A2460122AE4900E00443A7
:1016900015F8013F203B02FA03F00842F7D1287801
:1016A0002A2810D06FF02F022878A0F130010929E4
:1016B00015D809EB890102EB410144F0020400EB6B
:1016C00001096D1CF0E758F8041B5FEA010903D516
:1016D00044F40054C9F1000944F002046D1C287858
:1016E0002E2817D115F8010F44F004042A280ED033
:1016F0006FF02F022878A0F1300109290AD80AEBEF
:101700008A0102EB410100EB010A6D1CF2E758F877
:1017100004AB6D1C28786C280FD006DC4C2817D041
:1017200068280DD06A2814D104E0742810D07A28D3
:101730000FD10DE044F400140AE044F4801401E0F9
:1017400044F440146978814202D104F580146D1C80
:101750006D1C2878692865D006DC00288DD06328A8
:1017600027D0642806D15DE06E2808D073282AD0DF
:10177000752877D0DDE90D129047761CE0E0C4F3C0
:101780000250022809D003280DD0D8F800100428F0
:101790000DD00E6008F10408D2E0D8F80010F2175E
:1017A000C1E90062F6E7D8F800100E80F2E70E708B
:1017B000F0E718F8041B8DF8001000208DF80100E8
:1017C000EB46012003E058F804BB4FF0FF306107FF
:1017D0004FF0000701D40AE07F1C57450DDA87421D
:1017E000FADB1BF807100029F6D106E07F1C8742C0
:1017F000FCDB1BF807100029F8D1DDE90D23A9EB6C
:1018000007008146214600F0B1F83044C61904E0D3
:10181000DDE90D121BF8010B90477F1EF8D221461F
:10182000484688E058F8040BC4F302514FF00A0B05
:10183000032900D100B2042900D140B2002802DA05
:1018400040422D2102E0210505D52B218DF82410E1
:10185000012104E006E0E10710D02021F6E708AFFF
:10186000089113E058F8040BC4F302514FF00A0B2F
:10187000032900D180B2042900D1C0B20021EEE7D3
:101880005946FEF7E0FC303107F8011D0028F7D17A
:10189000ADEB070000F1200B600702D524F4803483
:1018A00001E04FF0010ADA4502DDAAEB0B0000E08F
:1018B0000020824600EB0B0108980144A9EB0100CF
:1018C0000A90E00306D4DDE90D2321460A9800F0D2
:1018D0004DF806444FF0000908E009A911F8090085
:1018E000DDE90D12904709F10109761C0899894537
:1018F000F3DBE0030CD5DDE90D2321460A9800F067
:1019000035F8064404E0DDE90D1230209047761CDE
:10191000BAF10001AAF1010AF5DC05E0DDE90D12DA
:1019200017F8010B9047761CBBF10001ABF1010BDE
:10193000F4DC0A982146DDE90D2300F005F80644A1
:101940006D1C97E6092801002DE9F04104460025A9
:101950001E461746880404D405E039462020B047C7
:101960006D1C641EF9D52846BDE8F0812DE9F041D3
:10197000044600251E469046C80301D5302700E0E6
:101980002027880404D505E041463846B0476D1C41
:10199000641EF9D52846BDE8F08100000000000073
:1019A000000001020304060708090000000001020C
:1019B00003040000D81900080000002010000000F7
:1019C00038160008E8190008100000207004000014
:1019D00048160008000000000000000001000000A0
:0819E000100000000024F400D7
:040000050800018965
:00000001FF
