:020000040800F2
:10000000F8BF03201901020853E5040841E504087C
:1000100055E5040861E504086DE5040800000000EA
:1000200000000000000000000000000079E5040866
:100030007BE5040800000000D5F404080DF5040871
:100040000100020865E6040871E6040879E6040880
:100050008567050801000208F9E50408FFE50408C2
:1000600005E604080BE6040811E60408FD1305087C
:100070000D1405081D1405082D1405083D14050868
:100080004D1405085D14050801000208010002086E
:10009000A5340508AD340508B534050817E604088D
:1000A0008DE6040893E60408A5E60408ABE6040818
:1000B000B1E60408B7E60408BDE604081FE7040833
:1000C00025E704082BE7040831E7040801000208CB
:1000D0000100020807E704080DE7040813E7040815
:1000E0003BE604086BE6040889E50408E3E6040837
:1000F000E9E6040801E70408FBE604086D140508B6
:1001000000000000B9700508C5E6040801000208F7
:10011000000000000000000001000208DDE6040805
:100120007D1405088D1405089D140508AD140508F7
:10013000BD140508010002080100020801000208C0
:10014000BB340508C3340508CB3405087DE5040835
:10015000CD140508DD140508ED14050819E7040899
:100160000100020801000208000000000000000079
:10017000000000000000000000000000000000007F
:100180000100020801000208000000000000000059
:100190000100020801000208000000000000000049
:1001A000000000000000000000000000000000004F
:1001B0000100020800000000000000000100020829
:1001C00001000208006870470B0A017043700B0CB5
:1001D000090E8370C1707047036A0239023B8B427B
:1001E00083BFC389406B01FB030000207047C2F34B
:1001F00007238A76CB764379032B01BF120C0A754D
:10020000120A4A75704700F10B010022D30143EA3C
:10021000520310F8012B52FA83F38842DAB2F5D177
:100220001046704737B50D46044620B90920002313
:100230002B6003B030BD0368002BF7D05A79002A39
:10024000F4D081885A899142F0D118680DF10702E3
:10025000062102F091FA9DF8073003F001030343F1
:1002600013F0FF00E2D12368E2E72DE9F047002612
:10027000D0F800908E75836907460C46002B00F07D
:100280008C80C36A01336DD1FA690023551E18466C
:100290002E2615F8011F202900F101000CD0052998
:1002A00008BFE521092804D10B2B9EBFE7180133B5
:1002B0007E72E718013379720B28EAD1E118002029
:1002C0004872A17D00295DD1002B52D06FF0080645
:1002D00004F109000825361B331810F8011B00290A
:1002E0004AD02E298BB25AD0A3F14101192903D843
:1002F000117B0D4200D020330373EDE7B8F1000FFE
:1003000005D100F520539BB2B3F5006F13D340F233
:10031000B51140EA084040F0C9FEFF28C5F1FF0AC8
:1003200018D9BAF1010F20D96319020A9A75D87544
:1003300002231D44002002368046D9F81030985B15
:100340000028DBD1B8F1000F18BF00252544002399
:10035000AB7599E748B1BAF1000F08D063199875E9
:100360000123E6E7B0463546E7E70025EAE75546CC
:10037000E8E73F23A3750123234400219975137BEC
:1003800003B96372D37A237202F11C00FFF71AFFDC
:100390002060D38AE380138BA380BDE8F08710250B
:1003A0000B46A9E738B50568044615F8010B20B1DE
:1003B00040F2B51140F09AFE08B1256038BD4FF00B
:1003C000FF30FBE737B5C37904461BB90025284643
:1003D00003B030BD00F13C01826B00680191012344
:1003E00002F0B5F9054680B9E36AE071A06B626A74
:1003F000C31A9342EAD2A3790199022BE6D10244AF
:100400000123206802F0A3F9E1E70125DFE738B511
:10041000836B8B4205460C4610D0FFF7D3FF60B9C3
:1004200022462868012305F13C0102F081F90028E9
:100430001CBF4FF0FF340120AC6338BD0020FCE747
:1004400038B50023C3714FF0FF3383630546FFF7D0
:10045000DEFF044600BBB5F83A224AF655239A421D
:100460001CD195F83C30EB2B03D01833DBB2012BB9
:1004700016D80C49032205F1720043F0A3FE48B1DF
:100480000949052205F18E0043F09CFE003818BF93
:1004900001204400204638BD0424FBE70324F9E78B
:1004A0000224F7E7D05B0608D45B06082DE9F0418B
:1004B000044686B06379006801F0FE058BB1062121
:1004C0000DF1070202F058F99DF80730D90708D45A
:1004D0001DB113F0040500D00A25284606B0BDE87A
:1004E000F081002363710DF107022068052102F0FD
:1004F00043F99DF80730DA0700F1EC800DB15B0796
:10050000EAD400212046FFF79BFF0228034603D0D0
:10051000012824D8257975B302AA04F2022304F233
:100520004221174613F8040C10B11846FFF74AFE93
:100530001033994242F8040BF4D1267906B1013EFA
:1005400057F826507DB129462046FFF779FF03462C
:10055000227952B9012B0ED90136032EF0D9042B82
:1005600007D10125B9E70323F2E7042BF9D0012BCA
:1005700001D90D25B1E7B4F84730B3F5007FF8D1C4
:10058000B4F8527027B904F16000FFF71BFE07466C
:1005900094F84C3067625A1E012AA371E9D894F886
:1005A0004960E681002EE4D0721E3242E1D1B4F8F7
:1005B0004D80A4F80C8018F00F0FDAD1B4F84F007A
:1005C00018B904F15C00FFF7FDFDB4F84A20002AD9
:1005D000CFD007FB03FE02EB181CF4446045C8D3E0
:1005E000A0EB0C01B142B1FBF6F3C2D33E498B4202
:1005F000BFD84FF6F5718B426ED9032650190233DE
:100600000CEB0502032E2362A562E062626350D107
:10061000B4F8662058EA0202ABD104F16800FFF793
:10062000D1FD9B0003F2FF13B7EB532F2063A0D340
:100630004FF0FF33C4E90533032E4FF080032372DC
:100640002BD1B4F86C30012B27D1691C2046FFF761
:10065000DEFE10BBB4F83A2220724AF655239A42C5
:100660001BD104F13C00FFF7ADFD204B984214D1A3
:1006700004F50870FFF7A6FD03F1FF5303F50053DF
:100680002033984209D104F50970FFF79BFDA06162
:1006900004F50A70FFF796FD6061154A66711388CC
:1006A00001339BB2138063810025124B2361E56106
:1006B00013E7B8F1000F3FF45CAF022E4FEA43019D
:1006C0001CBFC91803F0010370440CBF0B4603EBB9
:1006D0005103A7E7032500E740F6F576B3428CBF48
:1006E000022601268AE700BFF5FFFF0F5252614143
:1006F000700300207203002001292DE9F04706460F
:100700000C46174673D9036A8B4270D94379022B82
:100710003FD0032B50D0012B69D101EB5108C16AA6
:1007200001EB5821FFF773FE054638BB06F13C0983
:1007300008F1010AC8F3080814F001041FBF19F8F2
:1007400008203B0103F0F00302F00F0214BF134333
:10075000FBB209F80830F16A0123F37101EB5A2169
:100760003046FFF754FE054640B9CAF3080A44B1C3
:10077000C7F3071709F80A700123F3712846BDE88B
:10078000F08719F80A30C7F3032723F00F031F433C
:10079000F0E7C16A01EB1421FFF739FE0546002896
:1007A000ECD1640006F13C0304F4FF741A191F55E0
:1007B000C7F307275770DFE7C16A01EBD411FFF7D2
:1007C00026FE05460028D9D1A40006F13C0304F416
:1007D000FE7423441846FFF7F5FC27F0704700F03D
:1007E000704047EA00011846FFF7EEFCC4E7022517
:1007F000C4E7F7B505460191FFF7E4FD044600BBE9
:1008000001992846FFF7E8FC05F13C070646A86376
:100810004FF400722146384643F0ACFCEB899C4211
:1008200005D3E889001B18BF012003B0F0BD28687C
:1008300001233219394601F08AFF0028F1D1013431
:10084000ECE70120F1E7F8B50446FFF7BBFD0546EC
:10085000002842D16379032B37D1277A012F34D175
:1008600004F13C0601464FF40072304643F082FC2E
:10087000552384F83A32AA2384F83B32522341228A
:10088000722184F83C3084F83D30612384F83E3096
:1008900084F8233284F83F2084F8201284F821124F
:1008A00084F82222A16904F50970FFF78DFC6169C3
:1008B00004F50A70FFF788FCA26A20680132A2637F
:1008C0003B46314601F043FF257200222068114665
:1008D00001F052FF003818BF0120F8BD03284B8BF0
:1008E00004BF8A8A43EA0243184670470129F8B5D3
:1008F00006460C464ED9036A99424BD24379022BE5
:1009000029D0032B34D0012B44D101EB5105C16A0E
:1009100001EB5521FFF77BFD10B14FF0FF30F8BD23
:100920006F1CF16AC5F30805354401EB57213046C9
:1009300095F83C50FFF76BFD0028EED1C7F3080790
:10094000374497F83C3045EA0320E3074CBF0009E1
:10095000C0F30B00E3E7C16A01EB1421FFF757FD79
:100960000028DAD1640004F4FF743444A08FD6E781
:10097000C16A01EBD411FFF74AFD0028CDD1A400D4
:1009800006F13C0004F4FE742044FFF71BFC20F049
:100990007040C4E70120C2E773B50C46012C05681E
:1009A000064611462CD92B6AA34229D92AB14FF009
:1009B000FF322846FFF7A0FE40B921463068019477
:1009C000FFF794FF0199044610B9002002B070BDF2
:1009D000012815D0431C15D000222846FFF78CFEB5
:1009E0000028F3D12A6AAB69911E8B4205D20133EC
:1009F000AB612B7A43F001032B72A242DDD8E4E70E
:100A00000220E3E70120E1E72DE9F0410568804697
:100A10000F4649B96E69C6B12B6AB34298BF012629
:100A2000AB69A3B9002406E02846FFF75FFF012861
:100A3000044603D801242046BDE8F081421C51D071
:100A40002B6A8342F7D83E46EAE70126E8E7BE4232
:100A50002B6A14D1741CA34298BF0224D8F800005A
:100A60002146FFF743FF0128E4D0431C3AD0D8B118
:100A70006B69012B03D92A6A9A4288BF1E46344605
:100A80002B6A0134A34202D8012ECBD00224D8F81D
:100A900000002146FFF72AFF40B10128CAD00130EB
:100AA00020D0B442ECD1BDE7002CE8D04FF0FF32AB
:100AB00021462846FFF720FE90B957B92A6AAB694C
:100AC0006C61023A934210D92B7A43F001032B72E6
:100AD000B1E7224639462846FFF70EFE0028EDD042
:100AE0000128A7D14FF0FF34A5E7013BAB61EBE74D
:100AF0002DE9F843076906682037B7F5001F24BFC2
:100B00000023836183690446894673B1C7F30808EB
:100B1000B8F1000F39D141690133836139B9B38923
:100B2000B3EB571F31D80023A36104200BE0F389F6
:100B3000013B13EA572328D13046FFF7D7FE01289F
:100B4000054602D80220BDE8F883421C01D10120ED
:100B5000F9E7336A834212D8B9F1000FE3D0616933
:100B60002046FFF751FF0546A8B10128EAD0431CF3
:100B7000EDD001463046FFF73CFE0028E7D1656125
:100B800029463046FFF728FBA0613C3646442761E2
:100B9000E6610020D7E70720D5E700002DE9F04700
:100BA000FF27D0F80090064688463D4604244FF6BD
:100BB000FF7AB16911B9002C64D054E04846FFF7C0
:100BC00026FC044600284ED1F0690178002961D046
:100BD000C37AE52903F03F03B37149D02E2947D0EA
:100BE00023F02002A2F1080CDCF1000242EB0C021F
:100BF00042453DD10F2B40D14C0637D53369477B59
:100C0000F36201F0BF01437BBB4231D1428B7ABB1F
:100C10000378D9F81040DFF880E023F040030D2579
:100C2000013B6B4301251EF801CB30F80CC00DB31E
:100C3000FF2B1DD824F813C06546013301320D2A5D
:100C4000F1D10278520605D525B1FF2B10D800222C
:100C500024F813204B1EDDB200213046FFF748FF79
:100C600004460028A5D00023B3610CE08D42CAD011
:100C7000FF25F1E7D445E1D0FAE73DB9FFF7C3FA24
:100C8000B84203D100242046BDE8F0874FF0FF337F
:100C9000F362F8E70424E6E79E5C0608B1F5001F5E
:100CA000F8B5056806460C4601D30220F8BDCA0611
:100CB000FBD182680161BAB96B79022B01D92B6B28
:100CC0009BB9AB89B3EB541FEFD9286BC6E905205C
:100CD0000028EAD000EB54203C35C4F30804254436
:100CE000B061F5610020E1E71346EF891A467F0203
:100CF000BC42114603D22846FFF76EFAE6E7306899
:100D0000FFF7F4FD431C024606D00128CDD92B6A1B
:100D10008342CAD9E41BEBE70120C7E7F8B50E46CA
:100D2000002107680446FFF7B9FFA8B90546A16985
:100D30003846FFF76CFB78B9E3691B78E52B00D0E8
:100D40001BB90135B54201D1F8BD05460121204648
:100D5000FFF7CEFE0028EAD0042808BF0720F3E7FB
:100D6000C16A4B1C2DE9F04105680669044618D19B
:100D7000E5274FF00108A1692846FFF748FB60B955
:100D8000E3691F7085F807802369B3420DD20146DD
:100D90002046FFF7ADFE0028EDD0042808BF022052
:100DA00003E0FFF77BFF0028E2D0BDE8F081000000
:100DB0002DE9F04F002185B0D0F800B00446FFF7D0
:100DC0006DFF0546002840F08D804FF0FF3A4FF050
:100DD000FF08C4F82CA0C146A1695846FFF717FBCD
:100DE000054600287ED1E6693778002F7ED0F27A5A
:100DF000E52F02F03F03A37103D0100704D50F2B9A
:100E000004D0C4F82CA050E00F2B56D194F82B300E
:100E1000590640D47A0646D5236996F80D80E362D8
:100E200007F0BF07737B43453FD1738B002B3CD149
:100E30003578DBF81030009305F03F05013D0D23B8
:100E4000DFF8B0905D43012219F8013BF35A7AB301
:100E5000FF2D2AD81846039340F05CF9009B0290BE
:100E6000691C33F81500019140F054F9029A82424E
:100E70001BD1039B01991A460D461D4B9945E3D1A1
:100E800033785B0604D51AB1009B33F8153063B98B
:100E9000013F5FFA87F900212046FFF729FE05464A
:100EA000002899D01EE0B945BCD04FF0FF09F2E709
:100EB0004FF6FF718B42E0D0F7E7B9F1000F04D194
:100EC0003046FFF7A0F940450CD094F82B5015F0B0
:100ED000010596D10B2204F12001304643F072F94E
:100EE00000288ED1284605B0BDE8F08F0425F9E72B
:100EF000AB5C06089E5C06082DE9F04F90F82BB01D
:100F00001BF0A00489B0054640F0E58007683A6907
:100F100032F81430002B6ED105F1200696E8070058
:100F20000DF1140A1BF0010F8AE8070000F0DA80C7
:100F3000402385F82B304FF001089AE80700B446AB
:100F40003B69ACE803002CF8022BB8F1050F4FEA1F
:100F500012428CF8002062D9981E424630F8021FD7
:100F600000294AD10DF1130C072102F00F0E0EF1EA
:100F70003000392888BF0EF137000F2A0CF801091C
:100F800001F1FF314FEA12104BD801F120030DEBB4
:100F900003027E2002F8140C30460022914206D053
:100FA00010F801CBBCF1200F02F1010E3BD105F18D
:100FB0001F0C07299CBF01F120030DEB030002F178
:100FC000010296BF10F8140C20200131072A0CF8FA
:100FD0000200EED92846FFF7EBFE814600287DD1BE
:100FE00008F10108B8F1640FA7D14FF0070948468E
:100FF00009B0BDE8F08F01348AE74FF0100C01F022
:10100000010E0EEB4202D30344BF82F4883282F019
:101010002102BCF1010C4FEA5101F0D19EE742469A
:10102000A0E70246A1E77246B8E729692846A1EB86
:101030004411FFF733FE81460028D8D13046FFF730
:10104000E2F84FF6FF780190A9693846FFF7DFF91B
:1010500081460028CBD1EB69019AD7F810E05A738A
:10106000E1B24FF00F024FF00D0CDA72DFF8D8A0AA
:1010700018734A1E0CFB02F29876D87684461AF84A
:10108000019B404518BF3EF8120003F8090003EB2E
:10109000090B0CF1010C18BF01324FEA102900288E
:1010A00008BF4046BCF10D0F8BF80190E7D14045D9
:1010B00002D03EF812200AB941F040011970012314
:1010C000FB7100212846FFF713FD814600288ED1D1
:1010D000013CB9D11AE04FF0060988E7042886D10F
:1010E00085F82BB01BF0020F1BBF0C340D2301241D
:1010F000B4FBF3F418BF013421462846FFF70EFE77
:10110000814600287FF473AF013C8ED1A96938462F
:10111000FFF77DF9814600287FF469AF0146202260
:10112000E86943F027F803CEEB6918605960B2789C
:10113000318819819A7295F82B30EA6903F0180307
:1011400013730123FB7152E79E5C06082DE9F04FF3
:1011500087B0036801930B782F2B0646884601D091
:101160005C2B0AD1424613782F2B904602F10102E4
:10117000F9D05C2BF7D0002301E0019BDB69B36061
:1011800098F800301F2B00F2328180230021304676
:1011900086F82B3007B0BDE8F04FFFF77FBDFE2D7E
:1011A00000F24E812AF81540013526E108F10103CD
:1011B0000593DDF8148098F800302F2BF6D05C2BC7
:1011C000F4D01F2C8CBF00240124012D4FEA84048D
:1011D0002ED1BAF800302E2B30D100232AF815304A
:1011E00006F120029D428CBF2E21202101330B2BC2
:1011F00002F8011BF6D144F02004E4B286F82B403B
:101200003046FFF7D5FD96F82B30002800F0DE8041
:10121000042840F01681990603F0040240F1D280C0
:10122000002A00F0E480802386F82B30002008E1BB
:10123000022D03D1BAF802302E2BCAD0AAF1020235
:1012400006E032F81530202B01D02E2B02D1013DC3
:10125000002DF6D100232AF81530002D00F0F08083
:101260003AF81320202A194603F10103F8D009B9EE
:101270002E2A02D144F00304E4B2AAF1020232F8A9
:1012800015302E2B01D0013DF9D14FF020334FF016
:10129000000973623362C6F827304FF0080B4F46DF
:1012A0003AF811004A1CD0B1202803D02E2806D1CC
:1012B000AA4208D044F00304E4B21146F0E7D9454D
:1012C00005D2AA423ED1BBF10B0F33D102E0BBF1F4
:1012D0000B0F29D144F00304E4B24FF00B0B96F846
:1012E0002030E52B04BF052386F82030BBF1080F22
:1012F00004BFBF00FFB207F00C030C2B03D007F0B4
:101300000303032B02D144F00204E4B2A3073FF528
:1013100075AFFD0744BF44F01004E4B278077FF5D1
:101320006DAF44F0080468E7AA4203D044F0030418
:10133000E4B2D4D8BF00FFB22A464FF00B0B4FF0F7
:101340000809BAE77F2838D944F00203DBB240F23B
:10135000B511039202933FF0A9FE10F0800FDDE972
:10136000023210D0414900F07F00085C30B1404C9F
:1013700014F8011B002969D08142F9D143F003031D
:10138000DBB25F2011E0FF28F0D90BF1FF31894576
:1013900004D344F00304E4B2D9468EE706EB090116
:1013A000040A81F8204009F1010906EB09011C46F5
:1013B00081F8200009F101097FE72346D7E747F0CC
:1013C0000207F2E7002A08BF05203AE05A0738D49E
:1013D000B379DB0638D5019B03F13C013369C3F3D4
:1013E00008031944019B5879FFF778FAB060336815
:1013F000CDF81480D3F810A0002505A8FEF7D2FF81
:10140000421C1DD0B0F5803F28BF030C84B224BF1E
:101410002AF8153001351F2C7FF6CBAE2F2C3FF468
:10142000C8AE5C2C3FF4C5AE7F2C3FF6B8AE114A77
:10143000204612F8013B002B3FF4B1AE8342F8D1B5
:10144000062007B0BDE8F08F0520FAE7A0F14101C2
:1014500089B21929B3D9A0F1610189B219299EBFB6
:10146000203847F0010780B29FE700BF1E5C0608E6
:10147000E35B0608DA5B060800214171FFF716B846
:101480002DE9F04105468CB090461E460C460029D9
:1014900000F0BB8003F03F073946FFF707F800284C
:1014A00040F0AB80414668460095FFF74FFE02468C
:1014B00020B99DF92B30002BB8BF062216F01C0F67
:1014C00068D0002A3AD0042A35D16846FFF714FDC7
:1014D000024680BB47F00807DDF81C80687941466A
:1014E000FFF7FCF9064655F023FE014608F10E0011
:1014F000FEF76AFE079B2022DA720799002228462F
:10150000FEF775FE079B00221A775A779A77DA77EB
:101510000123EB71DEB131466846D5F83880FFF71C
:101520003BFA024638B941462846FEF770FF013EB5
:101530006E61024658B10023236027E09DF8063013
:1015400013F0110F30D1730759D43007C4D4AB6BEB
:101550000799236261623807687948BF47F04007FE
:10156000FFF7BCF9A060034601F11C00FEF72AFE5C
:101570006A89A280B9064FF000020646E060256045
:1015800027746274E261626110D4002210460CB0CC
:10159000BDE8F081002ACED19DF80630D90630D4BE
:1015A000B207D4D5DE07D2D50722C4E70028ECD095
:1015B000EF8960617F02B74210D30022A361002A45
:1015C000B9D1C6F308010029DFD019462846FEF735
:1015D00003FEC0B100EB5620E061D7E71946206852
:1015E000FFF784F901280346A6EB070603D9421C3E
:1015F000E1D10122E2E70222E0E702469BE708226E
:1016000099E7042297E7022295E70922BEE72DE930
:10161000F04F994685B000238846C9F8003003A9E9
:1016200004461546FEF7FEFD064610BB667C06BB6B
:1016300094F810A01AF00103009300F08180E7688D
:101640006369FF1AAF4228BF2F4697B16269C2F3A0
:101650000803002B59D1DDF80CB0BBF80E30013B6C
:1016600013EA522A15D142B9A06801280AD80226E5
:101670006674304605B0BDE8F08FA1692068FFF7B9
:1016800035F9F2E7431C03D10123009E6374F0E7B0
:10169000A061A1695846FEF79FFD0028E7D0B7F585
:1016A000007F0AEB00022FD3BBF80E1001920AEB69
:1016B000572088424FEA572588BFA1EB0A05DBF87F
:1016C00000002B46414601F033F80028DCD19BF89E
:1016D00007306BB1DBF83800019A801AA84207D2B4
:1016E0004FF400720BF13C0108EB402042F0FEFC8D
:1016F0006D02D9F800302B44C9F8003063692B44DF
:101700007F1BA8446361A0E7E2616569DDF80CB066
:10171000E169C5F30805C5F50075BD42584628BF07
:101720003D46FEF774FE0028AED161690BF13C0B1B
:10173000C1F308012A465944404642F0D7FCD8E795
:10174000072696E72DE9F04F994685B00023884695
:10175000C9F8003003A904461746FEF763FD0646A4
:1017600018BB667C0EBB237C9A0740F1A580636999
:10177000FB4200D3DF43A7B16369C3F30802002A29
:101780007BD1039DB5F80EB00BF1FF3B1BEA532B49
:101790001ED173B9A06870B901462046FFF734F92D
:1017A00048B9237C43F040032374304605B0BDE8BC
:1017B000F08FA169F1E7012802D102266674F4E7EF
:1017C000431C01D10126F9E7A368A06103B9A06019
:1017D000AA6BE3699A4204D12846FEF7F3FD00287C
:1017E000F0D1A1692846FEF7F7FC0028E5D0B7F54F
:1017F000007F0BEB000A33D3E9890BEB57208842BB
:101800004FEA5723286888BFA1EB0B035246414695
:10181000019300F09CFF83460028D3D1A96B019B64
:10182000A1EB0A0199420AD24FF4007208EB412160
:1018300005F13C0042F05AFC019B85F807B05D02BF
:10184000D9F800302B44C9F8003063697F1BA844E5
:101850001D44E3686561AB422CBFE360E5608AE745
:101860006169E368994206D32846FEF7ABFD00287C
:10187000A8D1C5F838A0C4F81CA06569DDF80CB083
:10188000E169C5F30805C5F50075BD42584628BF96
:101890003D46FEF7BCFD002894D163690BF13C0086
:1018A000C3F3080318442A46414642F01FFC4FF098
:1018B00001038BF80730C3E7072676E72DE9F341EC
:1018C00001A90546FEF7AEFC044668BB2C7C14F06B
:1018D000400429D055F02CFC019F296A80463846E7
:1018E000FEF795FD0446F8B96E6AF37A43F02003DB
:1018F000F372AA6828683146FEF779FCE96806F1B8
:101900001C00FEF761FC414606F11600FEF75CFC88
:101910000123B474F4743846FB71FEF794FF2B7CFA
:1019200023F0400304462B74204602B0BDE8F0814A
:1019300013B50446FFF7C2FF28B901A92046FEF7F8
:1019400071FC00B9206002B010BD70B50E468CB0BD
:1019500000210546FEF7AAFD044660B931466846F7
:101960000095FFF7F3FB044690B99DF92B30002B4F
:1019700004DA029BEB6120460CB070BD9DF8063086
:10198000DB0609D507996879FEF7A8FFE861F2E759
:10199000042808BF0524EEE70524ECE72DE9F0470D
:1019A0000E460021D2B0317081469046FEF77EFD92
:1019B0000546F0B9D9F81C30CDF8009002934446A2
:1019C000DDF808A0BAF1000F19D1444502D1013C5D
:1019D0002F2333553346A11B1A5D03F8012B5A18E8
:1019E0009045F9D8A8EB04030134A04538BF012382
:1019F0001E4400232846337052B0BDE8F0872021F2
:101A00006846FFF74BF9002847D106994846FEF78C
:101A1000FEFC074600283ED1079999F80500FEF71D
:101A20005DFF394602906846FFF738F9A8BB0021F0
:101A30006846FFF7B3F8074698BB079999F8050081
:101A4000FEF74CFF50450AD039466846FFF750F87C
:101A50000028ECD00546042D08BF0225C9E70CA9D3
:101A60006846FEF702FC0DF14603194613F8012BF8
:101A7000BA460137002AF9D1BC4210D3A4EB0A07B9
:101A8000013CA4EB0A045246F01942F02FFB2F232D
:101A900033557C1E94E70546ABE70546A9E71125BB
:101AA000A7E70546D7E72DE9F7430D4601A9044608
:101AB000FEF7B8FB0646002852D1667C002E4FD1B7
:101AC000E368AB4204D2227C12F0020F08BF1D462D
:101AD0000022636962619DB90020E26863699342F4
:101AE00082BF227CE36042F04002C3F3080388BF58
:101AF0002274002B34D0E369834218BFE0612FE0E9
:101B0000DDF80480B8F80E707F02FBB1013B6A1E5D
:101B1000B3FBF7F1B2FBF7F28A4217D37A421340D4
:101B2000A1696361ED1A0029D6D0BD42636922D84C
:101B300063692B446361C5F30803002BCCD0404696
:101B4000FEF74AFB50B100EB5520C6E7A16881B90A
:101B50002046FEF759FF0128014605D1022666748A
:101B6000304603B0BDE8F083481C01D10126F6E7FA
:101B7000A160A161D7E73B446361237C9A07A5EB91
:101B8000070906D52046FEF73FFF054628B901465E
:101B9000CEE72068FEF7AAFE05466B1CE6D0012DB5
:101BA000DCD9D8F82030AB42D8D9A56129464D46BA
:101BB000BBE770B5054616460C4621B30021FEF77B
:101BC00075FC68B9256031462046FFF7BFFAE0B9D9
:101BD00094F92B30002B0BDBA379DB0603D4052013
:101BE000002323600EE06879E169FEF777FEA060CC
:101BF0006B89A38000212046FFF750F80428EED01F
:101C00000028EDD170BD0920FCE70428E7D0E7E704
:101C100013B501A90446FEF705FB00B9206002B028
:101C200010BD73B50D4601A90446FEF7FBFAC8B90D
:101C300035B92946204602B0BDE87040FFF72EB8FE
:101C400001462046FEF7AAFF10F0FB060AD12946FE
:101C50002046FEF70AFB31462046FEF749FF0428DE
:101C600008BF002002B070BD70B50E468CB00021D8
:101C700004461546FEF71AFC0094044670B9314636
:101C80006846FFF763FA044640B99DF92B30002BF4
:101C900007DB1DB129466846FEF7E7FA20460CB07F
:101CA00070BD0624FAE72DE9F84F88460021044666
:101CB000FEF7FCFB054640B9D4F820A0A369AAF1C1
:101CC0000202934204D8C8F800302846BDE8F88FD5
:101CD0006379012B17D10227064639462046FEF7C5
:101CE00005FE431C34D0012834D000B90136236AE4
:101CF0000137BB42F1D8C8F80060237AA66143F0EF
:101D000001032372E1E7E16A0746064604F13C0954
:101D100037B9204601F1010BFEF779FBE0B95946CE
:101D20006379022B09EB07000AD139F8073003B9B0
:101D300001360237BAF1010AC7F30807E8D1DAE73A
:101D4000FEF740FA30F0704308BF01360437F1E780
:101D50000125D0E70225CEE70546CCE7F0B50E46D3
:101D600099B002210546FEF7A1FB044688B9314629
:101D700068460095FFF7EAF9044650B99DF82B3004
:101D800098063BD4190639D49DF80670FA0703D596
:101D90000724204619B0F0BD07996879FEF79EFD2B
:101DA000FB0606460BD46846FEF7DAFF0446002819
:101DB000EFD1D6B92846FEF746FD0446E9E7EB69C0
:101DC0008342E5D00E9021460CA80C95FEF766FFE5
:101DD00004460028DDD101460CA8FEF7DFFE0446CC
:101DE0000028D5D00428D4D1DDE702463146684624
:101DF000FEF7D2FD04460028CBD1DBE70624C8E776
:101E00002DE9F0410E4690B002210546FEF74EFB4B
:101E10000446002869D1314604A80495FFF796F9D5
:101E2000044600286FD004285FD19DF83B1011F0C4
:101E300020016AD168460095FEF7E6FD06460028B7
:101E400057D0012857D0431C5C425C4155F070F9D3
:101E50000746002C51D131462846FEF7CAFC0446FD
:101E600000284AD14FF02033EB632B64C5F8433090
:101E70002E2385F83C30102385F84730394605F18C
:101E8000520005F13C04FEF79FF9324621462846F0
:101E9000FEF7ADF905F15C031A4651F8040B42F860
:101EA000040B9942F9D12E23069A85F85D30284615
:101EB0004FF00108FEF79BF985F8078004A8FFF7AB
:101EC0001BF80446C8B90B9839461630FEF77CF962
:101ED00032460B992846FEF78AF90B9B1022DA72DC
:101EE00085F80780FEF7AFFC0446204610B0BDE839
:101EF000F0810724AAE70224A8E7002231466846B9
:101F0000FEF74AFDF1E70824EFE70624EDE7F0B518
:101F10000D46A1B0022104461746FEF7C7FA002875
:101F200077D1294608A80894FFF710F9002870D146
:101F30009DF84B3013F0A00F6DD10F9B6D4603F150
:101F40002006186859682A4603C20833B34215466A
:101F5000F7D108AE0FCE14AD0FC50FCE0FC596E862
:101F60000F0085E80F00394614A8FFF7EFF848B9CD
:101F7000169A0A9B9A4203D1189A0C9B9A4203D054
:101F8000082046E0042844D114A8FEF7B5FF002835
:101F90003FD11B990DF10D0301F10D020DF11D0053
:101FA00053F8045B42F8045B8342F9D1188810802F
:101FB0009B7893709DF80B30DA0658BF43F02003EE
:101FC0000125CB72E571CB7ADB061BD50A9A169BED
:101FD0009A4217D06079FEF781FC01462046FEF751
:101FE000FBF80146C8B12046FEF711FA88B994F80B
:101FF0005D302E2B06D1169A04F15C012046FEF7C7
:10200000F6F8E57108A8FEF7ABFE10B92046FEF71A
:102010001AFC21B0F0BD0620FBE70220F9E7000022
:10202000F0B595B0064601910221FEF73FFA04464D
:10203000002833D102AF4FF02033029305467B6076
:10204000C7F80730019B1B781F2B20D89DF808305C
:10205000E52B22D01DB16B1EFA5C202A30D0002166
:1020600008A808960A91FEF719FE0446B0B90121A6
:1020700008A8FEF793FD70BB0F9A1DB33B4603CB38
:102080001060516019889B78937211811CE001A83F
:10209000FEF788F9B0F5803F03D30624204615B03B
:1020A000F0BD3FF037F840F2B5113EF0FFFF0028D9
:1020B000F3D01E4A12F8013B93B39842FAD1ECE7F1
:1020C0001D46C7E7E52313700123F3713046FEF781
:1020D000BAFB0446E2E70428FBD1002DDED0012143
:1020E00008A8FEF71BFE04460028D7D1202201468F
:1020F0000F9842F03FF80F9B0822DA720F9ABDE763
:10210000092DCAD805F150036B44020A03F8482C84
:10211000013505F150036B44013503F8480C91E794
:10212000FF28EDD80A2DF4D9B7E700BFAB5C06084D
:102130002DE9F04FD0F800808BB01C46002343718E
:10214000029103790193154605210DF11F024046C6
:1021500000F012FB9DF81F30DA0700F16F825E0776
:1021600000F16E8208AA0321404600F005FB30B959
:10217000089A531EB3F5004F01D21A4201D0012331
:1021800008935DB15A4BA5F500729A4203D913200A
:102190000BB0BDE8F08F6B1E2B42F8D1002C00F085
:1021A0005182149BB3F5007FC0F04C82019B002B41
:1021B00062D0012300222146404600F0B9FA08B15E
:1021C0000120E5E7B4F8FE214AF655239A4201D0F2
:1021D0000E20DDE7019B04EB031202F5D77392F8A2
:1021E000B221002AF4D003F10800FDF7EBFF074607
:1021F00003F10C00FDF7E6FF8346BBF1150FCDF8A8
:1022000024B0E5D9B5F5813FC1D2029B13F002039A
:1022100005934FEA5522029B41D003F00703022B9E
:1022200000F01E82029BD80740F11A82002A3FD19B
:1022300030484FEA1B35012630F8023B0BB1AB4268
:1022400034D940F6F573BBFBF6F59D429BBF05EB19
:102250004505013502356D088CBF6D0003354FF023
:10226000200305F2FF1504938CBF4FF002094FF0D5
:1022700001096D0A012316E209AA0121404600F076
:102280007BFA00289CD1029B13F0080F099B14BF16
:1022900000273F27BB429BD3A3EB070BADE7D90732
:1022A000C4D474E75200E2E11346E7E17600C3E7E5
:1022B0001646C6E7B9F1020F1ED103994FF6F57025
:1022C000814208D9002A40F0C7817600402E00F2F2
:1022D00022823246AAE7039940F6F570814213D86C
:1022E000002A7FF475AF7200802A9FD970E700BF83
:1022F00000FEFF00BE5C0608039940F6F5729142AD
:102300003FF666AF4FF001094FF4007200212046FE
:10231000059341F02FFF059BCB4AA373C3F307231B
:102320001168E37301232160237451686160B9F17E
:1023300003031189927AA27218BF012302225B0063
:10234000BBF5803F218122736673A37480F01281F4
:1023500084F813B0CBF3072B84F814B0F82363751B
:102360003F232376FF23A376394604F11C00FDF7B3
:102370002BFFB9F1030F40F0038154F0D9FE014661
:1023800004F14300FDF720FF294604F12400FDF786
:102390001BFF022384F82C30002384F82D3084F8AE
:1023A0002E3084F82F3084F8313084F83330802395
:1023B00084F840302923012284F84230A34B84F86A
:1023C0003020062284F8322003F1100104F1470284
:1023D00053F8040B42F8040B8B42F9D119889B780F
:1023E00093704FF05503118084F8FE316FF0550360
:1023F00084F8FF313A4601232146404600F0A7F910
:10240000834600287FF4DCAEB9F1030F38D10123F5
:10241000BA1D2146404600F09AF94FF40072594621
:10242000204641F0A7FE5223237063706123A370FE
:1024300084F8E731039B41227221E27084F8E411B1
:1024400084F8E51184F8E621591E04F5F470FDF7CF
:10245000BBFE022384F8EC314FF0550384F8FE31C3
:102460006FF0550384F8FF31FA1D012321464046E1
:1024700000F06DF90123FA182146404600F067F993
:10248000149B23F4FF7222F001020021204641F048
:1024900071FEB9F1030F40F09080F8232370FF2301
:1024A0006370A370E37023716371A371E37123728E
:1024B0006372A3720F23E372149B5B0A0393039B63
:1024C000AB4228BF2B462146524640469B4600F071
:1024D0003EF9014600287FF473AE4FF400722046A7
:1024E00041F048FEB5EB0B05DA44E8D1049BB9F1A5
:1024F000030F18BF1E46039DB54228BF35462B4625
:1025000052462146404600F022F900287FF458AE9A
:10251000761BAA44EFD1B9F1030F58D0099BB3F54C
:10252000803F56D2B9F1020F0CBF04250125019B53
:10253000002B50D0002201232146404600F0F8F83D
:10254000024600287FF43CAE019B04EB031383F8A2
:10255000B25101232146404600F0F9F800287FF4EB
:102560002FAE00221146404600F006F9003818BF91
:1025700001200DE6594604F12000FDF725FEEDE6A9
:1025800054F0D6FD014604F12700FDF71DFEC5F30A
:102590000723E375802384F82430292384F8263028
:1025A0002B4BA57504F12B0203F1100153F8040B1A
:1025B00042F8040B8B42F9D110E7B9F1010F25491C
:1025C000204618BF6FF00701FDF7FEFD74E70C25EC
:1025D000ADE70625ABE7029B1B07C2D401994FF478
:1025E0000072204641F0C6FD552384F8C251099D72
:1025F00084F8FE31AA2384F8FF31EA1943F6C16357
:10260000B2FBF3F2FE2384F8C331930843F03F0397
:10261000012684F8C43184F8C521394604F5E370F5
:1026200084F8BF6184F8C061FDF7CEFD294604F54A
:10263000E570FDF7C9FD019A33468BE70320A7E556
:102640000A20A5E51120A3E5EA5B0608F65B06086B
:102650000A5C0608F8FFFF00059B002B3FF4B8ADAD
:10266000002A7FF421AE30484FEA5B45012230F862
:10267000023B1BB1AB427FF615AE0023BBFBF2F071
:102680002A4E8500A0F57F40F63805F20725B042B6
:102690004FEA55253FF69CAD16461A460023049393
:1026A0004FF0030920230498DDF820E007EB030A2C
:1026B00005EB000CD4440EF1FF306044CEF1000E67
:1026C00000EA0E00A0EB0C00B9F1030F06BF1B18C7
:1026D00082442D18C7EB0610604458453FF678AD8C
:1026E0000498ABEB0000C01AB9F1030FA0EB050092
:1026F000B0FBF6F003907FF4DDAD03994FF6F57073
:1027000081423FF601AE002A7FF462AD012E7FF6D2
:102710005FAD7208A4E7059B002BA4D1802E3FF685
:1027200057AD32468DE500BFCC5C0608FFFFFE0FBB
:1027300010B50C4611461A4638B1234604303EF017
:1027400029F9003818BF012010BD0420FCE710B59E
:102750000C4611461A4650B1234604303EF040F96B
:1027600010F11E0F05D0003818BF012010BD042045
:10277000FCE70220FAE7000070B50C461546064655
:10278000002831D0234A01F00703D15C71B3002245
:1027900004303EF051F9062C26D8DFE804F0080595
:1027A0000A152518180006202BF020F928600020B3
:1027B00070BD062804D14FF400702880B060F6E7A1
:1027C0002BF014F980B2F8E701232B60EFE706281D
:1027D00001D0430806D1336AB3FA83F35B099B0047
:1027E0002B70E4E70123FBE70420E1E7062CFBD88C
:1027F00001A353F824F000BFAF270008A727000863
:10280000B7270008C9270008E9270008D7270008CC
:10281000D7270008C45A0608086833F0D6BE00005F
:10282000022970B5044615461E4613D15368012B84
:102830000AD0022B0CD01BB91168201DFFF733F909
:10284000A3692B60002070BD81692B681944F4E7EF
:102850000169FAE701290AD10430FFF72FF80028AF
:10286000F0D0084B1B5C33604FF0FF30EBE70429DE
:1028700006D14368002BE5D00430FFF759F8EEE7A6
:102880001623F0E7EC5A060837B51D46043001ABB5
:102890001446FEF757FF38B1064B1B5C2B604FF018
:1028A000FF34204603B030BD019BA342F9D01C2366
:1028B000F4E700BFEC5A060813B51C46043001AB20
:1028C000FEF7A5FE30B1044B1B5C23604FF0FF30D8
:1028D00002B010BD0198FBE7EC5A060813B5044698
:1028E000084601912AF0C6FF019B04490246204692
:1028F00002B0BDE8104001F055B800BFCC5A060840
:102900002DE9F84380461046894631F0E3F82E4F12
:102910002E49013800243A4610F8013FCBB92C204B
:102920001DF0B4FC0646054646F8047B484631F0E7
:10293000D1F8E3B20246314608F14400FEF7A0FDAB
:102940000746B8B328461DF0BBFC214BD85D2AF0E2
:10295000EDF9782BE0D8712B08D8612B23D0622BAE
:1029600024D02B2BD8D144F00304D5E7723B062B9F
:10297000D2D801A555F823F0952900081929000897
:10298000B129000819290008192900089B29000805
:10299000A129000844F00104BEE744F00A04BBE7A3
:1029A00044F00604B8E744F01204B5E70F46B3E775
:1029B0001746B1E7E30603D529693046FFF773F8F8
:1029C0002846BDE8F88300BF205B0608005B0608C8
:1029D000EC5A06082DE9F04F2DED028B85B0062943
:1029E0001E46B0EE408A9DF8403080468B4614D893
:1029F000012906D93F2308F8013B002388F800305D
:102A000001E00029F9D1BBF1010F94BF00200120A2
:102A100005B0BDEC028BBDE8F08F10EE101A002956
:102A2000054624DAB4EE400AF1EE10FA1FD62D2343
:102A300005F8013BB1EE408A9FEDC17AF0EEC87A0D
:102A4000F4EE477A02F02003F1EE10FA009313DD62
:102A500043F0490443F04E00EA1C43F046010023D2
:102A600068702C70A970A2EB08001370D0E7002BDF
:102A7000E2D005F8013BDFE7B4EE488AF1EE10FA48
:102A800006D743F04E0143F04100EA1C0C46E6E74E
:102A9000002E42F02009B8BF0626B9F1670F02D117
:102AA000002E08BF012618EE103AA5EB0807ABEB85
:102AB00007071A1E07F1FF3A1AD1B9F1660F08D1BC
:102AC000731C5345A8BFFE1E771C6621002082465A
:102AD0000BE0731D5345A8BFFE1F0020B9F1650F21
:102AE00049460746F3D14FF02B0A0246044638E028
:102AF000C2F3C7537F3B07EE903A9FED927AF8EE10
:102B0000E77AB2F17E5F67EE877AFDEEE77A17EE3D
:102B1000904A80F0B5806342F8EEE70AB2EE040A0C
:102B200001933EF073FB019B1C46B4EEC08AF1EEAC
:102B300010FA00F18980B9F1660F08D0B9F1670F7A
:102B400040F08D80042C00F38A80631E1E44731CA9
:102B500053454FF00000A8BFFE1E771C8246024678
:102B60006621652926EAE67340F0E1805F1C06468F
:102B7000F2EE048A0020921B002F80F2E5800428E8
:102B800038DD681E302702782E2A064600F1FF3015
:102B9000F9D0A2F1300CBCF1090F40F20A810136E4
:102BA0003278302A26D170782E2840F00E8166299E
:102BB00000F00B81BAF12D0F3070727040F003817C
:102BC000013C08BF4FF02B0AB54206F10100A6EB0D
:102BD0000501A0EB05003CBF00210120A5EB06028A
:102BE000294438BF00222844019341F0AFFA312232
:102BF000019B3270B9F1670F0AD14BB12B461D46CC
:102C0000013B15F8012C302AF9D02E2A08BF1D46A9
:102C1000BAF1000F13D0009B85F801A00A2143F000
:102C200045032B7094FBF1F393FBF1F201FB12329D
:102C300001FB134330323033AA70EB7004350023AC
:102C40002B70A5EB0800E3E60134634200EE903AF6
:102C5000B2EE040AF8EEE00A3EF0D8FA65E7BB1FD0
:102C6000B34204DCB9F1670F14BFFE1F1E4688EEA5
:102C7000008A6042494600274FF02D0A3A4670E725
:102C8000631C00EE903AB2EE040AF8EEE00A3EF061
:102C9000BDFAB4EEC08AF1EE10FA17DAB9F1660F98
:102CA00022D1544523DA33190133534507DBAAEB0C
:102CB000040ABAF1010FAAF1020608BF002637196B
:102CC0000137204622464FF0000A49E7631C019372
:102CD000A31C00EE903AB2EE040AF8EEE00A3EF0D1
:102CE00095FA019B1C46D4E7B9F1650F0AD1BB1FC9
:102CF000B34200DCFE1F002720464FF02B0A3A4665
:102D000065212EE7B9F1670F0BD1331D534500DB69
:102D1000BE1FB44202DB2046672104E0631CF61AA2
:102D2000CDE72046494600274FF02B0AA6E7672942
:102D30007FF41DAF002EDABF01273B461F4616E782
:102D4000FFFF7F7F9B209A3E002E2FDD07EE906ACB
:102D5000B2EE040AF8EEE70ACDE9023201913EF044
:102D600055FADDE90113039A0020B4EEC80AF1EE2A
:102D700010FA04DC0130092838EE408AF5D1AC465F
:102D800067B100F1300EF2420CF801EB06D12BB125
:102D90004FF02E0E05F1020C85F801E0002ED8BF91
:102DA00028EE288A013F013E6546E5E6B7EE000AB7
:102DB000DAE7392A02D001323270F1E6464547702F
:102DC0007FF4E1AEECE60134FEE66A1CA2EB0801FA
:102DD000594538BF1546F7E608B5044631B1054BED
:102DE0004A6C0360096800232CF0BCFE20461DF0ED
:102DF00017FA00BFECEC05082DE9FF471E460192CB
:102E0000451812B1023A222A34D80446AC42274669
:102E100039D214F8010B1EF0C5FA80460028F5D10E
:102E20003B782B2B29D12746E91B384601AA28F0ED
:102E3000D6FA0744B9460024A9454B4626D3B8F133
:102E4000000F00D06442640044F00104BB4209D08A
:102E50001F46AF423B4641D2187801371EF0A2FA16
:102E60000028F6D12049019A20482CF03BFE31463B
:102E7000FFF7B2FF1E4829F03BFD2D2B04BF27466C
:102E80004FF00108D0E74FF00008CDE719F8012B0B
:102E9000A2F1300ABAF1090F09D95F2ACCD042F069
:102EA0002002A2F161011929C9D8A2F1570A01999A
:102EB0005145C4D9204637F035FB28B9019B03FBA7
:102EC00004A494EA4403B7D5019B03974246E91B47
:102ED00003A82DF0FDFF039B0446B7E7C2D12046AF
:102EE00004B0BDE8F08700BF3BE005087CED0508B5
:102EF00026E005082DE9F04F2DED068B85B0CDE9D4
:102F00000223149B9FEDB19ADFEDB19A4FF00009B7
:102F10000AEE903A04464618CDF80490B0EE49AA5D
:102F2000B44280F09B8120781EF03CFA8046002855
:102F30003ED123782B2B41D10134B44280F08E81D5
:102F4000237843F02003692B3ED1A31C9E4240F21C
:102F50007A81637843F020036E2B40F07481A3786C
:102F600043F02003662B40F06E81E31D9E4204F186
:102F700003051AD9E37843F02003692B15D123798F
:102F800043F020036E2B10D1637943F02003692BAB
:102F90000BD1A37943F02003742B06D1E37943F0DE
:102FA0002003792B01D104F108059FED8A8A20E0E6
:102FB0000134B0EE498AB0EE489AB1E72D2BBFD16B
:102FC000012301340193B8E76E2B42D1A31C9E422A
:102FD00040F23981637843F02003612B40F0338164
:102FE000A37843F020036E2B40F02D819FED7A8A69
:102FF000E51C029B7BB1B5420DD22B7843F0200338
:103000006A2B08D1A542F7EE007A08BFB0EE678AB6
:10301000013549F00209019B1BB10123B1EE488A39
:103020000193A5420DD0B5422C4680F0E180207876
:1030300001351EF0B7F90028F5D1039B002B40F0B5
:10304000EB80664966482CF0B7FC1AEE901AFFF741
:10305000C3FE0022DFED5D8AA64694461346114664
:103060001046B2EE047A754615F801BBABF1300A92
:10307000BAF1090F6ED8022825D15A4FB94202DCA5
:103080000A2707FB01A1AE4200F28F80B8F1000FC2
:1030900000D0494213440B4413F1250FBEBFDFEDAE
:1030A000527A253368EEA78A13F1090F7FD35B426A
:1030B00000EE903AB2EE040AF8EEE00A3EF0A6F80E
:1030C00088EE808A95E7BAF1000F04D0F4EEE98A21
:1030D000F1EE10FA15DB08B90133D4E70CF1010C5D
:1030E0000120D0E7F4EEE98AF1EE10FA46BFF0EEE7
:1030F0004A7AE8EE877A013203F1FF3348BFF0EEF7
:10310000678A002BEED16346F4EEE98A7BB9F1EED3
:1031100010FA1BD507EE90AAF8EEE77A0128E8EE40
:10312000877AF0EE678A3AD1013A9C46ABE7F1EE36
:1031300010FA42BFF0EE4A7AE8EE877A02F1FF32E7
:1031400003F1FF3348BFF0EE678ADDE750BB013281
:10315000844698E7A0B9BBF12E0FC1D04BF0200AEE
:10316000BAF1650F0ED1AE427FD99EF801002B282F
:103170000ED10EF10205B5423FF463AF022082E7A3
:103180000228EBD1BBF15F0F3FF47DAF75467DE7C1
:103190002D2809D10EF102054FF00108EBE79C46FE
:1031A000184670E79C469BE70220AE465BE707EEB9
:1031B000903AB2EE040AF8EEE70A3EF027F820EE65
:1031C000288A16E79FED018A254616E700000000D1
:1031D000EC78AD600000807F0000C07F47E005080C
:1031E0007CED050864666606EA1C08020000000023
:1031F0007FF423AFB9F1010F3FF423AFB9F1000F12
:1032000011D0F0EE480AB0EE490A05B0BDEC068BCD
:10321000BDE8F04F2BF034BCB9F1000F7FF411AFD3
:103220004FF00109C7E6039B23B15FED100AB0EE32
:10323000480AEAE7B0EE480A05B0BDEC068BBDE8E7
:10324000F04F2CF09FBD029B002BBBD1019B002BAC
:103250003FF4F7AE1FED1B8A2546DEE600225FED48
:103260001D8A25461346114614E73FF4EAAE0DE7E2
:103270000846114641F048BF37B50546084601915A
:1032800040F0B2FF044620B102466B6801992868FD
:103290009847204603B030BD2DE9F74F89469DF889
:1032A000301017460D9A11F0DF0F0646A2EB070209
:1032B0003DD0302925490CA813BF804688464FF0E1
:1032C000100A4FF0010A13F0800535D002EBD274DA
:1032D0006510A2EB6404002D35DDAB46DA4552469D
:1032E00073683068A8BF5A46414601929847019AD0
:1032F000ABEB020BBBF1000FF0DC2FB17368306851
:103300003A46494698473D44002C0CDD2544A245E9
:103310005746A8BF2746736830683A464146E41BC3
:103320009847002CF3DC284603B0BDE8F08FDFF8A7
:1033300020804FF0100AC6E713F0010401D11546B2
:10334000C9E71446D9E70025D7E700BF99D005089B
:1033500088D005082DE9F04389B006460020119D6C
:103360009DF84880139F8DF80F000AB381421ADA46
:103370002D228DF80F204942109A08ACA2F10A00C4
:103380000DF11009B1FBF3FC03FB1C12092A8CBFE1
:103390001218303204F8012D4C458E4661460ED08D
:1033A0007345EFD90BE0A80727D52B228DF80F2006
:1033B0000029E1D130238DF81F300DF11F0415F0E5
:1033C00040099DF80F301CD023B30122CDE90082C3
:1033D0002B460DF10F013046FFF75EFF013F81469E
:1033E00008AACDE900872B46121B21463046FFF77D
:1033F00053FF484409B0BDE8F0836A07D8D52022BE
:10340000D4E7002BECD004AA9442E9D904F8013C9B
:10341000013CE5E79946E3E72DE9F04F93B081469B
:103420001E46C8079DF874301C9D0793DDE91E8772
:103430000C4692460BD4A10703D121687F4B9942D9
:1034400005D020462AF0D2FA400040F0010415F0E1
:10345000810306D1079A302A03D1B845B8BFB846D0
:103460001F4620462DF046FC00280DF1280B18DBE6
:10347000AA0712D52B238DF828300DF12903E80671
:10348000F6B21CD5BAF1020F0DD11946302001F861
:10349000020B701C58700B4611E06B0701D52023FE
:1034A000E9E75B46EBE7BAF1080F62D1302119700A
:1034B000A90545BF06F10E01597001330233002101
:1034C00015F0200F1970A3EB0B0306930CBF0B46EE
:1034D0002C23012F0EA8C8BF45F040050B9015F016
:1034E00040024FF01000CDE90C01CDE902638DF8E8
:1034F0002710059247D0CDE900A123460DAA0CA9BB
:103500000BA82DF0CDFA03782D2B824606D18DF82D
:1035100027300D9B013B00F1010A0D93012F40F371
:1035200085800D9C059BBC42B8BF3C462BB19DF8E5
:10353000273003B10134069B1C44A0452EDD15F055
:103540000103A8EB04042AD126461C4625F00105F8
:103550004EB1202300930023019639491A4648466C
:10356000FFF79AFE0646059B002B5CD1302307939C
:103570003AE0BAF1100FA2D11946302001F8020B3F
:1035800006F1170086E70AABCDE900A30DAA234692
:103590000CA90BA82DF084FA8246BFE70024002670
:1035A000D4E7002426469DF827305BB10023012292
:1035B000CDE900320DF127014846FFF76DFE08F115
:1035C000FF380644069B63B100230122CDE9003297
:1035D0005946069A4846FFF75FFE069B0644A8EB4D
:1035E0000308012FD8BF4746079B00930D9A019708
:1035F0002B4651464846FFF74FFE06444CB1202368
:10360000009300230E4901941A464846FFF744FEF2
:1036100006440B980EAB984201D01CF051FE304688
:1036200013B0BDE8F08F30230793BCE7059B002B58
:10363000B7D11C461E464746D6E700BFD4F0050862
:10364000876306082DE9F0431646B2078BB098460B
:103650005ABFC6F380035B012B2300930A46139BDA
:10366000DDF848900746202102A8FFF7B3F9F305DB
:10367000044610D5431C1F2B0DD800F128020DEB7A
:103680000204252204F8202C03F128026A440021B8
:1036900002F8201C1C4616F040051DD09DF808308D
:1036A0002F2B4FF0000319D8012202A9CDE90032D7
:1036B0003846FFF7F1FD09F1FF390546013C0DF1F0
:1036C0000901CDE90089334622463846FFF7E4FD7B
:1036D00028440BB0BDE8F08302A9F2E702A91D4619
:1036E000EFE700002DE9F04F824689B0144600262E
:1036F0000B461D4613F8012BC2B9A94219D30B780A
:10370000002B00F04681013120234FF000080A46CB
:1037100012F8015B3DB12B2D21D014D8202D21D0E2
:10372000212D22D000254FF00A0C25E0252AE0D1DA
:10373000E3E76F1ADAF80430DAF800003A469847FF
:103740003E442946DBE72D2D05D0302DEAD148F047
:1037500040082B4601E048F001081146D7E748F041
:103760000208FAE748F00408F7E748F00808F4E729
:103770000CFB0522A2F130050F4611F8012BA2F136
:1037800030000928F4D92E2A40D17A782A2A0FD07D
:1037900000224FF00A0E0F4611F8010BA0F1300C79
:1037A000BCF1090F07D80EFB020BABF13002F2E7B8
:1037B00054F8042B023722EAE27B3A786C2A08BFDD
:1037C000013797F80090B9F1000F00F0E280B9F1ED
:1037D000780F6AD8B9F1570F1BD8B9F1470F61D8E4
:1037E000B9F1440F61D9073424F00704F4E8020169
:1037F000049354F0DDFBCDE9005B00EE100A049B5E
:10380000424649465046FFF71DFF62E04FF0FF3B3E
:10381000D3E7A9F15802202A47D801A151F822F094
:1038200061390008AB380008AB380008AB38000835
:10383000AB380008AB380008AB380008AB380008DC
:10384000AB380008AB380008BD380008DF38000886
:1038500045390008E7370008E7370008E737000870
:10386000AB380008AB380008AB380008AB380008AC
:10387000AB380008AB380008AB380008AB3800089C
:1038800083390008F3380008AB3800081D390008F8
:10389000AB38000861390008AB380008AB380008C5
:1038A00061390008B9F1500F6BD0DAF80430DAF85A
:1038B000000001223946984701360BE054F8042BEA
:1038C000CDE9003543463AB1344904225046FFF76A
:1038D000E3FC0644791C0BE731490522F6E754F86E
:1038E000042B8DF81C20CDE900350122434607A9A1
:1038F000ECE707A954F8040B04931DF02EFBBBF171
:10390000FF3F049B014604D0079A934538BFCDF88A
:103910001CB0CDE90035079A4346D7E754F8041B9D
:1039200005930846049140F05FFCBBF1FF3FDDE9E1
:103930000413024602D0584528BF5A46CDE9003547
:103940004346C3E7CDE9023561230093CDF80480F7
:103950000A23012254F8041B5046FFF7FBFCB8E78A
:1039600029F00F0209F101010F3A01F00601D2B26C
:10397000CDE90235CDF804800092C1F11003002298
:10398000E8E7CDE9023561230093CDF804801023E8
:10399000F5E7304609B0BDE8F08F00BF74D00508E8
:1039A00079D005080EB403B503AA52F8041B01929E
:1039B000FFF798FE02B05DF804EB03B0704700001B
:020000040802F0
:10000000FEE700000F49D1F8883043F47003C1F8CF
:1000100088300D4B1A68002042F001021A60986087
:100020001A6822F0847222F480321A60074A5A60F9
:100030001A6822F480221A60D8604FF000638B6047
:10004000704700BF00ED00E000380240103000248F
:1000500010B5002494B02C22214609A8039424F062
:1000600089F8294B00941A6C42F080521A641B6C78
:1000700003F080530093009B244B01941A6842F4D0
:1000800040421A601B680A9403F440430193012222
:10009000019B04944FF48033CDE9072310234FF4E0
:1000A00080000F220B930223CDE90D3002924FF016
:1000B000080EC02211930423CDE90FE212934FF4EE
:1000C000A0524FF4805307A8CDE9052328F0AAF8E1
:1000D00010B10F482DF048FE109B0F9A3021DB0025
:1000E000B3FBF2F3B3FBF1F201FB1232003A1199C8
:1000F000B3FBF1F118BF012202A82FF0EBFA08B10F
:100100000448E7E714B010BD00380240007000401A
:1001100064830508768305080446DFF82CD00B4974
:100120000B4A0C4B03E051F8040B42F8040B9A42C3
:10013000F9D300200849094A01E041F8040B914233
:10014000FBD320462DF066BFF8BF032094C40608F9
:10015000000000202400002024000020A82400200B
:1001600040F8044B40F8045B40F8046B40F8047B13
:1001700040F8048B40F8049B40F804AB40F804BB03
:1001800040F804CB40F804DB68467047024B5A69DC
:10019000026058610020704724000020024B5A6919
:1001A00012685A61704700BF24000020024B9A6910
:1001B000C0E900219861704724000020044A936937
:1001C0001968916110B15A6818461047704700BF0E
:1001D0002400002038B5054D0446AB690BB1A3429D
:1001E00000D338BD0120FFF7E9FFF6E72400002027
:1001F000C460056146618761C0F81C80C0F820902A
:10020000C0F824A0C0F828B0C0F82CD080ED0C8B2A
:1002100080ED0E9B80ED10ABC0F808E0FFF7B6BF95
:10022000124D6C6908B50CB92DF0E0FE60602046F7
:10023000FFF7D0FF23686B612046C46805694669F3
:100240008769D0F81C80D0F82090D0F824A0D0F88E
:1002500028B0D0F82CD090ED0C8B90ED0E9B90ED4B
:1002600010ABD0F808E00120704700BF2400002048
:1002700010B50021044600F0B5FA18B914B12046B3
:100280000CF022FB10BD002100F0ACBA10B501212A
:10029000044600F0A7FA18B914B120460CF014FB7C
:1002A00010BDFFF7E5BF10B501220C4600F0AAFB18
:1002B00018B914B120460CF007FB10BD00F0A2BB2A
:1002C00000F062BB2DE9F0432A4C00254FF0030CEF
:1002D000D4F88C620021013143189A0803F003031B
:1002E000B25C5B0042FA03F303F00303022BF2D08B
:1002F000D4F89832090103EB00108E0889B300EBA3
:10030000860603681A0729D1D4F898125A1AC2F33C
:10031000011E99424FEA92174FEA4E0E4FEA12120F
:100320001CD8D4F89C12994218D9D4F88C8218F8A9
:10033000071041FA0EF303F003030CFA0EF9012B38
:1003400041EA09010AD104EB450E3F2D08F80710D8
:100350009ABF0135AEF8A822C4F8A4320430B042E6
:10036000CFD12DB1013D04EB4503B3F8A802AFE7AF
:10037000BDE8F0832400002030B51C4CD4E9A5531F
:10038000C01AC109C0F3021E6B5C012202FA0EF210
:1003900023EA02036B54D4F8A02283094FEA101C0D
:1003A000B2EB901FD4F88C0288BFC4F8A032C15CB5
:1003B0004FEA9C0E0CF0030303255B0005FA03F3E0
:1003C00021EA030100F80E100CF1010CD4F88C02A4
:1003D0004FEA9C0E0CF0030310F80E105A0041FA7D
:1003E00002F202F00302022AE7D030BD240000200E
:1003F00021F00F0138B50B1A134A144C013BDB00F6
:10040000A2FB03235B0A9A00C4E9A3030546C4F8D0
:100410009C120732A1EB831101331D4403EBD2027E
:10042000C4F898120021C4F8945223F0A3FE0023CC
:1004300001214FF0FF32C4E9CB32C4F8A03223814E
:10044000A4F8281338BD00BFF32C23FA24000020A1
:10045000024A138901331381704700BF2400002032
:10046000024A1389013B1381704700BF240000201A
:10047000024B1889003818BF012070472400002063
:10048000F8B51C4D2B8900220133C5F82C232B8194
:10049000C5F8A42205F1080405F5F076032754F801
:1004A000043F1A071AD1D5F89822981AC0F30111FF
:1004B00093424FEA901C4FEA41014FEA10100DD3CE
:1004C000D5F89C22934209D2D5F88CE21EF80C2074
:1004D00042FA01F303F00303012B02D0A642DED15E
:1004E000F8BD07FA01F10A430EF80C20FFF7EAFE07
:1004F000F4E700BF24000020A9B32DE9F0411A4E13
:100500000F46051F00244FF0030855F8043F1A0753
:1005100004F101041AD1D6F89822981AC0F3011CEC
:100520009A424FEA90114FEA4C0C4FEA10100DD846
:10053000D6F89C229A4209D9D6F88CE21EF80120FE
:1005400042FA0CF303F00303012B03D0A742DCD1E2
:10055000BDE8F08108FA0CFC42EA0C020EF801201A
:10056000FFF7B0FEF2E77047240000202DE9F04FBE
:100570005A4ED6F8A43285B0002B00F0AA80D6F8E7
:10058000903200259800C6F8A452002843D00024D9
:10059000D6F88C12A30804F00302CB5C520013417E
:1005A00003F00303032B3FD001348442F0D3D6F889
:1005B000A432002BE7D170B34FF0000C654603273F
:1005C0004FF001094FF0020804E0012B4AD0013539
:1005D000854220D2D6F88CE24FEA950A05F0030452
:1005E0001EF80A20640042FA04F303F00303022B0E
:1005F0000EEB950128D0032BE7D108FA04F422EA88
:1006000004020EF80A20D6F890320135980085428F
:100610004FF0000CDED333890022013BC6F8A02244
:10062000338105B0BDE8F08F2046FFF74BFED6F8CA
:1006300090320134B4EB830F4FEA8300A8D3D6F88D
:10064000A432002B9FD1B6E7BCF1000FBFD007FA50
:1006500004F422EA04040C70D6F890324FF0010C36
:100660009800B4E7D6F89402EB0805F0070B10F8F1
:1006700003E0019300EBD50C4EFA0BF0C307E6D56F
:10068000D6F898022901415800EB0510A9B102AA39
:10069000B2210BF0BDFADDE9013242B10CF088FB6A
:1006A000DDE902010CF054FB0CF098FB019BD6F83D
:1006B000942212F803E002EB030C09FA0BFB2EEA7A
:1006C0000B0E8CF800E0D6F88C1211F80A20514479
:1006D000BDE7D6F8903298006DE700BF24000020F7
:1006E000044B1A8900210132C3F8A4121A81FFF7C2
:1006F0003DBF00BF24000020394BD3E9A6122DE9ED
:10070000F047521A0024D3E9A361C0E90144C0E9CB
:100710000344C0E9054402604FEA810CA64627461F
:1007200025462246A1462146A04616F80930490032
:100730000B4103F00303012B47D0022B41D0002BC8
:1007400038D0013294450ED04FEA920902F00301ED
:1007500016F809304FEA410A43FA0AF313F003038B
:1007600001D0012BE1D1012D11D0022D02D141691F
:10077000013141618169A94238BF856194450FD03B
:10078000012B26D04FEA920902F00301CDE701695F
:10079000013101618169A94238BF85619445EFD17A
:1007A000474500D9C76024014FEA0E13C0E9014351
:1007B000BDE8F0870EF1010EC0F808E001371D46D4
:1007C000BFE7013444600135BBE7013444601D4696
:1007D000B7E7B84501D2C760B8460027D2E700BFE7
:1007E000240000200F302DE9F84306095AD0654C4B
:1007F0002389002B56D1B4F82833002B0D460CBFAB
:100800004FF0010E4FF0000E50D1D4F8A002D4F8F2
:100810009072B84239D2D4F88CC2411E6144002291
:100820001AE00132964251D913F00C0F1ED1013259
:10083000964240F29E8013F0300F1CD10132964256
:1008400040F29A8013F0C00F1AD10132964240F262
:1008500096800130B84218D211F8013F13F0030F0F
:10086000DFD013F00C0F4FF00002E0D013F0300F88
:100870004FF00002E2D013F0C00F4FF00002E4D0BE
:100880000130B8424FF00002E6D3BEF1000F09D1AB
:1008900033F032FFD4F8A002D4F89072B8424FF08F
:1008A000010EB8D300231846BDE8F883D4E9CB2362
:1008B0009A42AAD333F020FFD4F8A002D4F8907261
:1008C000B84238BF4FF0010EA5D3EBE78000811A84
:1008D000012A01F1010703D1431C9B08C4F8A0328F
:1008E0004FEA970E07F003081CF80E904FEA4808ED
:1008F0000123023103FA08F343EA090388420CF8A2
:100900000E3013D34FF002084FEA910CD4F88CE26A
:1009100001F003031EF80C905B0008FA03F30131A9
:1009200043EA090388420EF80C30EDD2D4F82C3398
:10093000D4F898823344C4F82C3308EB071312011F
:100940001846002123F016FCEA074FEA0716034673
:10095000A9D50022D4F8940248F80620F90801220B
:10096000445C07F00707BA40224342541846BDE8EA
:10097000F88380000130AAE780000230A7E78000FA
:100980000330A4E724000020034B1A8912B908B1F0
:10099000FFF7F2BC704700BF2400002010F00F02E8
:1009A0001CD11749D1F89832834218D810B4D1F825
:1009B0009C4284420ED9C31AD1F88C429909C3F3E0
:1009C0000110615C4000014101F0030101294FEA7F
:1009D000131306D010465DF8044B704700221046F2
:1009E000704701329918880801F00301205C490022
:1009F00040FA01F101F003010229F2D01201E9E706
:100A0000240000202DE9F84F88460546002800F014
:100A10009F80002970D0524C2389002B70D1D4F8CC
:100A20009812D4F89072411A0809461C08F10F0E6A
:100A3000B6EB870F4FEA1E1E4FEA870A9C4680F0EE
:100A40008D80D4F88C920127B30806F0030B19F8B7
:100A500003304FEA4B0B43FA0BF303F00303022B73
:100A600052D02BB90CF1010C0CEB070373454CD39E
:100A7000BE453DD04DD3BC44F4451BD2D4F894328E
:100A8000C909595C002A3BD000F00700014101F080
:100A900001014046FFF7A6FE064688B33A01294603
:100AA00023F024FB238923BB2846FFF765FC30464F
:100AB000BDE8F88FC2197044904211D94FF0020876
:100AC0009108D4F88C6202F0030316F801C05B00B1
:100AD00008FA03F3013243EA0C0390427354EFD156
:100AE000AEEB07021201002105EB071023F042FBD9
:100AF0002E463046BDE8F88F194B1E89002ED4D003
:100B000000263046BDE8F88F01370136B2459BD14B
:100B1000AEE78644714638444FF0030C8F08D4F892
:100B20008C2201F00303D65D5B000CFA03F3013164
:100B300026EA03038142D355F0D1D4F8A032B3EBB7
:100B40009E0F4FEA9E02D3D9C4F8A0222E46D0E7CA
:100B500001464046BDE8F84FFFF744BE012787E74E
:100B60002400002010B58AB0044603A8FFF7C4FD96
:100B7000DDE90430039A009007492046E2F712FFAE
:100B8000DDE908310698079ACDE9001003492046AF
:100B9000E2F708FF0AB010BD8C830508B083050892
:100BA0002DE9F84FDFF85CB14A49DBF89822074697
:100BB000E2F7F8FEDBF89022920076D0DFF8488169
:100BC000DFF848A1DFF8489100250EE0012B3CD06A
:100BD0002E2241493846E2F7E5FEDBF89032013536
:100BE000B5EB830F4FEA83025FD215F03F060FD0BB
:100BF00005F003067600DBF88C22AB08D35C3341AA
:100C000003F00303022B1ED0032BDFD16D22E0E79C
:100C1000DBF88C122C46A00804F00303085C5B0090
:100C200040FA03F39B0702D101349442F3D3621BD1
:100C30007F2A2ED805F0030676002A014146384661
:100C4000E2F7B0FED7E73D22C3E7DBF898222B019D
:100C5000D2584A452FD0214B9A422ED0204B9A424F
:100C60002FD0204B9A422AD01F4B9A4227D01F4B9D
:100C70009A4228D01E4B9A4225D01E4B9A4226D02B
:100C80001D4B9A4221D01D4B9A420CBF4D22682227
:100C90009FE7920951463846E2F784FEDBF890322E
:100CA00024F03F05B5EB830FC7D338461449BDE8A0
:100CB000F84FE2F7E1BA54228BE74C2289E753223E
:100CC00087E7442285E7412283E7422281E74622E3
:100CD0007FE700BFF88305083C84050824F2050877
:100CE00020E9050880FD050810FC0508F4E5050865
:100CF000A8E505082CEE050880EE0508B0F3050808
:100D0000148405082400002034840508188405088C
:100D1000E0FE0508054B02685B6A59688A4203D306
:100D2000521A0260184670471B68F6E7240000203C
:100D3000014441F20553884204D398B2012838BFD8
:100D40000120704710F8012B03EB43135340F2E7E7
:100D5000034B044A5A620022C3F8E421704700BFE3
:100D6000240000202C3406082DE9F04780460E466A
:100D7000FFF7DEFF124B5C6A07460CB920461AE00B
:100D8000D4F80C90002504F1180A4D4501D12468CF
:100D9000F3E7236933F81530BB420ED163695B5D1D
:100DA000B3420AD15AF825003246414623F00AFAE6
:100DB00018B960682844BDE8F0870135E5E700BF51
:100DC000240000202DE9F84381460E46FFF7CCFFB2
:100DD0000246002840F08B80FF2E03D94549464843
:100DE0000AF098FF454CD4F8E401751C90B1D4E9A1
:100DF0007A132B448B4229D92944FFF75FFA07461F
:100E0000D8B90246D4F8EC11D4F8E401FFF756FA49
:100E1000C4F8E471802D2F4638BF80273846FFF78D
:100E200032FAC4F8E401D0BB2846FFF72CFAC4F824
:100E3000E40198BB28460BF047FDD4F8E8312B4479
:100E4000C4F8E831D4F8E431002BE3D0D4F8EC3125
:100E5000D4F8E47131461F4448462B44C4F8EC31C1
:100E6000FFF766FF49468046324638464FF0000994
:100E700023F03CF907F80690636AD3E90253AB42CA
:100E800025D36D000A2D38BF0A25C5EBC5001830E3
:100E9000FFF7F9F948B9C4F8E401CBE72F4600237E
:100EA000C4F8E871C4F8EC31D0E700F11803626AC5
:100EB000026003EB8503036103EB45034361536861
:100EC000D268C0F80C901344C0E901356062636ACF
:100ED000D3E903215B6921F812809E54911D636A56
:100EE00043F82170D9680131D9605B681A44104613
:100EF000BDE8F8833F84050880EC05082400002045
:100F000010B5044623F070F901462046BDE81040B4
:100F1000FFF758BF07B5019001A8FFF7FBFE019A44
:100F2000036933F8120003B05DF804FB07B50190C4
:100F300001A8FFF7EFFE019B4269D05C03B05DF8AA
:100F400004FB07B5019001A8FFF7E4FE019B0633FF
:100F500050F8230003B05DF804FB13B5019001A81D
:100F60000C46FFF7D7FE019B4269D25C2260063334
:100F700050F8230002B010BD2DE9F8431D460023B0
:100F800003600B6013602B60164BDFF85C905C6AAB
:100F90000746884616460CB14C4505D12B68326889
:100FA00013442B60BDE8F8833B6801333B60E26883
:100FB000D8F800301344C8F800306269E368D118EB
:100FC0008A4207D32046FFF7E9FC2B6824681844BF
:100FD0002860E0E7336812F8010B01330344336003
:100FE000EEE700BF240000202C3406082DE9F8436A
:100FF0000D4B0E4F5C6ADFF83880DFF838900CB18B
:10100000BC4201D1BDE8F883E36804F1180505EBA3
:101010008306B54201D32468F1E755F8042B414615
:101020004846E2F7BFFCF4E7240000202C34060811
:101030004484050880D0050830B50023202411F829
:10104000012F0AB9027030BD120600F101051FD54B
:101050000BB1047028460B78124A03F07F036BB97A
:10106000013A12F8013F13F0800F054600F101002C
:101070000BD003F07F032B700123E0E712F9015B33
:10108000002DFBDA013BDBB2E9E700F8013CE8E7C1
:10109000012B04BF047028460B7800F8013B0223A3
:1010A000CDE700BF4B84050838B543681944036891
:1010B0009942054610D9037B1BB1084800210AF06C
:1010C00029FE01F1100424F0070408348068214649
:1010D000FFF7E9F82C60A86038BD00BF80EC050878
:1010E00070B504460E4611461546FFF7DDFFD4E9FC
:1010F00001302A461844314623F028F863682B440F
:10110000636070BD70B54668B142044628BF314681
:101110000D460121FFF7C8FFA368681C5919721B0F
:10112000184423F013F86368A0680133636028440F
:1011300070BD38B50129044638BF01210025084695
:1011400021606560FFF794F82573A06038BD38B55D
:1011500005460C460131FFF7ECFF6C6038BD0023FB
:10116000C0E90132012301600373704738B51446AA
:101170000546FFF7DEFF024B2560636038BD00BF08
:10118000E1100208037B10B5044613B98068FFF72D
:1011900097F80023A36010BD13B501901020FFF74E
:1011A00067F801990446FFF7C4FF204602B010BD5E
:1011B00010B5044648B1037B13B98068FFF780F887
:1011C0002046BDE81040FFF77BB810BD38B5037B63
:1011D00004460D461BB1074800210AF09BFD01683B
:1011E00080682944FFF75FF82368A0601D442560EC
:1011F000184438BD80EC050838B504460D46FFF7A5
:1012000053FFD4E901301D446560184438BDD0E96E
:1012100000239A4210B5044602D10121FFF7D6FF00
:10122000D4E901320021D154A06810BD10B50C469C
:101230000121FFF7E1FF047010BD7F29F8B50C46CE
:10124000CEB204D80121FFF7D7FF0670F8BD06F033
:101250003F06B1F5006FC1F3871546F0800607D24F
:101260000221FFF7C9FF65F03F0505704670EDE705
:1012700005F03F05B1F5803FC1F3073745F0800524
:1012800008D20321FFF7B8FF67F01F07077045700A
:101290008670DBE70421FFF7AFFFA40C07F03F07E0
:1012A00064F00F0467F07F07047047708570C670A4
:1012B000CCE713B504460846019122F095FF019949
:1012C0000246204602B0BDE81040FFF709BF10B546
:1012D0001446FFF717FF047010BD10B51446FFF752
:1012E00011FF047010BD43688B422CBF591A0021B6
:1012F0004160704738B50446154662688A42084620
:1013000003D929448A4201D8606038BDA368521AC3
:101310001844194422F01AFF63685B1B6360F4E70A
:1013200090F900200378002A0ADA03F07F034022B4
:10133000134207D110F8012F02F0C001802905D017
:101340001846704723EA02035208F1E702F03F0211
:1013500042EA8313EEE7431C18460133027802F099
:10136000C002802AF8D070470023814201D8184675
:10137000704711F8012D02F0C002802A18BF013316
:10138000F3E701440346002099421A4600D870470B
:10139000127802F0C002802A03F1010318BF013065
:1013A000F2E700007F289DBF024B185CC0F34000AD
:1013B00000207047AAD005087F289DBF024B185C0B
:1013C000C0F3C00000207047AAD005087F289DBF49
:1013D000024B185CC0F3800000207047AAD00508BB
:1013E0007F289DBF024B185CC0F38010002070471F
:1013F000AAD005087F2809D8064B1B5C13F00C0FF8
:1014000006D1A0F15F035842584170470020704751
:1014100001207047AAD005087F289DBF024B185CA9
:10142000C0F3001000207047AAD005087F289DBF98
:10143000024B185CC0F3401000207047AAD005088A
:1014400008B50246FFF7E8FF00B12032104608BD9C
:1014500008B50246FFF7EAFF00B1203A104608BD82
:101460003038092884BF20F020000738704710B5B5
:1014700001440246E5240020914203D8B0FA80F0EE
:10148000400917E012F8013B30B103F0C003802B94
:1014900011D1431ED8B2EFE7BF2B09D9F72B09D8DA
:1014A000DB0803F0060344FA03F303F00300E3E769
:1014B0001B06E1D510BD0020FCE7023981420B4636
:1014C00003D31A880239002AF8D00233181A4010C0
:1014D0007047B2EB131F70B54FEA131415D9121BE6
:1014E00003F00F0301EB440115460E46012D31F8C0
:1014F000024B18BF3468DC40A4B2013D20F8024B17
:10150000F3D104B9013A104670BD0022FBE7F0B5F3
:10151000059F0024D21B2646A74210D100EB4705A9
:1015200001EB470100239A4214D105EB42031EB19F
:10153000012125F812100233181A4010F0BD31F8BD
:10154000145033F814C06544354420F814502E0C60
:101550000134E1E731F81340344425F81340260CF8
:101560000133E0E7F0B4049F0025D21B2C46AF42C4
:101570000BD100EB470601EB470500239A420FD140
:1015800006EB4201F0BCFFF798BF31F81560344418
:1015900033F81560A41B20F8154024140135E6E744
:1015A00035F813100C4426F8134024140133E5E7F2
:1015B0002DE9F043079CDDF828E0DDE908760239E3
:1015C000154684464FF6FF78A4EB020955B900EBA7
:1015D00042011FB1012320F812300231BDE8F0436F
:1015E000FFF76BBF31F8024F013D4444264405EB41
:1015F0000904AC4296BF33F8024B4FF6FF744444E3
:10160000744486EA040E17FA8EF72CF8027B4FEA30
:10161000144E360C3F0CD9E738B5022904468068D1
:1016200038BF02210D4618B12368B1EB930F07D9DB
:101630006900FEF738FE2368A06065F39F0323600E
:1016400038BD38B504460C20FEF712FE2368227818
:10165000054602F00102C3F39D0023F00303134388
:101660002B6063686B604000FEF702FEA860226892
:10167000A168C2F39D02520022F038FD284638BD11
:10168000994210B511D313D800EB410002EB41028F
:1016900009B9084610BD30F8023D32F8024D1B1B57
:1016A000002B02DB04D10139F2E74FF0FF30F1E704
:1016B0000120EFE710B5044638B18068FEF700FE60
:1016C0002046BDE81040FEF7FBBD10BD70B50546D5
:1016D0000C460221FFF7A0FF002C2B78B4BF01229B
:1016E000002262F30003AA682B70B4BF6142214656
:1016F000012388B2090C14461E4622F8020B03F19E
:101700000103F6D16E60208070BD0023C0E9003374
:101710008360704728B103789B0702D48068FEF786
:10172000CFBD704738B505460C464968FFF774FFD2
:1017300022782B78A86862F300032B7063686B60D3
:101740006268A1685200BDE8384022F0CFBC0A466A
:1017500029B90178426062F3000101707047FFF718
:10176000B5BF08B5FFF7D1FFBDE80840FFF7EFBFF1
:10177000920042F0020210B402600022C0E901218E
:101780005DF8044B1946FFF7E2BFF8B59DF81870F5
:1017900014461D4604210646FFF73EFF22462B460F
:1017A00027B1002D0CDA624265EB4503317867F30F
:1017B000000131700021716052EA030102D1F8BDCD
:1017C0000027F3E7D6E901104C1C746020F81120C3
:1017D000120C42EA03421B0CEEE72DE9F3418DEDBA
:1017E000010A019C0378E20F62F300030370C4F363
:1017F0000F4313F4FF43074608D13B786FF3000310
:101800003B7000237B6002B0BDE8F081B3F5FF4F71
:10181000F3D0C4F3C753A3F17F05002DEDDB05D151
:10182000012102B0BDE8F041FFF750BFA3F16F08FE
:10183000C4F31604162D4FEA281844F4000421DCE2
:10184000C5F11705EC4000252E4641463846FFF706
:10185000E3FEC7F8048026B1B8687200002122F0C8
:1018600089FC45B1BB6804FA05F223F81620C5F1DE
:101870001005EC400136B045C5D0BB6823F81640D2
:10188000240CF7E7B3F1960605F1090548BFA3F16B
:10189000870605F00F053611D7E72DE9F843044612
:1018A0008F18C2F35B020D46511C9846089EFFF745
:1018B000B3FE237868F300032370AC4600221FFABE
:1018C00086FEBC456046626002D3401BBDE8F883DB
:1018D0000178A1F13003092B0CF1010C05D9A1F11C
:1018E0004103192B12D8A1F13703B342EDD2A068FE
:1018F00090468146B8F1000F0FD100EB420113B1C1
:1019000020F812300231091A4A10DAE7A1F1610316
:10191000192BDAD8A1F15703E7E7B9F8001001FB5A
:101920000E3329F8023B08F1FF381B0CE2E7F8B54B
:10193000044615461E46C1B1531E1E444FF0FF37E4
:10194000E9000F3109092046FFF766FE23780021E0
:101950006FF30003237061604DB9D4E9011000EB0F
:101960004101FFF7AAFD6060F8BD0127E8E7002309
:101970000F2908DC32788A401343013D9BB201F104
:1019800008013E44F4D16268501C6060A0681039C0
:1019900020F81230E0E738B505780B7805F0010241
:1019A00003F001030446981A08D1D1E90132D4E9C1
:1019B0000110FFF765FEEB0748BF404238BD884283
:1019C00010B5044601D0FFF7ADFE23786FF3000396
:1019D000237010BD884210B5044601D0FFF7A2FE67
:1019E00063683BB12378C3F30002C2F1010262F3E2
:1019F0000003237010BD88421FB5044601D0FFF7D5
:101A000091FE626862B901212046FFF705FEA268D7
:101A1000012313806360237843F00103237010E0F7
:101A20002378D9070FD5A1686FF300032370012332
:101A3000ADF80E30009308460DF10E03FFF792FD4E
:101A4000606004B010BD511C2046FFF7E5FDA168A1
:101A500062680123ADF80E30009308460DF10E03C5
:101A6000FFF755FD6060D6E72DE9F8434B68054662
:101A70000E46144603B12AB931462846BDE8F8435C
:101A8000FFF750BE02F10F014FEA111803EB1111DD
:101A9000FFF7C2FDD6E9013208EB0307A96807F199
:101AA000004C14F00F040CF1FF3C01EB4C0C08BF90
:101AB000102402EB43021946E1464FF0000EC4F138
:101AC000100401BB6FF0010253430CEB0300C8F19B
:101AD00001082EFA04FE4FEA480200EB480840468F
:101AE0002CF803E0524222F045FBA8F1020817B19E
:101AF00038F817309BB16F6032782B7862F30003AF
:101B00002B70BDE8F88332F8020D40EA0E0020FA8F
:101B100004FE29F802E901394FEA004ED1E7013FFE
:101B2000E5E72DE9FF410D4649680646144601B137
:101B300032B92946304604B0BDE8F041FFF7F2BDA6
:101B4000FFF76AFDB768D5F808806A682346414602
:101B50003846FFF7BEFC70602978337861F30003E4
:101B60003370DB0702462AD500236968ADF80E30D2
:101B70002009994201D083420ED181421FD904F03D
:101B80000F04012338F8101003FA04F4013C214239
:101B900011D0ADF80E3007E038F813504DB10123E5
:101BA0008142ADF80E30EAD801235AB93B80736008
:101BB00005E00133DDE7BDF80E30002BF4D104B0B1
:101BC000BDE8F081009339460DF10E033846FFF76A
:101BD0009EFC7060F3E773B50C4615460646D2E9E5
:101BE0000132D1E90110FFF74BFD0028BEBF2346AB
:101BF0002C461D4623782A7861685340DB071AD4A7
:101C000001313046FFF708FD6B680093D4E90121EC
:101C1000AB68B068FFF77BFC706023783278C3F361
:101C2000000300280CBF002303F0010363F300024C
:101C3000327002B070BD3046FFF7EEFC6B68009367
:101C4000D4E90121AB68B068FFF78CFCE4E7F7B595
:101C50000C4617460546D2E90132D1E90110FFF7DB
:101C60000FFD0028BEBF23463C461F4623783A7826
:101C7000616883EA0203B4BF01260026DB0719D599
:101C800001312846FFF7C8FC7B680093D4E90121A5
:101C9000BB68A868FFF73BFC6860B8B1237803F025
:101CA00001030EB183F001032A7863F300022A7066
:101CB00003B0F0BD2846FFF7AFFC7B680093D4E982
:101CC0000121BB68A868FFF74DFCE5E70346EBE799
:101CD0002DE9F04F14464A6863689A420D463EBFAC
:101CE00025460B461C462B786968DB0785B00646FF
:101CF00022D4237813F001071ED1FFF78DFCD4E91D
:101D0000011CB068AD683B4699420CD100EB410123
:101D1000FFF7D3FB00237060327863F30002327068
:101D200005B0BDE8F08F35F813203CF81340224091
:101D300020F813200133E7E701313046FFF76CFC50
:101D40002F782378D5F804C0B068A26887EA030129
:101D5000C94301F0010E41F3000189B207F0010807
:101D600047F300070291B9B20191A968A1F1020AF3
:101D7000616803F0010943F300039BB2A1EB0C017E
:101D800000936746834603918FB900EB4C01BEF187
:101D9000000F03D0012320F81C300231FFF78DFB28
:101DA000706022782B78C2F300021340B4E73AF84F
:101DB000021F019B5940039B013F8844D919B94236
:101DC0009BBF32F8021B009B009959408944029B3B
:101DD00008EA090159401EFA81F12BF8021B4FEA6B
:101DE00019494FEA18484FEA114ECDE72DE9F84F4F
:101DF00015464A686B689A420C463EBF2C460B4615
:101E00001D4623786168DB07064632D42A7812F033
:101E100001072ED1FFF700FCD5E9013EA1686468F7
:101E2000D6F808C0E41A3A46934213D101EB4301B5
:101E300000220CEB4303944215D103EB4403A3EBC4
:101E40000C03581000223378706062F30003337083
:101E5000BDE8F88F31F812003EF8125028432CF8F4
:101E600012000132E0E731F8120023F812000132CB
:101E7000E1E701313046FFF7CFFB22782B7861682C
:101E8000B068A468D5E901E702F0010803F0010990
:101E900042F3000243F3000392B29BB2A4F1020C9E
:101EA0000D4683464FF0010AAEEB010E2DB900EB53
:101EB0004101FFF702FB0122C5E73CF8024F013D5B
:101EC0005440A0440EEB0504AC4296BF37F8024BD9
:101ED0001C465C40A14448EA0904E4431AFA84F42D
:101EE0002BF8024B4FEA19494FEA18484FEA144AB7
:101EF000DCE7F0B515464A686B689A4238BF0B4676
:101F00000C463CBF2C461D4627782B7861685F4005
:101F100017F0010785B006463BD1FFF77DFB23781C
:101F200013F0010329D1D5E9012C6168B068A768D5
:101F3000891A9A4212D107EB4207002300EB4202B2
:101F4000994214D102EB4101FFF7B7FA7060002704
:101F5000337867F30003337005B0F0BD37F81340F2
:101F60003CF813506C4020F813400133E1E737F898
:101F7000134022F813400133E2E7CDE902770197DD
:101F80006B680093D4E90121AB68B068FFF710FBE0
:101F9000DCE70131FFF740FB2B78B068DB4303F04F
:101FA000010303932378DB4303F00103012702932A
:101FB00001976B680093D4E90121AB68FFF7F8FA49
:101FC0007060C5E72DE9F04F4B6885B004460E46BA
:101FD00015460BB1536843B923786FF300032370A0
:101FE0000023636005B0BDE8F08F81422ED1FFF77A
:101FF00028FBA5420646074600D105466B68716876
:1020000020461944FFF708FB2268A068C2F39D022E
:102010005200002122F0AEF8B368D4F808E0D6F8F8
:1020200004900193AB68029300226B6803930EEB5C
:102030004908F4461146039B934231D0DDF804B0C1
:10204000CDF80090ACF10200002318E0824204D1E8
:10205000FFF7F7FA05460746D0E70027CEE730F846
:1020600002AF53441946029B3BF802AB33F81230DF
:1020700003FB0A130099038001391B0C009100999E
:102080000029ECD14146881C13B1A8F80030014664
:10209000A1EB0E0149100CF1020C01328046CAE797
:1020A00061602A78337853402278384663F300021F
:1020B000227005B0BDE8F04FFFF7FCBA4B6870B571
:1020C0000546144613B11378DA0706D52B786FF35B
:1020D00000032B7000236B6070BD636823B9BDE8FB
:1020E00070400121FFF7F2BA0846FFF7AAFA064648
:1020F0002046FFF7A6FA012104462846FFF7E6FA34
:10210000636883B1A3681B88DB0704D53246294680
