:020000040800F2
:1000000068120020AD0100081939000859320008B3
:1000100015390008CD020008CD7500080000000069
:10002000000000000000000000000000BD4D0008BE
:10003000D10200080000000029390008C14D000865
:10004000C7010008C7010008C7010008C701000870
:10005000C7010008C7010008C7010008C701000860
:10006000C7010008C7010008C7010008C701000850
:10007000C7010008C7010008C7010008C701000840
:10008000C7010008C7010008C70100080000000000
:10009000000000000000000000000000C701000890
:1000A000C7010008C7010008C7010008C701000810
:1000B000C7010008C7010008C7010008C701000800
:1000C000C7010008C7010008C7010008C7010008F0
:1000D000C7010008C7010008C701000800000000B0
:1000E000C7010008C7010008C701000800000000A0
:1000F000000000000000000000000000C701000830
:1001000000000000C7010008C7010008C70100087F
:1001100000000000000000000000000000000000DF
:10012000C7010008C7010008C7010008C70100088F
:10013000C7010008000000000000000000000000EF
:100140000000000000000000000000001D39000851
:10015000C7010008C7010008C7010008C70100085F
:10016000C7010008C70100080000000000000000EF
:10017000000000000000000000000000000000007F
:1001800000000000C701000800000000000000009F
:10019000C7010008C7010008DFF80CD000F07EF8A6
:1001A0000048004729770008681200200648804769
:1001B00006480047FEE7FEE7FEE7FEE7FEE7FEE74C
:1001C000FEE7FEE7FEE7FEE7694E0008990100083A
:1001D0002DE9F05F0546002092469B46884606467C
:1001E000814640241BE0284641464746224600F00F
:1001F00045F853465A46C01A914110D31146184645
:10020000224600F02CF82D1A67EB01084F462246D3
:100210000120002100F023F817EB00094E41201EB9
:10022000A4F10104DFDC484631462A464346BDE8D6
:10023000F09F30B50B46014600202022012409E042
:1002400021FA02F59D4205D303FA02F5491B04FA8F
:1002500002F52844151EA2F10102F1DC30BD202A6E
:1002600004DB203A00FA02F1002070479140C2F10D
:10027000200320FA03F3194390407047202A04DB3F
:10028000203A21FA02F00021704721FA02F3D0400F
:10029000C2F1200291400843194670471CB5094835
:1002A0000090094801900546009C06E0E06840F097
:1002B000010394E8070098471034AC42F6D3FFF7E7
:1002C0006FFF0000507C0008707C0008FEE7000013
:1002D0007047000072B600BFFEE70000B0B50446EC
:1002E00000F0D8F9054640F20400C2F200000078A0
:1002F000611C18BF044400BF00F0CCF9401BA042B1
:10030000FAD3B0BD2DE9F04F83B000F13E4202F1C7
:10031000FF72830543EA922241F200038946C4F248
:100320000203072143F6004A984208BF0421C4F2A1
:10033000010A042A38BF1146002704220224029130
:10034000CDF8009025E000BF01680323A3406FF0C3
:100350000305994305EA57050160054402F01C01B5
:100360002E6A0F2707FA01F126EA01012962C16806
:100370009943C160416821EA0E0141608168994357
:1003800081600CF101070832102F04F1040400F021
:100390009980012101FA07FE1EEA090858D0AAF542
:1003A0007E7C27F00303111F55465CF803A00191E2
:1003B00001F0080B0F2101FA0BF902990AEA09066C
:1003C00001FA0BF3AA469E4220D1DAF8003043F638
:1003D0000C4523EA0803CAF80030DAF80430C4F206
:1003E000010523EA0803CAF804302B68BE0823EA93
:1003F00008032B60DAF8083023EA0803CAF808304B
:100400005CF8263023EA09034CF82630A31E066860
:10041000032101FA03F39E43066001990F2601F0C0
:10042000180C6FF0030101EA570101440D6A06FA46
:100430000CF625EA06060E62C1689943C160416860
:1004400021EA0E014160816899438160DDF80090E6
:1004500007F1010C012101FA0CFE1EEA090590D0FA
:10046000AAF57E7327F00301595802F00C064FF0ED
:100470000F08DDF808B008FA06F801EA08010BFADF
:1004800006F6B1427FF460AFDAF8001043F60C468E
:10049000A943CAF80010DAF80410C4F20106A9430F
:1004A000CAF804103168A9433160DAF80810BE08B0
:1004B000A943CAF8081053F8261021EA080143F8A6
:1004C000261041E703B0BDE8F08F00002DE9F04FA2
:1004D00082B000F13E4707F1FF77860546EA97278D
:1004E00041F20006C4F20206072243F6004EB04273
:1004F00008BF0422C4F2010E042F38BF3A4600267A
:1005000000274FF00008009209E000BF08F1010841
:100510000237B8F1100F06F1040600F0A3800D6851
:10052000012202FA08F415EA0409EFD0D1F804B068
:1005300003220BF0030CACF10105BA40012D6FEA68
:10054000020A0FD88268CD6802EA0A02BD402A4337
:1005500082604268A243CBF3001404FA08F42243F9
:10056000426005E0BCF1030F02D14FF0030C1EE026
:10057000C2688C6802EA0A02BC402243BCF1020F46
:10058000C26014D16FF0030202EA58020244D2F8AA
:1005900020C006F01C040F230D69A3402CEA0303BE
:1005A000A5402B431362D1F804B00BF0030C026892
:1005B0000CFA07F302EA0A021A431BF4403F0260F6
:1005C000A4D0002243F644030192C4F202031A6845
:1005D0004FF6084C42F480421A601A68CFF6FF7C4E
:1005E00002F480420192019A28F00302724452F808
:1005F0000C3006F00C050F24AC40A343009C04FA19
:1006000005F52B4342F80C30DEF808204B6842EA2F
:10061000090543F60C4CDC0258BF22EA0905CEF866
:100620000850C4F2010CDCF800209C0242EA0905E3
:1006300058BF22EA0905CCF80050DEF804209C03DC
:1006400042EA090558BF22EA0905CEF80450DEF84F
:100650000020DB0342EA090558BF22EA0905CEF86B
:10066000005053E702B0BDE8F08F00000069084079
:1006700018BF012070470000426902EA010391435C
:1006800041EA034181617047002A08BF0904816182
:100690007047000040F66460C2F2000000687047D6
:1006A00040F2040040F66461C2F20000C2F20001B0
:1006B00000780A68104408607047000080B543F66F
:1006C0000040C4F20200016841F400710160016859
:1006D00041F480610160016841F480710160032090
:1006E00000F086F80F2000F005F800F027F8002051
:1006F00080BD000070B540F20406C2F2000640F270
:1007000048013278C2F200014FF47A730968B3FBF2
:10071000F2F20446B1FBF2F1084602F065FC0F2C40
:100720004FF0010508D838B94FF0FF3021460022BC
:10073000002500F031F87460284670BD82B00020BA
:1007400043F640010190C4F202014A6842F480423B
:100750004A604A6802F480420192019A0090086857
:1007600040F080500860086800F0805000900098C9
:1007700002B07047002848BF704700F01F010122F7
:1007800002FA01F11C2202EAD0004EF20012CEF26F
:10079000000281507047000010B54EF60C5CCEF29E
:1007A000000CDCF80030C3F3022E8EF00704042C9A
:1007B00028BF0424BEF103034FF0FF3E0EFA04F4F9
:1007C00038BF0023A14399400EFA03F39A43114323
:1007D00000F00F0200F160430901043A03F564439D
:1007E0006244002848BF02F10C03197010BD0000DC
:1007F0004EF60C51CEF200010A684FF6FF031A4084
:1008000060F30A2242F0806040F0FD70086070479B
:100810007047000002680020516270472DE9F041E6
:10082000D0F80080D8F8243081B1D8F82870B1F120
:10083000010E03EB174355D05FFA8EF104290EF039
:10084000030C0BD2002700212DE000BF43EA024138
:100850000020C8F82810BDE8F08100BF0EF0FC04AD
:1008600008F1F405002108F5827600BF55F8107FE5
:1008700041F0020003EB174341F00107FFB256F8C5
:100880002770C0B256F8200003EB174303EB10406B
:1008900041F00303DBB256F823300431CFB2A74254
:1008A00000EB1343E2D1BCF1000F1BD008EB870033
:1008B000D0F80401BCF1010F03EB104312D0481C27
:1008C000C0B208EB8000D0F80401BCF1020F03EBCA
:1008D000104307D0881CC0B208EB8000D0F8040198
:1008E00003EB104343EA024008EB8E01C1F8040118
:1008F0000020BDE8F0810000D0F8E00404F036BE2E
:1009000001EBC102D0F8E03400EB8200026A184625
:1009100004F08EBD01EBC102D0F8E03400EB8200A0
:10092000D0F86022184604F0E1BD0000D0F8E004E1
:1009300004F01EBE10B5044648B2B0F1FF3F01F00E
:100940000F0000EBC00104EB810205DD02F515711B
:10095000002382F8553203E0012302F1140153759C
:1009600094F894240870012A04BF022010BD206866
:10097000012284F8942405F073FD002084F8940487
:1009800010BD0000B0B50279044601F00F0090429E
:1009900084BF0120B0BD49B2B1F1FF3F0ADD00EBD9
:1009A000C00104EB810202F51571002382F8553273
:1009B00008E000BF00EBC00104EB8102012302F15B
:1009C0001401537594F894240025012A8D70087041
:1009D00004BF0220B0BD2068012284F8942406F0F0
:1009E00029F8284684F89454B0BD000010B5044698
:1009F00090F89404012804BF022010BD4BB2206877
:100A00000122B3F1FF3F84F8942405DD06F000FADB
:100A1000002084F8940410BD01F00F0106F058FA8C
:100A2000002084F8940410BD01F00F0101EBC10116
:100A300000EB8100D0F868027047000070B50646F0
:100A400048B2B0F1FF3F01F00F0000EBC00107DD3D
:100A500006EB810404F51571002584F8555206E073
:100A600006EB810C01240CF114018CF815404D7833
:100A70006FF3DF22002D08708A600B7118BF488366
:100A8000022B04BF0020487196F89404012804BF8B
:100A9000022070BD3068012286F8942405F052FBD4
:100AA000002086F8940470BD10B501F00F0404EB2B
:100AB000C40100EB810E4FF0000CCEF868C28EF836
:100AC00055C290F806C0CEF86022CEF86432BCF170
:100AD000010F8EF8544208BFCEF8702200680EF560
:100AE0001571624605F0F0FF002010BDB0B5044658
:100AF000007901F00F05854284BF0120B0BD48B2E6
:100B0000B0F1FF3F0ADD01EBC10004EB800000F50E
:100B10001571002280F8552208E000BF05EBC500E2
:100B200004EB8000012200F11401427594F8940452
:100B3000012201288A700D7004BF0220B0BD206818
:100B400084F8942405F0A0FF25B1002084F89404D3
:100B5000B0BD00BF2068A17904F29C4205F03CFFC3
:100B6000002084F89404B0BD80B501F00F0C0CEBAC
:100B7000CC0100EB810E714601F814CF4FF0000C50
:100B8000C1F814C04FF0010C81F801C090F806C004
:100B9000CA60BCF1010F0B6108BFCEF830200068BD
:100BA000624605F091FF002080BD00002DE9F04F66
:100BB00089B0D0F800A00646504606F0F7F918B103
:100BC00009B0BDE8F08F00BF306806F01DFA0028BC
:100BD000F6D0DAF80808C0F30D213068C6F8D4144E
:100BE00006F012FA01463068890703D5416901F021
:100BF000020141610AF50061049106F005FA01461F
:100C00003068C90608963BD5816921F010018161E1
:100C1000DAF82040C4F34340062804F00F0519D049
:100C2000022828D147F6F07014EA000823D005EB1B
:100C3000C50006EB8007D7F860124FEA181450463B
:100C4000224606F0E5F9D7F8600200EB1810C7F865
:100C5000600207E006F29C415046082206F0D8F9EF
:100C6000C4F30A1405EBC50006EB8000D0F8681247
:100C70002144C0F868123068816941F01001816137
:100C800006F0C2F9000340F1F5800898006806F00C
:100C900099F9002800F0EE80064608984FF4306479
:100CA00000F29C4100F51D784FF0000B079119E010
:100CB0000AEB040002218160B80642BF0AEB04007F
:100CC00020218160B80442BF0AEB04004FF40051B8
:100CD00081600BF1010B760804F1200408F124086F
:100CE00000F0C880F007F4D008985FFA8BF900682C
:100CF000494606F081F90746C00763D00AEB0400B5
:100D000001218160089D28682118036C8A68AD79EB
:100D1000012D29D1150735D4950600F1A38012F0D5
:100D2000280F4FD143F20B05C4F65475AB4202D3E2
:100D300012F400422FD1D8F800200969BBF1000F4E
:100D40006FF3DF41A2EB010148F80C1C35D1089B81
:100D5000D3F86422002A00F08B80D3F860020844A4
:100D6000C3F8600229E000BF43F20B05C4F65475D6
:100D7000FF35AB4216D110040DD4900644BF20209D
:100D800088601AE043F20B00C4F65470834219D312
:100D900012F4004016D04FF400408860380713D496
:100DA00040E000BFBBF1000F07D10899D1F86412F1
:100DB00019B90021079A05F00FFE08984946FFF778
:100DC000A9FD00BF38072DD50AEB0400082181607A
:100DD000089843F20B020068C4F65472056C204474
:100DE000816895420AD311F4004107D04FF40041C5
:100DF0008160089800F020FD09E000BF089800F02D
:100E00001BFD43F20B00C4F6547085420AD30898C8
:100E10008079012806D10898079A0068012105F019
:100E2000DBFD00BFF80642BF0AEB04001021816021
:100E3000B8077FF541AFDAF81400000604D504992D
:100E4000486840F48060486018F81D0C01287FF461
:100E50002FAF002008F81D0C0898494600F042FB0F
:100E600026E700BF202088603807ADD4DAE700BF4E
:100E700001219FE7DDF820B0CDF80CA0DBF80000E1
:100E800006F0C2F8400340F1D580DBF8000006F020
:100E900091F8002800F0CE8082460398012700F5E3
:100EA00010660BF29C4000250190029606E000BF00
:100EB0005FEA5A0A05F1010500F0BC805FEACA70DA
:100EC000F6D0DBF80000E9B2079106F083F804469B
:100ED000C00725D0049A05F00F00516B07FA00F007
:100EE00021EA0000506306EB451087609BF806007E
:100EF000012811D105EBC5000BEB8000D0E90712EA
:100F00001144016245B9DBF8240028B9DBF8000080
:100F1000019A012105F060FD07995846FFF7F0FCA2
:100F2000200742BF06EB451008218160E00642BF62
:100F300006EB451010218160600642BF06EB4510AC
:100F400040218160A00715D50398294605F0C0FF10
:100F500005EBC5000BEB800010F8171F012905D128
:100F6000002101700799584600F0B8FA06EB4510C9
:100F70000221816020069BD505EBC5000BEB8002AA
:100F8000914659F8241FC84658F8040F81428FD360
:100F9000DBF8006093465BF81C7F0B1ABB4238BF3E
:100FA0001F46069606EB4513D3F818C907F1030E42
:100FB0001FFA8CF7B7EB9E0F28D303F5106102F1EF
:100FC00020070591D9F8001081421FD9DBF80040B5
:100FD000089A081AA0423968967938BF0446DDE9B4
:100FE0000602A3B2009606F0BBFA3868D8F80010E3
:100FF0002044386008190599C8F800008969E21C86
:1010000089B2B1EB920FDDD2D9F80010DDF820B033
:10101000029E012781423FF64BAF069A05F00F0072
:10102000D2F8341807FA00F021EA0000C2F83408B8
:101030003EE700BFDBF8000005F0E6FF002825D4FE
:10104000DBF80000DDE9038905F0DEFF000540D490
:10105000DBF8000005F0D8FFC0044BD5D9F8040038
:10106000102120F00100C9F80400DBF8000005F0B1
:101070002FFF9BF80400010600F0F080C1B20429A4
:1010800000F003003AD200219FE000BFDDF810908D
:10109000D9F8040020F00100C9F804009BF8CC0442
:1010A000012807D100208BF8CC0458460021FFF717
:1010B000AFFB02E0584600F0A3FBDBF80000DDF8D0
:1010C0000C80416901F00041416105F09DFF000580
:1010D000BED5D9F80800C00702D0584600F0D4FBAE
:1010E000DBF80000416901F40061416105F08CFF0B
:1010F000C004B3D4DBF80000E3E000BF6FF060028F
:1011000002EA411200234FF67F37002108EB030665
:10111000C6F80879D6F80059803325F40015C6F8CA
:101120000059C6F8087BD6F8005B9A4225F40015F2
:10113000C6F8005BD6F8005B01F1040145F00065DC
:10114000C6F8005BC6F82879D6F8205925F40015B2
:10115000C6F82059C6F8287BD6F8205B25F4001580
:10116000C6F8205BD6F8205B45F00065C6F8205B2A
:10117000C6F84879D6F8405925F40015C6F8405904
:10118000C6F8487BD6F8405B25F40015C6F8405BEE
:10119000D6F8405B45F00065C6F8405BC6F8687954
:1011A000D6F8605925F40015C6F86059C6F8687B72
:1011B000D6F8605B25F40015C6F8605BD6F8605B76
:1011C00045F00065C6F8605BA0D1002846D008F560
:1011D000106202EB41134FF67F374E019F60955925
:1011E00008F5306325F40015955103EB4115AF6008
:1011F0009D59012825F400159D519D5945F0006524
:101200009D512BD04E1C02EB46147501A76054591A
:1012100003EB461624F400145451B7605F590228BA
:1012200027F400175F515F5947F000675F5115D0F1
:10123000881C02EB40174FF67F364101BE605758BD
:1012400003EB401027F4001757508660585820F4DD
:1012500000105850585840F000605850D9F81C0001
:1012600040F00110C9F81C009BF80F0040B1D9F8FC
:10127000840040F00B00C9F8840009F1440008E044
:10128000D9F8140042F22B010843C9F8140009F1FF
:10129000100001680BF29C4241F00B010160D9F88B
:1012A000000020F4FE60C9F80000DBF800009BF8A5
:1012B000061005F091FBDBF80000416901F4805154
:1012C000416105F0A1FE0146DBF8000089041AD552
:1012D00004F07AFFDBF8000005F05AFEDBF800406E
:1012E0008BF8070000F04AFC9BF8072001462046D7
:1012F00006F0AAF8584600F071FADBF800004169E0
:1013000001F40051416105F07FFE000706D4DBF8CF
:10131000000005F079FE00060DD437E0584600F0D5
:1013200073FADBF80000416901F00801416105F042
:101330006BFE00062AD5D8F8180020F08000C8F807
:1013400018009BF80400022820D3012440F27B25DA
:1013500005E000BF0134844205F1240516D21BF8D4
:1013600005100129F6D104F00F0000EBC0000BEBD3
:1013700080022006DBF8000002F1140158BF02F5DC
:10138000157105F0B5FC9BF80400E3E7DBF80000FD
:1013900005F03AFEC0024FD4DBF8000005F034FE41
:1013A000800240F17E809BF8041002292BD308F5BF
:1013B000326001390BF51F72012303E0013900F19E
:1013C000200020D01746066812F8245B012DF5D1C5
:1013D000B6F1FF3FF2DCDBF8D45485EA1646F60797
:1013E000ECD107F8013CD8F8187047F08007C8F82E
:1013F0001870D8F814703F06E0D4D9F8040040F40F
:101400000070C9F80400DBF80000416901F4001124
:10141000416105F0F9FD400049D55846FFF76CFAE7
:10142000DBF80000416901F08041416105F0ECFD0D
:1014300040077FF5C5AB41E09BF80400022825D3A7
:1014400008F512640BF13C050126012705E000BFF9
:101450000137874204F1200418D22946226815F882
:10146000243B012BF4D1B2F1FF3FF1DC07F00F0078
:1014700000EBC00001F8016C0BEB8001DBF8000011
:10148000143105F035FC9BF80400E1E7DBF80000BF
:10149000416901F48011416105F0B6FD80023FF51C
:1014A00082AFDBF8000005F0AFFD4000B5D4DBF8FB
:1014B000000005F0A9FD40077FF582ABDBF80000D6
:1014C0004468610704D55846FFF730FADBF800009E
:1014D00041682143416009B0BDE8F08FD0F8E004D5
:1014E00004F0B8B8D0F8E00404F0CAB870B582B01F
:1014F000002800F022810446056890F8950428B978
:10150000002084F89404204600F028F90320B5F167
:10151000A04F84F8950404BF0020A071206805F056
:1015200053FA94E80F00267C009604F05DFE002834
:1015300040F000812068002105F0C0FD002840F047
:10154000F98094F804E0BEF1000F00F0EC800EF09A
:10155000030CBEF1040F4FF000023FD30EF0FC036A
:10156000A4F1900503200121C61E85F8A460A5F80A
:10157000BE60861E85F8C860A5F8E260461E85F844
:10158000EC60A5F8066185F81001A5F82A01061D92
:10159000013085F8A51085F8A820C5E92B22C5F8EB
:1015A000B42085F8C91085F8CC20C5E93422C5F8E7
:1015B000D82085F8ED1085F8F020C5E93D22C5F862
:1015C000FC2085F8111185F81421C5E94622C5F8DB
:1015D0002021903598423046C6D1F21EBCF1000F52
:1015E0002CD002EBC20004EB800301210020BCF1EF
:1015F000010F59751A75DA851876C3E90700586224
:101600001CD0531C03EBC30504EB8505BCF1020F92
:1016100069752B75EB852876C5E9070068620DD0E2
:10162000901C00EBC00104EB810101220875C88504
:1016300000204A750876C1E907004862BEF1000F34
:1016400071D0BEF1040F4FF0000235D30EF0FC0054
:1016500003212346CE1E83F854628E1E83F87862DF
:101660004E1E83F8C0120D1D013183F8552283F8F8
:101670005822C3E99722C3F8642283F8792283F8B9
:101680007C22C3E9A022C3F8882283F89D2283F834
:101690009C6283F8A022C3E9A922C3F8AC2283F894
:1016A000C12283F8C422C3E9B222C3F8D022903306
:1016B00081422946CED1EA1EBCF1000F33D002EBA5
:1016C000C20004EB80010020BCF1010F81F855023B
:1016D00081F8542281F85802C1E99700C1F86402E8
:1016E00021D0511C01EBC10304EB8303BCF1020FB9
:1016F00083F8550283F8541283F85802C3E997001F
:10170000C3F864020FD0901C00EBC00104EB810110
:10171000002281F8552281F8540281F85822C1E94B
:101720009722C1F8642294E80F00267C009604F00A
:10173000FBFE38B1022084F895040125284602B04A
:1017400070BD00BF00250120657484F895042068F1
:1017500004F0DAFE284602B070BD00000068B0F167
:10176000A04F18BF7047B0B586B0002543F63004CF
:101770000195C4F20204206801A940F00100206034
:10178000206800F00100019001984FF4C0500190D2
:101790000220CDE90205032004900A2005900020D4
:1017A000C4F20200FEF792FE6068002140F0800063
:1017B000606000956069002240F48040606160696B
:1017C00000F48040009000984320FEF7E5FF43209E
:1017D000FEF7D0FF06B0BDE8B040704710B5044634
:1017E000C079022818BFFEF775FDD4F8E004012186
:1017F00003F0CEFFD4F8E004BDE8104003F07CBF56
:10180000D0F8E00403F0AABFD0F8E00403F0B0BFC2
:1018100010B5044690F89404012804BF022010BDBE
:10182000012084F894046174206805F0FBFD002019
:1018300084F8940410BD0000D0F8E02400F29C412C
:10184000104603F0BBBF000010B5044690F89404A6
:10185000012804BF022010BD2068012184F89414DF
:10186000C168490606D5617B012903D1816B41F42A
:101870008031816305F0C4FA206804F035FE002051
:1018800084F8940410BD000010B50446D0F8E004BC
:1018900003F0EAFF2068D0F8001E41F00101C0F813
:1018A000001EE07A002808BF10BD4EF61050CEF2A0
:1018B0000000016841F00601016010BDF0B581B083
:1018C0000446006810F0050F2DD06827C4F24727A2
:1018D00043F670060020C4F202063860FEF7DAFE16
:1018E000054600BF56F8700C000105D5FEF7D2FE84
:1018F000401B0228F6D93DE0221D07CA40EA8110AC
:1019000040EA0270706101203860FEF7C3FE0546B0
:1019100056F8700C000105D4FEF7BCFE401B0228EF
:10192000F6D927E02068810758D543F670060020D5
:10193000C4F20206009056F8300C47F2000740F05F
:10194000805046F8300C56F8300CC4F2000700F016
:10195000805000900098386840F480703860FEF73E
:1019600099FE05463868C00508D4FEF793FE401B73
:101970000228F7D9032001B0F0BD00BF306810F491
:10198000407013D0216901F4407188420ED0306854
:1019900040F64061C4F24721012220F440700A6001
:1019A00000220A6030603068C00723D120682169B6
:1019B00056F8682C4FF6FF4701F4407322F4F812F2
:1019C000C0F6FF770F40B3F5407F08BF3A4346F8B3
:1019D000682C32686FF31F3111433160000706D560
:1019E000207D40F64061C4F24721C1F8A0030020E9
:1019F00001B0F0BDFEF74EFE054641F2883700BF4C
:101A000030688007D2D4FEF745FE401BB8424FF045
:101A10000300F5D9ECE70000002804BF012070475F
:101A20002DE9F04143F60808C4F202080446D8F84C
:101A3000F8030D4600F00700884207D288F8F853F3
:101A4000D8F8F80300F00700A84277D12068810792
:101A500017D5410705D5D8F8001041F4E051C8F872
:101A60000010010705D5D8F8001041F46041C8F80E
:101A70000010D8F80010A26821F0F0011143C8F856
:101A80000010C00740D1D8F8F80300F00700A842C2
:101A900007D988F8F853D8F8F80300F00700A842EF
:101AA0004CD12068410707D5D8F80010E26821F42E
:101AB000E0511143C8F80010000708D5D8F800001D
:101AC000216920F4604040EAC100C8F8000000F03D
:101AD00083F8D8F8001047F61242C1F30311C0F69C
:101AE0000002515C40F2480220FA01F140F2080085
:101AF000C2F200000068C2F200021160FEF7FAFDB7
:101B00000020BDE8F08100BF6068811E022907D275
:101B100058F8081C89015CBF0120BDE8F08111E084
:101B2000012807D158F8081C89035CBF0120BDE8D3
:101B3000F08107E058F8081C890703D40120BDE8AC
:101B4000F08100BFD8F8001021F003010843C8F865
:101B50000000FEF79FFD064641F28837D8F80000E6
:101B6000616800F00C00B0EB810F8CD0FEF792FDA5
:101B7000801BB842F2D90320BDE8F08140F2480052
:101B8000C2F200000068704740F2480043F60801C6
:101B9000C2F20000C4F202010068096847F622425E
:101BA000C1F38221C0F60002515CC84070470000BA
:101BB00040F2480043F60801C2F20000C4F20201FC
:101BC0000068096847F62242C1F34231C0F60002BC
:101BD000515CC8407047000010B543F60404C4F2DD
:101BE0000204606800F00C0142F200400829C0F2D3
:101BF000F40007D0042918BF10BD41F20020C0F244
:101C00007A0010BD216801F03F0221682368490273
:101C1000C3F3881106D4A1FB00010023FEF7D8FA14
:101C200007E000BF41F20020C0F27A004843B0FB59
:101C3000F2F021680222C1F3014102EB4101B0FB45
:101C4000F1F010BD002804BF012070472DE9F041DC
:101C500082B00446007843F60006C007C4F20206CC
:101C60000CD0B06800F00C00042840F0818030688F
:101C7000800303D56068002800F06A81207880071F
:101C80001BD5B06810F00C0F09D0B06800F00C0044
:101C9000082840F087807068400200F18380306837
:101CA000800703D5E068012840F05281306821693F
:101CB00020F0F80040EAC10030602078000713D41B
:101CC000207840072AD4A569002D00F03C81B06837
:101CD00000F00C00082840F0A180012D40F0108198
:101CE000012002B0BDE8F0816069002840F20000E8
:101CF000C4F2472000F07E800121C0F8801EFEF76C
:101D0000C9FC0546706F8007DAD4FEF7C3FC401BA0
:101D10000228F7D9032002B0BDE8F081306C5FEAF9
:101D2000C0080AD400200190306C40F0805030642C
:101D3000306C00F080500190019847F20007C4F227
:101D400000073868C00547D4386840F480703860B0
:101D5000FEF7A0FC054600BF3868C0053CD4FEF77E
:101D600099FC401B0228F7D9032002B0BDE8F0819E
:101D7000B06800F00C00082803D1706840023FF5FD
:101D800076AF6068B0F5803F07D0B0F5A02F40F087
:101D90009B80306840F480203060306840F48030B0
:101DA00030609BE0E06800285CD00020C4F247204F
:101DB00001210160FEF76EFC054600BF3068800718
:101DC0003FF574AFFEF766FC401B0228F6D90320EE
:101DD00002B0BDE8F08100BFA068012805D0052849
:101DE00054D1306F40F004003067306F40F0010094
:101DF000306755E00021C0F8801EFEF74BFC054619
:101E0000706F80077FF55CAFFEF744FC401B022833
:101E1000F6D9032002B0BDE8F08100BF0027C4F26C
:101E2000472700203866FEF735FC022D05460DD108
:101E30003068800140F19080FEF72CFC401B0228A6
:101E40004FF00300F4D902B0BDE8F08130688001A2
:101E500079D5FEF71FFC401B02284FF00300F5D98F
:101E6000F1E700BF0020C4F2472000210160FEF727
:101E700011FC0546306880077FF51FAFFEF70AFCAE
:101E8000401B02284FF00300F4D9DCE7316F002833
:101E900021F001013167316F21F0040131677DD0FC
:101EA000FEF7F8FB054641F2883700BF306F800728
:101EB00000F18680FEF7EEFB401BB842F6D9032006
:101EC00002B0BDE8F08100BF3168002821F4803104
:101ED0003160316821F4802131607BD0FEF7DAFB7C
:101EE000054600BF306880033FF5C8AEFEF7D2FB61
:101EF000401B6428F6D9032002B0BDE8F08100BF82
:101F00007068E16900F480028A4221D1216A00F000
:101F10003F028A421CD147F6C071626A0140B1EBB0
:101F2000821F15D1A16A4FF6FF73C903994300F4CC
:101F30004032A1F580318A420AD1E16A00F0706036
:101F4000B0EB016F04D1002002B0BDE8F08100BF0A
:101F5000012002B0BDE8F08104F11C052FCD08433B
:101F600040EA8210D9034FF6FF729143A1F5803108
:101F700040EA05600843706001203866FEF78AFB7E
:101F8000044600BF30688001DDD4FEF783FB001BF0
:101F900002284FF00300F5D955E700BFFEF77AFBA2
:101FA000054641F2883700BF306F800708D5FEF73D
:101FB00071FB401BB8424FF00300F5D943E700BF67
:101FC000B8F1000F3FF57FAE306C20F080503064E8
:101FD00079E600BFFEF75EFB054600BF3068800370
:101FE0007FF54CAEFEF756FB401B64284FF0030014
:101FF000F4D928E710B5006840684FEA1043C0F3F1
:10200000042E00F03F0CC0F34234CB7081F801E0A5
:1020100081F802C00C700AB1002010BDDCB22409A6
:1020200004EB840403F00F0303EB4403020ACB70B8
:102030004FEA1E1343EA830302F00F0202EB43024E
:102040004A704FEA1C1242EA820200F00F0000EBD5
:1020500042008870002010BD10B50068836A4B6094
:1020600003696FF3DF338B600068C0F30543C0F38F
:10207000062E00F07F0CC0F380540B7081F801E055
:1020800081F802C0CC700AB1002010BD020C1B09FF
:1020900043EA830302F00F0202EB4302040A0A70D0
:1020A0004FEA1E1202EB820204F00F0303EB42021E
:1020B0004A704FEA1C1202EB820200F00F0000EBA4
:1020C00042008870002010BD002804BF0120704726
:1020D000B0B50446407F20B900202077204600F0AC
:1020E00071F8022060772168C868C0065ED4CA20F3
:1020F000486253204862C868400615D4C86840F05A
:102100008000C860FEF7C6FA2168CA6852060BD480
:10211000054600BFFEF7BEFA401BB0F57A7F49D8EE
:102120002168C8684006F5D588684FF6BF72CFF6BB
:102130008F7210408860D4E9010CD4E903356269DC
:1021400028438D681043284388600B61086940EA82
:102150000C400861C86820F08000C860886880066C
:102160001AD443F65F70C0F20100C860FEF792FA1D
:10217000054600BF2168C86880060DD4FEF78AFABC
:10218000401BB0F57A7FF5D9042060772068FF21E5
:1021900041620120B0BD00BF086C20F480200864BB
:1021A000A0690A6C10430864FF2048620120607730
:1021B0000020B0BD042060772068C168FF21416223
:1021C0000120B0BD80B586B0006842F60001C4F2BF
:1021D000000188424FF000000590CDE90300CDE9F1
:1021E000010001D006B080BD022000904FF4807045
:1021F00004906846FFF762FB002818BFFEF76AF8F4
:1022000040F63C60C4F247200121016006B080BD69
:102210002DE9F04381B00446007F01284FF0020011
:1022200000F09F800123237760773AB14878CA781D
:102230008E78000240EA024846E000BF48784FF03E
:10224000CD0CC20642BF00F0EF000A304870CA78D9
:102250004FF00109A2F10A07FDB205FB0CF5EB0AEC
:1022600003EB83035FFA82FEA7EB43038E7809EB4F
:10227000D525BEF1090F88BF43EA0512A0F10A0374
:10228000DDB205FB0CF5EF0A07EB8707A3EB47036D
:1022900009EBD527092888BF43EA0710C0B2D2B29C
:1022A000000240EA0248A6F10A02D3B203FB0CF393
:1022B000DF0AF0B207EB8707A2EB470209EBD32353
:1022C000092888BF42EA03160F782168CA204862AD
:1022D00053204862C868400614D4C86840F08000A3
:1022E000C860FEF7D7F92168CA6852060AD40546C5
:1022F000FEF7D0F9401BB0F57A7F35D82168C86861
:102300004006F5D5F0B240EA08007A0320F0C0009C
:1023100010434860C86820F08000C8608868800664
:1023200018D443F65F70C0F20100C860FEF7B2F93E
:10233000054600BF2168C86880060BD4FEF7AAF9DD
:10234000401BB0F57A7FF5D9042060772168012021
:1023500003E000BF012060770020FF224A620021D5
:10236000217701B0BDE8F083042060772168C86858
:102370000120F2E72DE9F04F81B00446007F0128EB
:102380004FF0020000F0C3800D46012121776077F5
:102390002168886832B140060CD44FF0000885F8F7
:1023A00003800AE0400611D44FF0000885F803804E
:1023B0000FE000BFE8784FEA80586A78287895F8EF
:1023C00002A0120242EA004947E000BFE8784FEA63
:1023D00080582A784FF0CD0CA2F10A00C6B206FB55
:1023E0000CF66B78F70A4FF0010B5FFA82FE07EBF1
:1023F00087070BEBD62695F802A0A0EB4700BEF1AD
:10240000090F88BF40EA0612A3F10A06F7B207FBDC
:102410000CF7F80A5FFA82FEDAB200EB8000A6EB56
:1024200040000BEBD726092A88BF40EA0613AAF121
:102430000A02D8B2D3B203FB0CF30002DF0A40EA6F
:102440000E495FFA8AF007EB8707A2EB47020BEB16
:10245000D323092888BF42EA031ACA2048625320BE
:102460004862C868400615D4C86840F08000C8605B
:10247000FEF710F92168CA6852060BD4064600BF61
:10248000FEF708F9801BB0F57A7F43D82168C86849
:102490004006F5D55FFA8AF040EA090047F67F72F8
:1024A00040EA0800C0F27F0210400860886820F40B
:1024B00080208860D5E903028B6810431843886048
:1024C000C86820F08000C8608868800618D443F689
:1024D0005F70C0F20100C860FEF7DCF8054600BF7F
:1024E0002168C86880060BD4FEF7D4F8401BB0F50D
:1024F0007A7FF5D9042060772168012003E000BFCE
:10250000012060770020FF224A620021217701B07C
:10251000BDE8F08F042060772168C8680120F2E7E9
:102520002DE9F04186B00446032084F83400606C45
:102530008846032822D14FF08050A16B40F2FF560D
:102540000843A063A06BC0F2400600283ED020687C
:102550000125866384F834504FF4007102F0A6F828
:1025600028B1216801258E63A16B0843A063012176
:10257000284684F8341006B0BDE8F081B8F1000FA9
:1025800036D0B8F5805FD6D0B8F5006F46D1206858
:1025900000210591049102F005F8800142D404A9BC
:1025A000204602F03BFB0028C7D19DF816004007EB
:1025B00030D5216D2068090402F024F80028BCD130
:1025C0002068022102F07EF8B7E700BF94E80F0010
:1025D000D4E90557CDE90085029701F0E7FF2068AF
:1025E00000254FF4007102F061F80028B9D1BEE770
:1025F000206800210591049101F0D4FF800111D4DD
:1026000004A9204602F00AFB002896D19DF8160086
:10261000C0070BD14FF080608FE700BF4FF0006024
:102620008BE700BF4FF4006087E700BF216D206893
:10263000090401F0E7FF00287FF47FAF2068002144
:1026400002F040F879E70000002804BF012070473D
:1026500010B50446032084F83400206801F0BCFF64
:10266000204600F017FA0020A06384F8340010BD63
:1026700080B5D0E9193ED0F844C09A0F0A70C3F370
:1026800083624A70C3F301628A701A0CCA701A0A14
:102690000A714FEA1E524B71CA80CEF303420A728E
:1026A000CEF3C0324A72CEF380328A72CEF3403219
:1026B000CA72CEF300320A730022BCF1010F4A73D2
:1026C00036D0BCF1000F40F0878040F6FC72C36E3C
:1026D00002EA8E0242EA93720A61C26EC2F3C263D8
:1026E0000B75C2F302634B75C2F342538B75C2F391
:1026F0008243CB75C2F3C2330B76D1F810C00B7E88
:102700000CF1010C03F0070302330CFA03FCC0F8D0
:1027100054C00B7A03F00F0E012303FA0EF3836506
:102720005B0A03FB0CF3C3654FF4007312E000BFB8
:10273000B0F86E200EF03F0342EA03420A610A69D4
:102740004FF4806303EB82224FF40073C0E915233A
:10275000C265C26E0366C2F380334B76C2F3C61302
:1027600002F07F028B76CA76006FC20F0A77C0F341
:1027700041724A77C0F382628A77C0F38352CA7784
:10278000C0F3405281F820200022C0F3004381F8BA
:10279000212081F82230C0F3C03381F82330C0F308
:1027A000803381F82430C0F3403381F82530C0F302
:1027B000003381F82630C0F3812381F82730C0F33D
:1027C0000123C0B2400881F8283081F82900012097
:1027D00081F82A00104680BD016840F2FF52C0F225
:1027E00040028A63816B012241F08051816380F84D
:1027F0003420104680BD000080B500F1440E9EE8F4
:102800000C5081E80C10426DC1E903E2D0E91623B7
:10281000C1E90523026E0020CA6180BD10B5016DBB
:1028200004460068090402F0ABF828B1A16B084324
:10283000A063002010BD00BF2068002101F0B2FE9F
:10284000C0F3432010BD0000002804BF01207047E2
:1028500010B5044690F8340020B9002020772046B7
:1028600000F036F9032084F83400204600F00CF81C
:1028700000284FF0010018BF10BD0021A1632163A3
:1028800084F83400002010BDF0B58FB00446006815
:102890007621002602910021002200230096019655
:1028A00001F084FE48F2A007C4F225273E602068AC
:1028B00001F098FE012502203D60FDF70FFD049612
:1028C000206801F00BFF38B184F83450A16B084345
:1028D000A06328460FB0F0BD206801F02FFF58B16B
:1028E00020680021A16401F0F9FE0028ECD1A06C61
:1028F000012803D00AE000BF0120A0642068002165
:1029000001F080FE10B14FF08050DDE704984FF6E3
:10291000FE77B8421ED80026CCF21016206800219F
:1029200001F070FE0028CFD12068314601F076FE1C
:102930000028E8D12068002101F034FE049901311B
:1029400004910499B94202D8B0F1FF3FE6DCC0F32C
:10295000807000E0002004994FF6FF72914203D38B
:102960004FF08070B0E700BF606420680125ADF8CB
:102970000E5001F013FEB8B3606C032838D1206804
:10298000042101F00FFE000DE06404A92046FFF7CA
:102990006FFE0028B7D1216D20680A04002301F0E2
:1029A00039FF00287FF490AF94E88F00D4E90565E3
:1029B000CDE90076029501F0F9FD20684FF4007131
:1029C00001F074FE002861D0216840F2FF52C0F28D
:1029D00040028A63A16B01250843A06384F8345048
:1029E00028460FB0F0BD00BF4FF080606CE700BF1D
:1029F000206801F01BFF00287FF466AF20680021EB
:102A000001F0D0FD216860670846042101F0CAFD8D
:102A10002168A0670846082101F0C4FD2168E0672D
:102A200008460C2101F0BEFD616CC4F8800003294A
:102A3000A5D020680DF10E0101F0AEFF00287FF453
:102A400043AF606C03289AD0BDF80E102068216552
:102A5000090401F039FF00287FF436AF2068002117
:102A600001F0A0FD216860660846042101F09AFD8E
:102A70002168A0660846082101F094FD2168E066FF
:102A800008460C2101F08EFD206778E700252846D6
:102A90000FB0F0BD10B5006842F60044C4F2010466
:102AA000A04218BF10BD43F64400C4F20200016802
:102AB00021F40061016004F55C404FF4F851FDF72A
:102AC00021FC04F560400421BDE81040FDF71ABC6C
:102AD0002DE9F04385B0006842F60045C4F20105D7
:102AE000A84203D005B0BDE8F08300BF002043F644
:102AF00030010090C4F202014A696C4642F400625F
:102B00004A614A694FF0020802F400620092009A9A
:102B100000900A684FF0010942F004020A600A6856
:102B2000032602F004020092009A009008680C2725
:102B300040F0080008600868214600F00800009096
:102B400000984FF4F850009005F55C40CDF80480F3
:102B5000CDF8089003960497FDF7B8FC04208DE8A3
:102B6000010305F560402146CDE90367FDF7AEFCA2
:102B700005B0BDE8F08300002DE9F04786B01F46A0
:102B800016460D460446FDF785FD9DB1804694F836
:102B90003400012816D10021A163E06DBA198242E8
:102BA00018D9A06B40F00070A063012006B0BDE80A
:102BB000F08700BFA06B40F00060A063012006B06A
:102BC000BDE8F087A06B40F00050A063012006B084
:102BD000BDE8F087032084F83400626C2068012A85
:102BE0004FF0FF32C16218BF760200927A024FF0B6
:102BF000020901929022CDE903914FF0010A694642
:102C00000292CDF814A001F0B5FC022F18D3C4F83D
:102C100030902068314601F0E5FDC8B1216840F2EE
:102C2000FF52C0F240028A63A16B0843A0630120F7
:102C3000002184F83400216306B0BDE8F08700BFAE
:102C4000C4F830A02068314601F0D8FD0028E5D155
:102C5000DDF83890019E40F22A3A05E0FDF71AFDB2
:102C6000A0EB0800484541D22068426B416B12EA54
:102C70000A0F25D10904F1D5002EEFD001F0B8FCE0
:102C80002860206801F0B4FC6860206801F0B0FCA6
:102C9000A860206801F0ACFCE860206801F0A8FCA6
:102CA0002861206801F0A4FC6861206801F0A0FCA4
:102CB000A861206801F09CFCE8612035203ECDE74A
:102CC000022F27D311F4807124D0616C032921D005
:102CD00001F0C8FE01462068E1B140F2FF52C0F2A7
:102CE00040028263A06B0843A0E700BF206840F267
:102CF000FF51C0F240018163A06B40F00040A0632F
:102D0000012084F8340000202063032006B0BDE8D1
:102D1000F08700BF416B09075CBF416B5FEA8151DF
:102D200008D540F2FF51C0F240018163A06B40F032
:102D300008007BE7416B89071CD4416B890623D4CB
:102D40002068416B890229D546B301F051FC45F852
:102D5000040B043EFDF79EFCA0EB08004845EFD3B2
:102D6000206840F2FF51C0F240018163A06B40F047
:102D700000405BE740F2FF51C0F240018163A06B6D
:102D800040F0020052E700BF40F2FF51C0F24001A4
:102D90008163A06B40F0200048E700BF40F23A5149
:102DA0008163012084F83400002006B0BDE8F0877C
:102DB0002DE9F04F87B0984615460E460446FDF7BC
:102DC00069FC9EB1824694F83400012816D1002196
:102DD000A163E06D08EB0502824217D9A06B40F0B9
:102DE0000070A063012007B0BDE8F08FA06B40F039
:102DF0000060A063012007B0BDE8F08FA06B40F039
:102E00000050A063012007B0BDE8F08F032084F8D4
:102E10003400626C2068012A4FF0FF32C16218BF93
:102E20006D0201924FEA482202929022CDE90321DD
:102E300005910121069101A901F09CFBB8F1020F57
:102E400018D3202020632068294601F01BFEC8B15A
:102E5000216840F2FF52C0F240028A63A16B08432E
:102E6000A0630120002184F83400216307B0BDE88D
:102E7000F08F00BF102020632068294601F00EFE6D
:102E80000028E5D1DDF84090029F40F21A3B6D46E4
:102E900006E000BFFDF7FEFBA0EB0A0048455DD24F
:102EA0002068426B416B12EA0B0F41D14904F1D506
:102EB000002FEFD031780091727841EA0221009121
:102EC000B27841EA02410091F27841EA0261009150
:102ED000294601F091FB716820680091294601F0B4
:102EE0008BFBB16820680091294601F085FBF168F1
:102EF00020680091294601F07FFB3169206800912C
:102F0000294601F079FB716920680091294601F09A
:102F100073FBB16920680091294601F06DFBF069EF
:102F2000294600902068203601F066FB203FB1E77B
:102F3000B8F1020F24D311F4807121D0616C032900
:102F40001ED001F08FFD01462068C9B140F2FF524A
:102F5000C0F240028263A06B084381E7206840F220
:102F6000FF51C0F240018163A06BA063012084F88F
:102F7000340000202063032007B0BDE8F08F00BFBD
:102F8000416B09075CBF416B5FEA815108D540F294
:102F9000FF51C0F240018163A06B40F008005FE781
:102FA000416B89070CD4416BC90613D440F23A51E6
:102FB0008163012084F83400002007B0BDE8F08F61
:102FC00040F2FF51C0F240018163A06B40F002006B
:102FD00046E700BF40F2FF51C0F240018163A06BA1
:102FE00040F010003CE70000411E0020B0EB116FE4
:102FF0001CBF012070474EF21002CEF20002516059
:103000004EF62351CEF20001F0230B7007219060A1
:1030100011607047002804BF0120704710B50446B6
:1030200090F8410028B9002084F84000204600F0C4
:1030300021F8242084F841002068C16821F400515F
:10304000C160204601F01AFF2068016921F4904117
:103050000161416921F02A014161C16841F40051D7
:10306000C16000202021606484F8411084F842107F
:10307000606310BD016841F20000C4F201008142AA
:1030800018BF704780B586B0002143F63002019129
:10309000C4F20202536900F5704043F0100353611B
:1030A000536903F010030193019B0191136843F0EE
:1030B00001031360126802F001020192019A4FF4B9
:1030C000C06201920222CDE902210321049107216D
:1030D000059101A9FDF7FAF906B0BDE880407047F7
:1030E0002DE9F041044690F8410020281CBF022041
:1030F000BDE8F0810D4600294FF0010000F0AA80E4
:103100001646002A08BFBDE8F08100206064212037
:10311000984684F84100FDF7BDFAA684E684A168CC
:103120000646B1F5805F02D12069002862D02F46A3
:103130000025E08C002861D018F1010018D0B8F10A
:10314000000F37D1216808E017F8010B4860E08CC8
:103150000138E084E08C002851D00868000673D55F
:10316000002FF1D135F8020B00276FF35F20EDE758
:10317000216802E00868000609D40868000606D441
:10318000086800065CBF08685FEA0060F2D51FB1FE
:1031900017F8010B05E000BF35F8020B00276FF3AD
:1031A0005F204860E08C0138E084E08C0028E4D1A6
:1031B00025E000BF216800BF0868000608D4FDF7BD
:1031C00069FA801B404541D82168C868F4E700BF10
:1031D00017B117F8010B04E035F8020B00276FF365
:1031E0005F204860E08C0138E084E08C0028E3D167
:1031F00005E000BF0027E08C00289DD12168086809
:1032000040061FD4B8F1000F1ED018F101000FD1F5
:103210000868400616D40868400613D408684006BB
:1032200010D4086840064FF00000F1D50FE000BF51
:10323000FDF730FA801B404508D82068C168006857
:103240004006F5D5002002E0FDF724FA03202021F6
:1032500084F84110BDE8F081FEE7000070B5044637
:10326000D0F8D40204EB8000D0F8C052002D08BF83
:1032700070BD95F81C02D8B140F20C06C2F20006EF
:103280003178204602F0CCFA687A02280ED13178E3
:10329000204602F0C5FA40F20D00C2F200000178AB
:1032A0002046BDE8704002F0BBBA00BF70BD00BF51
:1032B000D5F818020028DFD0687A0028DCD140F267
:1032C0000D00C2F200000178204602F0A9FAD3E70F
:1032D000B0B50446D0F8D40204EB8000D0F8C05258
:1032E000002D3FD0687A022812D140F20C00C2F2C1
:1032F00000000178204602F093FA40F20D00C2F27D
:10330000000001782046BDE8B04002F089BA00BF55
:1033100049B2B1F1FF3FC8BFB0BD012822D045F28C
:103320005530C5F24230C5F83002012085F83C0224
:103330000020287240F20C00C2F20000017805F56E
:103340000C7220460D2302F09DFA40F20D00C2F2ED
:103350000000017805F5047220461F23BDE8B04047
:1033600002F0B8B9B0BD0000B0B50446D0F8D40240
:1033700004EB8000D0F8C05295B3287AC11E022910
:1033800022D245F25530C5F2423005F50C72C5F82F
:103390003002002040F20C01C2F2000185F83C022C
:1033A00000200978287220460D2302F06BFA40F2C3
:1033B0000D00C2F20000017805F5047220461F23BB
:1033C000BDE8B04002F086B9022809D195F81D1277
:1033D00005F21F22204600F0CFFAB0F1FF3F01DDD9
:1033E000B0BD00BFD4F8D40204EB8000D0F8C052C6
:1033F000002D08BFB0BD45F25530C5F2423005F58D
:103400000C72C5F830020120C4E70000F0B581B0AD
:103410000446D0F8D40204EB8000D0F8C062002E3D
:103420005AD0307A01284DD0002855D140F20D05F0
:10343000D6E98502C2F200052978C6E98D02204648
:1034400002F0BAF81F2812D1D6F8100245F2553111
:10345000C4F2423188420AD196F81D12306888427F
:1034600005D396F81E02113810F1110F70D896F896
:103470001D1220460522202301F05EF8D4F8D40264
:1034800004EB8000D0F8C0720220707227B397F866
:103490001C02002850D040F20C06C2F2000631781F
:1034A000204602F0BDF9787A022815D131782046FD
:1034B00002F0B6F92978204601B0BDE8F04002F0EC
:1034C000AFB900BF96F81D1206F21F22204600F089
:1034D00053FAB0F1FF3F01DD01B0F0BDD4F8D402E2
:1034E00004EB8000D0F8C052002DF5D045F25530E5
:1034F000C4F2423000F18050C5F83002012085F856
:103500003C020020287240F20C00C2F20000017858
:1035100005F50C7220460D2302F0B4F940F20D00BF
:10352000C2F20000017805F5047220461F2301B0A5
:10353000BDE8F04002F0CEB8D7F818020028AAD0B3
:10354000787A0028A7D12978204602F069F9A2E705
:1035500006F21F22204600F00FFA317AB0F1FF3F49
:103560000CDD481E0328B7D3F268BAB106F110018A
:10357000204601B0BDE8F04000F0AAB82046052979
:1035800006D1012101B0BDE8F04000F073B800BFE2
:1035900001B0BDE8F040FFF761BE00BF204600214A
:1035A00001B0BDE8F04000F065B80000D0F8D412DA
:1035B00000EB8100D0F8C00200281CBF002101727E
:1035C0007047000070B50446D0F8D40204EB8000C8
:1035D000D0F8C052002D08BF70BD00212981A5F888
:1035E0006012D0F8C40285F8621202680020904789
:1035F00040F20D06C2F200063178204601F0CAFF03
:1036000040F20C00C2F200000178204601F0C2FF37
:10361000317805F5047220461F23BDE8704002F0A2
:1036200059B8000070B50446D0F8D40204EB80000D
:10363000D0F8C052002D08BF70BD40F20C01C2F29C
:1036400000014FF4807009782881204601F0CCFEFB
:1036500040F20D06C2F200063178204601F0C4FEA9
:10366000317805F5047220461F23BDE8704002F052
:1036700031B80000B0B50446D0F8D40204EB8000A5
:10368000D0F8C052002D08BFB0BD45F2553085F8C6
:103690003C1240F20C01C5F24230C2F20001C5F802
:1036A00030020020097805F50C72287220460D239F
:1036B00002F0E8F840F20D00C2F20000017805F5D2
:1036C000047220461F23BDE8B04002F003B800009A
:1036D00010B5D0F8D43200EB8303D3F8C0E2BEF1CA
:1036E000000F08BF10BD8C46DEF83812DEF8183225
:1036F000891A934228BF1346CEF8381200218EF85B
:103700003C1240F20C01C2F2000104240978624626
:103710008EF80840BDE8104002F0B4B881B0002037
:1037200043F630010090C4F202010A6842F004023C
:103730000A600A6802F004020092009A00900A6887
:1037400042F080020A600A6802F080020092009A49
:1037500000900A6842F001020A600A6802F0010261
:103760000092009A0090086840F00800086008681D
:1037700000F008000090009801B0704710B586B0C6
:1037800040F6745042F600010024C2F20000C4F278
:1037900000017F22C0E9001400F10801CDE90244D4
:1037A000CDE90044FF231CC1C0E90544FEF78CFCB1
:1037B000002818BFFCF78EFD40F67450C2F20000DE
:1037C00001A90122ADF804408DF80640CDE904447A
:1037D000FEF7D0FD002818BFFCF77CFD40F2011079
:1037E000C2F20130009040F67450C2F20000694607
:1037F0000122FEF70DFD002818BFFCF76BFD06B097
:1038000010BD000010B540F69454C2F200042046EA
:10381000FEF71AFF0A20FCF761FD42F60040C4F2F1
:1038200001000021C4E9000104F110004FF48042BE
:1038300003230EC02046C4E90211FFF705F8002853
:1038400018BFFCF747FD40F69450C2F200004FF459
:103850000061FEF765FE002808BF10BDBDE81040FE
:10386000FCF738BD80B540F6186041F20001C2F2A5
:103870000000C4F2010100234FF00C0C4FF4E132C0
:1038800080E80E00C0E90333C0E905C3C361FFF758
:10389000C1FB002808BF80BDBDE88040FCF71ABD11
:1038A00080B540F2B45040F21001C2F20000C2F202
:1038B0000001002201F082FD002818BFFCF70AFD7C
:1038C00040F2B45040F26401C2F20000C2F20001C2
:1038D00002F078F9002818BFFCF7FCFC40F2B45065
:1038E00040F2C801C2F20000C2F2000102F0CEF8BC
:1038F000002818BFFCF7EEFC40F2B450C2F2000002
:1039000002F08AF9002808BF80BDBDE88040FCF7BE
:10391000E1BC0000FEE70000FEE7000040F690007A
:10392000C2F20000FDF742B970470000D0F8D4C2DF
:1039300000EB8C00D0F8C002D0B100EB0111D1F83F
:1039400068121A448A429EBF002040B2704790F825
:103950006112052300EBC10282F8403221230131BC
:10396000A2F84432CAB2043A18BF0A4680F861226B
:10397000FF2040B2704700002DE9F04383B00446B9
:10398000D0F8D40204EB8000D0F8C072002F00F011
:10399000F8810E46117815465A2900F27980DFE841
:1039A00011F05B0077037703D50077037703770384
:1039B0007703770377037703770377037703770337
:1039C0007703770377030701770377037703770399
:1039D0007703770377033F01510165017703910175
:1039E00077037703770377039D017703C501770397
:1039F0007703F501770315027703770377037703DE
:103A00003502770377037703770377037703770329
:103A100077037703770377037703770377037703D6
:103A200077037703770377037703770377037703C6
:103A300077037703770377037703770377037703B6
:103A400077037703770377037703770377037703A6
:103A50007703770377034B02D7F81812002940F059
:103A6000178397F86212022940F05C8397F861028D
:103A7000022207EBC00181F840223A220130A1F86E
:103A80004422C1B2043918BF014687F8611269E3C4
:103A90009E390C2900F2FC82DFE811F00E00FA02D8
:103AA0002C02FA02FA02FA02FA02FA02FA02FA0204
:103AB0008602FA02940200BFD0F8C40207EB061196
:103AC00001F51978436801F51A79304649464246AE
:103AD0009847002840F03D8197F86202022800F0E4
:103AE0003881D5F80A0000BAF860B0B10020002192
:103AF0007A181074FB684E1C9E420ED25074FB68FC
:103B00008E1C9E4209D29074FB68CE1C9E4204D249
:103B1000D074FA6804319142EAD3D9F80000013830
:103B2000010E3975010C7975010AB975B8F80010E4
:103B3000F87509BA0020090C38837983D5F80A1082
:103B400009BAF96040B203B0BDE8F083D7F81802B3
:103B5000002800F09D820020C7F8150087F821009A
:103B6000C7F81D00C7F81900C7F8110097F86002E0
:103B700097F861227021397490424FF00C01F97569
:103B80000ED007EBC00191F84022B1F84412013089
:103B9000B983C1B20439BA7418BF014687F86012FC
:103BA0001220F8602879122840F2B9800BE300BF98
:103BB000D7F81812002900F06B826978C90740F025
:103BC0007182D0F8C40206EBC601C06900EB810126
:103BD0000A7928790532824238BF10460028F860F9
:103BE00000F0F18210F0030300F0EA82421E96B268
:103BF0008E5D17FA82F5012B2E7400F0E282821E90
:103C000096B28E5D17FA82F5022B2E7400F0D982DF
:103C1000C21E93B2CB5C17FA82F63374D1E200BFB6
:103C2000D0F8C402C16830468847002840F234000A
:103C3000C2F2000000F0D081817841F080018170F3
:103C4000D2E100BF97F862022979012801F0030050
:103C500008BF022800F034820138022838D8C0B2E8
:103C6000C0004FF4007121FA00F02FE0B5F8030016
:103C700000BA000C00F0A782082840F2081128BF03
:103C8000082010F00303C2F20001F86000F02E8259
:103C9000421E96B28E5D17FA82F5012B2E7400F04B
:103CA0002682821E96B28E5D17FA82F5022B2E7442
:103CB00000F01D82C21E93B2CB5C17FA82F63374F9
:103CC00015E200BF2879002818BF012087F862029A
:103CD0000020F86040B203B0BDE8F083D0F8C40221
:103CE00001A943680DF10A023046984788BB97F84E
:103CF000620202282DD04FF000603861019801382F
:103D0000010E3975010C7975010AB975BDF80A10F3
:103D1000F8750220388308BA000C78830C20F8600C
:103D2000002040B203B0BDE8F08300BFD0F8C40269
:103D300007EB061101F51978436801F51A7530464D
:103D400029464246984720B997F86202022840F077
:103D50001182D4F8D40204EB8000D0F8C00280B104
:103D600090F86112022300EBC10282F840323A233C
:103D70000131A2F84432CAB2043A18BF0A4680F8A8
:103D80006122FF2040B203B0BDE8F083397A0029F8
:103D900040F00D8197F91C12002940F1798197F8C4
:103DA0006212022900F05581D0F8C40281683046C1
:103DB00088470028CDD1D5F8020007EB061802BAD3
:103DC000C8F86C22B5F8070043BA2BE2397A00290B
:103DD00040F0FB80D7F81812002900F0598197F9BC
:103DE0001C12B1F1FF3F40F35381D0F8C402816847
:103DF00030468847D4F8D412002800F02D8204EB16
:103E00008100D0F8C0020028AAD1BAE768788007FC
:103E100000F1568107EB061000F51A7207CA11442B
:103E200081427FF655AF97F86102052207EBC0018A
:103E300081F8402221224BE1D0F8C402C16830460B
:103E4000884740F22C01C2F20001CA78002818BF4E
:103E5000012002F07F0242EAC012287ACA700828C4
:103E600028BF08200028F86000F0AD81421E93B200
:103E7000CB5C17FA82F2137400F0A581821E93B214
:103E8000CB5C17FA82F2137400F09D81C21E93B2CC
:103E9000CB5C17FA82F2137400F09581021F93B283
:103EA000CB5C17FA82F2137400F08D81421F93B23B
:103EB000CB5C17FA82F2137400F08581821F93B2F3
:103EC000CB5C17FA82F2137400F07D81C21F93B2AB
:103ED000CB5C17FA82F2137400F07581083882B255
:103EE000895C17FA80F00174002040B203B0BDE88D
:103EF000F08300BF40F21011C2F200010025C1E9B9
:103F00000055C1E90255C1E904553A6808234FEA52
:103F1000C20C03EBC20212BA0A603A6809230026F7
:103F200001EBC50046F00105ECB2A242467219D37E
:103F300001EBC400457246F002053868ECB2A042BD
:103F400010D343EAC4000D5446F003053868ECB2C0
:103F5000A04207D301EBC400457204363868F5B2BD
:103F6000A842DDD20CF1100290B20028F86000F0F7
:103F70002A8107F1100300BF501E80B20F5C1F544E
:103F8000901E80B20F5C1F54D01E80B20F5C043AAA
:103F90001F5490B20F5C00281F544FF00000EBD16B
:103FA00040B203B0BDE8F083397A002948D04FF41D
:103FB000007220463146FA6003B0BDE8F04300F0DD
:103FC000D5B900BF397A00294CD02046314603B01C
:103FD000BDE8F04300F03ABA40F22C01C2F2000111
:103FE0008A7802F07F028A702979042928BF042187
:103FF0000029F96000F0E7804A1E93B2C35C17FA0B
:1040000082F2137400F0DF808A1E93B2C35C17FA49
:1040100082F2137400F0D780CA1E93B2C35C17FA01
:1040200082F2137400F0CF8004398AB2805C17FAF0
:1040300081F10874002040B203B0BDE8F08300BFF6
:1040400097F91C12002923D597F86212022940F033
:10405000D78097F86102022207EBC00181F8402265
:104060003A2235E0D7F8181291B197F91C12B1F144
:10407000FF3F0DDDD0F8C402816830468847D4F890
:10408000D412002800F0028104EB810056E000BF4A
:1040900097F86102052207EBC00181F84022202237
:1040A00016E000BFA87880287AD048B90620F860CA
:1040B00040F23800C2F2000081880068B98278E0DE
:1040C00097F86102052207EBC00181F84022242203
:1040D0000130A1F84422C1B2043918BF014687F863
:1040E0006112FF2040B203B0BDE8F083024604280D
:1040F00069D307F1100300BF501E80B20F5C1F543C
:10410000901E80B20F5C1F54D01E80B20F5C043A28
:104110001F5490B20F5C00281F544FF00000EBD1E9
:104120003EE700BFD0F8C4028168304688470028C7
:104130003FF4CEADD4F8D40204EB8000D0F8C00236
:1041400080B190F86112022300EBC10282F8403284
:104150003A230131A2F84432CAB2043A18BF0A46DF
:1041600080F8612205203872FF2040B203B0BDE81C
:10417000F08300BF28680138010E3974010C79748E
:10418000010AB974B8F80010F87409BA090C0020D3
:10419000F9820821B882F96040B203B0BDE8F0832B
:1041A0000820F86040F23E00C2F20000416800685A
:1041B00079613861002040B203B0BDE8F08300BFF0
:1041C0000246042804D2002040B203B0BDE8F083C8
:1041D00007F11003501E80B20F5C1F54901E80B276
:1041E0000F5C1F54D01E80B20F5C043A1F5490B273
:1041F0000F5C00281F544FF00000EBD1D0E600BF49
:10420000D0F8C40281683046884700287FF4A1AD09
:10421000D5F8020007EB061802BAC8F86C22D5F8E8
:10422000060003BA20463146C8F87032FFF77EFB1D
:1042300000283FF5A6AD07EB061000F5197008F54C
:104240001C7109680088D7F81822484382427BD144
:1042500002203872ABE600BF04EB8100D0F8C40244
:10426000C1683046884758B3D4F8D40204EB8000C4
:10427000D0F8C00200283FF484AD90F86112022308
:1042800000EBC10282F84032272371E504EB810084
:10429000D0F8C402C16830468847E8B1D4F8D402E7
:1042A00004EB8000D0F8C00200283FF45BAF90F828
:1042B0006112022300EBC10282F84032272348E753
:1042C000D5F8020007EB061802BAC8F86C22B5F858
:1042D000070043BA0AE000BFD5F8020007EB061852
:1042E00002BAC8F86C22D5F8060003BA2046314657
:1042F000C8F87032FFF71AFB00283FF542AD07EB14
:10430000061000F5197008F51C7109680088D7F8C7
:10431000182201FB00F39A4216D10120B3F5007F69
:1043200028BF4FF40073387240F20D00C2F2000053
:10433000017807F11002204601F0CCF9002040B2CC
:1043400003B0BDE8F08300BFD4F8D40204EB8000D2
:10435000D0F8C00200283FF414AD90F86112052394
:1043600000EBC10282F84032202301E52DE9F04F35
:1043700081B00446D0F8D40204EB8000D0F8C072BB
:10438000002F5DD007EB011606F51978D6E99B25BD
:10439000B8F80030D0F8C4025D43B5F5007F28BFFF
:1043A0004FF40075D0F810C0B5FBF3F307F1100916
:1043B00008464946E047B0F1FF3F29DD40F20C00D6
:1043C000C2F20000017820464A462B4606F51C7AC8
:1043D00006F51B761FFA85FB01F054FAB8F80000C9
:1043E0003168BBFBF0F0DAF8002001443160D7F807
:1043F0003812101ACAF80000A1EB0500C7F83802FD
:1044000004BF03203872002040B201B0BDE8F08F35
:10441000D4F8D40204EB8000D0F8C00280B190F848
:104420006112042300EBC10282F8403211230131F2
:10443000A2F84432CAB2043A18BF0A4680F8612290
:10444000FF2040B201B0BDE8F08F00002DE9F04739
:104450008246D0F8D4020AEB8000D0F8C062002E69
:1044600052D006EB011505F51979D5E99B23B9F86A
:104470000040D0F8C40203FB04F7B7F5007F28BF63
:104480004FF40077D0F814C0B7FBF4F306F110082E
:1044900008464146E047B0F1FF3F1DDDB9F8000096
:1044A00005F51B71BAB2B2FBF0F20B6805F51C758D
:1044B0002C6813440B60A11AD6F838222960A2EBAD
:1044C0000702C6F8382223D1504600210024FFF706
:1044D000D1F860B2BDE8F087DAF8D4020AEB8000C8
:1044E000D0F8C00280B190F86112042300EBC10241
:1044F00082F8403203230131A2F84432CAB2043AAE
:1045000018BF0A4680F86122FF2460B2BDE8F08738
:1045100001FB00F340F20D00C2F2000001785046AA
:104520004246B3F5007F28BF4FF4007301F0D2F884
:10453000002460B2BDE8F087D0F8D41200EB81000F
:10454000D0F8C002002808BF704790F861C200EBA5
:10455000CC0181F84022002281F8443281F84522C2
:104560000CF10101CAB2043A18BF0A4680F8612270
:104570007047000080B5024691E80950506293628E
:1045800008694EEA0C0318434969D36A084323F0CB
:10459000F70101430020D16280BD0000006800F0F7
:1045A00003007047084440697047000010B5844616
:1045B000DDE90240114319432143DDF810E00843CF
:1045C000DCF8041047F6FF6240EA0E009143014315
:1045D0000020CCF8041010BD0146002200200A6023
:1045E000704700000146032200200A607047000067
:1045F000D0F8800070470000096802460020C2F829
:10460000801070478160C36840F2774161F30B030B
:10461000372141F28832C36000F04CBA41F00041CA
:1046200041F480118160C16840F2694262F30B017C
:10463000C16040F24801C2F20001096844F6D35259
:10464000C1F26202A1FB0212510A41F288325143C7
:104650006FF00302514000BF043104BF4FF000402F
:104660007047426B12F0450F02D012F4006214D072
:10467000426B12F0450F02D012F400620DD0426B73
:1046800012F0450F02D012F4006206D0426B12F015
:10469000450FE1D012F40062DED1416B042211F02B
:1046A000040108BFC5228263084670478160C36861
:1046B0004FF48A6161F30B03102141F28832C36029
:1046C00000F0F8B98160C36840F2464161F30B0322
:1046D000062141F28832C36000F0ECB9002181600C
:1046E000C1684FF4806262F30B01C16040F248017F
:1046F000C2F20001096844F6D352C1F26202A1FB82
:104700000212510A41F2883251436FF003025140C4
:10471000043104BF4FF000407047426B120609D4C9
:10472000426B12065CBF426B5FEA026202D4426BCC
:104730001206EDD5C5218163002070474FF4D57175
:104740008160C1684FF4896262F30B01C16040F27D
:104750004801C2F20001096844F6D352C1F2620274
:10476000A1FB0212510A41F2883251436FF0030259
:10477000514000BF043104BF4FF000407047426B0E
:1047800012F0450F02D012F4006214D0426B12F006
:10479000450F02D012F400620DD0426B12F0450FAB
:1047A00002D012F4006206D0426B12F0450FE1D045
:1047B00012F40062DED1416B490709D4416BC9078D
:1047C0000AD1416B49064FF0000108D5402205E0AF
:1047D0000422042102E000BF012201218263084675
:1047E000704700008160C36840F2524161F30B03DF
:1047F000122141F28832C36000F05CB98160C36865
:1048000040F2514161F30B03112141F28832C36040
:1048100000F050B98260C36840F2474161F30B0376
:10482000072141F28832C36000F044B90021816061
:10483000C16840F2C24262F30B01C16040F248011C
:10484000C2F20001096844F6D352C1F26202A1FB30
:104850000212510A41F2883251436FF00302514073
:10486000043104BF4FF000407047426B12F0450F17
:1048700002D012F4006214D0426B12F0450F02D045
:1048800012F400620DD0426B12F0450F02D012F408
:10489000006206D0426B12F0450FE1D012F40062C4
:1048A000DED1416B490707D4416BC90708D1C52147
:1048B00081630020704700BF042181630846704770
:1048C00001218163084670478160C16840F2C94296
:1048D00062F30B01C16040F24801C2F200010968B5
:1048E00044F6D352C1F26202A1FB0212510A41F214
:1048F000883251436FF00302514000BF043104BFBE
:104900004FF000407047426B12F0450F02D012F496
:10491000006214D0426B12F0450F02D012F4006214
:104920000DD0426B12F0450F02D012F4006206D097
:10493000426B12F0450FE1D012F40062DED1416B00
:10494000490707D4416BC90708D1C52181630020FD
:10495000704700BF042181630846704701218163CD
:104960000846704700218160C36840F2734161F3DB
:104970000B03332141F28832C36000F09BB8000082
:104980008160C36840F24D4161F30B030D2141F298
:104990008832C36000F08EB800228260C26840F2A4
:1049A000434363F30B02C26040F24802C2F20002CA
:1049B000126844F6D353C1F26203A2FB03235A0ADE
:1049C00041F288335A436FF003035A40043204BF64
:1049D0004FF000407047436B13F0450F02D013F4C3
:1049E000006314D0436B13F0450F02D013F400633F
:1049F0000DD0436B13F0450F02D013F4006306D0C3
:104A0000436B13F0450FE1D013F40063DED1426B2A
:104A100052071BD4426BD2071CD10269D2B2032ABF
:104A20001CBF01207047C5228263406910F4604FAB
:104A300014D0410444BF4FF40050704700044FF4B9
:104A4000805158BF4FF4803108467047042181637C
:104A5000084670470121816308467047000C0880B2
:104A60000020704700218160C36840F24C414EF243
:104A7000001261F30B03C0F2F5520C21C36000F089
:104A800019B800008160C36840F2594161F30B031B
:104A9000192141F28832C36000F00CB88160C3680C
:104AA0004FF48B6161F30B03182141F28832C3602C
:104AB000AFF3008040F24803C2F20003D3F800C015
:104AC00044F6D353C1F26203ACFB033C03464FEA06
:104AD0005C205043002800F09D805A6B12F0450F77
:104AE00002D012F400621DD0012800F093805A6BAE
:104AF00012F0450F02D012F4006213D0022800F029
:104B000089805A6B12F0450F02D012F4006209D06E
:104B10000438421C7ED05A6B12F0450FDAD012F4E2
:104B20000062D7D1586B400742BF0420986370479A
:104B3000586BC0071EBF012098637047C52098635B
:104B40001869C0B288421CBF0120704758694EF2F4
:104B50000801CFF6FF51084204BF0020704700282B
:104B600044BF4FF000707047410044BF4020704781
:104B7000810044BF80207047C10044BF4FF4807063
:104B80007047010144BF4FF400707047410144BFBA
:104B90004FF480607047C10144BF4FF4006070471C
:104BA000010244BF4FF480507047410244BF4FF4AC
:104BB00000507047810244BF4FF480407047C102EB
:104BC00044BF4FF400407047410344BF4FF40030EE
:104BD0007047810344BF4FF480207047C10344BF36
:104BE0004FF400207047010444BF4FF48010704719
:104BF000410444BF4FF400107047810444BF4FF498
:104C00008000704700074FF4000058BF4FF4803019
:104C1000704700BF4FF00040704700002DE9F041A1
:104C200088B00C460546FBF735FD0646002128688E
:104C3000019100910821FFF739FD014620B1084696
:104C400008B0BDE8F08100BF296D28680904FFF7AE
:104C5000D9FC01460028F2D14FF0FF300290082025
:104C6000039030200490022005900020069001213E
:104C70002868079102A9FFF77DFC2868FFF772FEFC
:104C800001460028DBD10027E8460BE0FFF7B0FC27
:104C900048F827000137FBF7FDFC801B01304FF07F
:104CA0000041CCD02868416B11F02A0F05D1416B2F
:104CB0008902EBD4416B8904EDD4416B09075CBFD9
:104CC000416B5FEA815105D508218163084608B030
:104CD000BDE8F081416B890710D4416B890613D47C
:104CE00040F23A518163DDE9001000BA09BAC4E923
:104CF00000010021084608B0BDE8F081022181636F
:104D0000084608B0BDE8F08120218163084608B05C
:104D1000BDE8F081B0B588B040F694500D46C2F2BF
:104D2000000069461446FDF767FDDDE9060101381C
:104D300028600020218008B0B0BD0000002070472E
:104D400000207047002070470020704710B582B0E7
:104D500040F6945042F21074C2F200000094FDF745
:104D60000BFF18B1032002B010BD00BF40F69454F1
:104D7000C2F200042046FDF751FD0428FAD10020BC
:104D800002B010BD10B582B040F6945042F21074DB
:104D9000C2F200000094FEF70BF818B1032002B035
:104DA00010BD00BF40F69454C2F200042046FDF747
:104DB00035FD0428FAD1002002B010BD7047000074
:104DC000FBF76EBCB0B592B0002443F640000B94E4
:104DD000CDE909440594CDE90344CDE901440094AB
:104DE000C4F202000168022541F0805101600068B0
:104DF00000F080500090009847F200000094C4F248
:104E00000000016841F4404101600068602100F445
:104E1000404000900098052006904FF480300790A5
:104E2000012008904FF480000D9004200E90119006
:104E300006A80C95CDE90F15FCF704FF10B172B66A
:104E4000FEE700BF0F20CDE901054FF48050CDE90A
:104E5000040401A803210394FCF7DEFD10B172B62F
:104E6000FEE700BF12B0B0BD4EF68850CEF2000093
:104E7000016841F4700101607047000010B50446FC
:104E80000068D4E902C22369016921F44051114349
:104E90000161626943EA0C01E3691143C268194385
:104EA00049F20C639A431143C1604169A26921F43C
:104EB000407141F20043114340F48062C4F20103A7
:104EC0009A42416102D1FCF773FE01E0FCF75CFEFF
:104ED000E16963681922B1F5004FA0FB020123D1FB
:104EE0005A00DB0FFBF774F948F21F51C5F2EB11C2
:104EF000A0FB01235A094FF69C73C0F6FF7303F120
:104F0000805302FB0300322303EBC000A0FB01012E
:104F10004FF4F87000EA111000EB0210C1F34211D7
:104F200008442168886010BD9A009B0FFBF750F978
:104F300048F21F51C5F2EB11A0FB01235A094FF6AD
:104F40009C73C0F6FF7302FB0300322303EB0010D7
:104F5000A0FB0101F02000EA511000EB0210C1F3A8
:104F6000431108442168886010BD000080B5D0F866
:104F7000B82252689047002818BF032080BD000067
:104F8000002070470020704780B513460A46002174
:104F900000F0A0FB002080BD80B513460A4600212A
:104FA00000F070FC002080BD10B58021044600F0A8
:104FB00037FC20460021BDE8104000F031BC000065
:104FC00080B50521C0F8941200210022002300F0D2
:104FD00081FB002080BD000080B513460A460221F7
:104FE000C0F8941200214262C0E9053300F04AFC87
:104FF000002080BD80B50421C0F894120021002259
:10500000002300F03FFC002080BD000010B540F2FE
:105010002C14C2F200040A4602A0214600F052F904
:10502000204610BD4D534320436F6E6669670000F4
:1050300040F24C001222C2F200000A8070470000C9
:1050400010B540F22C14C2F200040A4602A0214618
:1050500000F038F9204610BD4D534320496E746569
:10506000726661636500000040F260000422C2F2D3
:1050700000000A807047000010B540F22C14C2F204
:1050800000040A4602A0214600F01CF9204610BD8B
:1050900053544D6963726F656C656374726F6E69AA
:1050A0006373000010B540F22C14C2F200040A46EB
:1050B00002A0214600F006F9204610BD53544D339E
:1050C00032204D6173732053746F72616765000005
:1050D00047F61020C1F6FF70026883684FF01A0C83
:1050E0009B18A1F800C000F0A680B0B54FF0370CB7
:1050F0001A0F0CEB13714068B3F1204F38BF02F167
:10510000300140F2E802C2F20002917019014FF042
:10511000000E0CEB117582F803E0C3F30364B1F1E8
:10512000204F38BF04F13005190215710CEB1175D1
:1051300082F805E0C3F30354B1F1204F38BF04F106
:105140003005190395710CEB117582F807E0C3F374
:105150000344B1F1204F38BF04F130051904157232
:105160000CEB117582F809E0C3F30334B1F1204F61
:1051700038BF04F13005190595720CEB117582F8F2
:105180000BE0C3F30324B1F1204F38BF04F1300525
:1051900019061573C3F303140CEB1175B1F1204F0D
:1051A0004FEA037103F00F0382F80DE038BF04F1FA
:1051B000300503F13704957382F80FE0B1F1204F09
:1051C00038BF03F13004010F0CEB1073147482F834
:1051D00011E0B0F1204F38BF01F1300301010CEBB9
:1051E0001174937482F813E0C0F30363B1F1204F9C
:1051F00038BF03F1300401021475C0F303530CEB04
:105200001174B1F1204F4FEA003182F815E038BF38
:1052100003F130040CEB1173947582F817E0C0F3BE
:105220000340B1F1204F38BF00F13003137682F80C
:1052300019E0BDE8B04040F2E800C2F2000070475B
:10524000B0F802C003789C459CBF0020704780B531
:1052500008E000BF82788A4208BF80BD73449AB2DA
:1052600062452DD290F800E070444278052A02D1C0
:1052700082788A4225D073449AB2624520D290F84F
:1052800000E070444278052A02D182788A4218D020
:1052900073449AB2624513D290F800E070444278A9
:1052A000052A02D182788A420BD073449AB26245B1
:1052B00006D290F800E070444278052ACAD0CDE7C3
:1052C000002080BD002808BF704710B503783BB3AD
:1052D00000F1020EF44600BF1CF8013C5BB19CF8E3
:1052E000003043B19CF801302BB19CF802300CF136
:1052F000040C002BF0D14FF0000C00BF1EF8013C55
:1053000093B19EF800309BB19EF80130A3B19EF896
:1053100002300CF1040C002B0EF1040EEED10DE066
:105320004FF0000C0AE000BF4CF0010C06E000BF9B
:105330004CF0020C02E000BF4CF0030C5FFA8CFC56
:10534000022303EB4C03138003220B704A7090F886
:1053500000E0BEF1000F2ED0841C02224FF0000CA2
:10536000D3B201F803E043F0010301F803C014F8DD
:10537000013C03B3901CC0B20B5440F0010001F893
:1053800000C02378BBB1101DC0B20B5440F0010027
:1053900001F800C0637873B1901DC0B20B5440F0A7
:1053A000010001F800C094F802E00832BEF1000FDD
:1053B00004F10404D4D1BDE810407047002804BFB4
:1053C000032070470023C0F8B832C0F8C432002967
:1053D000C0F8D03218BFC0F8B412012180F89C1276
:1053E000027000F0EDB8000080B5D0F8C802FBF7FD
:1053F000C9FA40F20032C100C0F2013222FA01F1D2
:10540000032888BF0321C8B280BD000080B5D0F852
:10541000C802FBF78FFA40F20032C100C0F201323D
:1054200022FA01F1032888BF0321C8B280BD000021
:10543000B0B5044691B194F89C02032853D1D4F836
:10544000B8024269002A4ED00020C4F8D402204697
:105450009047002808BF0020B0BD00BFD4F89402D8
:10546000022839D1A069218C88420FD9421A606A7A
:10547000A261014420466162FFF78EFD20460021B3
:105480000022002300F026F926E000BF10D1616958
:1054900081420DD3D4F89802814209D220460021DE
:1054A00000220025FFF778FDC4F89852E6E700BF18
:1054B00094F89C02032808D1D4F8B802C16821B13D
:1054C0000020C4F8D402204688472046802100F0FE
:1054D000A7F92046FFF774FD94F8A00200281CBF2E
:1054E000002084F8A0020020B0BD000010B50446E2
:1054F00081B194F89C02032824D1D4F8B8028269BF
:1055000002B30020C4F8D40220469047002808BF08
:10551000002010BDD4F89402032813D1D4F8580108
:10552000B4F8602190420FD9D4F86411801A114464
:10553000C4F85801C4F86411904288BF024620465E
:10554000FFF722FD002010BD94F89C02032808D12B
:10555000D4F8B802016921B10020C4F8D402204671
:1055600088472046FFF746FD002010BD0020704709
:10557000012180F89C12D0F8B812002904BF002045
:10558000704780B54A6801799047002818BF03200A
:1055900080BD000080B5D0F8C802FBF727FA40F2C2
:1055A0000032C100C0F2013222FA01F1032888BFA3
:1055B0000321C8B280BD0000D0F8C802FBF734BA9E
:1055C000017809B10020704710B540F69001C2F291
:1055D0000001C1F8E004C0F8C8124FF0A040086014
:1055E000042008714FF40070C8800220C1F809003F
:1055F0000020C8810846FBF779FF002818BFFAF79A
:1056000069FE40F69004C2F2000420468021FBF7B8
:1056100001F9204600214022FBF700F92046012134
:105620008022FBF7FBF8BDE8104000207047000027
:105630004AB2D0F8C80201F07F0101EBC10100EBD2
:10564000810000F25621002A48BF00F116010878B7
:1056500070470000D0F8D42200EB8202D2F8B822C2
:10566000002A04BF0320704790F89C32032B05D119
:10567000126A1AB180B59047002080BD00207047A3
:10568000D0F8D42200EB8202D2F8B822002A04BF5C
:105690000320704790F89C32032B05D1526A1AB14F
:1056A00080B59047002080BD0020704780B59446AB
:1056B000D0F8C8021A466346FBF7C0F940F2003240
:1056C000C100C0F2013222FA01F1032888BF032190
:1056D000C8B280BD80B5D0F8C802FBF7E5F940F24A
:1056E0000032C100C0F2013222FA01F1032888BF62
:1056F0000321C8B280BD0000F0B581B001260025AD
:1057000080F89C62C0F8945204464560D0F8B80214
:10571000C4F8A45284F8A05240B1426832B1204685
:10572000002190470546002818BF03252046002188
:10573000002240234027FFF7B9FF204680210022A6
:10574000402384F86361A4F86071FFF7AFFF84F829
:1057500023602846278401B0F0BD000090F89C1219
:10576000042904BF90F89D1280F89C120020704715
:1057700090F89C12032908D1D0F8B81229B1C96950
:1057800019B180B58847BDE880400020704700000F
:10579000024600201174704780B5D0F8C802FCF7AB
:1057A00037F840F20032C100C0F2013222FA01F1B2
:1057B000032888BF0321C8B280BD0000B0B500F245
:1057C000AA250446284600F0F1F90120C4F8940205
:1057D00094F8AA02B4F8B02200F01F010229C4F81C
:1057E000982209D001290DD091B920462946BDE85B
:1057F000B04000F013BA00BF20462946BDE8B040D3
:1058000000F0B4BB20462946BDE8B04000F054BCCF
:1058100000F080012046BDE8B04000F001B8000073
:1058200080B5D0F8C802FBF761F940F20032C10040
:10583000C0F2013222FA01F1032888BF0321C8B265
:1058400080BD000080B5D0F8C802FBF7FDFF40F234
:105850000032C100C0F2013222FA01F1032888BFF0
:105860000321C8B280BD0000014690F89C020422CA
:1058700004281CBF91F89C0281F89D02002081F849
:105880009C22704780B5D0F8C802FBF76DF940F252
:105890000032C100C0F2013222FA01F1032888BFB0
:1058A0000321C8B280BD000080B5FDF75DFD00207A
:1058B00080BD000080B5FDF7A9FD002080BD00007F
:1058C00070B540F20C06C2F2000671780446FFF78C
:1058D0009DFD7078002500F00F0000EB800004EBC8
:1058E000800080F8635131782046FFF78FFDD4F8AF
:1058F000D402317804EB8000D0F8C002002801F017
:105900000F0000EB800004EB800080F8235010D0E3
:105910002046FDF74BFED4F8D40204F5307656F855
:10592000200000F007FCD4F8D40246F82050C4F858
:10593000BC52002070BD0000014640F2BC000A22AB
:10594000C2F200000A80704770B540F29C06C2F2B5
:105950000006044630468121FFF772FC05463046BA
:105960000121FFF76DFC002D1CBF4021A9800028FC
:105970001CBF4021818040F29C002021C2F2000027
:10598000218070BD70B540F29C06C2F2000604464C
:1059900030468121FFF754FC054630460121FFF7D0
:1059A0004FFC002D1CBF4FF40071A98000281CBFC4
:1059B0004FF40071818040F29C002021C2F200006F
:1059C000218070BD70B540F29C06C2F2000604460C
:1059D00030468121FFF734FC054630460121FFF7B0
:1059E0002FFC002D1CBF4021A98000281CBF402196
:1059F000818040F29C002021C2F20000218070BD15
:105A0000F0B581B004464FF4217000F095FBD4F856
:105A1000D41204EB810101F5307188B340F20C0619
:105A20000860C4F8BC02207CC2F2000671784025F0
:105A3000002808BF4FF40075204602222B46FFF7CE
:105A400035FE7078012700F00F0000EB800004EBBA
:105A5000800080F863713178204602222B46FFF7E0
:105A600025FE307800F00F0000EB800004EB800092
:105A700080F823702046FDF7A5FD002001B0F0BDA1
:105A800000200860022001B0F0BD000000290FBF17
:105A90000320D0F8D42200EB8200C0F8C41218BF53
:105AA0000020704770B582B00446D0F8D4020D468D
:105AB00004EB8000D0F8C0620021002EADF8061083
:105AC00000F07080297811F060021DD0202A65D185
:105AD0006A7849B2FF2A2DD0FE2A5FD16A88002A4F
